:020000040800F2
:10000000783000208502000823560008154F0008AC
:1000100021560008912E0008036600080000000029
:100020000000000000000000000000001D5C00084F
:10003000452F000800000000615A00081F5D0008FD
:100040009F0200089F0200089F0200089F0200080C
:100050009F0200089F0200089F020008472F000827
:100060004D2F0008532F0008592F00089F02000849
:10007000952E00089F0200089F0200089F020008BA
:100080009F0200089F0200089F0200089F020008CC
:100090009F0200089F0200089F0200085F2F0008CF
:1000A000DD5D00089F0200089F0200089F02000813
:1000B0009F0200089F0200089F0200089F0200089C
:1000C0009F0200089F0200089F0200089F0200088C
:1000D0009F0200089F0200089F0200089F0200087C
:1000E0009F0200089F0200089F0200089F0200086C
:1000F0009F0200089F0200089F0200089F0200085C
:100100009F0200089F0200089F0200089F0200084B
:100110009F0200089F0200089F0200089F0200083B
:100120009F0200089F0200089F0200089F0200082B
:100130009F0200089F0200089F0200089F0200081B
:100140009F0200089F0200089F0200089F0200080B
:100150009F0200089F0200089F0200089F020008FB
:100160009F0200089F0200089F0200089F020008EB
:100170009F0200089F0200089F0200080000000084
:100180009F0200089F02000800F002F800F06AF8E1
:100190000AA090E8000C82448344AAF10107DA45E2
:1001A00001D100F05FF8AFF2090EBAE80F0013F0CA
:1001B000010F18BFFB1A43F0010318471CAC0000E5
:1001C0003CAC00000A444FF0000C10F8013B13F067
:1001D000070408BF10F8014B1D1108BF10F8015BA0
:1001E000641E05D010F8016B641E01F8016BF9D193
:1001F00013F0080F1EBF10F8014BAD1C0C1B09D1EA
:100200006D1E58BF01F801CBFAD505E014F8016B5B
:1002100001F8016B6D1EF9D59142D6D370470000ED
:100220000023002400250026103A28BF78C1FBD8FF
:10023000520728BF30C148BF0B6070471FB50AF096
:10024000E5FC00F06FFC04000020002109F07AFFBB
:10025000401C60600020002109F05EFFE0601FBDCF
:1002600010B510BD00F0A0FE1146FFF7E7FF09F042
:10027000EDFC01F0FDF803B4FFF7F2FF03BC01F061
:1002800063F900000948804709480047FEE7FEE798
:10029000FEE7FEE7FEE7FEE7FEE7FEE7FEE7FEE736
:1002A00004480549054A064B70470000B95D00083F
:1002B00089010008782A002078300020782C00205E
:1002C000782C002053EA020C00F069802DE9F04BF5
:1002D0004FF00006002B1FBFB3FA83F503FA05F4B5
:1002E00024FA05F65E4012BF1643B2FA82F502FA0E
:1002F00005F4C5F120051EBF22FA05FC44EA0C04F2
:10030000203556EA044C4FEA144418BF641C4FF0E1
:1003100000084FF00009904271EB030C39D300291B
:1003200019BFB1FA81F701FA07F6B0FA80F700FABF
:1003300007F6C7F120071EBF20FA07FC46EA0C06A5
:100340002037B6FBF4FCA7EB0507103F07F01F0BA7
:10035000CBF120060CFA0BFB2CFA06F644BFB34691
:100360000026202FA4BF5E464FF0000B5BEA060C70
:1003700008BF4FF0010B19EB0B09ABFB027C48EBFC
:100380000608C01B06FB02CC0BFB03CC71EB0C0177
:10039000C1E70B46024641464846BDE8F08B13B51F
:1003A0004FF000004FF00001AFF30080BDE81C40AB
:1003B000704700000FB400B58DB010A909900091EE
:1003C0000B904FF0FF300A9000200C9006487844C4
:1003D0000690064878446A4607900F9909A800F0ED
:1003E00071FB0DB05DF814FB130700002B07000034
:1003F00040EA0103024630B59B0710D14FF00134AB
:1004000000E008C208C91D1B9D4315EAC41FF8D0AF
:1004100013F0FF0102F8011B0DD01B0AF8E711F8D9
:10042000013B002B02F8013B05D011F8013B002BEA
:1004300002F8013BF3D130BD032A40F2308010F0C6
:10044000030C00F0158011F8013BBCF1020F62446F
:1004500098BF11F801CB00F8013B38BF11F8013B00
:10046000A2F1040298BF00F801CB38BF00F8013BAD
:1004700011F0030300F02580083AC0F0088051F81D
:10048000043B083A51F804CBA0E80810F5E7121D28
:100490005CBF51F8043B40F8043BAFF30080D20747
:1004A00024BF11F8013B11F801CB48BF11F8012B13
:1004B00024BF00F8013B00F801CB48BF00F8012B36
:1004C000704710B5203AC0F00B80B1E81850203AC0
:1004D000A0E81850B1E81850A0E81850BFF4F5AFE4
:1004E0005FEA027C24BFB1E81850A0E8185044BF6E
:1004F00018C918C0BDE810405FEA827C24BF51F8DB
:10050000043B40F8043B08BF7047D20728BF31F8CE
:10051000023B48BF11F8012B28BF20F8023B48BF1F
:1005200000F8012B70474FF000020429C0F0128040
:1005300010F0030C00F01B80CCF1040CBCF1020F96
:1005400018BF00F8012BA8BF20F8022BA1EB0C016B
:1005500000F00DB85FEAC17C24BF00F8012B00F861
:10056000012B48BF00F8012B70474FF0000200B587
:10057000134694469646203922BFA0E80C50A0E8C6
:100580000C50B1F12001BFF4F7AF090728BFA0E874
:100590000C5048BF0CC05DF804EB890028BF40F840
:1005A000042B08BF704748BF20F8022B11F0804F82
:1005B00018BF00F8012B7047704770477047000064
:1005C0002DE9FF4F06468BB00878FF2806D0491C5E
:1005D0002D2805D000244FF0000908E000200CE091
:1005E0000124F8E709EB8903491C00EB430908786B
:1005F000FF28F7D114B1C9F1000081461078002519
:100600002C46AA4629462D2801D02B2804D1521C5D
:100610002D2813D0002082468B461078FF280FD05B
:100620004FF0000C0A21521CA5FB017804FB01814C
:1006300005FB0C11C5194BEB0104EEE70120EAE7BD
:10064000002108464FF00000BAF1000F02D000EB85
:1006500080004008C0F38157012F01DD4FF0FF37C4
:100660000E9955EA040009EB01080BD04FF002097E
:1006700018F5FA7F16DA4FEACA70002F706008DDAD
:10068000012007E04FEACA70C6E900B00FB0BDE82C
:10069000F08F0020306000F049FAC0F80090182177
:1006A000084616E0B8F5FA7F18DD002F02DAF748A1
:1006B000784401E0F6487844D0E90010C6E900101B
:1006C00040EACA70706000F031FAC0F8009014215E
:1006D00008460FB0BDE8F04F0AF0A2BA0021084664
:1006E0004FF00000B8F10001099002DAC7F10002F2
:1006F00000E03A4601DAC8F1000106A800F0DEFB8E
:1007000006AB93E8070003AB83E8070044F23E0022
:100710005BEA04010090584604D144F21E012C46C5
:100720005D460091210C0904014306D1009924047F
:1007300044EA15442D041039009104F07F4101432F
:1007400006D10099240244EA15642D02083900916B
:1007500004F07041014306D10099240144EA157464
:100760002D01091F009104F04041014306D1009979
:10077000A40044EA9574AD00891E009104F0004184
:10078000084304D100986D196441401E00904FF059
:1007900001033A466846B8F1000FCDE9014503A9C7
:1007A00002DD01F064F901E001F037F9BAF1000F60
:1007B00004460D4601D084F00044002108464FF065
:1007C0000000099940F2FF77484010F00C0F07D164
:1007D00024F00040284303D0C4F30A50B84212D199
:1007E00000F0A4F9C0F80090C4F30A50B8420AD14E
:1007F000A8487844D0E90010C6E9001004F0004190
:100800000843706042E7C6E900543FE72DE9FF4F17
:100810001F464FF0000A4FF0FF38454691B0D7E928
:100820000146CDF83CA000F07DF9C0680168405C4D
:100830001090B96912986D1C8847396A81468847BB
:100840000028F6D1B9F1FF3F0AD0002E24F4D0647D
:1008500011DDB9F12B0F08D0B9F12D0F0BD102E04A
:10086000404615B013E744F48064B96912986D1CD2
:100870008847761E8146600504A901D52D2000E039
:100880002B20002E01F1010B0DF130088DF8100026
:100890003FDDB9F1690F08D0B9F1490F05D0B9F1C1
:1008A0006E0F02D0B9F14E0F1CD13B4601A8009546
:1008B00080E85002DDE912126FF002000AF017FA28
:1008C000C11CCED10EE0B96912986D1C88478146D3
:1008D0001398761E44F4007405600F98401C002E97
:1008E0000F9016DDB9F1300FEDD0B9F1780F02D0CD
:1008F000B9F1580F0DD10F9801280AD13B46CDE927
:100900000054DDE91212001F02960AF0EEF9C11C34
:10091000A7D1109989453ED144F0800406E013998F
:10092000681CAAF1010A44F400740860B9696D1CDE
:100930001298761E884730288146F0D02BE0109917
:10094000894505D1200603D4761E44F0800418E0C2
:10095000484608F094F808B3761E0DF123018B4544
:1009600044F4007408D2A9F130000BF8010B200602
:1009700007D5AAF1010003E0200602D40AF1010024
:100980008246A00502D51399681C0860B9691298BF
:100990006D1C88478146002ED1DC53E0002E51DDCE
:1009A000B9F1650F02D0B9F1450F4BD1A00549D57A
:1009B000B9696D1C1298761E24F440748847002E85
:1009C00081460CDD2B2804D0B9F12D0F07D144F45A
:1009D0008074B96912986D1C8847761E8146E005BF
:1009E00001D52D2100E02B2108F8011BCDF8008056
:1009F00021E0761E0DF13901884544F400740CD2D3
:100A0000A9F1300010F0FF0088F8000002D1009931
:100A1000884509D908F1010806E0E00501D51E481E
:100A200001E042F20F708246B96912986D1C884746
:100A3000814613980560002E04DD484608F01FF833
:100A40000028D6D1F96912988847FF2053468BF8C1
:100A5000000088F8000000200A900B9004AA0CA95E
:100A60000AA8FFF7ADFDA00502D46FF00100F8E67B
:100A700014F0240F12D0E0071CD13868DDE90A1207
:100A8000031D3B600068C0E9001213E04CA70000A2
:100A90003EA7000002A60000F1D8FFFF0AA96846A1
:100AA00007F0DAFFE00705D13868009A011D3960C8
:100AB000006802602846D4E6026811441378016099
:100AC00018467047D1600549794451610449794419
:100AD000116200211161114600F036B8EDFFFFFFF1
:100AE00063000000426842B1016811F8013B23B184
:100AF000521EC0E90012184670470121C160881ECD
:100B0000704742685AB1C368016843B983688B4231
:100B100005D0491E521CC0E90012002070474FF05A
:100B2000FF30704700487047342A00200048704763
:100B3000142A002010B5044600F05CFA0068005D3D
:100B400000F0010010BD00002DE9F34F4FF0000A46
:100B50000C4656468DB001200C9001F10C000B9014
:100B600062690B9801219047051E2DD0252D2CD0B0
:100B7000216A8847C0B162690B9801219047216AB8
:100B800088470028F7D16269411E0B98904700E022
:100B9000761CA1690D988847216A88470028F7D1FB
:100BA000E1690D988847DBE7A1690D988847A8425D
:100BB000074601D1761CD3E7E1690D9888477F1C71
:100BC00002D1BAF1000F6FD06BE162690B98002778
:100BD0003D46394690472A2804D162690B98012185
:100BE00090470125DFF8D08262690B980121904778
:100BF000A0F130010A290AD24745E5DC07EB87015D
:100C000000EB4107303FDFD445F01005ECE7E90683
:100C100001D46FF000476C280AD04C2814D0682803
:100C200015D06A280DD074281CD07A281AD01DE05F
:100C300062690B98012190476C2802D045F00405A9
:100C400014E045F002050DE045F020050AE0626978
:100C50000B9801219047682802D045F0080505E06F
:100C600045F4006562690B9801219047C4E901577A
:100C700065283DD019DC58287AD00CDC452837D0BF
:100C800004DC252826D041289ED131E046282FD0EB
:100C9000472899D12CE05B2877D0612828D0632899
:100CA0007CD0642823D15AE0F6E06F2848D008DCD5
:100CB00066281DD067281BD0692821D06E2816D140
:100CC00027E0702845D0732868D0752847D0782849
:100CD0000DD14DE0A1690D988847252805463FF4C0
:100CE00069AFE1690D9888476D1C3FF46AAFD8E0A1
:100CF0000D9923466A466FF0010009F0F4FFC5E044
:100D000045F0400023464FF000026060A80736D44B
:100D10003EE0E8077FF447AF2068011D21600068CE
:100D2000290501D506701BE7290701D5068017E7BD
:100D3000A90703D5F117C0E9006111E706600FE7C5
:100D400045F0400023464FF008026060A80716D423
:100D50001EE040F60E0125EA0100606016E045F055
:100D6000400023464FF00A026060A80707D40FE056
:100D700045F040006060A80708D5234610220D9971
:100D80006FF00100AFF3008080E007E010222346FF
:100D90000D996FF00100AFF3008077E04FF000098C
:100DA00063284F46C8464B46CB4602D05B2806D048
:100DB00038E0E80601D40120A060012732E0626932
:100DC000D4F80CB00B98012190475E2807D14FF062
:100DD000010949466269D4F80CB00B989047216923
:100DE00039B900210A4603AB43F82120491C0829E0
:100DF000FADBD8B3216949B308F1010862690B989D
:100E0000012190475D28F4D1B9F1000F09D00020ED
:100E100003A951F82020D24341F82020401C082883
:100E2000F7DB03AB2069002820794FEA40701ED021
:100E30005B462246CDF80080CDE901970D99002848
:100E40006FF0010020DAAFF300801FE0C11703AAA2
:100E500000EBD1614B1121F01F0102EB8302411A1B
:100E600013680120884003431360C7E719E00D9918
:100E7000224600286FF00100009702DAAFF30080ED
:100E800004E0AFF3008001E0AFF3008000280ADA4D
:100E9000401C06D10C9820B14FF0FF300FB0BDE8D8
:100EA000F08F5046FAE7E90701D10AF1010A06443A
:100EB00000200C9054E60000CCCCCC0C2DE9F0477F
:100EC000814616468AB0354878440DC88DE80D0035
:100ED00032487844801C03AC0DC884E80D0041F60C
:100EE0009B300844372190FBF1F290FBF1F5A5F11E
:100EF000800501FB12041B3C02D56442012000E086
:100F00000020DFF898A080460027FA44AAF1BE0A24
:100F10000EE0E0070AD03246684607EB470101239E
:100F20000AEB810100F08EFD8DE8070064107F1C44
:100F3000002CEED1194F7F44AE3F19E0E80715D0E1
:100F400007EB04100DF1180A90E80E008AE80E0075
:100F5000C068F04201D1981908903246012306A9D1
:100F600003A800F06FFD03AB83E807006D10641C5D
:100F7000002DE3D14FF0010332466946B8F1000F6E
:100F800003A802D000F034FD01E000F05BFDC9E9E8
:100F90000001C9F808200AB0BDE8F087F49E0000FF
:100FA00000487047142A00207546FFF7F9FFAE4647
:100FB00005006946534620F00700854618B020B565
:100FC000FFF76EF9BDE820404FF000064FF0000734
:100FD0004FF000084FF0000B21F00701AC46ACE8E1
:100FE000C009ACE8C009ACE8C009ACE8C0098D464E
:100FF0007047000010B5FFF795FD001D10BD00BF44
:101000004591000010B5FFF791FD006810BD10B5C7
:101010000446FFF78BFD046010BD00002DE9FF4F73
:101020001F464FF03C0987B04FF00042DDE9141035
:1010300001F10108DDF858A002EA405003900020B9
:1010400005908346054604460490B969461E0898F3
:101050008847AAF1010A0290BAF1000F3BDD02981D
:101060002E2815D0102100F060FA00282EDB4FF05A
:10107000010B0599014317D0B9F1000F0BDB4A466C
:10108000C11700F03FFA05430C43A9F1040905E03C
:10109000012004900BE008B145F001050120059006
:1010A000049820B9361D02E0049800B1361FB969D2
:1010B000089808F101088847BBF1000FAAF1010A5E
:1010C0000290C9D00999C1F80080C5E7029870283C
:1010D00008D0502806D0F96908988847BBF1000F5E
:1010E00014D04FE0002002900120BBF1000F0490CB
:1010F00009D0B969089808F101088847AAF10109DF
:10110000B9F1000F07DCF969089888476FF0010012
:101110000BB0BDE8F08F2B2804D02D280CD14FF058
:10112000FF300490B969089808F101088847A9F1CF
:101130000109B9F1000FE6DD411CE4D00A2100F0FD
:10114000F4F90028DFDB029908F1010801EB8101C5
:1011500000EB41000290B969089888470A2100F025
:10116000E4F9099AA9F10109B9F1000FC2F8008068
:1011700001DD0028E7DAF9690898884704990298A0
:1011800000FB016655EA040004D004F04041090068
:1011900002D006E0039898E0A40044EA9574AD00FC
:1011A000B61E04F00041080002D16D196441761E9C
:1011B000159810F0240F03D04FF00B095C4803E0A2
:1011C0004FF028096FF07D008246564507DAAAEBFA
:1011D00006018944B9F1410F01DD4FF041090120B9
:1011E0000021A9F1010200F08DF9024628400B46CA
:1011F0002140084301D0012100E00021501E02914E
:1012000043F1FF3128402140084301D0012000E094
:1012100000200299834651EA0B014FD00021084675
:101220004FF00000039900F4400039B100EB80005A
:101230004FF4400100EBD07001EA600080150128F6
:1012400002DD4FF0FF3000E013D0401C36D0029892
:1012500060B3BBF1000F0CD14A460120002100F021
:1012600051F928402140084301D0012000E000202E
:10127000E0B101204A46002100F044F9034640193C
:101280000A4661412D1A8C4111D3B9F1400F09DD95
:10129000159810F0240F02D0AAF1340603E0AAF149
:1012A000170600E0761C00254FF0004406E05B1EA8
:1012B00042F1FF3220EA030521EA0204CAF10100EB
:1012C000B04206DA1B4903980843019000200090C1
:1012D0000EE0039AC4F3D321E80A0A43164940EA10
:1012E00044500A433146CDE90002684607F0BDFB91
:1012F000159810F0240F0BD01598C00715D1386839
:10130000DDE90012031D3B600068C0E900120CE03B
:1013100002A8694607F0A0FB1598C00705D13868F8
:10132000029A011D3960006802604046F0E6000044
:1013300002FCFFFF0000F07F0000F03F2DE9FF4FAF
:1013400092461D4685B04FF00041DDE9124BDDE9C4
:1013500014727F1E01EA4B50414940F0FF4940EAB8
:101360000108002122F020004928049102D04E28D3
:1013700028D04CE03BA0012607C88DE80700A969EA
:101380000698641C88477F1E014606D41DF8060097
:1013900018B121F0200181420BD0E96906988847F5
:1013A000032E34D0082E32D06FF0010009B0BDE812
:1013B000F08F761C032E01D0082EE0D1601CCAF8F5
:1013C0000000DCE7A9690698641C88477F1E2AD4C0
:1013D00020F02000412826D1A9690698641C88477E
:1013E0007F1E20D420F020004E281CD1A969069829
:1013F000641C88477F1E48F4002849F48009CAF815
:10140000004001D4282806D0E969069888475FEA99
:10141000CB7012D022E0A9690698641C88477F1E11
:1014200001D4002803DAE96906988847BCE729282F
:10143000F1D1641CCAF80040E9E71BF0240F07D083
:1014400028680499031D2B600068C0E9001805E0B6
:101450002868021D2A600068C0F800902046A5E7B1
:101460000000F07F494E46494E49545900000000A3
:1014700010B50446AFF300802046BDE81040FEF7EB
:10148000FABE00004FF0013C50F8042B51F8043B29
:101490009A4221D1A2EB0C03934313EACC1317D148
:1014A00050F8042B51F8043B9A4215D1A2EB0C03DF
:1014B000934313EACC130BD150F8042B51F8043B9F
:1014C0009A4209D1A2EB0C03934313EACC13DBD06D
:1014D0004FF00000704700BFD01A01BAB1FA81F195
:1014E00001F0180122FA01F0CB40C1F12001DBB27A
:1014F000C0B2C01A2CFA01F3D11A914311EAC311F8
:10150000E6D17047B2F120030AD5C2F1200301FAF7
:1015100002F120FA03F300FA02F041EA03017047F6
:1015200000FA03F14FF0000070473A2800D230383B
:1015300020F02002412A01D3A2F13700884201D3D2
:101540004FF0FF307047000001491820ABBEFEE7A6
:1015500026000200704720F07F4C80EA030023F051
:101560007F47ACEB070303F57C5300F0004003F129
:10157000FF032DE980494FEA154B09B44FEA1443A4
:1015800025EA0B4E24EA03480FF2042606EB132744
:1015900049083E785FEA320203FB0667C7F5000799
:1015A00007FB06F64FEA54374FEAD64606F1020625
:1015B00007FB066CCCF1005C4FEA1C472CEA074C99
:1015C00007FB06F40CFB06F504EB15464FEA9616EE
:1015D00034BF00204FF000404FEAD13706FB07FC34
:1015E0004FEA1C4C0CFB0BF7D21B03FB0CF761EB17
:1015F00007010CFB0EF7B0EB074072EB17420CFB38
:1016000008F734BFA2EB0742B2EB074261EB174188
:101610004FEA0C444FEA910706FB07FC4FEA1C4CCB
:101620000CFB0BF7B0EBC74072EB573203FB0CF728
:1016300034BFA2EBC742B2EBC74261EB57310CFBA0
:101640000EF7B0EBC70072EB57720CFB08F734BF14
:10165000A2EBC702B2EBC70261EB5771039F4FEADF
:10166000816141EA921104EBCC044FEAD1374FEA91
:10167000826206FB07FC42EA90124FEA80604FEA62
:101680001C4C0CFB0BF7D21B03FB0CF761EB0701A7
:101690000CFB0EF7B0EB074072EB17420CFB08F7A0
:1016A00034BFA2EB0742B2EB074261EB17414FEAAE
:1016B0008C554FEA910704EB9C2406FB07FC4FEA8C
:1016C0001C4C0CFB0BF7B0EBC74072EB573203FB23
:1016D0000CF734BFA2EBC742B2EBC74261EB573104
:1016E0000CFB0EF7B0EBC70072EB57720CFB08F760
:1016F00034BFA2EBC702B2EBC70261EB577115EB27
:101700004C254FEA816141EA92114FEA82624FEA29
:10171000D13742EA901206FB07FC44F100044FEA7D
:1017200080604FEA1C4C0CFB0BF7D21B03FB0CF741
:1017300061EB07010CFB0EF7B0EB074072EB1742B1
:101740000CFB08F734BFA2EB0742B2EB074261EB98
:10175000174115EB1C154FEA813141EA92414FEADE
:10176000823242EA90424FEA80304FEA0C7644F1EE
:10177000000448EA03434EEA0B484FF0000EB2EB78
:10178000080C71EB030724BF624639464EEB0E0E80
:101790004FF0000B0018524149414BEB0B0BB2EBE1
:1017A000080C71EB03077BF1000B24BF624639463E
:1017B0004EEB0E0E4FF0000B0018524149414BEB1F
:1017C0000B0BB2EB080C71EB03077BF1000B24BF92
:1017D000624639464EEB0E0E51EA020718BF46F03C
:1017E000010616EB0E7655F1000254F1000103D507
:1017F000BDE88901BDE80088BDE88901BDE8004871
:10180000B619524141EB0101A3F1010370478080F9
:101810007F7E7D7C7B7A797877767675747372714A
:1018200071706F6E6E6D6C6C6B6A6A696868676602
:1018300066656464636362616160605F5F5E5E5D94
:101840005D5C5C5B5B5A5A59595858575756565508
:1018500055555454535352525251515050504F4F6A
:101860004F4E4E4D4D4D4C4C4C4B4B4B4A4A4A49BA
:1018700049494848484747474746464645454544FD
:1018800044444443434343424242424141410000B5
:1018900046EA0646A3F570534FEA164646EA425614
:1018A0004FEAD22242EA415210B54FEAD121A3F1C8
:1018B000010300F02FF820F0004000F1020C00F0CE
:1018C000004701EB00501146BCF5006F40EA0700ED
:1018D00000D210BDBAF1000F0AD01CB503B44FF00E
:1018E00004004FF004014FF000000FBCBDE81040B1
:1018F0004FF00001BBF1010FB9BF04484FF0FF31B9
:101900000348002140EA070010BD00BFFFFFEF7F42
:101910000000F07F002B9C4630D477002BD01CB504
:101920004FEA370703B44FF010004FF01001BAF13F
:10193000000F06D0BCF1000FDCBF40F0080040F003
:1019400008014FF000000FBCBDE810400BF1010B87
:10195000BBF1010F08BF5FEA170722BF12F10102B6
:1019600011F101014FF0004143F1000300F000408C
:1019700043EA00007047F9D35708D0E746EA064625
:1019800013F1400F4FEA16461FDD13F1200FDFBFA2
:1019900016430A46002120335B42BED0C3F1200724
:1019A00046EA064602FA07F74FEA164646EA0706EF
:1019B000C3F1200722FA03F201FA07F721FA03F133
:1019C0004FF0000342EA0702A7E746EA020646EAAA
:1019D00006464FEA164646EA0106BCBF46EA0646F8
:1019E000360C4FF000034FF000024FF0000194E777
:1019F0002DE9804C9A46934670B491E8380007C8A8
:101A000031EA400C48BF34EA430C03D5FFF7A3FD8D
:101A1000FFF780FFF0BCBDE8008C2DE9804C9A46B2
:101A2000934670B491E8380007C831EA400C48BFCB
:101A300034EA430C03D5FFF78EFDFFF729FFF0BC16
:101A4000BDE8008C2DE9804C9A46934670B491E82D
:101A5000380007C810F0804F08BF13F0804F03D143
:101A600000F01AF8FFF756FFF0BCBDE8008C2DE936
:101A7000804C9A46934670B491E8380007C810F03D
:101A8000804F08BF13F0804F03D100F005F8FFF737
:101A9000FFFEF0BCBDE8008C20F07F4780EA030029
:101AA00023F07F4C07EB0C03A3F57C5300F00040C0
:101AB000A3F1FE0392F0000F00F0B38095F0000F49
:101AC00000F077802DE901494FEA11404FEA1446B2
:101AD00021EA004800FB06FC24EA064708FB06F65C
:101AE00007FB08F800FB07F718EB06484CEB164C11
:101AF0004FEA124B18EB07484FEA15464CEB1740DC
:101B000022EA0B4E0BFB06FC25EA06470EFB06F607
:101B100007FB0EFE0BFB07F71EEB064E4CEB164CBD
:101B20004FF000061EEB074E4CEB174B18EB0B0863
:101B300040F1000018EB0E0B58EB000840F10000DC
:101B40008F1A4FF000013CBFC943661B14BFB5EBB1
:101B5000040C00213CBFC943F61B4FEA17444EEA70
:101B60008E0E27EA04454FEA1C4704FB07622CEA65
:101B7000074C05FB07F70CFB05F604FB0CFC16EB0A
:101B8000074642EB174216EB0C4642EB1C421BEB9E
:101B9000060658EB0202414146EA9E0601D5BDE821
:101BA0000189B619524141EB0101A3F10103BDE8DE
:101BB00001894FEA14454FEA114724EA054621EA14
:101BC000074C05FB07F406FB07F70CFB06F105FBCA
:101BD0000CFC11EB074144EB17444FEA124711EBA1
:101BE0000C4144EB1C4422EA074C05FB07F206FBC0
:101BF00007F70CFB06F605FB0CFC16EB074642EB61
:101C0000174216EB0C4642EB1C456A1854F10001D2
:101C100048BF7047B619524141EB0101A3F10103DE
:101C2000704795F0000F37D04FEA11424FEA144742
:101C300021EA024624EA074C02FB07F106FB07F7FC
:101C40000CFB06F402FB0CFC14EB074441EB1741C0
:101C50004FEA154714EB0C4441EB1C4125EA074CB5
:101C600002FB07F506FB07F70CFB06F602FB0CFC74
:101C700016EB074645EB174516EB0C4645EB1C42A9
:101C8000121951F1000148BF7047B619524141EB9A
:101C90000101A3F1010370474FEA14454FEA1147D0
:101CA00024EA054621EA074C05FB07F106FB07F786
:101CB0000CFB06F24FF0000605FB0CFC12EB074292
:101CC00041EB174112EB0C4251EB1C4148BF7047EE
:101CD000921841EB0101A3F10103704710B52DEDFE
:101CE000028BB0EE408AF0EE608A9FED0B0B51EC58
:101CF000180B53EC102B08F05DFE06D2B0EE480A2C
:101D0000F0EE680ABDEC028B10BD51EC180B08F028
:101D10002FFA41EC100BF5E7000000000000000076
:101D20002DE9F041044601F01DFC0A4F05464FF431
:101D3000807600223146384601F00EFC01F012FC9C
:101D4000401BA042FAD331463846BDE8F04101229B
:101D500001F002BC000C02407047000070B5164C48
:101D6000164E054602462188304601F0F5FB618893
:101D70002A46304601F0F0FBA1882A46304601F0A1
:101D8000EBFBE1882A46304601F0E6FB21892A4632
:101D9000304601F0E1FB61892A46304601F0DCFB68
:101DA000A1892A46304601F0D7FBE1892A46304610
:101DB000BDE8704001F0D0BB1800002000080240D0
:101DC0000349002231F81010024801F0C5BB0000A1
:101DD00018000020000802400349012231F81010C9
:101DE000024801F0B9BB00001800002000080240C2
:101DF00002480068406A00B2704700006405002095
:101E000002480068406A00B270470000F4050020F4
:101E100002490020096848627047000064050020FC
:101E2000024900200968486270470000F40500205C
:101E300010B53C21044802F0D7FBBDE810403C211E
:101E4000024802F0D1BB000064050020F405002028
:101E500070B5294D044655F8240005F01EFA55F8D2
:101E6000240004F033FC55F8240005F047F9234A18
:101E700055F82400511E04F0E2FE204A55F82400D3
:101E8000921E111D04F0DEFE55F82400012104F01D
:101E90007FFF55F824000122002105F027F80122D8
:101EA00055F82400114605F021F855F824004FF4A8
:101EB0008042012105F05BF855F824004FF4001230
:101EC000002105F054F855F8240044F6206105F08F
:101ED00076F855F824001222002105F0C9F855F8CB
:101EE00024000E22012105F0C3F855F82400BDE8B6
:101EF000704005F0BFB800007425002036000020B7
:101F000070B5394C04F67C352146286804F07AFD1A
:101F100020894FF4FA66B0420CD200EE100AA4F108
:101F20007800B8EE400A03F0D5FEBCEEC00A10EE11
:101F3000100A20812C4C68681C34214604F062FD94
:101F40002089B0420CD200EE100AA4F17C00B8EE59
:101F5000400A03F0BFFEBCEEC00A10EE100A20815A
:101F6000214CA8683834214604F04CFD2089B04249
:101F70000CD200EE100AA4F18000B8EE400A03F083
:101F8000A9FEBCEEC00A10EE100A2081164CE868CB
:101F90005434214604F036FD2089B0420CD200EEC4
:101FA000100AA4F18400B8EE400A03F093FEBCEEE0
:101FB000C00A10EE100A20810B4C286970342146AB
:101FC00004F020FD2089B0420CD200EE100AA4F1EA
:101FD0008800B8EE400A03F07DFEBCEEC00A10EEA9
:101FE000100A208170BD0000F81900200349C0EBE1
:101FF000C00001EB8000008970470000F819002044
:102000000849C0EBC00201EB820110B5064A0C463C
:1020100052F8200004F0F6FC2089192801D84FF46A
:10202000FA6010BDF8190020742500202DE9F04752
:10203000DFF880914FF046082DED048B0022082137
:10204000484601F089FADFF870A1002201215046CC
:1020500001F082FA00224021504601F07DFA002270
:102060000421504601F078FA00221021504601F078
:1020700073FA404601F034F901221021504601F074
:102080006BFA404601F02CF94C484D4E00F5936434
:102090004C4D20615227C0F8586180F85C71297955
:1020A00004F072FE2169287981F85C010420FFF7B1
:1020B000CFFE01221146504601F04EFA404601F093
:1020C0000FF9A4F513606060C0F8586180F85C7186
:1020D000697804F059FE6168687881F85C01012034
:1020E000FFF7B6FE01220421504601F035FA4046C2
:1020F00001F0F6F8A4F5C460E060C0F8586180F81B
:102100005C71E97804F040FEE168E87881F85C01F0
:102110000320FFF79DFE01220821484601F01CFA2A
:10212000404601F0DDF8A4F6B8202060C0F8586100
:1021300080F85C71297804F027FE2168287881F8FE
:102140005C010020FFF784FE01224021504601F08F
:1021500003FA404601F0C4F8A4F5F560A060C0F8A9
:10216000586180F85C71A97804F00EFEA168A87827
:1021700081F85C010220FFF76BFE134D9FED138A7F
:10218000DFED138A9FED139A002400BF04EB440097
:1021900005EBC000B0EE481AF0EE680AB0EE490A4E
:1021A00003F08AFD641CE4B2052CEFD3BDEC048B74
:1021B000BDE8F08700040240000C0240DC20002053
:1021C000100500203C000020801900206F12833A87
:1021D0000AD7233C295C8F3D074810B590ED040BCE
:1021E00053EC102B90ED060B51EC100B08F024FC77
:1021F00041EC100B10BD0000F801002070B519482B
:102200002DED028B02F02AFC4FF47A752B46032247
:102210001549144802F024FE134C9FED148B641EE4
:10222000052084ED048B84ED028B84ED068B01F098
:1022300057F82B460322611C0A4802F011FE84ED78
:10224000048B84ED028B84ED068B052001F048F8A9
:10225000BDEC028B2122BDE870400649014802F026
:102260003BBD0000CC060020F9010020000000006A
:10227000000000008029002010B5FFF7BFFFBDE877
:10228000104021220149024802F026BD8029002089
:10229000CC06002010B50420FFF7A8FE1C4C7328C4
:1022A00007DD0320FFF7A2FE822802DD94ED080B74
:1022B00029E00420FFF7A4FE73280EDA00F078F876
:1022C0001448406C90ED000B53EC102B94ED080B70
:1022D00051EC100B08F0B0FB13E00320FFF790FE69
:1022E000822814DA00F0A2FA0A487030406C90EDAF
:1022F000000B53EC102B94ED080B51EC100B07F076
:1023000075FF41EC100BBDE8104000F083B810BD24
:1023100048000020502700202DE9F041214D224F98
:10232000224E2A780446642801DD642407E06FF019
:102330006300844201DA044614E0002C11DD4FF002
:102340008001304601F008F9287840B100222021B0
:10235000304601F001F938684463BDE8F08101229C
:10236000F5E711DA72B14FF0000200BF4FF08001C3
:10237000304601F0F1F82A782021304601F0ECF8DF
:1023800060420CE00122F1E700228021304601F09A
:10239000E3F800222021304601F0DEF80020396801
:1023A0004863DAE748000020AC050020000C02403A
:1023B00010B50020FFF710FD0120FFF701FD0220FE
:1023C000FFF7FEFC0320FFF7FBFC0420FFF7F8FCFF
:1023D0000520FFF7F5FC0620FFF7F2FC0720FFF7CA
:1023E000EFFC0420FFF702FE08F07FF9074CC4E978
:1023F0001601A4F58070006908F077F9C4E91401AA
:10240000BDE81040024803F053B900004801002025
:102410005027002070B502202DED028BB0EE408ACF
:10242000F0EE608AFFF7D8FC0020FFF7C9FC01201E
:10243000FFF7C6FC0320FFF7C3FC0420FFF7C0FC36
:102440000520FFF7BDFC0620FFF7BAFC0720FFF7C9
:10245000B7FC124C84ED1E8BFFF7BEFE84ED1A0B09
:102460000F4803F025F994ED1C0B51EC100B08F00C
:102470000DF9A4F58075E968081AFFF74DFF94ED92
:102480001C0B51EC100B08F001F9E968BDEC028B54
:102490000844BDE8704000F07DB90000480100200C
:1024A0003028002010B504460146154803F0FCF919
:1024B00013482146703003F0F7F911482146E03007
:1024C00003F0F2F921460F4803F0EEF90D482146DA
:1024D000703003F0E9F90B482146E03003F0E4F9ED
:1024E0002146094803F0E0F907482146703003F01F
:1024F000DBF921460448BDE81040703803F0D4B938
:1025000090250020E0260020A02800201D489FEDF7
:102510001E2B264980ED180B80ED1A1B703080EDC4
:10252000180B80ED1A1B703080ED182B9FED182BC7
:1025300080ED1A2B703080ED180B80ED1A1B9FED8B
:10254000160B70309FED161B80ED180B80ED1A1BDB
:10255000703080ED180B80ED1A1B134890ED102B96
:1025600081ED182B90ED123B01F1700081ED1A3BCB
:1025700080ED182B80ED1A3BE03880ED180B80EDD4
:102580001A1B70479025002000000000000034C096
:1025900000000000000034400000000000002EC0D9
:1025A0000000000000002E40C8000020A0280020ED
:1025B0000949886070318860703188607031886046
:1025C0007031886070318860E03188607031886077
:1025D000E039886070470000902500207CB569488C
:1025E00003F018F96748703003F014F96548E030DB
:1025F00003F010F9644803F00DF96348703003F0FC
:1026000009F96148E03003F005F9604803F002F988
:102610005E48703003F0FEF85C48703803F0FAF85A
:10262000584801265A4CC07804F12805CDE90060CD
:1026300004F5987395EC060BA3F10802A2F10801CA
:10264000504802F0EFFF4F482035703004F5A47376
:10265000C078A3F10802CDE900604A48A2F1080160
:1026600095EC060B703002F0DDFF474818357038E6
:1026700004F59873C078A3F10802CDE900604248E0
:10268000A2F1080195EC060B703802F0CBFF3E4832
:1026900004F5A473A3F10802C078A2F10801CDE902
:1026A0000060394895EC060B02F0BCFF3648203537
:1026B000703004F5A873C078A3F12802CDE900605A
:1026C000314894ED1E0B02F1300195EC041B703083
:1026D00002F0A8FF2C4804F5A873E03005F11004BF
:1026E000C078A3F11002CDE90060274802F1200173
:1026F00094EC060BE03002F095FF2448503405F5C9
:102700008873C078A3F10802CDE90060A2F1080146
:1027100094EC060B1D4802F085FF1C4820347030F5
:1027200004F1A803C078A3F10802CDE900601748BE
:1027300095ED1E0BA2F1080194EC041B703002F021
:1027400071FF12482835703804F17803C078A3F17E
:102750000802CDE900600D48A2F1080195EC060BD6
:10276000703802F05FFF1420FFF722FF94ED061B84
:1027700094ED040BFFF7CAFEBDE87C400120FFF793
:1027800091BE000090250020E0260020A028002017
:10279000480000202DE9F041214D224F224E2A7899
:1027A0000446642801DD642407E06FF0630084427E
:1027B00001DA044615E0002C12DD7AB14FF0000278
:1027C0004FF00801304600F0C7FE2A78022130465B
:1027D00000F0C2FE38688463BDE8F0810122EFE7B3
:1027E0000FDA4FF00801304600F0B6FE287830B11D
:1027F00000220221304600F0AFFE60420CE00122D0
:10280000F7E700220821304600F0A6FE0022022150
:10281000304600F0A1FE002039688863DCE7000044
:1028200048000020AC050020000C024010B501203B
:10283000FFF7D2FA0020FFF7C3FA0220FFF7C0FA31
:102840000320FFF7BDFA0420FFF7BAFA0520FFF7CF
:10285000B7FA0620FFF7B4FA0720FFF7B1FA032012
:10286000FFF7C4FB07F041FF074CC4E91801A4F5CA
:102870008070406907F039FFC4E91401BDE81040D9
:10288000024802F015BF000048010020C0270020C8
:1028900010B5FFF735FB0420FFF7A8FB104C2061B3
:1028A0000320FFF7A3FB6061162000F019FDFFF77E
:1028B00027FB0420FFF79AFB20610320FFF796FB1C
:1028C0006061162000F00CFDFFF71AFB0420FFF7F3
:1028D0008DFB20610320FFF789FB606110BD0000C4
:1028E000480000200149C8607047000048000020EF
:1028F00010B50B4801F0AEFC0021094802F02EF89B
:102900000421074802F02AF801221103054800F0CB
:1029100023FEFFF763FE044800218170417010BD63
:10292000AC050020000802404800002070B51E25BC
:102930000F266C424C2806D0522806D0462809D0D3
:1029400042280ED013E0284607E02046FFF7E4FCBB
:1029500028460AE06FF00E042046FFF7DDFC204613
:1029600003E03046FFF7D8FC3046FFF713FF0F2097
:1029700000F0B6FCBDE87040AFF3008010B5002059
:10298000FFF7CAFCBDE810400020FFF703BF0000BE
:102990002DE9F0410520FFF71FFA0020FFF710FA9C
:1029A0000120FFF70DFA0220FFF70AFA0320FFF7D4
:1029B00007FA0420FFF704FA0620FFF701FA0720C0
:1029C000FFF7FEF94620FFF7B1FF1420FFF7A8F943
:1029D0009FED380B394F53EC102B97ED080B51EC52
:1029E000100B07F003FC07F5C075C5E90401344876
:1029F00001F0ACFC642000F073FC00F0B3FD06466F
:102A000032E000BFFFF7E8FB85ED000B2D4802F038
:102A10004FFE95ED020B51EC100B07F037FE4042D4
:102A2000FFF77AFC95ED020B51EC100B07F02EFE30
:102A3000FFF7B0FE95ED040B53EC102B95ED000B5A
:102A400051EC100B07F0F8FF41EC100BFFF746F9C3
:102A50009FED1D1B51EC100B53EC112B07F070FE7A
:102A600002D200F07FFD02E000F07CFD0446001B76
:102A7000642806D200F076FD801B40F6C41188421F
:102A8000C0D3FFF7BBFB0F489FED110B406C80EDEF
:102A9000000B0C487030406C80ED000B094870381A
:102AA000406C80ED000B87ED080BBDE8F041052080
:102AB000FFF786B90000000000E0654048000020F4
:102AC0003C060020A028002000000000000000407C
:102AD00000000000000000002DE9F05F03202DED54
:102AE000028BFFF779F90020FFF76AF90120FFF761
:102AF00067F90220FFF764F90420FFF761F9052068
:102B0000FFF75EF90620FFF75BF90720FFF758F99A
:102B10004620FFF70BFF0320FFF772FA4FF47A7A93
:102B2000962802DA0127564602E0002740F6C4162E
:102B30001420FFF7F5F8DFF82081A8F1800598ED63
:102B4000140B53EC102B95ED080B51EC100B07F008
:102B50004DFB05F5C079C9E904014FF4967000F00A
:102B6000BFFB00F0FFFC834632E000BFFFF734FB01
:102B700089ED000B394802F09BFD99ED020B51ECF9
:102B8000100B07F083FD4042FFF7C6FB99ED020BE7
:102B900051EC100B07F07AFDFFF7FCFD99ED040BEB
:102BA00053EC102B99ED000B51EC100B07F044FF88
:102BB00041EC100BFFF792F89FED291B51EC100B25
:102BC00053EC112B07F0BCFD02D200F0CBFC02E06D
:102BD00000F0C8FC0446001BC82805D200F0C2FC67
:102BE000A0EB0B00B042C1D3FFF7C8FE1B4C9FED1A
:102BF0001E8B703CD7B16FF013063046FFF78CFB8D
:102C00003046FFF7C7FD504600F06AFBFFF7F6FAC3
:102C1000462000F065FBFFF7B1FE606C80ED008B95
:102C200085ED088B322000F05BFB0BE098ED140B78
:102C300053EC102B95ED080B51EC100B07F0D6FA66
:102C4000C5E90801606C80ED008B0320BDEC028BB0
:102C5000BDE8F05FFFF7B4B8C8000020A02800204E
:102C60000000000000000040000000000000000024
:102C7000014801F06BBB00003C060020014801F058
:102C800025BB00003C0600202DE9F05F0420FFF783
:102C9000A3F80020FFF794F80120FFF791F8022035
:102CA000FFF78EF80320FFF78BF80520FFF788F871
:102CB0000620FFF785F80720FFF782F84620FFF788
:102CC00035FE0420FFF79CF94FF47A7A872802DA60
:102CD0000127564602E0002740F6C4161420FFF7ED
:102CE0001FF8DFF81881A8F1800598ED160B53EC5A
:102CF000102B95ED080B51EC100B07F077FA05F54A
:102D0000C079C9E90A014FF4967000F0E9FA00F0C1
:102D100029FC834632E000BFFFF75EFA89ED060B1F
:102D2000374802F0C5FC99ED080B51EC100B07F089
:102D3000ADFC4042FFF7F0FA99ED080B51EC100B97
:102D400007F0A4FCFFF726FD99ED0A0B53EC102BBE
:102D500099ED060B51EC100B07F06EFE41EC100BD9
:102D6000FEF7BCFF9FED271B51EC100B53EC112B12
:102D700007F0E6FC02D200F0F5FB02E000F0F2FB07
:102D80000446001BC82805D200F0ECFBA0EB0B00AA
:102D9000B042C1D3FFF7F2FDF7B16FF01304204644
:102DA000FFF7BAFA2046FFF7F5FC504600F098FA14
:102DB000FFF724FA462000F093FAFFF7DFFD1048F2
:102DC0009FED120BE038406C80ED000B85ED080B99
:102DD000322000F085FA0BE098ED160B53EC102B27
:102DE00095ED080B51EC100B07F000FAC5E908014E
:102DF000BDE8F05F0420FEF7E3BF0000C80000203C
:102E00001029002000000000000000400000000029
:102E10000000000038B5124C207838B12178607875
:102E2000104A0244401C6070117012E0207880B992
:102E30000B480DA11830A0F11003A0F1080200907A
:102E40000848FDF7B7FA0020607030210548FDF70B
:102E50006AFBBDE8384001220149074801F051BF33
:102E600018020020A4290020256C6620256C66200D
:102E7000256C6600000000001007002001220249B6
:102E8000024801F03EBF0000180200201007002099
:102E9000FEE70000014800F0B1B800002019002052
:102EA00001681823CAB2103AB2FBF3F2054B6FF374
:102EB0000901032A9B5CC36500D9091D8165084689
:102EC0007047000022AD000810B5014600208B6954
:102ED0008A6A4FF0C07453B1B3F5005F15D072B178
:102EE000012A0CD0022A0AD0032A09D104E01AB11F
:102EF000012A06D0022A03D1C96AC90100D50120DE
:102F000010BDC96AA142FAD010BD002AF7D0012A2B
:102F1000F2D0022AF3D0032AF3D010BD30B50468F2
:102F2000256825F480252560046863608368402B4C
:102F3000036803D099600068C26030BD9A60006881
:102F4000C16030BD7047022000F002BA042000F0DA
:102F5000FFB9082000F0FCB9102000F0F9B92020DA
:102F600000F0F6B972B6FEE72DE9F0410446876D30
:102F700000F0F8FA064694F835000025022806D03D
:102F80008020606584F834500120BDE8F08120681D
:102F9000016821F0160101602068416921F080017B
:102FA0004161206C08B9A06C20B12068016821F053
:102FB000080101602068016821F0010101600CE056
:102FC00000F0D0FA801B052807D920206065032077
:102FD00084F8350084F83450D7E720680068C007CB
:102FE000EED194F85C103F208840B860012084F84E
:102FF000350084F834500020C7E700002DE9F8437D
:1030000004464FF00009CDF8009063484FF4165184
:10301000A56D0068B0FBF1F72E6894F85C100820ED
:1030200000FA01F131420FD021680A6852070BD52E
:103030000A6822F004020A6094F85C108840A860D4
:10304000606D40F00100606594F85C104FF001087D
:1030500008FA01F0304208D021684969090604D510
:10306000A860606D40F00200606594F85C10042078
:103070008840304208D021680968890704D5A860D3
:10308000606D40F00400606594F85C10102088408A
:10309000304218D021680968090714D5A860206853
:1030A0000168490304D50068000308D5A16C07E056
:1030B0000168C90503D4016821F008010160216C91
:1030C00009B12046884794F85C102020884030429F
:1030D00031D021680968C9062DD5A86094F835005B
:1030E00005282068016806D0490347D50068000319
:1030F0001DD4616C1CE021F016010160206841695B
:1031000021F080014161206C08B9A06C20B12068D9
:10311000016821F00801016094F85C103F208840AC
:10312000A86084F8358084F83490216D1FE0E16B4D
:1031300009B120468847606D00282BD0606DC0071C
:1031400014D0052084F835002068016821F00101C1
:1031500001600098401C0090B84203D820680068C5
:10316000C007F6D184F8358084F83490E16C0029EA
:1031700010D001B02046BDE8F04308470168C905FA
:10318000D5D4016821F01001016084F8358084F8FD
:103190003490CCE7BDE8F8830C0500202DE9F04120
:1031A000044600F0DFF906465CB1022084F83500E1
:1031B000002584F834502068016821F00101016085
:1031C0000DE00120BDE8F08100F0CCF9801B05285E
:1031D00005D920206065032084F83500F2E72068D7
:1031E0000068C007F0D12268116820480140D4E986
:1031F00001031843D4E90336334318436369184382
:10320000A3691843E3691843236A18430843616AB2
:10321000042903D1D4E90B13194308431060206833
:103220004069666A20F0070130460E4301270428F2
:103230000CD1A06A0643E06A40B12046FFF744FE85
:1032400020B14020606584F83570BAE72068466197
:103250002046FFF725FE94F85C203F2191408160D5
:10326000656584F835700020ACE700003F8010F001
:103270002DE9F0410446866D90F8340000250128C0
:103280000DD0012084F8340094F835700020012F0F
:1032900007D084F8340002252846BDE8F0810220DA
:1032A000FBE7022784F8357060652046FFF736FE9D
:1032B00094F85C103F208840B0602068016841F0BD
:1032C00016010160206C20B12068016841F00801FE
:1032D00001602068016841F001010160DCE7000045
:1032E00070B5044600F03EF90546601C02D0044863
:1032F0000078044400F036F9401BA042FAD370BDB8
:10330000000500200F4A10B514880F49012384429C
:1033100001D1002012E05488844201D10B700EE0EC
:103320009488844201D1022008E0D488844201D1EB
:10333000032003E01289824201D10420087003486F
:10334000037010BD280000200100002000000020B4
:10335000044910B50A68024202D00860FFF7D2FFA4
:1033600010BD0000143C01402DE9F84FDFF8BCA16E
:103370000022012503264FF00F090AF1040BAAF1E0
:10338000040E00BF0B6805FA02F42340A34270D17B
:103390000F7907F00307012F01D0022F16D187689C
:1033A0004FEA420806FA08FC27EA0C07D1F80CC0DD
:1033B0000CFA08FC4CEA070CC0F808C04768A743A1
:1033C0000C79C4F3001494403C4344600C79E4430A
:1033D000A4070AD0C4684FEA420C06FA0CF7BC43B3
:1033E0008F6807FA0CF72743C7600C7904F00304D1
:1033F000022C12D1D40800EB840CDCF820405707D3
:10340000FF0E09FA07F824EA0804D1F8108008FA38
:1034100007F848EA0408CCF8208004684FEA420C18
:1034200006FA0CF7BC430F7907F0030707FA0CF70D
:10343000274307604C6814F4403F70D03C4C276829
:1034400047F480472760246822F0030704F480448F
:103450000094384C07EB040CDCF8084897074FEA57
:10346000177809FA08F7BC43334FB84202D1002756
:1034700024E054E0314FB84201D101271EE0304F23
:10348000B84201D1022719E02E4FB84201D10327DB
:1034900014E02D4FB84201D104270FE02B4FB84262
:1034A00001D105270AE02A4FB84201D1062705E0DD
:1034B000284FB84201D1072700E0082707FA08F78C
:1034C0002743CCF80878DAF800405746D1F804C012
:1034D0009C435FEACC2C00D51C433C60DBF80040E9
:1034E0005F46D1F804C09C435FEA8C2C00D51C4396
:1034F0003C60DEF800407746D1F804C09C435FEAA8
:103500008C3C00D51C433C60084F083F3C68D1F818
:1035100004C09C435FEACC3C00D51C433C60521C79
:10352000102AFFF42FAFBDE8F88F0000083C0140DF
:1035300044380240003001400000024000040240D4
:1035400000080240000C024000100240001402403B
:1035500000180240001C02400AB181617047090452
:10356000FBE700000148806870470000000500206C
:1035700070B5040025D094F83D00002520B984F8EA
:103580003C50204600F03EFA242084F83D0020689C
:10359000016821F0010101602068016841F40041E7
:1035A00001602068016821F40041016000F094FB93
:1035B0004D4A6168914201D84C4900E04C4988422B
:1035C00001D2012070BD4B492368B0FBF1F15E6868
:1035D00026F03F060E435E606368934206D94FF4BF
:1035E000967359434FF47A73B1FBF3F12368491C86
:1035F0001E6A26F03F06314319626168914210D875
:103600004900401EB0FBF1F2521CC2F30B02042A27
:1036100001D2042022E0B0FBF1F0401CC0F30B000B
:103620001CE0A268F2B301EBC10303EB0116431ED9
:10363000B3FBF6F35B1C43F480431B0549D092B304
:1036400001EBC10202EB0111401EB0FBF1F0401C86
:10365000C0F30B0040F4804040F400402168CA6988
:103660004CF6FF739A431043C861D4E90710014335
:103670002068026822F0C00211430160D4E903010E
:1036800001432068826848F2FF339A431143816006
:10369000D4E9050108432168CA6822F0FF021043FB
:1036A000C86001E00EE016E02068016841F0010109
:1036B00001602564202084F83D00256384F83E5095
:1036C000002070BD01EB4106431EB3FBF6F35B1C0B
:1036D000B3E70120C2E701EB4101401EB0FBF1F06E
:1036E000401CC0F30B00B7E7A086010080841E00D9
:1036F00000093D0040420F002DE9F84F1F4690465B
:103700008A460446DDF82890FFF72CFF054694F81A
:103710003D00202875D1192301226C4920460095CF
:1037200001F002FD0028F5D194F83C00012868D092
:10373000012084F83C0020680168C90703D10168B2
:1037400041F0010101602068016821F4006101601D
:10375000222084F83D00102084F83E0000262664D4
:10376000C4F824806785608D20855948E0622B4627
:103770004A465146204601F0EDFB002878D1208DC5
:10378000544F68B1012814D002282068016816D06F
:1037900041F480610160206841698069009087E0A0
:1037A0002068416981690091016841F400710160FC
:1037B0007EE02068016821F480610160F0E721F477
:1037C000806101602068016841F40061E2E703283C
:1037D00048D801280AD0022814D04B460022394686
:1037E0002046009501F0A0FCD8BB27E02A464946B8
:1037F000204601F018FDA0BB20680069616A0870CE
:103800004DE061E04B46002239462046009501F02C
:103810008BFC30BB2068016841F4007101602068B6
:103820000069616A0870606A401C6062218D491EEF
:103830002185618D491E618521682EE0206801681F
:1038400021F48061016020680069616A0870606A23
:10385000401C6062208D401E2085608D401E60856A
:10386000D0E705E02A464946204601F0DCFC10B1CD
:103870000120BDE8F88F20680069616A0870606AFD
:10388000401C6062218D491E2185618D491E618524
:1038900021684A69D24352070AD409690170606AF3
:1038A000401C6062208D401E2085608D401E60851A
:1038B000208D00288BD1202084F83D0084F83E60C4
:1038C00084F83C600020D4E70220D2E70200100018
:1038D0000000FFFF040001002DE9F84F1F4690464D
:1038E0008A460446DDF82890FFF73CFE054694F82A
:1038F0003D0020287FD11923012240492046009510
:1039000001F012FC002876D194F83C00012872D016
:10391000012084F83C0020680168C90703D10168D0
:1039200041F0010101602068016821F4006101603B
:10393000212084F83D00102084F83E0000262664F3
:10394000C4F824806785608D20852D48E0622B4671
:103950004A465146204601F073FB90B92068416900
:103960008069009036E02A464946204601F08EFCE8
:1039700050B1206C042804D12068016841F4007122
:1039800001600120BDE8F88F606A21680078086155
:10399000606A401C6062618D491E6185218D491EEF
:1039A00089B2218522685369DB435B070BD451B18F
:1039B00000781061606A401C6062608D401E608506
:1039C000208D401E20852A464946204601F086FB70
:1039D0000028CED1208D0028C5D154F83D0B0168B8
:1039E00041F400710160202004F81E09E677667733
:1039F0000020C7E7FFE70220C4E700000200100034
:103A00000000FFFF10B586B0044614216846FCF79D
:103A1000ACFD14492068884221D113480021026876
:103A200042F002020260006800F0020005904FF4CC
:103A3000107000901220CDE90101032003900420B2
:103A4000049069460948FFF78FFC07481030016869
:103A500041F400110160006800F40010059006B008
:103A600010BD000000540040303802400004024005
:103A70000248816802781144816070470005002087
:103A80000B4810B5016841F400710160016841F410
:103A900080610160016841F480710160032000F0E1
:103AA0006FF80E2000F006F800F024F8002010BD9A
:103AB000003C024070B50D4D04464FF47A712878F1
:103AC000B1FBF0F00A490968B1FBF0F000F00CFB23
:103AD00048B9102C07D200222146501E00F030F8C1
:103AE00000206C6070BD012070BD0000000500204A
:103AF0000C0500200A4808B5016841F480410160C6
:103B0000006800F4804000900548001F016841F003
:103B100080510160006800F08050009008BD0000F6
:103B200044380240002809DB00F01F0201219140C7
:103B30004009800000F1E020C0F80011704700004B
:103B4000F0B40E4B1B680C46C3F30223C3F1070508
:103B5000042D00D90425191D072901D2002300E0F6
:103B6000DB1E012606FA05F1491E214099409E40C0
:103B7000761E16403143F0BC04F058BE0CED00E058
:103B8000064900F0070208684FF6FF03184040EAB4
:103B90000220034A10430860704700000CED00E06B
:103BA0000000FA052DE9F0470E46050065D0DFF864
:103BB0001481D8F80000F7B200F00700B04207D235
:103BC00088F80070D8F8000000F00700B04254D127
:103BD00028683D4C810712D5400703D5206840F482
:103BE000E05020602878000703D5206840F460404A
:103BF00020602068A96820F0F00008432060287841
:103C0000C0072DD0304968680839012812D0022831
:103C100013D0032811D00968890700292DDA2168FB
:103C200021F0030101432160FFF79CFC814641F232
:103C3000883A0EE009688903EFE709688901ECE733
:103C4000FFF790FCA0EB0901514502D90320BDE824
:103C5000F0872068696800F00C00B0EB810FEFD1AD
:103C6000D8F80010404601F00701B14207D90770AB
:103C7000006800F00700B04201D00120E7E7287893
:103C8000400705D52068E96820F4E050084320602B
:103C90002878000706D52068296920F4604040EAAA
:103CA000C100206000F038F82168084AC1F3031110
:103CB000515CC8400649086006480068FFF7FAFEF4
:103CC0000020C4E7003C0240083802402AAD00084A
:103CD0000C05002004050020044805490068096817
:103CE000044AC1F38221515CC84070470C05002092
:103CF000083802403AAD00080448054900680968E0
:103D0000044AC1F34231515CC84070470C050020A1
:103D1000083802403AAD0008154810B5006810F0A8
:103D20000C02144813D01449042A0FD0082A0ED1CB
:103D30000F4C241F2268236802F03F025B0207D564
:103D40002068C0F38810A0FB010106E0084610BD02
:103D50002168C1F38811A1FB00010023FCF7B2FA2E
:103D60002168C1F30141491C4900B0FBF1F010BDCD
:103D7000083802400024F40040787D012DE9F84F16
:103D800004006ED02078DFF84C93C007A9F1040539
:103D90004AD009F104000168C1F38101012908D06A
:103DA0000068C0F3810002280AD1D9F8000040025F
:103DB00006D52868800337D560680028E1D033E055
:103DC0006068B0F5803F10D0B0F5A02F286810D003
:103DD00020F480302860286820F480202860606803
:103DE000A8B1FFF7BFFB06460DE0286840F480301D
:103DF000F4E740F480202860F7E700BFFFF7B2FB4C
:103E0000801B642873D828688003F7D50CE0FFF77F
:103E1000A9FB064605E000BFFFF7A4FB801B642852
:103E2000F0D828688003F7D42078DFF8AC828007C8
:103E30004FF0000A3ED5A748001D016811F00C0F95
:103E400008D00068C0F3810002280BD1D9F8000027
:103E5000400207D42868800716D5E068012800D101
:103E600012E033E1E068B8B10120C8F80000FFF7C4
:103E700079FB064605E000BFFFF774FB801B0228B4
:103E8000C0D828688007F7D52868216920F0F80095
:103E900040EAC10028600DE0C8F800A0FFF762FB0F
:103EA000064604E0FFF75EFB801B02281FD8286847
:103EB0008007F7D42078000722D5864F87486169AC
:103EC000703771B101210160FFF74CFB064604E039
:103ED000FFF748FB801B022809D838688007F7D510
:103EE0000EE0C0F800A0FFF73DFB064605E082E0CB
:103EF000FFF738FB801B02287DD838688007F7D48D
:103F00002078400768D5DFF8CCB100270BF13C0BD7
:103F1000DBF80000C0000BD4DBF8001041F080514A
:103F2000CBF80010DBF80000012700F08050009073
:103F30006B4E3068C00510D4306840F4807030603B
:103F4000FFF710FB009005E0FFF70CFB0099401A0B
:103F5000022850D83068C005F6D55E4EA0686C3691
:103F600001280FD00528306810D020F00100306003
:103F7000306820F004003060A068B8B1FFF7F2FAB2
:103F800000900FE0306840F00100F4E740F00400DA
:103F90003060F7E7FFF7E6FA0099411A41F28830FE
:103FA000814266D830688007F4D50EE0FFF7DAFA70
:103FB000009007E0FFF7D6FA0099411A41F28830E5
:103FC000814256D830688007F4D42FB1DBF8001056
:103FD00021F08051CBF80010A069C8B33D49091DFC
:103FE0000968C1F3810102294AD00228504607D04E
:103FF000C8F8600000E03CE0FFF7B4FA04463BE09C
:104000004746C8F86000FFF7ADFA064605E000BF76
:10401000FFF7A8FA801B02282BD828688001F7D464
:10402000D4E907010843A16A2E4A490802EB01417D
:10403000626A41EA8211084394F82C1040EA016157
:10404000C9F8001001203866FFF78CFA044606E034
:104050003EE000BFFFF786FA001B022809D8286857
:104060008001F7D534E000BFFFF77CFA001B02287F
:1040700002D90320BDE8F88F28688001F4D427E036
:104080000128F7D0D9F80000E26900F480019142DC
:104090001CD1226A00F03F01914217D147F6C0714E
:1040A000626A0140B1EB821F10D1A26A4FF0FF3368
:1040B00000F4403103EB5202B1EB024F06D194F809
:1040C0002C1000F07060B0EB016F01D00120D1E73F
:1040D0000020CFE70438024000004742800E4742EC
:1040E000007000400000FFFF10B5401EB0F1807F5F
:1040F00001D3012010BD4FF0E02460610F21601753
:1041000004F094FB0020A06107202061002010BD76
:104110007047704770B590F83C20012A32D00124D6
:1041200080F83C40022280F83D2003685A689D6870
:1041300022F070060A6832435A60134B02689A42B2
:1041400014D0B2F1804F11D0104B9A420ED0104BC8
:104150009A420BD00F4B9A4208D00F4B9A4205D08F
:104160000E4B9A4202D00E4B9A4204D1496825F078
:1041700080031943916080F83D40002180F83C1095
:10418000084670BD022070BD0000014000040040E0
:1041900000080040000C00400004014000400140C5
:1041A0000018004010B5040003D094F83D0010B191
:1041B00007E0012010BD002084F83C00204600F0FC
:1041C0001FF8022084F83D00211D206801F014FE34
:1041D000012084F8460084F83E0084F83F0084F80B
:1041E000400084F8410084F8420084F8430084F8D9
:1041F000440084F8450084F83D00002010BD000014
:1042000008B50068B0F1804F15D0104988421CD124
:104210000F48016841F4803101600068002200F419
:104220008030009002211820FFF78AFCBDE808408A
:104230001820FFF777BC0648001F016841F0010114
:104240000160006800F00100009008BD00400140DE
:104250004438024090F83D10012901D001207047F8
:10426000022180F83D1000681149884214D0B0F155
:10427000804F11D00F4988420ED00F4988420BD091
:104280000E49884208D00E49884205D00D4988421F
:1042900002D00D49884204D1816801F00701062946
:1042A00003D0016841F00101016000207047000067
:1042B000000001400004004000080040000C0040E5
:1042C00000040140004001400018004090F83D10FB
:1042D000012901D001207047022180F83D100168BA
:1042E000CA6842F00102CA6000681149884214D0CD
:1042F000B0F1804F11D00F4988420ED00E4988424C
:104300000BD00E49884208D00D49884205D00D498E
:10431000884202D00C49884204D1816801F007012B
:10432000062903D0016841F00101016000207047B7
:10433000000001400004004000080040000C004064
:104340000004014000400140001800400168CA68B4
:1043500022F00102CA6001680A6A41F211131A428E
:1043600007D10A6A9B101A4203D10A6822F001029F
:104370000A60012180F83D100020704770B50446A6
:1043800090F83C000025012817D0012684F83C60F5
:10439000022084F83D002068826822F0770222F42F
:1043A0007F4282600868502838D00DDC20284FD02A
:1043B00005DC90B3102811D14AE0022070BD3028EE
:1043C00046D040280AD13BE060282FD070280DD07D
:1043D000B0F5805F03D0B0F5005F12D0012584F8FE
:1043E0003D60002084F83C00284670BDCB68D1E9D0
:1043F0000121206801F071FD2068816841F077019A
:1044000009E0CB68D1E90121206801F066FD206850
:10441000816841F480418160E1E719E0CA68496838
:10442000206801F02FFE5021206806E0CA68496824
:10443000206801F038FE6021206801F058FDCEE7C9
:10444000CA684968206801F01DFE40212068F4E731
:10445000226801461046F0E72DE9F0410D460400C0
:1044600003D094F83D0018B108E00120BDE8F081C8
:10447000002084F83C00204600F040F8022084F838
:104480003D002068816844F2070291438160211D4C
:10449000206801F0B1FC226890689169166A2B6867
:1044A000AF69034340F20330814341EA0721A86822
:1044B000EF6908434FF6FC418843E96840EA07206A
:1044C000014328692F6A000140EA07300843696800
:1044D0006D6926F0AA0646EA05152943936022680D
:1044E000906154F8460B0162012004F81F09E07541
:1044F0002076E0762077A0750020B7E730B587B04A
:10450000044614216846FCF730F8314A216800243B
:1045100030480225914227D12E4914310A6842F0D1
:1045200001020A60096801F001010591016841F08A
:10453000100101600068694600F0100005904FF41A
:1045400020600090CDE901540120CDE903402248CC
:10455000FEF70AFF002202211820FFF7F1FA1820C7
:10456000FFF7E0FA07B030BD1C4A9142FAD1194971
:1045700010310A6842F004020A60096801F004017F
:104580000591016841F008010160016801F008012E
:104590000591016841F0020101600068694600F080
:1045A000020005904FF480500090CDE901540C4872
:1045B000CDE90345FEF7D8FE80200090CDE90154F7
:1045C00069460848CDE90345FEF7CEFECAE700007C
:1045D0000000014030380240001002400008004056
:1045E000000C02400004024070B590F83E600446A2
:1045F00090F83F5090F8423090F84320022021B1CB
:1046000004290ED0012E1BD114E0012E18D1012B4C
:1046100016D184F83E0084F842000122002120686F
:1046200020E0012D0CD1012A0AD184F83F0084F842
:10463000430014E0012D03D1012B01D1012A01D047
:10464000012070BD84F83E0084F83F0084F84200E9
:1046500084F8430001220021206801F031FC01228E
:104660000421206801F02CFC2068016841F0010160
:104670000160002070BD704770B504460068016994
:104680004FF00005C943890715D4C168C94389079C
:1046900011D4E91E0161012020772068806980071C
:1046A000204602D0FFF7E7FF04E000F0C1F8204603
:1046B00000F053F9257720680169C943490717D4E9
:1046C000C168C943490713D46FF004010161022096
:1046D00020772068806910F4407F204602D0FFF7E1
:1046E000CAFF04E000F0A4F8204600F036F9257770
:1046F00020680169C943090716D4C168C94309077D
:1047000012D46FF008010161042020772068C0698D
:104710008007204602D0FFF7AEFF04E000F088F8E3
:10472000204600F01AF9257720680169C943C906B7
:1047300017D4C168C943C90613D46FF010010161D1
:10474000082020772068C06910F4407F204602D0FE
:10475000FFF791FF04E000F06BF8204600F0FDF851
:10476000257720680169C943C90708D1C168C943D1
:10477000C90704D1891E0161204600F053F9206861
:104780000169C943090609D4C168C943090605D4AA
:104790006FF0800101612046FFF7BAFC20680169D3
:1047A000C943490609D4C168C943490605D46FF015
:1047B00040010161204600F04FF920680169C943BA
:1047C00089060BD4C168C943890607D46FF020015C
:1047D00001612046BDE87040FFF79BBC70BD000042
:1047E00010B586B0044614216846FBF7BEFE20686B
:1047F000B0F1804F15D10C480021026842F001024F
:104800000260006800F00100059022200090022064
:10481000CDE901010120CDE9031069460348FEF707
:10482000A3FD06B010BD0000303802400000024079
:10483000704770B5044690F83C0000260D460128EC
:104840000FD0012084F83C006AB1042A1DD0082A48
:104850002FD00C2A3FD00126002084F83C0030469F
:1048600070BD022070BD206801F04AFB206881699C
:1048700041F0080181612068816921F004018161B2
:10488000206881692A69114311E0206801F068FB02
:104890002068816941F4006181612068816921F4A7
:1048A00080618161206881692A6941EA0221816110
:1048B000D2E7206801F08AFB2068C16941F0080155
:1048C000C1612068C16921F00401C1612068C1692A
:1048D0002A69114311E0206801F0ACFB2068C1692E
:1048E00041F40061C1612068C16921F48061C16146
:1048F0002068C1692A6941EA0221C161ACE710B5AB
:10490000040003D094F83D0010B107E0012010BD71
:10491000002084F83C00204600F01EF8022084F8B5
:104920003D00211D206801F067FA012084F846004F
:1049300084F83E0084F83F0084F8400084F8410089
:1049400084F8420084F8430084F8440084F8450069
:1049500084F83D00002010BD7047704710B5044634
:10496000022249B104290ED0082913D094F841003D
:10497000012816D0012010BD94F83E000128F9D17D
:1049800084F83E200FE094F83F000128F2D184F82B
:104990003F2008E094F840000128EBD184F8402043
:1049A00001E084F841200122206801F089FA1649CB
:1049B0002068164A884201D0904203D1436C43F4E8
:1049C000004343642068884213D0B0F1804F10D078
:1049D0000F4988420DD00F4988420AD00E498842BB
:1049E00007D0904205D00D49884202D00C49884238
:1049F00004D1816801F00701062903D0016841F064
:104A000001010160002010BD0000014000040140D0
:104A10000004004000080040000C0040004001403D
:104A20000018004010B50A4900680968884205D19D
:104A3000FDF766FABDE81040FDF72CBC0549096892
:104A4000884203D1BDE81040FDF786B910BD0000D3
:104A50003C060020840600207047704710B50446CD
:104A60000068406994F83D10C0F3C010212911D1AD
:104A700080B12068143050E8001F21F0800140E828
:104A80000012002AF5D1606B08B1FEF76DFA2046DE
:104A900001F080FC2068406994F83E10C0F380105B
:104AA000222911D180B12068143050E8001F21F074
:104AB000400140E80012002AF5D1A06B08B1FEF7D2
:104AC00053FA204601F03FFC002010BD704770B53E
:104AD000040004D094F83D00002510B106E0012048
:104AE00070BD84F83C50204600F022F8242084F861
:104AF0003D002068C16821F40051C160204601F0EA
:104B000057FC2068016921F49041016120684169E6
:104B100021F02A0141612068C16841F40051C1605F
:104B20002564202084F83D0084F83E00002070BDFC
:104B300070B586B0064614216846FBF716FD2F4C6B
:104B4000306800252E4902230322A04236D12C488A
:104B50001030046844F480240460006800F480206D
:104B60000590086840F0020008600868694600F097
:104B7000020005909002CDE900030120CDE9020278
:104B8000072004901F48FEF7EFFB204C1E482060D2
:104B90004FF00060C4E901054014C4E903506561A9
:104BA000A561E561256220466562FEF7F7FA08B166
:104BB000FEF7D8F9B463A66306B070BD144CA042EA
:104BC000FAD10F481430046844F0200404600068EF
:104BD00000F020000590086840F0040008600868B4
:104BE000694600F004000590C0208DE829000820E7
:104BF000CDE903200748FEF7B7FBDDE7004800409A
:104C00003038024000040240286002402019002091
:104C100000140140000802402DE9F84F044690F8C6
:104C20003E009A4616460D46202853D1FDB1F6B1F6
:104C300094F83C0001284DD0012084F83C00002766
:104C40002764222084F83E002763FEF78BFCA685AC
:104C50008146E685A0684FF48058404501D120691F
:104C600040B12E465FF0000584F83C7027E001203B
:104C7000BDE8F88F0026F7E74B46002220212046AA
:104C8000CDF800A001F081FC08B10320F0E726B1C7
:104C9000A06840451BD038B108E020684068C0F3E8
:104CA000080025F8020B07E0206980B12068406801
:104CB00000F07F0006F8010BE08D401EE085E08DDE
:104CC0000028D9D1202084F83E000020D0E72068B9
:104CD0004068EFE70220CBE790F83E30202B0ED162
:104CE00059B152B190F83C30012B08D0012380F823
:104CF0003C300023036301F0E1BB01207047022038
:104D0000704790F83E30202B0ED159B152B190F837
:104D10003C30012B08D0012380F83C300023036392
:104D200001F016BC012070470220704710B53C49C5
:104D30002DED028B0068884266D13A4801789FEDDC
:104D40003A8B3B4C532905D0BDEC028BBDE810409B
:104D500004F084BE94ED060B84ED020B417980795A
:104D600041EA002005F0D8FC9FED321B53EC112BDB
:104D700005F022FD9FED311B53EC112B05F01CFDBE
:104D800041EC100B84ED060B94ED020B53EC102B51
:104D900094ED060B51EC100B05F04EFE9FED291B18
:104DA00053EC112B05F006FE08D294ED040B53ECE6
:104DB000182B51EC100B05F019FA18E094ED020BCA
:104DC00053EC102B94ED060B51EC100B05F034FE58
:104DD0009FED1E1B53EC112B05F0B2FC0BD294ED92
:104DE000040B53EC182B51EC100B05F025FE41EC95
:104DF000100B84ED040B2122BDEC028B0949BDE8A8
:104E000010401448FFF768BF1349884205D1BDEC34
:104E1000028BBDE81040FDF7FDBFBDEC028B10BD5D
:104E200000480040802900200000000000807640FB
:104E3000F8010020000000000000003F000000001A
:104E4000008066400000000000406F40000000004D
:104E500000406FC0CC0600200014014070470000E5
:104E60002DE9F843044690F83D001F4616460D46CE
:104E700020284CD1C5B1BEB194F83C00012846D0E1
:104E8000012084F83C004FF00008C4F84080212045
:104E900084F83D00FEF766FBA6848146E684A068A0
:104EA000B0F5805F03D004E00120BDE8F8832069FD
:104EB00028B12E465FF0000584F83C800EE0002605
:104EC000FAE78021204601F060FBA0B9AEB116F8E8
:104ED000010B21684860E08C401EE084E08C4B466A
:104EE0004FF0000200970028EBD14FF04001204620
:104EF00001F04BFB30B10320D7E735F8020BC0F3CC
:104F00000800E6E7202084F83D000020CDE70220DD
:104F1000CBE7000002480068C00700D000BEFEE7F3
:104F2000F0ED00E001684A69D24352050FD46FF4F6
:104F300080624A61002140F8301F20224273817351
:104F4000026942F0040202610173012070470020EF
:104F5000704700002DE9F84F0446C06A1E4693468C
:104F60000D4621680A6842F480620A60082807D06A
:104F7000012805D010F5803F02D0206B112804D104
:104F80002068016841F4807101604FF001195B46AF
:104F9000002249462046009600F0C6F84FF40078FB
:104FA00040B120680068C00501D5C4F840800320E6
:104FB000BDE8F88F2069DFF884A0B0F5804F0FD0EE
:104FC0000620216800EAD51747F0F0000861334653
:104FD0005A460AF10601204600F0DAF858BB03E011
:104FE000E8B240F001001CE02168E8B208613346F5
:104FF0005A465146204600F0CBF8E0B92068416996
:1050000081690091016841F4807101605B46002272
:1050100049462046009600F087F80028C1D147F0A5
:10502000F1002168086133465A465146204600F097
:10503000AFF80028BCD00120BAE700000200010050
:10504000F8B50446C06A1E460D461746082807D024
:10505000012805D010F5803F02D0206B122804D122
:105060002068016841F480710160134600224FF00E
:1050700001112046009600F057F840B12068006802
:10508000C00502D54FF4007020640320F8BD2069EC
:10509000B0F5804F0ED00620216800EAD51040F010
:1050A000F000086133463A460B49204600F070F89C
:1050B00078B902E005F0FE0000E0E8B2216808617E
:1050C000054933463A46891F204600F061F800281A
:1050D000DCD00120F8BD00000800010070B51646C4
:1050E0000D4604460DE02046FFF71CFF08B10120E5
:1050F00070BD681C05D0FEF735FA801BA84207D8A2
:1051000035B120684069C0434007ECD4002070BD31
:10511000002044F8300F20216173A073216941F011
:10512000200121612073E2E72DE9F0471E469046F9
:105130000D460446C1F30747DDF8209008E0701CD7
:1051400006D0FEF70FFAA0EB0900B0420FD876B1F7
:105150002068012F18D0806925EA00000004000CA7
:1051600014D000214145EAD00020BDE8F08700209E
:1051700044F8300F20216173A073216941F02001B0
:10518000216120730120F0E74069E5E70121E9E7AB
:105190002DE9F0479A4691460E46044600254FF009
:1051A0002008C1F3074725E020684069C043400557
:1051B00014D42068016841F40071016021686FF423
:1051C00080604861256384F83D8084F83E50206CFF
:1051D00040F00400206484F83C501FE0B9F1FF3F28
:1051E00008D0FEF7BFF9A0EB0A0149450CD8B9F188
:1051F000000F09D02068012F13D0806926EA000033
:105200000004000C0BD0CFE744F8305F84F80D8029
:10521000A573206940F02000206125730120BDE8BE
:10522000F0874069EAE72DE9F041002590460E46F7
:105230000446202717E04069C043C0060CD454F848
:10524000301B6FF01000486144F810596777A5775C
:10525000206A2062257717E0FEF784F9A0EB0800AA
:10526000B04208D83EB120684169C9434906E2D43A
:105270000020BDE8F08144F8305F6773A5732069B2
:1052800040F02000206125730120F2E770B516463A
:105290000D4604460DE02046FFF744FE08B101200C
:1052A00070BD681C05D0FEF75DF9801BA84207D8C9
:1052B00035B120684069C0430006ECD4002070BDC1
:1052C000002044F8300F20216173A073216941F060
:1052D000200121612073E2E72DE9F04786B0142117
:1052E0006846FBF742F954480024016841F0100178
:1052F0000160016801F010010591016841F0800131
:105300000160016801F080010591016841F004012C
:105310000160016801F004010591016841F001019B
:105320000160016801F001010591016841F002018D
:105330000160016801F002010591016841F0080176
:1053400001600068DFF8F48000F0080041F23F558A
:105350000590002229464046FEF7FEF80122DFF8BC
:10536000E090160231464846FEF7F6F842F2FF0793
:10537000002239464846FEF7EFF8DFF8C8A00022C1
:1053800008215046FEF7E8F83E2000904FF48810C0
:10539000CDE9010469462C48FDF7E6FF009501259B
:1053A000CDE90154694640460394FDF7DDFF112025
:1053B0000096CDE90104694648460394FDF7D4FF01
:1053C0000097CDE90154694648460394FDF7CCFFA8
:1053D00008200090CDE90154694650460394FDF73A
:1053E000C3FF002211460720FEF7AAFB0720FEF7A5
:1053F00099FB002211460820FEF7A2FB0820FEF7C9
:1054000091FB002211460920FEF79AFB0920FEF7C6
:1054100089FB002211460A20FEF792FB0A20FEF7C4
:1054200081FB002211461720FEF78AFB1720FEF7AA
:1054300079FB06B0BDE8F087303802400008024032
:10544000000C0240000402400010024010B58CB075
:1054500024216846FBF789F8002417480994154968
:105460000A94C0E900144FF6FF71C0E9024180219F
:105470000461C0E905410120CDE900040A21CDE91C
:1054800002040491CDE90540079469460A4808944E
:10549000FEF7E2FF08B172B6FEE7099409A90648D3
:1054A0000A94FEF737FE002801D072B6FEE70CB072
:1054B00010BD0000000001406405002010B58EB052
:1054C00000240794089409940A940B941C216846BC
:1054D0000C94FBF74AF822484FF0804101602921E3
:1054E000C0E901146321C0E9031480218161FEF742
:1054F00059FE08B172B6FEE74FF48050079007A935
:105500001748FEF73BFF08B172B6FEE71448FFF7F5
:10551000F6F908B172B6FEE70B940BA910480C948B
:10552000FEF7F8FD08B172B6FEE76020CDE9000491
:105530000294002269460A480494FFF77AF908B1F8
:1055400072B6FEE7042269460548FFF772F908B112
:1055500072B6FEE70248FFF743F90EB010BD000037
:10556000AC05002010B58CB024216846FAF7FDFF89
:1055700000241748099415490A94C0E900144FF60D
:10558000FF71C0E902418021046181610120022193
:10559000CDE900010A21CDE902040491CDE90540DD
:1055A000079469460A480894FEF756FF08B172B698
:1055B000FEE7099409A906480A94FEF7ABFD002806
:1055C00001D072B6FEE70CB010BD0000000800402C
:1055D000F40500201FB500211048009101910291AF
:1055E0000D4A0391026042F2CF02C0E90121FA2282
:1055F000C0E903218161FEF7D5FD08B172B6FEE76F
:105600004FF48050009069460448FEF7B7FE00282A
:1056100001D072B6FEE71FBD004001403C060020ED
:10562000FEE7FEE770B504462DED068B04F1400C55
:105630000020B0EE419ADDE90A568CE80E00F0EE4B
:10564000619AB0EE40AAF0EE60AA6070B0EE428AB5
:10565000F0EE628A9FED121B9FED130B204600F0C7
:1056600031F96420A0603146204600F0FBF829465D
:10567000B0EE482AF0EE682AB0EE491AF0EE691A48
:10568000B0EE4A0AF0EE6A0A204600F073F9FDF720
:1056900069FFA168401A6060BDEC068B70BD000018
:1056A0000000000000E06F4000000000000000006B
:1056B00070B504462DED088B407800287ED0FDF7AC
:1056C00051FF05466068A168281A814277D8206C8E
:1056D00090ED009BA06C53EC192B90ED000B51EC5E
:1056E000100B05F0A9F994ED160B41EC1A0B53ECD5
:1056F000102B51EC190B05F09FF994ED0C0B41ECBC
:10570000180B53EC1A2B51EC100B05F055F894EDD7
:10571000141B53EC112B04F069FD41EC1B0B84EDC1
:1057200014BB207868B994ED0A0B53EC182B51EC9C
:10573000100B05F041F853EC1B2B05F071F9C4E98F
:10574000140194ED1A1B94ED140B53EC112B51EC36
:10575000100B05F02FF902D294ED1A0B0CE094ED2A
:10576000181B94ED140B53EC112B51EC100B04F09F
:10577000E7FF03D294ED180B84ED140B207850B1A1
:1057800094ED0A0B53EC1A2B51EC100B05F014F8A6
:1057900041EC1A0B01E09FED1DAB94ED0E0B53ECA9
:1057A000182B51EC100B05F007F894ED141B53EC7B
:1057B000112B05F035F953EC1A2B01E020E022E023
:1057C00004F014FD94ED1A0B41EC180B53EC102B64
:1057D00005F0F0F802D294ED1A8B0AE094ED180B64
:1057E00051EC180B53EC102B04F0AAFF01D294EDEE
:1057F000188B606C80ED008B84ED169B012065603A
:10580000BDEC088B70BD0020FAE70000000000002E
:105810000000000010B50446406C90ED000B84EDD4
:10582000140B206C90ED001B51EC100B84ED161B3B
:1058300094ED1A1B53EC112B05F0BCF802D294ED39
:105840001A0B0CE094ED181B94ED140B53EC112B78
:1058500051EC100B04F074FF03D294ED180B84ED9F
:10586000140B10BD70B5044640780D46D0B1E078F9
:10587000A84217D094ED0A0B51EC100B04F078FC01
:10588000C4E90A0194ED0C0B51EC100B04F070FC10
:10589000C4E90C0194ED0E0B51EC100B04F068FC04
:1058A000C4E90E01E57070BD70B50446012901D050
:1058B000002505E06078012510B92046FFF7AAFF12
:1058C000657070BD10B504462DED048BB0EE418AB5
:1058D000F0EE618AB0EE409AF0EE609A53EC182B2D
:1058E00051EC190B05F066F841D984ED189B84ED55
:1058F0001A8B607800283AD0606C53EC182B90ED2E
:10590000000B51EC100B05F055F802D294ED1A0B78
:105910000DE0606C94ED180B90ED001B53EC102B18
:1059200051EC110B04F00CFF04D294ED180B606CD9
:1059300080ED000B94ED1A1B94ED140B53EC112B1E
:1059400051EC100B05F036F802D294ED1A0B0CE076
:1059500094ED181B94ED140B53EC112B51EC100B20
:1059600004F0EEFE03D294ED180B84ED140BBDECA5
:10597000048B10BD70B50D462DED088BB0EE408A3E
:10598000F0EE608A0446B0EE42AA9FED319BF0EE45
:1059900062AAB0EE41BAF0EE61BA53EC192B51ECA9
:1059A000180B04F0CDFE4ED353EC192B51EC1B0B0E
:1059B00004F0C6FE47D353EC192B51EC1A0B04F03C
:1059C000BFFE40D3A570012D40D00020207084ED93
:1059D000048B84ED06BB84ED08ABA06804F09CFE4C
:1059E0009FED1D1B53EC112B04F0BCFC41EC190B7B
:1059F00084ED0A8B53EC192B51EC1B0B04F0DCFEED
:105A000041EC1B0B53EC192B84ED0CBB51EC1A0B26
:105A100004F0A8FC41EC190B84ED0E9BE078012802
:105A200011D151EC180B04F0A3FBC4E90A0151ECAD
:105A30001B0B04F09DFBC4E90C0151EC190B04F0A5
:105A400097FBC4E90E01BDEC088B70BD0120BDE7DA
:105A500000000000000000000000000000408F4037
:105A60007047000070B5064686B00120FCF776F955
:105A70006420FCF755F96420FDF732FC6420FCF744
:105A80004FF9624D0820687068780828FCD0687863
:105A9000002468600120FCF761F99620FCF740F9CA
:105AA0000020FCF75BF99620FDF71AFC641C032C20
:105AB000F0DBFCF7A3FB40F2DC50FDF711FC072202
:105AC000082104A803F0E8FF012204A9504803F0CC
:105AD000E6FF504804F02CF84F4C00200121A4F8B8
