:020000040800F2
:1000000090190020710200081B3000086F290008B9
:10001000193000080D0D0008493B000800000000E1
:100020000000000000000000000000005D34000837
:10003000C10D000800000000593400085F340008BA
:100040008B0200088B0200088B0200088B0200085C
:100050008B0200085B3400088B020008C30D000807
:10006000C90D0008CF0D0008D50D00088B0200084F
:10007000110D00088B0200088B0200088B0200089B
:100080008B0200088B0200088B0200088B0200081C
:100090008B0200088B0200088B020008DB0D0008B1
:1000A0008B0200088B0200088B0200088B020008FC
:1000B0008B0200088B0200088B0200088B020008EC
:1000C0008B0200088B0200088B0200088B020008DC
:1000D0008B0200088B0200088B0200088B020008CC
:1000E0008B0200088B0200088B0200088B020008BC
:1000F0008B0200088B0200088B0200088B020008AC
:100100008B0200088B0200088B0200088B0200089B
:100110008B0200088B0200088B0200088B0200088B
:100120008B0200088B0200088B0200088B0200087B
:100130008B0200088B0200088B0200088B0200086B
:100140008B0200088B0200088B0200088B0200085B
:100150008B0200088B0200088B0200088B0200084B
:100160008B0200088B0200088B0200088B0200083B
:100170008B0200088B0200088B02000800000000C0
:100180008B0200088B02000800F002F800F060F813
:100190000AA090E8000C82448344AAF10107DA45E2
:1001A00001D100F055F8AFF2090EBAE80F0013F0D4
:1001B000010F18BFFB1A43F001031847A46C00009D
:1001C000C46C000010F8013B0A4413F0030408BF9C
:1001D00010F8014B1D1108BF10F8015B641E05D01B
:1001E00010F8016B641E01F8016BF9D1002D15D0D8
:1001F00010F8014B03F00C030C2BA1EB04040ABF15
:1002000010F8013BA4EB8314A4EB032405F10103D4
:1002100014F8016B5B1E01F8016BF9D5914238BFF0
:1002200010F8013BD1D3704700230024002500269D
:10023000103A28BF78C1FBD8520728BF30C148BF49
:100240000B6070471FB506F0F5FD1FBD10B510BD62
:1002500000F06AF91146FFF7F5FF05F02BFF00F0FB
:1002600088F903B4FFF7F2FF03BC00F08FF9000038
:100270000948804709480047FEE7FEE7FEE7FEE73A
:10028000FEE7FEE7FEE7FEE7FEE7FEE70448054976
:10029000054A064B70470000FD340008890100083C
:1002A0009013002090190020901500209015002038
:1002B00053EA020C00F069802DE9F04B4FF0000684
:1002C000002B1FBFB3FA83F503FA05F424FA05F6F1
:1002D0005E4012BF1643B2FA82F502FA05F4C5F188
:1002E00020051EBF22FA05FC44EA0C04203556EA1C
:1002F000044C4FEA144418BF641C4FF000084FF040
:100300000009904271EB030C39D3002919BFB1FAEF
:1003100081F701FA07F6B0FA80F700FA07F6C7F19D
:1003200020071EBF20FA07FC46EA0C062037B6FB62
:10033000F4FCA7EB0507103F07F01F0BCBF12006DD
:100340000CFA0BFB2CFA06F644BFB3460026202F0E
:10035000A4BF5E464FF0000B5BEA060C08BF4FF0EF
:10036000010B19EB0B09ABFB027C48EB0608C01B29
:1003700006FB02CC0BFB03CC71EB0C01C1E70B4677
:10038000024641464846BDE8F08B13B54FF00000E9
:100390004FF00001AFF30080BDE81C40704740EA19
:1003A0000103024630B59B0710D14FF0013400E045
:1003B00008C208C91D1B9D4315EAC41FF8D013F0DD
:1003C000FF0102F8011B0DD01B0AF8E711F8013BF1
:1003D000002B02F8013B05D011F8013B002B02F87D
:1003E000013BF3D130BD032A40F2308010F0030C02
:1003F00000F0158011F8013BBCF1020F624498BF78
:1004000011F801CB00F8013B38BF11F8013BA2F114
:10041000040298BF00F801CB38BF00F8013B11F08F
:10042000030300F02580083AC0F0088051F8043B2F
:10043000083A51F804CBA0E80810F5E7121D5CBF9C
:1004400051F8043B40F8043BAFF30080D20724BFCF
:1004500011F8013B11F801CB48BF11F8012B24BF63
:1004600000F8013B00F801CB48BF00F8012B7047B2
:1004700010B5203AC0F00B80B1E81850203AA0E83F
:100480001850B1E81850A0E81850BFF4F5AF5FEA73
:10049000027C24BFB1E81850A0E8185044BF18C926
:1004A00018C0BDE810405FEA827C24BF51F8043BCD
:1004B00040F8043B08BF7047D20728BF31F8023B21
:1004C00048BF11F8012B28BF20F8023B48BF00F8B5
:1004D000012B70474FF0000200B513469446964634
:1004E000203922BFA0E80C50A0E80C50B1F1200147
:1004F000BFF4F7AF090728BFA0E80C5048BF0CC0F5
:100500005DF804EB890028BF40F8042B08BF704752
:1005100048BF20F8022B11F0804F18BF00F8012BC4
:100520007047704770477047754600F02BF8AE462D
:1005300005006946534620F00700854618B020B5EF
:10054000FFF7A4FEBDE820404FF000064FF0000783
:100550004FF000084FF0000B21F00701AC46ACE86B
:10056000C009ACE8C009ACE8C009ACE8C0098D46D8
:10057000704710B50446AFF300802046BDE8104038
:10058000FFF76FBE004870472C1300200149182068
:10059000ABBEFEE7260002007047000010B52DED4F
:1005A000028BB0EE408AF0EE608A9FED0B0B51ECAF
:1005B000180B53EC102B06F011FB06D2B0EE480AD4
:1005C000F0EE680ABDEC028B10BD51EC180B05F083
:1005D0001DFF41EC100BF5E70000000000000000DB
:1005E0000349002231F81010024800F0A3BE0000B9
:1005F00094030020000802400349012231F8101042
:10060000024800F097BE000094030020000802405A
:1006100003480068406A034900B208807047000040
:100620005C0400201000002003480068406A034971
:1006300000B2088070470000EC0400201000002089
:10064000024900200968486270470000EC0400205D
:1006500010B53C21044801F07FFEBDE810403C216C
:10066000024801F079BE00005C040020EC04002088
:1006700070B5274D044655F8240004F0E6F855F807
:10068000240003F0C7FA55F8240004F00FF8214ABB
:1006900055F82400511E03F083FD1E4A55F824002E
:1006A000921E111D03F07FFD55F82400002103F078
:1006B00021FE55F824000122002103F0C9FE012289
:1006C00055F82400114603F0C3FE55F8240041F606
:1006D0009912012103F0FDFE55F824004FF4701229
:1006E000002103F0F6FE55F8240044F6206103F0E3
:1006F00018FF55F824001222002103F06BFF55F873
:100700002400BDE870400E22012103F063BF000009
:10071000EC1000201E00002010B50E4CA4F608219D
:10072000206803F053FDA4F6EC11606803F04EFD61
:10073000A4F51D61A06803F049FDA4F6B411E068BA
:1007400003F044FDA4F698112069BDE8104003F0C1
:100750003DBD0000EC1000200649C0EBC00201EBDB
:10076000820110B5044A0C4652F8200003F02EFD19
:10077000208910BDE4060020EC1000202DE9F04790
:10078000524C4FF0320800220821204600F0D2FDE2
:10079000DFF83C9100220121484600F0CBFD002209
:1007A0004021484600F0C6FD00220421484600F0E2
:1007B000C1FD00221021484600F0BCFD404600F07B
:1007C00083FC01220821204600F0B4FD404600F0E1
:1007D0007BFC4048404E00F51664404D2060522797
:1007E000C0F85C6180F86071297803F07FFD2168B2
:1007F000287881F860010020FFF73AFF01221146B6
:10080000484600F097FD404600F05EFCA4F5FA6013
:100810006060C0F85C6180F86071697803F066FD23
:100820006168687881F860010120FFF721FF0122EB
:100830004021484600F07EFD404600F045FCA4F50E
:10084000C860A060C0F85C6180F86071A97803F0AE
:100850004DFDA168A87881F860010220FFF708FF2C
:1008600001220421484600F065FD404600F02CFCC2
:10087000A4F59660E060C0F85C6180F86071E9788A
:1008800003F034FDE168E87881F860010320FFF7A8
:10089000EFFE01221021484600F04CFD404600F0DA
:1008A00013FCA4F548702061C0F85C6180F86071A9
:1008B000297903F01BFD2169287981F86001042062
:1008C000FFF7D6FE0120BDE8F087000000040240DB
:1008D000000C02408C070020B403002024000020FC
:1008E000074810B590ED040B53EC102B90ED060B60
:1008F00051EC100B06F0B4F941EC100B10BD0000E8
:10090000B800002021220249024801F093BF0000F4
:10091000C8120020340500202DE9F0411E4C051EB0
:100920001E4EB4F90000DFF878804FF0640710DD48
:10093000C2B28021404600F0FDFC208838B1002280
:100940002021404600F0F6FCA068684310E0012238
:10095000F6E715DA90B100228021404600F0EAFC6B
:1009600022782021404600F0E5FCA0686942484317
:10097000B0FBF7F031684863BDE8F0810122EBE796
:1009800000228021404600F0D5FC00222021404674
:1009900000F0D0FC0020EDE730000020A40400208F
:1009A000000C024010B504460146094802F078FCEC
:1009B00007482146703002F073FC05482146E030BC
:1009C00002F06EFC2146BDE81040024802F068BC0F
:1009D00008110020581200200A4880ED180B80ED05
:1009E0001A1B703080ED180B80ED1A1B703080EDF3
:1009F000180B80ED1A1B703080ED180B80ED1A1B60
:100A00007047000008110020044988607031886038
:100A100070318860703188607047000008110020D4
:100A200030B53C482DED028B83B002F0EFFB394826
:100A3000703002F0EBFB3748E03002F0E7FB36485D
:100A400002F0E4FB33480125344CC07804F1100C6B
:100A5000CDE9005004F168039CEC060BA3F10802F9
:100A6000A2F108012B4802F0D9FA2A4804F1280C17
:100A7000703004F18003C078A3F10802CDE9005082
:100A80002448A2F108019CEC060B703002F0C6FA73
:100A9000214804F1400C703804F16803C078A3F1D8
:100AA0000802CDE900501C48A2F108019CEC060B9D
:100AB000703802F0B3FA184804F18003A3F1080279
:100AC000C078A2F10801CDE9005004F140051248B8
:100AD00095EC060B02F0A2FA0520FFF795FFB4F99A
:100AE000040005F016FF41EC180BB4F9020005F004
:100AF00010FF41EC100BB0EE481AF0EE681AFFF749
:100B00006BFF03B00120BDEC028BBDE83040FFF766
:100B100049BF0000081100205812002030000020BA
:100B20002DE9F0411E4C051E1E4EB4F90000DFF801
:100B300078804FF064070FDD60B100220821404645
:100B400000F0F8FB22780221404600F0F3FBA06899
:100B5000684311E00122F1E716DAC2B208214046EB
:100B600000F0E8FB208868B100220221404600F036
:100B7000E1FBA06869424843B0FBF7F03168886345
:100B8000BDE8F0810122F0E700220821404600F094
:100B9000D1FB00220221404600F0CCFB0020EDE713
:100BA00030000020A4040020000C024070B59FED2E
:100BB0001A1B054653EC112B51EC100B05F010FFDE
:100BC0009FED171B53EC112B05F0E0FC164CC4E90C
:100BD0001A01FFF71DFD05F09CFE9FED141B53EC61
:100BE000112B05F0D3FC41EC100BFFF7D7FC84ED83
:100BF000160B104802F058FA284605F08AFE94EDCC
:100C0000181B53EC112B05F0EBFE05F053FEBDE86D
:100C1000704000B2FFF780BE000000000080564028
:100C20000000000000002C40300000200000000008
:100C3000000058400811002070B59FED1C1B0546B0
:100C400053EC112B51EC100B05F0CAFE9FED191B54
:100C500053EC112B05F09AFC184AC2E90001FFF78A
:100C6000E3FC05F056FE9FED161B53EC112B05F02F
:100C70008DFC41EC100BFFF791FC104C803C84ED97
:100C80001C0BFFF7DDFC104802F00EFA284605F0B9
:100C900040FE94ED1E1B53EC112B05F0A1FE05F058
:100CA00009FEBDE8704000B2FFF73ABF0000000047
:100CB000008056400000000000002C40B0000020E2
:100CC00000000000000058407811002010B50C48CA
:100CD00001F0DAF900210A4801F042FC0421084839
:100CE00001F03EFC01221103064800F023FB0449F9
:100CF000054809688068C862BDE81040FFF790BEEB
:100D0000A40400200008024030000020FEE700009C
:100D1000014800F067B8000084060020016818232D
:100D2000CAB2103AB2FBF3F2054B6FF30901032A82
:100D30009B5CC36500D9091D8165084670470000AA
:100D40003E6E000810B5014600208B698A6A4FF09C
:100D5000C07453B1B3F5005F15D072B1012A0CD045
:100D6000022A0AD0032A09D104E01AB1012A06D0C6
:100D7000022A03D1C96AC90100D5012010BDC96A80
:100D8000A142FAD010BD002AF7D0012AF2D0022ADF
:100D9000F3D0032AF3D010BD30B50468256825F4DC
:100DA00080252560046863608368402B036803D056
:100DB00099600068C26030BD9A600068C16030BD53
:100DC0007047022000F0B2B9042000F0AFB908204B
:100DD00000F0ACB9102000F0A9B9202000F0A6B9AD
:100DE00072B6FEE72DE9F84304464FF00009CDF84E
:100DF000009063484FF41651A56D0068B0FBF1F701
:100E00002E6894F85C10082000FA01F131420FD0EE
:100E100021680A6852070BD50A6822F004020A60AA
:100E200094F85C108840A860606D40F00100606537
:100E300094F85C104FF0010808FA01F0304208D035
:100E400021684969090604D5A860606D40F0020078
:100E5000606594F85C1004208840304208D0216816
:100E60000968890704D5A860606D40F004006065DA
:100E700094F85C1010208840304218D0216809682E
:100E8000090714D5A86020680168490304D50068E3
:100E9000000308D5A16C07E00168C90503D4016807
:100EA00021F008010160216C09B12046884794F8BF
:100EB0005C1020208840304231D021680968C90682
:100EC0002DD5A86094F8350005282068016806D063
:100ED000490347D5006800031DD4616C1CE021F074
:100EE000160101602068416921F080014161206C98
:100EF00008B9A06C20B12068016821F008010160E8
:100F000094F85C103F208840A86084F8358084F80D
:100F10003490216D1FE0E16B09B120468847606D78
:100F200000282BD0606DC00714D0052084F8350050
:100F30002068016821F0010101600098401C0090C8
:100F4000B84203D820680068C007F6D184F835801D
:100F500084F83490E16C002910D001B02046BDE83F
:100F6000F04308470168C905D5D4016821F0100194
:100F7000016084F8358084F83490CCE7BDE8F883CC
:100F8000B00300202DE9F041044600F0D9F90646EF
:100F90005CB1022084F83500002584F834502068C4
:100FA000016821F0010101600DE00120BDE8F08140
:100FB00000F0C6F9801B052805D9202060650320B4
:100FC00084F83500F2E720680068C007F0D1226895
:100FD000116820480140D4E901031843D4E90336DD
:100FE0003343184363691843A3691843E3691843FB
:100FF000236A18430843616A042903D1D4E90B1317
:1010000019430843106020684069666A20F00701B0
:1010100030460E43012704280CD1A06A0643E06A3B
:1010200040B12046FFF78EFE20B14020606584F875
:101030003570BAE7206846612046FFF76FFE94F8E6
:101040005C203F2191408160656584F83570002007
:10105000ACE700003F8010F02DE9F0410446866DBA
:1010600090F83400002501280DD0012084F83400C8
:1010700094F835700020012F07D084F83400022541
:101080002846BDE8F0810220FBE7022784F835708E
:1010900060652046FFF780FE94F85C103F20884092
:1010A000B0602068016841F016010160206C20B139
:1010B0002068016841F0080101602068016841F082
:1010C00001010160DCE7000070B5044600F038F96A
:1010D0000546601C02D004480078044400F030F952
:1010E000401BA042FAD370BDA40300200D4A0E4954
:1010F0001388834201D1012003E05388834202D147
:101100000220088270479388834201D10320F8E7C8
:10111000D388834201D10420F3E712898242F1D1BE
:101120000520EEE712000020BC050020044910B5A0
:101130000A68024202D00860FFF7D8FF10BD000025
:10114000143C01402DE9F84FDFF8BCA10022012535
:1011500003264FF00F090AF1040BAAF1040E00BF99
:101160000B6805FA02F42340A34270D10F7907F00F
:101170000307012F01D0022F16D187684FEA4208DA
:1011800006FA08FC27EA0C07D1F80CC00CFA08FC98
:101190004CEA070CC0F808C04768A7430C79C4F3B1
:1011A000001494403C4344600C79E443A4070AD003
:1011B000C4684FEA420C06FA0CF7BC438F6807FA82
:1011C0000CF72743C7600C7904F00304022C12D1FA
:1011D000D40800EB840CDCF820405707FF0E09FA16
:1011E00007F824EA0804D1F8108008FA07F848EA5A
:1011F0000408CCF8208004684FEA420C06FA0CF789
:10120000BC430F7907F0030707FA0CF72743076081
:101210004C6814F4403F70D03C4C276847F480473A
:101220002760246822F0030704F480440094384CBB
:1012300007EB040CDCF8084897074FEA177809FA1F
:1012400008F7BC43334FB84202D1002724E054E0F2
:10125000314FB84201D101271EE0304FB84201D1D1
:10126000022719E02E4FB84201D1032714E02D4F79
:10127000B84201D104270FE02B4FB84201D1052716
:101280000AE02A4FB84201D1062705E0284FB842AC
:1012900001D1072700E0082707FA08F72743CCF811
:1012A0000878DAF800405746D1F804C09C435FEA5A
:1012B000CC2C00D51C433C60DBF800405F46D1F8E5
:1012C00004C09C435FEA8C2C00D51C433C60DEF8D4
:1012D00000407746D1F804C09C435FEA8C3C00D5BF
:1012E0001C433C60084F083F3C68D1F804C09C4355
:1012F0005FEACC3C00D51C433C60521C102AFFF432
:101300002FAFBDE8F88F0000083C01404438024090
:10131000003001400000024000040240000802408A
:10132000000C02400010024000140240001802406D
:10133000001C02400AB1816170470904FBE700000C
:101340000148806870470000A403002070B50400C5
:1013500025D094F83D00002520B984F83C50204663
:1013600000F03EFA242084F83D002068016821F056
:10137000010101602068016841F4004101602068BA
:10138000016821F40041016000F0DAFB4D4A616818
:10139000914201D84C4900E04C49884201D20120D9
:1013A00070BD4B492368B0FBF1F15E6826F03F0643
:1013B0000E435E606368934206D94FF496735943B7
:1013C0004FF47A73B1FBF3F12368491C1E6A26F0CF
:1013D0003F06314319626168914210D84900401EAE
:1013E000B0FBF1F2521CC2F30B02042A01D204201A
:1013F00022E0B0FBF1F0401CC0F30B001CE0A2683F
:10140000F2B301EBC10303EB0116431EB3FBF6F38A
:101410005B1C43F480431B0549D092B301EBC1022E
:1014200002EB0111401EB0FBF1F0401CC0F30B00B9
:1014300040F4804040F400402168CA694CF6FF73D4
:101440009A431043C861D4E9071001432068026839
:1014500022F0C00211430160D4E903010143206876
:10146000826848F2FF339A4311438160D4E9050151
:1014700008432168CA6822F0FF021043C86001E0F7
:101480000EE016E02068016841F00101016025646A
:10149000202084F83D00256384F83E50002070BD74
:1014A00001EB4106431EB3FBF6F35B1CB3E70120DF
:1014B000C2E701EB4101401EB0FBF1F0401CC0F35C
:1014C0000B00B7E7A086010080841E0000093D00E4
:1014D00040420F002DE9F84F1F4690468A460446C9
:1014E000DDF82890FFF72CFF054694F83D002028F2
:1014F00075D1192301226C492046009501F03AFB71
:101500000028F5D194F83C00012868D0012084F827
:101510003C0020680168C90703D1016841F001015E
:1015200001602068016821F400610160222084F8D4
:101530003D00102084F83E0000262664C4F8248074
:101540006785608D20855948E0622B464A465146A2
:10155000204601F025FA002878D1208D544F68B13B
:10156000012814D002282068016816D041F4806157
:101570000160206841698069009087E020684169C6
:1015800081690091016841F4007101607EE020688A
:10159000016821F480610160F0E721F4806101605D
:1015A0002068016841F40061E2E7032848D8012877
:1015B0000AD0022814D04B46002239462046009516
:1015C00001F0D8FAD8BB27E02A464946204601F068
:1015D00050FBA0BB20680069616A08704DE061E0C3
:1015E0004B46002239462046009501F0C3FA30BB35
:1015F0002068016841F40071016020680069616A37
:101600000870606A401C6062218D491E2185618DD1
:10161000491E618521682EE02068016821F48061FF
:10162000016020680069616A0870606A401C60623D
:10163000208D401E2085608D401E6085D0E705E02E
:101640002A464946204601F014FB10B10120BDE8AE
:10165000F88F20680069616A0870606A401C6062E7
:10166000218D491E2185618D491E618521684A6948
:10167000D24352070AD409690170606A401C606253
:10168000208D401E2085608D401E6085208D0028A5
:101690008BD1202084F83D0084F83E6084F83C60C3
:1016A0000020D4E70220D2E7020010000000FFFF74
:1016B000040001002DE9F84F1F4690468A46044673
:1016C000DDF82890FFF73CFE054694F83D00202801
:1016D0007FD11923012240492046009501F04AFAA2
:1016E000002876D194F83C00012872D0012084F8BB
:1016F0003C0020680168C90703D1016841F001017D
:1017000001602068016821F400610160212084F8F3
:101710003D00102084F83E0000262664C4F8248092
:101720006785608D20852D48E0622B464A465146EC
:10173000204601F0ABF990B92068416980690090BA
:1017400036E02A464946204601F0C6FA50B1206CE0
:10175000042804D12068016841F40071016001206F
:10176000BDE8F88F606A216800780861606A401CF3
:101770006062618D491E6185218D491E89B2218576
:1017800022685369DB435B070BD451B100781061C9
:10179000606A401C6062608D401E6085208D401E26
:1017A00020852A464946204601F0BEF90028CED1C0
:1017B000208D0028C5D154F83D0B016841F400711B
:1017C0000160202004F81E09E67766770020C7E74D
:1017D000FFE70220C4E70000020010000000FFFF46
:1017E0002DE9F04186B0044614216846FEF772FEEA
:1017F0002F4A2168DFF8BC8000242E4812250326DA
:10180000042708F1100891421CD1016841F002013F
:101810000160006802AA00F0020005906801CDE9AD
:10182000000582E8D00069462348FFF78BFCD8F812
:10183000001041F40011C8F80010D8F8000000F4BE
:10184000001031E01D4A91422FD1016841F004019E
:101850000160016801F004010591016841F0010196
:1018600001600068694600F0010005905015CDE95F
:10187000000502AA124882E8D000FFF763FC4FF48B
:101880008070CDE9000502AA694682E8D0000D48C3
:10189000FFF758FCD8F8001041F40001C8F8001018
:1018A000D8F8000000F40000059006B0BDE8F08113
:1018B000005400403038024000040240005C004008
:1018C000000802400000024002488168027811448A
:1018D00081607047A40300200B4810B5016841F4F3
:1018E00000710160016841F480610160016841F4A8
:1018F00080710160032000F077F80F2000F006F8F7
:1019000000F024F8002010BD003C024070B50D4DE1
:1019100004464FF47A712878B1FBF0F00A4909685F
:10192000B1FBF0F000F014FB48B9102C07D20022F4
:101930002146501E00F038F800206C6070BD012078
:1019400070BD0000A4030020B00300200E4808B5BD
:10195000016841F480410160006800F4804000901B
:101960000948001F016841F08051016000680022B1
:1019700000F0805000901146052000F015F8BDE8F9
:101980000840052000F002B844380240002809DB76
:1019900000F01F02012191404009800000F1E02089
:1019A000C0F8001170470000F0B40E4B1B680C46E5
:1019B000C3F30223C3F10705042D00D90425191D23
:1019C000072901D2002300E0DB1E012606FA05F1FB
:1019D000491E214099409E40761E16403143F0BC7E
:1019E00004F023BA0CED00E0064900F00702086895
:1019F0004FF6FF03184040EA0220034A10430860F4
:101A0000704700000CED00E00000FA052DE9F047FA
:101A10000E46050065D0DFF81481D8F80000F7B253
:101A200000F00700B04207D288F80070D8F8000034
:101A300000F00700B04254D128683D4C810712D510
:101A4000400703D5206840F4E05020602878000764
:101A500003D5206840F4604020602068A96820F029
:101A6000F000084320602878C0072DD0304968680E
:101A70000839012812D0022813D0032811D0096890
:101A8000890700292DDA216821F003010143216033
:101A9000FFF756FC814641F2883A0EE00968890357
:101AA000EFE709688901ECE7FFF74AFCA0EB0901C1
:101AB000514502D90320BDE8F0872068696800F02D
:101AC0000C00B0EB810FEFD1D8F80010404601F0C8
:101AD0000701B14207D90770006800F00700B04263
:101AE00001D00120E7E72878400705D52068E9689C
:101AF00020F4E050084320602878000706D52068CD
:101B0000296920F4604040EAC100206000F038F804
:101B10002168084AC1F30311515CC84006490860B6
:101B200006480068FFF7F2FE0020C4E7003C0240D0
:101B300008380240466E0008B0030020A8030020C9
:101B40000448054900680968044AC1F38221515CD0
:101B5000C8407047B003002008380240566E0008A5
:101B60000448054900680968044AC1F34231515CE0
:101B7000C8407047B003002008380240566E000885
:101B8000154810B5006810F00C02144813D0144921
:101B9000042A0FD0082A0ED10F4C241F2268236874
:101BA00002F03F025B0207D52068C0F38810A0FB5B
:101BB000010106E0084610BD2168C1F38811A1FBB0
:101BC00000010023FEF774FB2168C1F30141491CA9
:101BD0004900B0FBF1F010BD083802400024F400C9
:101BE00040787D012DE9F84F04006ED02078DFF8B1
:101BF0004C93C007A9F104054AD009F1040001681B
:101C0000C1F38101012908D00068C0F381000228D6
:101C10000AD1D9F80000400206D52868800337D5DC
:101C200060680028E1D033E06068B0F5803F10D0F4
:101C3000B0F5A02F286810D020F4803028602868E4
:101C400020F4802028606068A8B1FFF779FB064681
:101C50000DE0286840F48030F4E740F480202860EC
:101C6000F7E700BFFFF76CFB801B642873D8286878
:101C70008003F7D50CE0FFF763FB064605E000BFE5
:101C8000FFF75EFB801B6428F0D828688003F7D438
:101C90002078DFF8AC8280074FF0000A3ED5A748D5
:101CA000001D016811F00C0F08D00068C0F381001E
:101CB00002280BD1D9F80000400207D42868800719
:101CC00016D5E068012800D112E033E1E068B8B130
:101CD0000120C8F80000FFF733FB064605E000BF0F
:101CE000FFF72EFB801B0228C0D828688007F7D595
:101CF0002868216920F0F80040EAC10028600DE062
:101D0000C8F800A0FFF71CFB064604E0FFF718FB2D
:101D1000801B02281FD828688007F7D42078000786
:101D200022D5864F87486169703771B10121016002
:101D3000FFF706FB064604E0FFF702FB801B0228C4
:101D400009D838688007F7D50EE0C0F800A0FFF783
:101D5000F7FA064605E082E0FFF7F2FA801B022858
:101D60007DD838688007F7D42078400768D5DFF839
:101D7000CCB100270BF13C0BDBF80000C0000BD40A
:101D8000DBF8001041F08051CBF80010DBF80000C8
:101D9000012700F0805000906B4E3068C00510D4D1
:101DA000306840F480703060FFF7CAFA009005E0B8
:101DB000FFF7C6FA0099401A022850D83068C005CB
:101DC000F6D55E4EA0686C3601280FD00528306825
:101DD00010D020F001003060306820F00400306046
:101DE000A068B8B1FFF7ACFA00900FE0306840F09F
:101DF0000100F4E740F004003060F7E7FFF7A0FAD5
:101E00000099411A41F28830814266D830688007D3
:101E1000F4D50EE0FFF794FA009007E0FFF790FA90
:101E20000099411A41F28830814256D830688007C3
:101E3000F4D42FB1DBF8001021F08051CBF8001062
:101E4000A069C8B33D49091D0968C1F38101022990
:101E50004AD00228504607D0C8F8600000E03CE0B5
:101E6000FFF76EFA04463BE04746C8F86000FFF70C
:101E700067FA064605E000BFFFF762FA801B0228FA
:101E80002BD828688001F7D4D4E907010843A16A58
:101E90002E4A490802EB0141626A41EA8211084375
:101EA00094F82C1040EA0161C9F80010012038664E
:101EB000FFF746FA044606E03EE000BFFFF740FAAF
:101EC000001B022809D828688001F7D534E000BF3C
:101ED000FFF736FA001B022802D90320BDE8F88F6D
:101EE00028688001F4D427E00128F7D0D9F8000051
:101EF000E26900F4800191421CD1226A00F03F01A6
:101F0000914217D147F6C071626A0140B1EB821F5E
:101F100010D1A26A4FF0FF3300F4403103EB5202BC
:101F2000B1EB024F06D194F82C1000F07060B0EBCA
:101F3000016F01D00120D1E70020CFE70438024033
:101F400000004742800E4742007000400000FFFF43
:101F500010B5401EB0F1807F01D3012010BD4FF0BD
:101F6000E02460610F21601703F05FFF0020A06193
:101F700007202061002010BD70B590F83C20012A98
:101F800032D0012480F83C40022280F83D200368D2
:101F90005A689D6822F070060A6832435A60134BF3
:101FA00002689A4214D0B2F1804F11D0104B9A427D
:101FB0000ED0104B9A420BD00F4B9A4208D00F4BC9
:101FC0009A4205D00E4B9A4202D00E4B9A4204D14F
:101FD000496825F080031943916080F83D40002155
:101FE00080F83C10084670BD022070BD0000014022
:101FF0000004004000080040000C004000040140C4
:10200000004001400018004010B5040003D094F8CF
:102010003D0010B107E0012010BD002084F83C0015
:10202000204600F01FF8022084F83D00211D2068A2
:1020300001F06CFA012084F8460084F83E0084F830
:102040003F0084F8400084F8410084F8420084F89E
:10205000430084F8440084F8450084F83D000020E3
:1020600010BD000008B50068B0F1804F08D10548E8
:10207000016841F001010160006800F0010000907A
:1020800008BD00004038024090F83D10012901D001
:1020900001207047022180F83D10006811498842F4
:1020A00014D0B0F1804F11D00F4988420ED00F49A3
:1020B00088420BD00E49884208D00E49884205D08C
:1020C0000D49884202D00D49884204D1816801F04F
:1020D0000701062903D0016841F0010101600020D9
:1020E000704700000000014000040040000800406C
:1020F000000C004000040140004001400018004076
:1021000070B5044690F83C000025012817D0012640
:1021100084F83C60022084F83D002068826822F048
:10212000770222F47F4282600868502838D00DDCA4
:1021300020284FD005DC90B3102811D14AE00220AE
:1021400070BD302846D040280AD13BE060282FD00F
:1021500070280DD0B0F5805F03D0B0F5005F12D0CD
:10216000012584F83D60002084F83C00284670BDBD
:10217000CB68D1E90121206801F039FA2068816833
:1021800041F0770109E0CB68D1E90121206801F035
:102190002EFA2068816841F480418160E1E719E00E
:1021A000CA684968206801F0F7FA5021206806E003
:1021B000CA684968206801F000FB6021206801F0CE
:1021C00020FACEE7CA684968206801F0E5FA4021A4
:1021D0002068F4E7226801461046F0E72DE9F04157
:1021E0000D46040003D094F83D0018B108E001202A
:1021F000BDE8F081002084F83C00204600F040F863
:10220000022084F83D002068816844F2070291436F
:102210008160211D206801F079F922689068916938
:10222000166A2B68AF69034340F20330814341EAE9
:102230000721A868EF6908434FF6FC418843E96825
:1022400040EA0720014328692F6A000140EA07306D
:10225000084369686D6926F0AA0646EA0515294310
:1022600093602268906154F8460B0162012004F8E3
:102270001F09E0752076E0762077A0750020B7E78B
:1022800030B587B0044614216846FEF723F92C4A7E
:10229000216800242B48022591421CD12949143180
:1022A0000A6842F001020A60096801F00101059123
:1022B000016841F0100101600068694600F01000FB
:1022C00005904FF420600090CDE901540120CDE944
:1022D00003401D482FE01D4A91422ED1194910316B
:1022E0000A6842F004020A60096801F004010591DD
:1022F000016841F008010160016801F008010591E1
:10230000016841F0020101600068694600F00200C6
:1023100005904FF480500090CDE901540C48CDE970
:102320000345FEF70FFF80200090CDE90154694678
:102330000848CDE90345FEF705FF07B030BD0000B2
:102340000000014030380240001002400008004008
:10235000000C02400004024070B590F83E60044654
:1023600090F83F5090F8423090F84320022021B17D
:1023700004290ED0012E1BD114E0012E18D1012BFF
:1023800016D184F83E0084F8420001220021206822
:1023900020E0012D0CD1012A0AD184F83F0084F8F5
:1023A000430014E0012D03D1012B01D1012A01D0FA
:1023B000012070BD84F83E0084F83F0084F842009C
:1023C00084F8430001220021206801F003F9012272
:1023D0000421206801F0FEF82068016841F0010145
:1023E0000160002070BD000010B586B004461421C5
:1023F0006846FEF76FF82068B0F1804F15D10C48A1
:102400000021026842F001020260006800F0010051
:102410000590222000900220CDE901010120CDE9A4
:10242000031069460348FEF78DFE06B010BD00009C
:10243000303802400000024070B5044690F83C007D
:1024400000260D4601280FD0012084F83C006AB117
:10245000042A1DD0082A2FD00C2A3FD001260020A4
:1024600084F83C00304670BD022070BD206801F049
:10247000D1F82068816941F0080181612068816993
:1024800021F004018161206881692A69114311E00A
:10249000206801F0EFF82068816941F400618161F2
:1024A0002068816921F480618161206881692A69DD
:1024B00041EA02218161D2E7206801F011F9206828
:1024C000C16941F00801C1612068C16921F00401BE
:1024D000C1612068C1692A69114311E0206801F0D7
:1024E00033F92068C16941F40061C1612068C169A4
:1024F00021F48061C1612068C1692A6941EA022131
:10250000C161ACE710B5040003D094F83D0010B1F0
:1025100007E0012010BD002084F83C00204600F0B8
:102520001EF8022084F83D00211D206800F0EEFF17
:10253000012084F8460084F83E0084F83F0084F8C7
:10254000400084F8410084F8420084F8430084F895
:10255000440084F8450084F83D00002010BD704719
:1025600010B50446022249B104290ED0082913D01F
:1025700094F84100012816D0012010BD94F83E00C7
:102580000128F9D184F83E200FE094F83F0001289B
:10259000F2D184F83F2008E094F840000128EBD104
:1025A00084F8402001E084F841200122206801F0F5
:1025B00011F816492068164A884201D0904203D18A
:1025C000436C43F4004343642068884213D0B0F165
:1025D000804F10D00F4988420DD00F4988420AD051
:1025E0000E49884207D0904205D00D49884202D05A
:1025F0000C49884204D1816801F00701062903D003
:10260000016841F001010160002010BD000001409F
:10261000000401400004004000080040000C00409D
:1026200000400140001800407047704770B504003A
:1026300004D094F83D00002510B106E0012070BDE3
:1026400084F83C50204600F023F8242084F83D0014
:102650002068C16821F40051C160204601F068F98A
:102660002068016921F4904101612068416921F0ED
:102670002A0141612068C16841F40051C1602564AC
:10268000202084F83D0084F83E00002070BD00004A
:1026900070B586B0064614216846FDF71BFF2E4C28
:1026A000306800252D4902220323A04234D12B4853
:1026B0001030046844F480240460006800F4802032
:1026C0000590086840F0020008600868694600F05C
:1026D0000200059098028DE825000720CDE903301F
:1026E0001F48FEF72FFD204C1E4820604FF0006071
:1026F000C4E901054014C4E903506561A561E561C1
:10270000256220466562FEF73DFC08B1FEF768FBD6
:10271000B463A66306B070BD144CA042FAD10F4852
:102720001430046844F020040460006800F02000C5
:102730000590086840F0040008600868694600F0E9
:1027400004000590C0208DE825000820CDE9033065
:102750000748FEF7F7FCDDE700480040303802404C
:10276000000402402860024084060020001401405A
:10277000000802402DE9F84F044690F83E009A46C2
:1027800016460D46202853D1FDB1F6B194F83C0011
:1027900001284DD0012084F83C0000272764222026
:1027A00084F83E002763FEF7CBFDA6858146E685CB
:1027B000A0684FF48058404501D1206940B12E46B1
:1027C0005FF0000584F83C7027E00120BDE8F88F39
:1027D0000026F7E74B46002220212046CDF800A036
:1027E00001F076F908B10320F0E726B1A068404572
:1027F0001BD038B108E020684068C0F3080025F815
:10280000020B07E0206980B12068406800F07F007B
:1028100006F8010BE08D401EE085E08D0028D9D13F
:10282000202084F83E000020D0E720684068EFE7D1
:102830000220CBE790F83E30202B0ED159B152B197
:1028400090F83C30012B08D0012380F83C30002365
:10285000036301F0F3B801207047022070470000C5
:1028600010B532492DED028B006888425BD13048AB
:102870009FED308B314C0178532905D0BDEC028B94
:10288000BDE8104003F0ECBB94ED060B84ED020BA9
:10289000B0F8050004F054F89FED291B53EC112B00
:1028A00004F09EF89FED281B53EC112B04F098F8D0
:1028B00041EC100B53EC182B84ED060B03F0BEFF1C
:1028C00028D094ED020B53EC102B94ED060B51EC39
:1028D000100B04F0C5F99FED1E1B53EC112B04F0F7
:1028E0007DF904D29FED1C0B84ED040B12E094EDF6
:1028F000020B53EC102B94ED060B51EC100B04F073
:10290000AFF99FED171B53EC112B04F02DF801D2FA
:1029100084ED048B2122BDEC028B0549BDE81040FB
:102920001148FFF787BFBDEC028B10BD0048004087
:10293000C81200200000000000000000B8000020C5
:10294000000000000000003F000000000080664022
:102950000000000000E075400000000000807640AC
:102960000000000000E075C0340500207047FEE75D
:1029700001684A69D24352050FD46FF480624A61FC
:10298000002140F8301F202242738173026942F017
:1029900004020261017301207047002070470000AB
:1029A0002DE9F84F0446C06A1E4693460D4621683D
:1029B0000A6842F480620A60082807D0012805D01E
:1029C00010F5803F02D0206B112804D120680168E7
:1029D00041F4807101604FF001195B4600224946C5
:1029E0002046009600F0C6F84FF4007840B1206809
:1029F0000068C00501D5C4F840800320BDE8F88F09
:102A00002069DFF884A0B0F5804F0FD00620216840
:102A100000EAD51747F0F000086133465A460AF13C
:102A20000601204600F0DAF858BB03E0E8B240F0B7
:102A300001001CE02168E8B2086133465A4651465D
:102A4000204600F0CBF8E0B9206841698169009127
:102A5000016841F4807101605B46002249462046CE
:102A6000009600F087F80028C1D147F0F1002168F6
:102A7000086133465A465146204600F0AFF8002818
:102A8000BCD00120BAE7000002000100F8B50446FE
:102A9000C06A1E460D461746082807D0012805D0F3
:102AA00010F5803F02D0206B122804D12068016805
:102AB00041F480710160134600224FF0011120465D
:102AC000009600F057F840B120680068C00502D5B4
:102AD0004FF4007020640320F8BD2069B0F5804FEA
:102AE0000ED00620216800EAD51040F0F000086101
:102AF00033463A460B49204600F070F878B902E0B8
:102B000005F0FE0000E0E8B221680861054933469F
:102B10003A46891F204600F061F80028DCD00120E9
:102B2000F8BD00000800010070B516460D460446C9
:102B30000DE02046FFF71CFF08B1012070BD681CA6
:102B400005D0FEF7FDFB801BA84207D835B12068F1
:102B50004069C0434007ECD4002070BD002044F819
:102B6000300F20216173A073216941F020012161A0
:102B70002073E2E72DE9F0471E4690460D460446D5
:102B8000C1F30747DDF8209008E0701C06D0FEF77F
:102B9000D7FBA0EB0900B0420FD876B12068012F17
:102BA00018D0806925EA00000004000C14D0002130
:102BB0004145EAD00020BDE8F087002044F8300FFE
:102BC00020216173A073216941F0200121612073EC
:102BD0000120F0E74069E5E70121E9E72DE9F04749
:102BE0009A4691460E46044600254FF02008C1F350
:102BF000074725E020684069C043400514D4206899
:102C0000016841F40071016021686FF480604861DF
:102C1000256384F83D8084F83E50206C40F0040029
:102C2000206484F83C501FE0B9F1FF3F08D0FEF764
:102C300087FBA0EB0A0149450CD8B9F1000F09D078
:102C40002068012F13D0806926EA00000004000CE0
:102C50000BD0CFE744F8305F84F80D80A57320696E
:102C600040F02000206125730120BDE8F087406915
:102C7000EAE72DE9F041002590460E46044620275C
:102C800017E04069C043C0060CD454F8301B6FF005
:102C90001000486144F810596777A577206A2062D0
:102CA000257717E0FEF74CFBA0EB0800B04208D8F0
:102CB0003EB120684169C9434906E2D40020BDE81D
:102CC000F08144F8305F6773A573206940F02000FD
:102CD000206125730120F2E770B516460D460446C3
:102CE0000DE02046FFF744FE08B1012070BD681CCE
:102CF00005D0FEF725FB801BA84207D835B1206818
:102D00004069C0430006ECD4002070BD002044F8A8
:102D1000300F20216173A073216941F020012161EE
:102D20002073E2E72DE9F04786B014216846FDF7ED
:102D3000D1FB54480024016841F010010160016892
:102D400001F010010591016841F004010160016882
:102D500001F004010591016841F080010160016802
:102D600001F080010591016841F0010101600168F5
:102D700001F001010591016841F002010160016863
:102D800001F002010591016841F00801016000684D
:102D9000DFF8F48000F0080041F23F550590002272
:102DA00029464046FEF7C6FA0122DFF8E0901602F7
:102DB00031464846FEF7BEFA42F2FF070022394686
:102DC0004846FEF7B7FADFF8C8A0002208215046AF
:102DD000FEF7B0FA3E2000904FF48810CDE90104D0
:102DE00069462C48FEF7AEF900950125CDE901545E
:102DF000694640460394FEF7A5F911200096CDE9F7
:102E00000104694648460394FEF79CF90097CDE912
:102E10000154694648460394FEF794F9082000904F
:102E2000CDE90154694650460394FEF78BF9002220
:102E300001210720FEF7B8FD0720FEF7A7FD0022BD
:102E400001210820FEF7B0FD0820FEF79FFD0022BB
:102E500001210920FEF7A8FD0920FEF797FD0022B9
:102E600001210A20FEF7A0FD0A20FEF78FFD0022B7
:102E700001211720FEF798FD1720FEF787FD06B009
:102E8000BDE8F0873038024000080240000C0240E4
:102E9000000402400010024010B58CB024216846A6
:102EA000FDF718FB00241748099415490A94C0E956
:102EB00000144FF6FF71C0E9024180210461C0E9AE
:102EC00005410320CDE900040120CDE9020404946A
:102ED000CDE90540079469460A480894FFF77EF952
:102EE00008B172B6FEE7099409A906480A94FFF7EB
:102EF00043F8002801D072B6FEE70CB010BD000008
:102F0000000001405C04002010B58EB0002407943E
:102F1000089409940A940B941C2168460C94FDF7BC
:102F2000D9FA21484FF08041C0E900140921C0E9D5
:102F30000241802104618161FFF766F808B172B631
:102F4000FEE74FF48050079007A91748FFF7D8F81D
:102F500008B172B6FEE71448FFF7D4FA08B172B6AA
:102F6000FEE70B940BA910480C94FFF705F808B185
:102F700072B6FEE76020CDE90004029400226946A3
:102F800009480494FFF758FA08B172B6FEE7042224
:102F900069460548FFF750FA08B172B6FEE70248E5
:102FA000FFF722FA0EB010BDA404002010B58CB0BB
:102FB00024216846FDF78EFA002416480994144926
:102FC0000A94C0E900144FF6FF71C0E902410461A0
:102FD000846103200090022001900120CDE90204C9
:102FE0000494CDE90540079469460A480894FFF720
:102FF000F5F808B172B6FEE7099409A905480A94E4
:10300000FEF7BAFF002801D072B6FEE70CB010BD83
:1030100000080040EC040020FEE7FEE770B504461F
:103020002DED068B04F1400C0020B0EE419ADDE955
:103030000A568CE80E00F0EE619AB0EE40AAF0EE6F
:1030400060AA6070B0EE428AF0EE628A9FED121BB9
:103050009FED130B204600F031F96420A06031464B
:10306000204600F0FBF82946B0EE482AF0EE682A28
:10307000B0EE491AF0EE691AB0EE4A0AF0EE6A0AAA
:10308000204600F073F9FEF75BF9A168401A606012
:10309000BDEC068B70BD00000000000000E06F403A
:1030A000000000000000000070B504462DED088B04
:1030B000407800287ED0FEF743F905466068A16895
:1030C000281A814277D8206C90ED009BA06C53ECBD
:1030D000192B90ED000B51EC100B03F0C1FD94ED9A
:1030E000160B41EC1A0B53EC102B51EC190B03F09F
:1030F000B7FD94ED0C0B41EC180B53EC1A2B51EC73
:10310000100B03F06DFC94ED141B53EC112B03F02A
:1031100089F941EC1B0B84ED14BB207868B994ED60
:103120000A0B53EC182B51EC100B03F059FC53EC29
:103130001B2B03F089FDC4E9140194ED1A1B94EDD7
:10314000140B53EC112B51EC100B03F047FD02D282
:1031500094ED1A0B0CE094ED181B94ED140B53EC4A
:10316000112B51EC100B03F0FFFB03D294ED180B65
:1031700084ED140B207850B194ED0A0B53EC1A2B0C
:1031800051EC100B03F02CFC41EC1A0B01E09FED0D
:103190001DAB94ED0E0B53EC182B51EC100B03F000
:1031A0001FFC94ED141B53EC112B03F04DFD53EC5D
:1031B0001A2B01E020E022E003F034F994ED1A0B21
:1031C00041EC180B53EC102B03F008FD02D294EDE8
:1031D0001A8B0AE094ED180B51EC180B53EC102BE2
:1031E00003F0C2FB01D294ED188B606C80ED008B74
:1031F00084ED169B01206560BDEC088B70BD00203E
:10320000FAE70000000000000000000010B50446CE
:10321000406C90ED000B84ED140B206C90ED001BC6
:1032200051EC100B84ED161B94ED1A1B53EC112B73
:1032300003F0D4FC02D294ED1A0B0CE094ED181BB1
:1032400094ED140B53EC112B51EC100B03F08CFB91
:1032500003D294ED180B84ED140B10BD70B5044629
:1032600040780D46D0B1E078A84217D094ED0A0B13
:1032700051EC100B03F0CAF8C4E90A0194ED0C0BF1
:1032800051EC100B03F0C2F8C4E90C0194ED0E0BE5
:1032900051EC100B03F0BAF8C4E90E01E57070BDF3
:1032A00070B50446012901D0002505E060780125AC
:1032B00010B92046FFF7AAFF657070BD10B504462F
:1032C0002DED048BB0EE418AF0EE618AB0EE409AAB
:1032D000F0EE609A53EC182B51EC190B03F07EFCC6
:1032E00041D984ED189B84ED1A8B607800283AD080
:1032F000606C53EC182B90ED000B51EC100B03F0AD
:103300006DFC02D294ED1A0B0DE0606C94ED180B7D
:1033100090ED001B53EC102B51EC110B03F024FB30
:1033200004D294ED180B606C80ED000B94ED1A1B29
:1033300094ED140B53EC112B51EC100B03F04EFCDD
:1033400002D294ED1A0B0CE094ED181B94ED140BC3
:1033500053EC112B51EC100B03F006FB03D294ED50
:10336000180B84ED140BBDEC048B10BD70B50D462D
:103370002DED088BB0EE408AF0EE608A0446B0EE88
:1033800042AA9FED319BF0EE62AAB0EE41BAF0EE98
:1033900061BA53EC192B51EC180B03F0E5FA4ED33C
:1033A00053EC192B51EC1B0B03F0DEFA47D353EC13
:1033B000192B51EC1A0B03F0D7FA40D3A570012D4D
:1033C00040D00020207084ED048B84ED06BB84ED9A
:1033D00008ABA06803F0B4FA9FED1D1B53EC112B52
:1033E00003F0D4F841EC190B84ED0A8B53EC192B44
:1033F00051EC1B0B03F0F4FA41EC1B0B53EC192BB3
:1034000084ED0CBB51EC1A0B03F0C0F841EC190B26
:1034100084ED0E9BE078012811D151EC180B02F0DD
:10342000F5FFC4E90A0151EC1B0B02F0EFFFC4E900
:103430000C0151EC190B02F0E9FFC4E90E01BDECDF
:10344000088B70BD0120BDE70000000000000000F7
:103450000000000000408F40704770477047FEF743
:1034600033BA000030B593B030216846FDF732F82A
:1034700014210CA8FDF72EF81E480025016841F024
:1034800080510160006800F0805011901A48016876
:1034900041F4804101600068022400F480401190F2
:1034A00001200090000401908001CDE90640192020
:1034B00008904FF4A870CDE9090404200B906846E9
:1034C000FEF790FB08B172B6FEE70CA90F2081E869
:1034D00031004FF4A0500F904FF480501090052110
:1034E0000CA8FEF793FA002801D072B6FEE713B0DD
:1034F00030BD0000403802400070004002480168C2
:1035000041F470010160704788ED00E0F0B5026899
:10351000254C264D264E274F274B4FF0804CA0427E
:1035200009D0604507D0A84205D0B04203D0B842C8
:1035300001D0984204D122F0700E4A6842EA0E028D
:10354000A0421BD0604519D0A84217D0B04215D078
:10355000B84213D0984211D0184DA8420ED0184D41
:10356000A8420BD0174DA84208D0174DA84205D04D
:10357000164DA84202D0164DA84203D122F4407540
:10358000CA682A434D6922F080022A4302608A6891
:10359000C2620A688262A04201D0984201D10969E0
:1035A000016301214161F0BD0000014000040040C1
:1035B00000080040000C00400004014000400140B1
:1035C000004401400048014000180040001C004039
:1035D0000020004010B501F01F030121046A99404A
:1035E0008C430462016A9A401143016210BD10B518
:1035F000846842EA032224F47F440A43224382601F
:1036000010BD826822F070020A4342F00701816017
:1036100070470000F0B5026A22F001020262036AFC
:1036200042688469124E24F073050C682C4323F021
:1036300002058B682B430D4DA84201D0B04205D145
:1036400023F00807CB683B4323F00403A84201D0D2
:10365000B04205D14D6922F4407215438A692A436C
:1036600042608461496841630362F0BD000001402B
:1036700000040140F0B5026A22F010020262026A00
:10368000436884690D6824F4E64444EA05248D689F
:1036900022F0200242EA05120F4D104EA84201D03E
:1036A000B04206D1CF6822F0800242EA071222F02F
:1036B0004002A84201D0B04207D14D6923F44063D3
:1036C00043EA85038D6943EA850343608461496861
:1036D00081630262F0BD000000000140000401406F
:1036E000F0B5026A22F480720262026A4368C46919
:1036F00022F4007224F073050C68124E2C438D687E
:1037000042EA05220E4DA84201D0B04206D1CF6850
:1037100022F4006242EA072222F48062A84201D029
:10372000B04207D14D6923F4405343EA05138D6934
:1037300043EA05134360C4614968C1630262F0BD96
:10374000000001400004014030B5026A22F48052BA
:103750000262046A4268C3690D6823F4E64343EADF
:1037600005238D6824F4005444EA0534084DA8422A
:1037700002D0084DA84204D14D6922F4804242EAA9
:1037800085124260C36149680164046230BD000073
:10379000000001400004014010B5036A046A24F0EF
:1037A00001040462846924F0F00444EA021423F062
:1037B0000A020A438461026210BD10B5036A23F055
:1037C000100303628369046A23F4704343EA0232FC
:1037D00024F0A00343EA01118261016210BD70B5BB
:1037E000846B2068406994F83D10C0F3C010002538
:1037F000212904D118B1E584204600F08AF8206818
:10380000406994F83E10C0F38010222904D118B109
:10381000E585204600F056F8206C40F0100020644A
:103820002046FEF702FF70BD10B50146806B0968A7
:103830000968C9052FD40021C18501680C3151E800
:10384000002F22F4807241E80023002BF5D101689B
:10385000143151E8002F22F0010241E80023002B2F
:10386000F5D10168143151E8002F22F0400241E8FF
:103870000023002BF5D1202180F83E10016B012997
:1038800009D101680C3151E8002F22F0100241E803
:103890000023002BF5D1016B012902D0FEF7E0FFD8
:1038A00010BD818DFEF7C0FE10BD10B5806B016BA1
:1038B000012902D0FFF75AF810BD818D4908FEF7A3
:1038C000B3FE10BD01680C3151E8002F22F4907254
:1038D00041E80023002BF5D10168143151E8002F95
:1038E00022F0010241E80023002BF5D1016B0129F0
:1038F00009D101680C3151E8002F22F0100241E893
:103900000023002BF5D1202180F83E100021016317
:10391000704701680C3151E8002F22F0C00241E8E5
:103920000023002BF5D1202180F83D1070470000C6
:1039300070B5044600680169E26821F44051114302
:1039400001612169A068E269084361691143084384
:103950002168CA6849F20C639A430243CA6020682E
:103960004169A26921F440711143416131492068E4
:10397000884202D03049884202D1FEF7F1F801E0D6
:10398000FEF7DEF8E2690023192164253226B2F53C
:10399000004F626828D0A0FB0101930F9200FCF752
:1039A00087FC0146B0FBF5F06FF01802504301EBC5
:1039B000800006EB0010B0FBF5F000F0F002B1FB68
:1039C000F5F002EB0012B1FBF5F06FF0180358436D
:1039D00001EB800006EB0010B0FBF5F000F00F00EB
:1039E00021681044886070BDA0FB010192185B4102
:1039F000FCF75EFC0146B0FBF5F00201B1FBF5F00F
:103A00006FF01803584301EB800006EBC000B0FBD9
:103A1000F5F000F0F80002EB4002B1FBF5F058437E
:103A200001EB800006EBC000B0FBF5F000F00700F2
:103A3000D6E70000001001400014014038B5816253
:103A400082850025134604460564222084F83E0042
:103A5000A26B1C48D063A26B1B481064A26B1B486E
:103A6000D064A06B0A4605652168A06B091DFDF7AF
:103A7000F3FA206801684068009084F83C5020699F
:103A800048B120680C3050E8001F41F4807140E8D4
:103A90000012002AF5D12068143050E8001F41F0D0
:103AA000010140E80012002AF5D12068143050E8E6
:103AB000001F41F0400140E80012002AF5D100202B
:103AC00038BD000029380008AB380008DF3700088F
:103AD0002DE9F041984617460E460446069D27E01C
:103AE000681C25D02DB1FDF72BFCA0EB0800A842E7
:103AF0001ED920680C3050E8001F21F4D07140E836
:103B00000012002AF5D12068143050E8001F21F07F
:103B1000010140E80012002AF5D1202084F83D0080
:103B200084F83E00002084F83C000320BDE8F081CA
:103B30002068006836EA000004D00020B842CFD0E8
:103B40000020F3E70120F9E7FEE700007CB504461A
:103B5000002094F8DA200D46012A03D0022A01D071
:103B6000032A14D101AB6A460121204600F091F9E5
:103B7000009A4FF47F018A4202D8019A8A4206D9FC
:103B8000002804D125B10F49204601F0E7FC7CBD97
:103B90000422FF21204600F05BFE05460022702132
:103BA000204600F055FE05430022FF21204600F08C
:103BB0004FFE054300228021204600F049FE2843A5
:103BC0007CBD0000CB010020F8B506460024012290
:103BD0000B21304600F03CFE074600220B21304608
:103BE00000F036FE40EA07056A461321304600F031
:103BF0000EFB641C9DF800102843E4B2490704D072
:103C0000032C04D20028E2D0F8BD032CFCD36FF0C3
:103C10000B00F8BDF0B591B004460022882100F0F9
:103C200017FE002584F8F0504FF47A70A4F8520182
:103C30004FF4C870A4F854015748C4F858015748C5
:103C40002562C4F8D4006946204600F0A9F80600B1
:103C500009D18DF800508DF801504022694604F1D9
:103C60001000FCF705FC6420A4F834014FF46170E7
:103C7000A4F836014FF4FA70A4F838014FF420602C
:103C8000A4F83C01012784F850713A46802120466F
:103C900000F0DEFD06430122FF21204600F0D8FDA2
:103CA000064300221146204600F0D2FD064310AA2A
:103CB0009121204600F0ABFA06439DF8400084F8BD
:103CC0003A0101220021204600F0C2FD06430022F5
:103CD000FF21204600F0BCFD064300228021204643
:103CE00000F0B6FD30430026002852D1B1B20122C7
:103CF000204600F0ADFB761C062EF5DB002848D1EF
:103D000000220221204600F0A3FB002841D100221E
:103D10000321204600F09CFB00283AD10022042118
:103D2000204600F095FB002833D1002205212046D3
:103D300000F08EFB00282CD14FF490120021204679
:103D400000F0C7FB002824D14FF480420121204617
:103D500000F0BFFB00281CD14FF40C1202212046BA
:103D600000F0B7FB002814D100220321204600F008
:103D7000B0FB00280DD1FF2084F83001024601215C
:103D8000204600F065FD84F83271002801D184F8E6
:103D9000155111B0F0BD0000856B0100A470090041
:103DA00070B506460C46007C01F8080B304600F062
:103DB00044F8002833D1207304F11001304600F09C
:103DC000D9F900282BD104F11401304600F0E4F8B1
:103DD000002824D1002501E0002820D104EB850231
:103DE000A9B23046243200F07BF8002817D16219BE
:103DF000A9B23046183200F066F86D1C062DEBDBD8
:103E000000280CD104F13C01304600F098F900285C
:103E100005D1211D3046BDE8704000F0BBB870BD33
:103E200010B50C460A46092100F0F1F9002803D12B
:103E3000217801F00101217010BD3EB50C46054608
:103E400002AAF82100F01CFA00280ED16A460421CB
:103E5000284600F0F1F9002807D1BDF8081029B173
:103E6000009AB2FBF1F12160A9613EBD2168FBE738
:103E700038B50C466A46132100F0C9F99DF80010C8
:103E800001F0070211F0180F226001D06FF0050059
:103E900038BDF8B515461C4606466A460E2100F0A8
:103EA000EFF9BDF800100905C9082960002809D1FB
:103EB0006A460C21304600F0E3F9BDF80010090510
:103EC000C9082160F8BD03460020062902D3001F5F
:103ED000002102E0194491F8281011707047000089
:103EE000F8B504460020154606292ED2DFE801F079
:103EF0000305191B1D1D646B25E06A4644212046FD
:103F000000F0BEF9002803D1BDF800104FEA4126A9
:103F100006D1EEB12E604FF00101A66384F829109E
:103F2000F8BDE46B0FE0246C0DE06A464FF06401CD
:103F3000204600F0A5F9002804D100BFBDF800100C
:103F40004FEA4124ECD12C60F8BD6FF00300F8BDBE
:103F5000A16B29604FF00001E0E77CB50C4690F8BA
:103F6000DA100025012604290AD06A46142100F03F
:103F70004EF900280BD19DF80010C90706D007E0C4
:103F800001A9FFF775FF0199042901D025707CBDB7
:103F900026707CBD01F01FB901F07FB9F0B58DB07E
:103FA0000C4605460C2302AA142100F087F90600EE
:103FB0007ED10021A17521609DF813009DF812208B
:103FC000616000EB02209DF80F209DF80E304FF449
:103FD0007A7E02EB03221204D209E2609DF81130CE
:103FE0009DF8106080B203EB06231B04DB092361FC
:103FF0009DF80B309DF80A6003EB06239BB2A38269
:10400000B5F852619DF8087095F831C176451FD01A
:10401000464306F5FA7696FBFEF02E8C95F81CE0EA
:1040200080B2B6B2BEF1000F12D05E43B2EB262FC3
:1040300008D1BCF1000F02D042F2B82008E048F6E7
:10404000E0200DE05043A2EB2626B0FBF6F080B254
:10405000BCF1000F04D0810821818001E07501E0EE
:104060002081E1750CA8CDE900403946284601F0D1
:104070002FF9060025D19DF83000207605F150017A
:104080001C220D4605A8FCF7F3F92089ADF81C00A9
:10409000E07D8DF82B006089ADF81E006068069009
:1040A000E068089020690990A08AADF8280000E037
:1040B00007E0207E8DF82C001C2205A92846FCF77D
:1040C000D7F90DB03046F0BD38B5054600200C4696
:1040D0008DF800006A460121284600F098F8002873
:1040E0002AD123469DF800200021284602F0ECF852
:1040F000002821D1A31C9DF800200121284602F0B0
:10410000E3F8002818D1631C9DF8002002212846FE
:1041100002F0DAF800280FD1E31C9DF800200321FB
:10412000284602F0D1F8002806D1231D9DF8002072
:104130000421284602F0C8F838BD01F0E1B938B5CD
:104140000C4605466A46012100F061F800280BD1B3
:104150009DF8001085F83011090601D5012100E015
:104160000021217085F84C1038BD02460020127FD6
:104170000A70704738B50D4604466A46202100F0A3
:104180007FF8002807D1BDF8001029B1C9002960C7
:1041900021620121217738BD216A29600021F9E7D8
:1041A000012301F082BA01F0A0BA70B5047C054683
:1041B00014B900F011FA10B9284601F021FA50EABA
:1041C000040102D1032185F8321170BD70B50C468F
:1041D0000546002100F08EF8002810D12846FFF790
:1041E000E4FF00280BD121462846FFF7D7FE002820
:1041F00005D12846BDE870400021FFF7E5BC70BD41
:1042000010B500240220FCF75FFF204610BDF7B573
:10421000164607460024012201A901F0F8FD6FF0BF
:10422000130528B901223146384601F0E0FD00B1FE
:104230002C462046FEBD0000F7B516460746002472
:10424000012201A901F0E3FD6FF0130528B9042252
:104250000A49384601F0CBFD08B12C460BE007486F
:10426000C178027801EB026142788078120402EB97
:104270000020084430602046FEBD0000E912002006
:10428000F7B5164607460024012201A901F0BFFD3B
:104290006FF0130528B902220749384601F0A7FD3F
:1042A00008B12C4605E004484178007801EB002075
:1042B00030802046FEBD0000E91200202DE9FF41BC
:1042C00017461E4680460024012201A901F09FFDE9
:1042D0006FF0130528B932463946404601F087FD94
:1042E00000B12C4604B02046BDE8F0814A088A217E
:1042F00000F0AEBA0246002003290BD003DC49B11E
:10430000012904D106E0142904D0152902D06FF048
:10431000070070471174704770B51C46049E05462F
:1043200011B16FF0090070BD142A08D0152A0FD002
:10433000052C6FD2DFE804F066686A6C6F002EB15E
:104340000122BDE87040842100F082BA1022F8E713
:104350000122FF2100F07CFA044600221146284683
:1043600000F076FA04430022FF21284600F070FA9C
:10437000044301228021284600F06AFA0443022205
:104380008521284600F064FA04430422FF212846D0
:1043900000F05EFA04430022CD21284600F058FACE
:1043A00004431122CC21284600F052FA044307228C
:1043B000FF21284600F04CFA04430022BE21284683
:1043C00000F046FA04430622FF21284600F040FA96
:1043D00004430922CC21284600F03AFA0443002283
:1043E000FF21284600F034FA04430122FF21284629
:1043F00000F02EFA044300221146284600F028FA65
:10440000204370BD002207E0012205E0022203E004
:10441000032201E017E004220A21284600F018FADE
:104420000028EED196B11023EF228421284600F017
:10443000F7F90028E5D185F8DA402846BDE8704054
:104440000021FFF7C1BB6FF00A0070BD0023EBE74E
:104450002DE9F041044600200D461646071F03468D
:1044600001460246062D02D33846BDE8F08156B11A
:1044700004EB85014B6B0121062DF5D2DFE805F039
:1044800005080F1215180122F6E784F8281017E026
:10449000C3F34F224421204600F0ECF90EE084F8EB
:1044A0002A100DE084F82B100AE05300FE2201E0F0
:1044B0001301EF226021204600F0B2F90028D4D188
:1044C000611926B15FF0010281F82820CDE70022B2
:1044D000FAE770B514460022431800EB810593F803
:1044E0002830DBB1C4F34F23062914D2DFE801F0F2
:1044F0000305080A0C0C446310E01A46442105E049
:10450000C4630BE0046409E01A46642100F0B2F9C8
:10451000020003D003E06FF0030200E06C6310467A
:1045200070BD01F0A0BA2DE9F8430746002090467F
:104530000E468DF800006A4601213846FFF767FEF7
:1045400005009DF8000004462ED1291FB8F1010F87
:1045500006D0052E2CD2DFE806F0191C1F222500FC
:10456000052E25D2DFE806F00306090C0F0044F003
:10457000100419E044F0280416E044F0040413E0A9
:1045800044F0400410E044F080040DE004F0EF0437
:104590000AE004F0D70407E004F0FB0404E004F0B0
:1045A000BF0401E004F07F04844210D015B10EE096
:1045B0000D460CE022460121384600F049F905007D
:1045C00005D187F8304138467969FFF7AAFF2846B8
:1045D000BDE8F88301F0FBBAF8B501250646047C76
:1045E0002A46802100F034F90122FF21304600F0F4
:1045F0002FF900221146304600F02AF996F83A21A8
:104600009121304600F024F901220021304600F0CB
:104610001FF90022FF21304600F01AF90022802104
:10462000304600F015F93CB10425012C26D0032CAE
:104630002FD06FF00700F8BD01220021304600F0B6
:1046400007F98DF800500028F5D100244FF4FA67DF
:1046500005E024B16A4600213046FFF7D8FD9DF8F9
:104660000020641C25EA0201014304D0BC42E2D3CD
:104670006FF00600F8BDBC42EBD3F9E718B9012191
:104680003046FFF763FA022209E000BF86F8325194
:10469000F8BD18B901213046FFF758FA042200216D
:1046A000304600F0D5F80028F0D0F8BD30B597B00E
:1046B0000446402101A8FBF70DFF00258DF844506A
:1046C000ADF850508DF8545001212046169500F059
:1046D000EEFA94F8142194F81311012A06D802D1A5
:1046E000202903D808E03AB90C2905D915AA16A93A
:1046F000204600F0FAFF02E0204601F015FA474993
:1047000000287DD194F8500108B9D4F84C11204606
:1047100000F024FF00287ED1002204231146204609
:104720000095FFF7F9FD002875D10122FF212046F1
:1047300000F08EF8054614AA84212046FFF7A0FD5C
:1047400005430022FF21204600F082F8284362D171
:10475000BDF8500001A90001C4F8D4002046FFF7BD
:104760001FFB002857D111A92046FFF759FB00284D
:1047700051D19DF8440084F83101402201A904F18F
:104780001000FBF775FE11AA01212046FFF73FFD3F
:10479000002840D19DF8440084F8300100221146E1
:1047A0002046FFF7C0FE002835D100220221204616
:1047B000FFF7B9FE00282ED1032084F8320112AA97
:1047C00000212046FFF7B9FC002824D19DF84800BD
:1047D00084F8E80012AA01212046FFF7AEFC002869
:1047E00019D19DF8480084F8E00013AA032120465F
:1047F00001F0BDFB00280ED1139813AA042100E09C
:1048000009E0C4F8E400204601F0B1FB002802D121
:104810001399C4F8DC1017B030BD0000D800002098
:10482000F8B515461C460E4607466A46FFF7EFFCEC
:10483000002809D19DF8002031462A4022438DF8F6
:104840000020384600F004F8F8BD6FF062007047B1
:10485000034610B50648002401704270014602224A
:10486000184601F0D4FA08B16FF01304204610BDC9
:10487000E9120020034610B5074800240170110A10
:104880004170827001460322184601F0C0FA08B157
:104890006FF01304204610BDE912002070B51C46CD
:1048A0000025134606463F2C01D9281F70BD084835
:1048B000224600F8011B1946FBF795FD621C0449CE
:1048C000304601F0A4FA08B16FF01305284670BD18
:1048D000E91200202DE9F047B0F854C1D0F8580192
:1048E000DDE90A860CFB00F58035DDE908972C0A26
:1048F0004FF0000A04FB0CF4554652B1880200EB5D
:104900005200B0FBF2F000EB4000404300F50040E5
:10491000050C07F50040000C0622C01CB0FBF2F0AD
:1049200003FB09F303F50043190C4943C0EBC00036
:10493000B0F5803F01D31C4808E0FF1CB7FBF2F044
:10494000C0EBC00000F50040000C4043084400EB01
:104950005800B0FBF8F08003FE227F30B0FBF2F08D
:1049600068434FF47A7100F5FA70B0FBF1F0000182
:1049700000F5FA70B0FBF1F7402004F12001B1FB23
:10498000F0F000F0D5FD054627B104EB5700B0FB71
:10499000F7F000E0002000F0CBFD3560854200D943
:1049A00030605046BDE8F0870000F0FF01EBC10128
:1049B00040F277600902A1FB000170472DE9FF4F2B
:1049C00087B00446006A0690884608694FF47A71F9
:1049D0004843000C0390D8F80C000590DFF8F8B1BC
:1049E0004FF4481604AA4146204600F064FD06AA8A
:1049F0004146204600F06DFD81464FF47A710498DF
:104A0000069D484300F50040070C4D43B54200D9D0
:104A10003546B9F1000074D1D4F8DC00019094F867
:104A2000E06001463246204600F0DCF88246D4F8C9
:104A3000E4000090014694F8E820204600F0D2F807
:104A400001460320082E00D1022051444143C902EF
:104A50004FF47A7001F5FA71B1FBF0F140F2776230
:104A6000514301F5FA71B1FBF0FA04988030010A64
:104A700001FB0AF08030060A080204900FB14EB123
:104A800009E00999C1F800B0C4F840B10A980021C2
:104A900001609DE001264FF44870029003984F4951
:104AA0000004B0FBF7F0884200D908464FF41671B5
:104AB00000FB01F906EB4600800000F039FD4000E4
:104AC0000390B8F8081046486A424143380400EBA6
:104AD00042024FF47A7002F5FA72B2FBF0F2431020
:104AE00003EB0743B3FBF0F01202B2FBF0F0002837
:104AF00000DA404298F8182000021AB14FF48035CD
:104B00000FE066E041F25C22B1FBF2F1C0F58030CB
:104B1000484300F50040000C00F580304008404359
:104B2000850B4FF4487105FB01F000F50040000CC7
:104B300010FB00F109F50040000C4043084400F070
:104B4000F7FC000464213230B0FBF1F10398B1FBB3
:104B5000F0F040F6B531484341F28831084449004D
:104B6000B0FBF1F74FF47040874200D90746DDE90A
:104B7000001008444FF47A7800F5FA70B0FBF8F0B2
:104B80004FF4C81101EB5001B1FBF0F000F0D0FC84
:104B9000000200F5FA70B0FBF8F07F434043384460
:104BA00000F0C6FC414648430EB1584500D958466E
:104BB00009990860C4F840010A98029B03908DE8A7
:104BC0000806DDE904122B462046FFF783FE8146E6
:104BD00048460BB0BDE8F08FAE878F026666660070
:104BE0009A99060000B50B461146FFF7DFFE4FF419
:104BF0007A7100F5FA70B0FBF1F04B4303EB500112
:104C0000B1FBF0F000BD00B50B461146FFF7CEFE3C
:104C10004FF47A7100F5FA70B0FBF1F0434303F5FD
:104C2000FA73B3FBF1F000BD0146C0B2090A884037
:104C3000401C70474000801CC0B27047F8B5064663
:104C400000228321FFF704FE040011D100254FF458
:104C5000FA676A4683213046FFF7D9FA04469DF881
:104C6000000020430BD0BD4202D300BF6FF006040A
:104C7000012283213046FFF7EBFD2043F8BD6D1C78
:104C8000BD42E6D3F2E70022114648B1401E02E0E1
:104C90004008491C89B2020AFAD161F31F2082B28E
:104CA00010467047FF2101EB5000C0B270472DE95C
:104CB000F04F95B0002504460E954FF4C8500F955F
:104CC000CDE90450129594F8F0600F46AB46AA4621
:104CD000072E7ED0012280212046FFF7B9FD8046B5
:104CE0000122FF212046FFF7B3FD40EA080500221C
:104CF00011462046FFF7ACFD40EA05080622FF21D9
:104D00002046FFF7A5FD40EA080502AA83212046B8
:104D1000FFF77DFA40EA05089DF80800832140F07E
:104D200004022046FFF794FD40EA08050722FF2110
:104D30002046FFF78DFD40EA05080122812120462B
:104D4000FFF786FD40EA08052046FFF759FA40EADA
:104D50000508012280212046FFF77AFD40EA080578
:104D6000F80755D0F00753D16B2294212046FFF766
:104D70006FFD40EA05082046FFF760FF40EA08059E
:104D800001AA90212046FFF757FA40EA050801984A
:104D90002422C0F30621C0F3C03B12919421204687
:104DA000FFF756FD40EA08052046FFF747FF40EAB7
:104DB000050801AA90212046FFF73EFA40EA0805BF
:104DC0000198010E8DF82C10010C8DF82D10010AA0
:104DD00000E0FCE18DF82E108DF82F0025229421A3
:104DE0002046FFF735FD40EA05082046FFF726FF7D
:104DF00040EA080901AA90212046FFF71DFA40EA7F
:104E000009050198010E8DF83010000C8DF8310065
:104E1000B8077ED5B0077CD4022294212046FFF744
:104E200017FD40EA05082046FFF708FF40EA08059D
:104E300013AA90212046FFF7EAF940EA05087B22F1
:104E400094212046FFF704FD40EA08052046FFF7BD
:104E5000F5FE40EA050810AA90212046FFF7D7F991
:104E600040EA0805772294212046FFF7F1FC40EA4A
:104E700005082046FFF7E2FE40EA080501AA902156
:104E80002046FFF7D9F940EA050801987822410E3B
:104E90008DF81810C0F386418DF81910C0F3C621A3
:104EA0008DF81A10C0F306110007400E8DF81B1084
:104EB0008DF8080094212046FFF7CAFC40EA080557
:104EC0002046FFF7BBFE40EA050801AA90212046D4
:104ED000FFF7B2F940EA08059DF80810019801EBC8
:104EE00050718DF81C10C0F386518DF81D10C0F361
:104EF000C6318DF81E10C0F306218DF81F10C0F3C7
:104F00004601C007400E8DF820108DF80800792268
:104F100000E055E094212046FFF79AFC40EA05089E
:104F20002046FFF78BFE40EA080501AA90212046A3
:104F3000FFF782F940EA05089DF8081001987A22E7
:104F400001EB90618DF82110C0F3C6418DF822105D
:104F5000C0F306318DF82310C0F34611C006400E91
:104F60008DF824108DF8080094212046FFF770FC7E
:104F700040EA08052046FFF761FE40EA050801AA5D
:104F800090212046FFF758F940EA08059DF80810DF
:104F9000019801EB90718DF82510C0F3C6518DF882
:104FA0002610C0F306418DF82710C0F346218DF876
:104FB0002810C0F386008DF8290000208DF82A0003
:104FC00078077ED570077CD47B2294212046FFF79A
:104FD0003FFC40EA05082046FFF730FE40EA08059E
:104FE0000EAA90212046FFF727F940EA05087C2207
:104FF00094212046FFF72CFC40EA08092046FFF7E1
:105000001DFE40EA09050FAA90212046FFF714F97A
:1050100040EA0508732294212046FFF719FC40EA74
:1050200008052046FFF70AFE40EA050801AA90217C
:105030002046FFF701F940EA0805019874220006AE
:105040004FEA104994212046FFF702FC40EA050888
:105050002046FFF7F3FD40EA080501AA902120460B
:10506000FFF7EAF8019940EA050849EA116004905F
:10507000752294212046FFF7EBFB40EA0805204605
:10508000FFF7DCFD40EA050901AA90212046FFF761
:10509000D3F840EA09080198762200064FEA104941
:1050A00094212046FFF7D4FB40EA08052046FFF78D
:1050B000C5FD40EA050801AA90212046FFF7BCF88B
:1050C00000E004E0019940EA080549EA116A00227B
:1050D00081212046FFF7BCFB40EA05080622FF219C
:1050E0002046FFF7B5FB40EA080502AA83212046C7
:1050F000FFF78DF840EA05089DF80800832100F0CD
:10510000FB022046FFF7A4FB40EA08050122FF212D
:105110002046FFF79DFB40EA0508012200212046BA
:10512000FFF796FB40EA08050022FF212046FFF723
:105130008FFB40EA0508002280212046FFF788FB0C
:1051400050EA080543D1F8070FD0F0070DD11298A7
:1051500084F8130184F814B100200BA923180A5C09
:10516000401C83F82A210628F8DBB8070ED5B007C3
:105170000CD49DF84C0084F8F1009DF8400084F8B0
:10518000F20004F1F30006A9FBF709F9780719D535
:10519000700717D40E98C4F818010F98C4F81C01B2
:1051A00004984002C4F820010020BAF1000F08D092
:1051B0000599AAEB01004FF47A11484300144042CC
:1051C00000B2E0603E438DF8086084F8F06015B0EE
:1051D0002846BDE8F08F30B585B005464FF4FA603B
:1051E00002900020039040F6363008600C46694675
:1051F0002846FEF769FF00284DD19DF8001029B917
:105200009DF8011011B99DF8021011B302AA0221F4
:10521000284600F0ACFE00283DD19DF8001029B1D1
:105220000299226801F24E21114421609DF802107A
:1052300031B10299226801F2B22102EB410107E08B
:105240009DF8011029B10299226801F525711144D8
:1052500021609DF8031061B103AA0321284600F0E4
:1052600086FE0399226801F525711144216000280A
:1052700011D19DF8041061B104AA0421284600F060
:1052800076FE0499226801F226211144216000284B
:1052900001D12168696105B030BD38B50C4640F2D6
:1052A000FF756A462821FEF7EBFF00280ED1BDF8F6
:1052B0000010C1F30B02ADF80020AA424FF0FA0132
:1052C00001DDA2F5805212FB01F1216038BD000022
:1052D0002DE9FF4F8BB04FF00009199D8DF800901C
:1052E0009A460646C8464F468DF804908DF80890B9
:1052F0008DF80C90ADF81090C1F3C304CDF8149064
:10530000BCB1052C15D0072C13D00C2C11D00D2CB2
:105310000FD00E2C0DD00F2C0BD0002083466A46E8
:1053200000213046FEF7CFFD9DF80010C9B110B145
:105330001DE00120F2E705AB06AA30461899FFF7F9
:105340003DFBA0B91899059807AA4881002130466D
:10535000FEF7C6FD079921B1069A8A4201D94FF09E
:10536000010920B902AA02213046FEF7ACFD9DF8E2
:10537000081011B338BB08AA02213046FEF7B0FD71
:1053800080B90122FF213046FFF762FA50B904AA22
:10539000B6213046FEF774FF20B90022FF213046C7
:1053A000FFF756FABDF810104902C6F84811089ADE
:1053B0001AB1914201D94FF0010820B903AA032183
:1053C0003046FEF780FD9DF80C1091B190B9BAF10E
:1053D000000F12D00D980102B1FBFAF0824609AA23
:1053E00003213046FEF77CFD099911B18A4500D2B0
:1053F000012720B1287858B32DE00020EEE7BBF15B
:10540000000F01D0FF2013E0012C10D0022C0ED091
:10541000032C0CD0062C0DD0092C0BD0082C04D05A
:105420000A2C02D0B8F1000F06D0032000E00520BE
:10543000287010E00420FBE7042C00D00FB10220FC
:10544000F6E7B9F1000F01D00120F1E70020287044
:1054500018990020488101AA01213046FEF733FD4A
:10546000002825D19DF8001011B15FEA090100D094
:10547000012186F82E10042C15D09DF8041091B14E
:105480005FF0000186F82F109DF8081011B15FEA57
:10549000080100D0012186F830109DF80C1001B1F0
:1054A0001FB1012102E00121ECE7002186F8311053
:1054B0000FB0BDE8F08F38B51446CA6822606A465E
:1054C00000F007F8002803D12168009A11442160F8
:1054D00038BDF8B5064600200D46106014466946F2
:1054E0003046FEF742FE002809D19DF80010002941
:1054F00005D0A98A326A51438031090A2160F8BD7A
:1055000038B5144621B1012905D06FF003010DE033
:105510006A46502101E06A467021FEF778FE0100DC
:1055200004D19DF80000FFF785FB2070084638BDC8
:10553000024600204FF0804100E089089142FCD8EB
:1055400008E04318934203D8D21A01EB500000E060
:10555000400889080029F4D170470000F8B50746D3
:1055600000200D460446061F13E0CBB2641CFF2B3F
:1055700005D0042B0CD8295D00206A4639E0295D4E
:10558000641C61B1012912D0022918D003291ED050
:105590003046295D002901D00028E6D0F8BD2A5DFB
:1055A000641C295D01EB0221A7F8341116E0295D86
:1055B000641C2A5D02EB0121A7F836110EE02A5D7A
:1055C000641C295D01EB0221A7F8381106E0295D72
:1055D000641C2A5D02EB0121A7F83C11641C295DC3
:1055E0000029C2D1F8BD00BF15F804C002F800C000
:1055F000401C641C9842F7DB3846FFF74FF9C8E7B8
:10560000F8B5064600208DF8000004464FF4FA6510
:1056100069463046FEF7A1FC002807D19DF800102E
:10562000012903D0641CAC4201D3C01FF8BD304631
:10563000FEF7E6FDECE72DE9F04385B01D0091464D
:105640000E4607464FF0000401D097F83041022281
:105650000121FFF7FDF84FF0000838B90021384666
:1056600000F052F910B9B9F1010F11D086F800809D
:1056700000280AD1002D08D0224601213846FFF724
:10568000E7F8002801D187F8304105B0BDE8F08384
:10569000012004A9CDE90016CDE902804246014669
:1056A0001346384600F086F9E2E72DE9F0411E4640
:1056B0001746054690F830410023324600F040F985
:1056C000002810D10023324639462846FFF7B3FFA1
:1056D000002808D1224601212846FFF7B9F8002802
:1056E00001D185F83041BDE8F0812DE9F74F96B042
:1056F00006462C200B9000200E9011908DF84C0047
:105700008DF850001290B6F83CA14FF0B4094FF05C
:10571000030B01464FF00608074672180020491C8B
:1057200082F824014145F8D30122FF213046FFF7DA
:105730008FF8040079D100224F213046FFF788F816
:105740000400F7D12C224E213046FFF781F80400E7
:10575000F0D10022FF213046FFF77AF80400E9D1AA
:105760004A46B6213046FFF773F80400E2D1002222
:1057700080213046FFF76CF80400DBD1002314AA27
:1057800013A93046FFF791FF0400D3D106F59273B9
:105790000EAACDF8008006930E90CDE903B29A1DB3
:1057A0000A92CDE901900146304600F04EFB04001C
:1057B0003BD109A930460E9D00F054FD040034D1C0
:1057C000BDF82410514531D900213218401C82F80F
:1057D00024114045F9D300E06D1C09EB050000F0F1
:1057E0005DFC10B90B988542F6D301200EA9CDF8C7
:1057F00000801590CDE903B1CDE901950146304611
:10580000069B0A9A00F021FB040079D109A93046D1
:105810000E9D00F027FD040072D1BDF82410514503
:1058200005D901205F46129001E051E0159089B240
:10583000514555D2159812905F4642460FA80699D9
:10584000FAF716FEBDF82410B1EB0A0000D540426D
:10585000834611AB2A4641460A9800F055FB119841
:10586000411C0FD0484400F019FC159988422ED1F4
:10587000119D41462A467F1C069800F030FB04002B
:1058800003D03DE06FF031043AE030466D1C0699DC
:1058900000F036FD040033D109A9304600F0E2FCE7
:1058A00004002DD1BDF82410B1EB0A0000D5404210
:1058B00051450ED958450AD90FA9304600F020FDB0
:1058C000044642460FA90698FAF7D2FD7F1E3CB166
:1058D00016E0834642460FA80699FAF7C9FDB8E7D5
:1058E00017980760189912980870012086F815011A
:1058F0001798007886F813011898007886F8140134
:1059000019B02046BDE8F08F10B541F00102044601
:105910000021FEF79DFF002811D12046FFF770FE01
:1059200000280CD100212046FEF74EF9002806D1B0
:1059300020460022BDE810401146FEF789BF10BD89
:105940002DE9F04385B04FF000051E0091460F464B
:1059500080462C468DF8105001D098F83051012225
:105960001146FEF775FF38B940214046FFF7CCFFDE
:1059700010B9B9F1010F10D03C7000280AD1002EE7
:1059800008D02A4601214046FEF762FF002801D1D7
:1059900088F8305105B0BDE8F083012004A90097D4
:1059A0000394CDE90110224601461346404600F01B
:1059B00001F8E2E72DE9FF4F81B00020DDE90EA9F3
:1059C000DDE910650F468DF800009B460122FF219E
:1059D0000198FEF73DFF0446002211460198FEF7AC
:1059E00037FF40EA04080022FF210198FEF730FF4C
:1059F00040EA08046FB12EB15246CB210198FEF760
:105A000006FC0443A5B16A46EE210198FEF7FFFBB0
:105A10000DE02EB1CB21039A0198FEF719FF044344
:105A200035B15B468022EE210198FEF7F9FE044372
:105A30000122FF210198FEF70BFF04430122002100
:105A40000198FEF705FF04430022FF210198FEF7AD
:105A5000FFFE9DF80010204301F0EF0289F80020BE
:105A600005B0BDE8F08F2DE9FF4107464FF4FA601D
:105A700002900020039044F620600E466FF003056C
:105A800081424FD3A6F6363469463846FEF71CFBF2
:105A9000002844D19DF8001029B99DF8011011B9D2
:105AA0009DF8021001B302AA0221384600F05FFA05
:105AB000002834D19DF8001029B1029901F24E213D
:105AC000A1422FD2641A9DF8021021B1029901F26D
:105AD000B221490005E09DF8011029B1029901F5B4
