:020000040800F2
:10000000582F0020850200089B510008894A0008EB
:100010009951000851280008655E000800000000A2
:10002000000000000000000000000000DB55000898
:100030000529000800000000D955000843560008B3
:100040009F0200089F0200089F0200089F0200080C
:100050009F0200089F0200089F020008072900086D
:100060000D29000813290008192900089F0200081B
:10007000552800089F0200089F0200089F02000800
:100080009F0200089F0200089F0200089F020008CC
:100090009F0200089F0200089F0200081F29000815
:1000A000ED5600089F0200089F0200089F0200080A
:1000B0009F0200089F0200089F0200089F0200089C
:1000C0009F0200089F0200089F0200089F0200088C
:1000D0009F0200089F0200089F0200084D5E000872
:1000E0009F0200089F0200089F020008F9560008BE
:1000F0009F0200089F0200089F0200089F0200085C
:100100009F0200089F0200089F0200089F0200084B
:100110009F0200089F0200089F0200089F0200083B
:100120009F0200089F0200089F0200089F0200082B
:100130009F0200089F0200089F0200089F0200081B
:100140009F0200089F0200089F0200089F0200080B
:100150009F0200089F0200089F020008595E0008E5
:100160009F0200089F0200089F0200089F020008EB
:100170009F0200089F0200089F0200080000000084
:100180009F0200089F02000800F002F800F06AF8E1
:100190000AA090E8000C82448344AAF10107DA45E2
:1001A00001D100F05FF8AFF2090EBAE80F0013F0CA
:1001B000010F18BFFB1A43F001031847CC9300004E
:1001C000EC9300000A444FF0000C10F8013B13F0D0
:1001D000070408BF10F8014B1D1108BF10F8015BA0
:1001E000641E05D010F8016B641E01F8016BF9D193
:1001F00013F0080F1EBF10F8014BAD1C0C1B09D1EA
:100200006D1E58BF01F801CBFAD505E014F8016B5B
:1002100001F8016B6D1EF9D59142D6D370470000ED
:100220000023002400250026103A28BF78C1FBD8FF
:10023000520728BF30C148BF0B6070471FB509F097
:10024000BDF800F06FFC04000020002108F052FB14
:10025000401C60600020002108F036FBE0601FBDFC
:1002600010B510BD00F0A0FE1146FFF7E7FF08F043
:10027000BBF901F0FDF803B4FFF7F2FF03BC01F096
:1002800063F900000948804709480047FEE7FEE798
:10029000FEE7FEE7FEE7FEE7FEE7FEE7FEE7FEE736
:1002A00004480549054A064B70470000DD56000822
:1002B0008901000858290020582F0020582B0020C1
:1002C000582B002053EA020C00F069802DE9F04B16
:1002D0004FF00006002B1FBFB3FA83F503FA05F4B5
:1002E00024FA05F65E4012BF1643B2FA82F502FA0E
:1002F00005F4C5F120051EBF22FA05FC44EA0C04F2
:10030000203556EA044C4FEA144418BF641C4FF0E1
:1003100000084FF00009904271EB030C39D300291B
:1003200019BFB1FA81F701FA07F6B0FA80F700FABF
:1003300007F6C7F120071EBF20FA07FC46EA0C06A5
:100340002037B6FBF4FCA7EB0507103F07F01F0BA7
:10035000CBF120060CFA0BFB2CFA06F644BFB34691
:100360000026202FA4BF5E464FF0000B5BEA060C70
:1003700008BF4FF0010B19EB0B09ABFB027C48EBFC
:100380000608C01B06FB02CC0BFB03CC71EB0C0177
:10039000C1E70B46024641464846BDE8F08B13B51F
:1003A0004FF000004FF00001AFF30080BDE81C40AB
:1003B000704700000FB400B58DB010A909900091EE
:1003C0000B904FF0FF300A9000200C9006487844C4
:1003D0000690064878446A4607900F9909A800F0ED
:1003E00071FB0DB05DF814FB130700002B07000034
:1003F00040EA0103024630B59B0710D14FF00134AB
:1004000000E008C208C91D1B9D4315EAC41FF8D0AF
:1004100013F0FF0102F8011B0DD01B0AF8E711F8D9
:10042000013B002B02F8013B05D011F8013B002BEA
:1004300002F8013BF3D130BD032A40F2308010F0C6
:10044000030C00F0158011F8013BBCF1020F62446F
:1004500098BF11F801CB00F8013B38BF11F8013B00
:10046000A2F1040298BF00F801CB38BF00F8013BAD
:1004700011F0030300F02580083AC0F0088051F81D
:10048000043B083A51F804CBA0E80810F5E7121D28
:100490005CBF51F8043B40F8043BAFF30080D20747
:1004A00024BF11F8013B11F801CB48BF11F8012B13
:1004B00024BF00F8013B00F801CB48BF00F8012B36
:1004C000704710B5203AC0F00B80B1E81850203AC0
:1004D000A0E81850B1E81850A0E81850BFF4F5AFE4
:1004E0005FEA027C24BFB1E81850A0E8185044BF6E
:1004F00018C918C0BDE810405FEA827C24BF51F8DB
:10050000043B40F8043B08BF7047D20728BF31F8CE
:10051000023B48BF11F8012B28BF20F8023B48BF1F
:1005200000F8012B70474FF000020429C0F0128040
:1005300010F0030C00F01B80CCF1040CBCF1020F96
:1005400018BF00F8012BA8BF20F8022BA1EB0C016B
:1005500000F00DB85FEAC17C24BF00F8012B00F861
:10056000012B48BF00F8012B70474FF0000200B587
:10057000134694469646203922BFA0E80C50A0E8C6
:100580000C50B1F12001BFF4F7AF090728BFA0E874
:100590000C5048BF0CC05DF804EB890028BF40F840
:1005A000042B08BF704748BF20F8022B11F0804F82
:1005B00018BF00F8012B7047704770477047000064
:1005C0002DE9FF4F06468BB00878FF2806D0491C5E
:1005D0002D2805D000244FF0000908E000200CE091
:1005E0000124F8E709EB8903491C00EB430908786B
:1005F000FF28F7D114B1C9F1000081461078002519
:100600002C46AA4629462D2801D02B2804D1521C5D
:100610002D2813D0002082468B461078FF280FD05B
:100620004FF0000C0A21521CA5FB017804FB01814C
:1006300005FB0C11C5194BEB0104EEE70120EAE7BD
:10064000002108464FF00000BAF1000F02D000EB85
:1006500080004008C0F38157012F01DD4FF0FF37C4
:100660000E9955EA040009EB01080BD04FF002097E
:1006700018F5FA7F16DA4FEACA70002F706008DDAD
:10068000012007E04FEACA70C6E900B00FB0BDE82C
:10069000F08F0020306000F049FAC0F80090182177
:1006A000084616E0B8F5FA7F18DD002F02DAF748A1
:1006B000784401E0F6487844D0E90010C6E900101B
:1006C00040EACA70706000F031FAC0F8009014215E
:1006D00008460FB0BDE8F04F08F07ABE002108468A
:1006E0004FF00000B8F10001099002DAC7F10002F2
:1006F00000E03A4601DAC8F1000106A800F0DEFB8E
:1007000006AB93E8070003AB83E8070044F23E0022
:100710005BEA04010090584604D144F21E012C46C5
:100720005D460091210C0904014306D1009924047F
:1007300044EA15442D041039009104F07F4101432F
:1007400006D10099240244EA15642D02083900916B
:1007500004F07041014306D10099240144EA157464
:100760002D01091F009104F04041014306D1009979
:10077000A40044EA9574AD00891E009104F0004184
:10078000084304D100986D196441401E00904FF059
:1007900001033A466846B8F1000FCDE9014503A9C7
:1007A00002DD01F064F901E001F037F9BAF1000F60
:1007B00004460D4601D084F00044002108464FF065
:1007C0000000099940F2FF77484010F00C0F07D164
:1007D00024F00040284303D0C4F30A50B84212D199
:1007E00000F0A4F9C0F80090C4F30A50B8420AD14E
:1007F000A8487844D0E90010C6E9001004F0004190
:100800000843706042E7C6E900543FE72DE9FF4F17
:100810001F464FF0000A4FF0FF38454691B0D7E928
:100820000146CDF83CA000F07DF9C0680168405C4D
:100830001090B96912986D1C8847396A81468847BB
:100840000028F6D1B9F1FF3F0AD0002E24F4D0647D
:1008500011DDB9F12B0F08D0B9F12D0F0BD102E04A
:10086000404615B013E744F48064B96912986D1CD2
:100870008847761E8146600504A901D52D2000E039
:100880002B20002E01F1010B0DF130088DF8100026
:100890003FDDB9F1690F08D0B9F1490F05D0B9F1C1
:1008A0006E0F02D0B9F14E0F1CD13B4601A8009546
:1008B00080E85002DDE912126FF0020008F0EFFD4F
:1008C000C11CCED10EE0B96912986D1C88478146D3
:1008D0001398761E44F4007405600F98401C002E97
:1008E0000F9016DDB9F1300FEDD0B9F1780F02D0CD
:1008F000B9F1580F0DD10F9801280AD13B46CDE927
:100900000054DDE91212001F029608F0C6FDC11C5A
:10091000A7D1109989453ED144F0800406E013998F
:10092000681CAAF1010A44F400740860B9696D1CDE
:100930001298761E884730288146F0D02BE0109917
:10094000894505D1200603D4761E44F0800418E0C2
:10095000484607F0C4FC08B3761E0DF123018B4511
:1009600044F4007408D2A9F130000BF8010B200602
:1009700007D5AAF1010003E0200602D40AF1010024
:100980008246A00502D51399681C0860B9691298BF
:100990006D1C88478146002ED1DC53E0002E51DDCE
:1009A000B9F1650F02D0B9F1450F4BD1A00549D57A
:1009B000B9696D1C1298761E24F440748847002E85
:1009C00081460CDD2B2804D0B9F12D0F07D144F45A
:1009D0008074B96912986D1C8847761E8146E005BF
:1009E00001D52D2100E02B2108F8011BCDF8008056
:1009F00021E0761E0DF13901884544F400740CD2D3
:100A0000A9F1300010F0FF0088F8000002D1009931
:100A1000884509D908F1010806E0E00501D51E481E
:100A200001E042F20F708246B96912986D1C884746
:100A3000814613980560002E04DD484607F04FFC00
:100A40000028D6D1F96912988847FF2053468BF8C1
:100A5000000088F8000000200A900B9004AA0CA95E
:100A60000AA8FFF7ADFDA00502D46FF00100F8E67B
:100A700014F0240F12D0E0071CD13868DDE90A1207
:100A8000031D3B600068C0E9001213E0FC8E00000B
:100A9000EE8E0000B28D0000F1D8FFFF0AA9684673
:100AA00007F00AFCE00705D13868009A011D39609B
:100AB000006802602846D4E6026811441378016099
:100AC00018467047D1600549794451610449794419
:100AD000116200211161114600F036B8EDFFFFFFF1
:100AE00063000000426842B1016811F8013B23B184
:100AF000521EC0E90012184670470121C160881ECD
:100B0000704742685AB1C368016843B983688B4231
:100B100005D0491E521CC0E90012002070474FF05A
:100B2000FF30704700487047182900200048704780
:100B3000F828002010B5044600F05CFA0068005D5B
:100B400000F0010010BD00002DE9F34F4FF0000A46
:100B50000C4656468DB001200C9001F10C000B9014
:100B600062690B9801219047051E2DD0252D2CD0B0
:100B7000216A8847C0B162690B9801219047216AB8
:100B800088470028F7D16269411E0B98904700E022
:100B9000761CA1690D988847216A88470028F7D1FB
:100BA000E1690D988847DBE7A1690D988847A8425D
:100BB000074601D1761CD3E7E1690D9888477F1C71
:100BC00002D1BAF1000F6FD06BE162690B98002778
:100BD0003D46394690472A2804D162690B98012185
:100BE00090470125DFF8D08262690B980121904778
:100BF000A0F130010A290AD24745E5DC07EB87015D
:100C000000EB4107303FDFD445F01005ECE7E90683
:100C100001D46FF000476C280AD04C2814D0682803
:100C200015D06A280DD074281CD07A281AD01DE05F
:100C300062690B98012190476C2802D045F00405A9
:100C400014E045F002050DE045F020050AE0626978
:100C50000B9801219047682802D045F0080505E06F
:100C600045F4006562690B9801219047C4E901577A
:100C700065283DD019DC58287AD00CDC452837D0BF
:100C800004DC252826D041289ED131E046282FD0EB
:100C9000472899D12CE05B2877D0612828D0632899
:100CA0007CD0642823D15AE0F6E06F2848D008DCD5
:100CB00066281DD067281BD0692821D06E2816D140
:100CC00027E0702845D0732868D0752847D0782849
:100CD0000DD14DE0A1690D988847252805463FF4C0
:100CE00069AFE1690D9888476D1C3FF46AAFD8E0A1
:100CF0000D9923466A466FF0010008F0CCFBC5E071
:100D000045F0400023464FF000026060A80736D44B
:100D10003EE0E8077FF447AF2068011D21600068CE
:100D2000290501D506701BE7290701D5068017E7BD
:100D3000A90703D5F117C0E9006111E706600FE7C5
:100D400045F0400023464FF008026060A80716D423
:100D50001EE040F60E0125EA0100606016E045F055
:100D6000400023464FF00A026060A80707D40FE056
:100D700045F040006060A80708D5234610220D9971
:100D80006FF00100AFF3008080E007E010222346FF
:100D90000D996FF00100AFF3008077E04FF000098C
:100DA00063284F46C8464B46CB4602D05B2806D048
:100DB00038E0E80601D40120A060012732E0626932
:100DC000D4F80CB00B98012190475E2807D14FF062
:100DD000010949466269D4F80CB00B989047216923
:100DE00039B900210A4603AB43F82120491C0829E0
:100DF000FADBD8B3216949B308F1010862690B989D
:100E0000012190475D28F4D1B9F1000F09D00020ED
:100E100003A951F82020D24341F82020401C082883
:100E2000F7DB03AB2069002820794FEA40701ED021
:100E30005B462246CDF80080CDE901970D99002848
:100E40006FF0010020DAAFF300801FE0C11703AAA2
:100E500000EBD1614B1121F01F0102EB8302411A1B
:100E600013680120884003431360C7E719E00D9918
:100E7000224600286FF00100009702DAAFF30080ED
:100E800004E0AFF3008001E0AFF3008000280ADA4D
:100E9000401C06D10C9820B14FF0FF300FB0BDE8D8
:100EA000F08F5046FAE7E90701D10AF1010A06443A
:100EB00000200C9054E60000CCCCCC0C2DE9F0477F
:100EC000814616468AB0354878440DC88DE80D0035
:100ED00032487844801C03AC0DC884E80D0041F60C
:100EE0009B300844372190FBF1F290FBF1F5A5F11E
:100EF000800501FB12041B3C02D56442012000E086
:100F00000020DFF898A080460027FA44AAF1BE0A24
:100F10000EE0E0070AD03246684607EB470101239E
:100F20000AEB810100F08EFD8DE8070064107F1C44
:100F3000002CEED1194F7F44AE3F19E0E80715D0E1
:100F400007EB04100DF1180A90E80E008AE80E0075
:100F5000C068F04201D1981908903246012306A9D1
:100F600003A800F06FFD03AB83E807006D10641C5D
:100F7000002DE3D14FF0010332466946B8F1000F6E
:100F800003A802D000F034FD01E000F05BFDC9E9E8
:100F90000001C9F808200AB0BDE8F087A486000067
:100FA00000487047F82800207546FFF7F9FFAE4665
:100FB00005006946534620F00700854618B020B565
:100FC000FFF76EF9BDE820404FF000064FF0000734
:100FD0004FF000084FF0000B21F00701AC46ACE8E1
:100FE000C009ACE8C009ACE8C009ACE8C0098D464E
:100FF0007047000010B5FFF795FD001D10BD00BF44
:10100000F578000010B5FFF791FD006810BD10B530
:101010000446FFF78BFD046010BD00002DE9FF4F73
:101020001F464FF03C0987B04FF00042DDE9141035
:1010300001F10108DDF858A002EA405003900020B9
:1010400005908346054604460490B969461E0898F3
:101050008847AAF1010A0290BAF1000F3BDD02981D
:101060002E2815D0102100F060FA00282EDB4FF05A
:10107000010B0599014317D0B9F1000F0BDB4A466C
:10108000C11700F03FFA05430C43A9F1040905E03C
:10109000012004900BE008B145F001050120059006
:1010A000049820B9361D02E0049800B1361FB969D2
:1010B000089808F101088847BBF1000FAAF1010A5E
:1010C0000290C9D00999C1F80080C5E7029870283C
:1010D00008D0502806D0F96908988847BBF1000F5E
:1010E00014D04FE0002002900120BBF1000F0490CB
:1010F00009D0B969089808F101088847AAF10109DF
:10110000B9F1000F07DCF969089888476FF0010012
:101110000BB0BDE8F08F2B2804D02D280CD14FF058
:10112000FF300490B969089808F101088847A9F1CF
:101130000109B9F1000FE6DD411CE4D00A2100F0FD
:10114000F4F90028DFDB029908F1010801EB8101C5
:1011500000EB41000290B969089888470A2100F025
:10116000E4F9099AA9F10109B9F1000FC2F8008068
:1011700001DD0028E7DAF9690898884704990298A0
:1011800000FB016655EA040004D004F04041090068
:1011900002D006E0039898E0A40044EA9574AD00FC
:1011A000B61E04F00041080002D16D196441761E9C
:1011B000159810F0240F03D04FF00B095C4803E0A2
:1011C0004FF028096FF07D008246564507DAAAEBFA
:1011D00006018944B9F1410F01DD4FF041090120B9
:1011E0000021A9F1010200F08DF9024628400B46CA
:1011F0002140084301D0012100E00021501E02914E
:1012000043F1FF3128402140084301D0012000E094
:1012100000200299834651EA0B014FD00021084675
:101220004FF00000039900F4400039B100EB80005A
:101230004FF4400100EBD07001EA600080150128F6
:1012400002DD4FF0FF3000E013D0401C36D0029892
:1012500060B3BBF1000F0CD14A460120002100F021
:1012600051F928402140084301D0012000E000202E
:10127000E0B101204A46002100F044F9034640193C
:101280000A4661412D1A8C4111D3B9F1400F09DD95
:10129000159810F0240F02D0AAF1340603E0AAF149
:1012A000170600E0761C00254FF0004406E05B1EA8
:1012B00042F1FF3220EA030521EA0204CAF10100EB
:1012C000B04206DA1B4903980843019000200090C1
:1012D0000EE0039AC4F3D321E80A0A43164940EA10
:1012E00044500A433146CDE90002684606F0EDFF5E
:1012F000159810F0240F0BD01598C00715D1386839
:10130000DDE90012031D3B600068C0E900120CE03B
:1013100002A8694606F0D0FF1598C00705D13868C5
:10132000029A011D3960006802604046F0E6000044
:1013300002FCFFFF0000F07F0000F03F2DE9FF4FAF
:1013400092461D4685B04FF00041DDE9124BDDE9C4
:1013500014727F1E01EA4B50414940F0FF4940EAB8
:101360000108002122F020004928049102D04E28D3
:1013700028D04CE03BA0012607C88DE80700A969EA
:101380000698641C88477F1E014606D41DF8060097
:1013900018B121F0200181420BD0E96906988847F5
:1013A000032E34D0082E32D06FF0010009B0BDE812
:1013B000F08F761C032E01D0082EE0D1601CCAF8F5
:1013C0000000DCE7A9690698641C88477F1E2AD4C0
:1013D00020F02000412826D1A9690698641C88477E
:1013E0007F1E20D420F020004E281CD1A969069829
:1013F000641C88477F1E48F4002849F48009CAF815
:10140000004001D4282806D0E969069888475FEA99
:10141000CB7012D022E0A9690698641C88477F1E11
:1014200001D4002803DAE96906988847BCE729282F
:10143000F1D1641CCAF80040E9E71BF0240F07D083
:1014400028680499031D2B600068C0E9001805E0B6
:101450002868021D2A600068C0F800902046A5E7B1
:101460000000F07F494E46494E49545900000000A3
:1014700010B50446AFF300802046BDE81040FEF7EB
:10148000FABE00004FF0013C50F8042B51F8043B29
:101490009A4221D1A2EB0C03934313EACC1317D148
:1014A00050F8042B51F8043B9A4215D1A2EB0C03DF
:1014B000934313EACC130BD150F8042B51F8043B9F
:1014C0009A4209D1A2EB0C03934313EACC13DBD06D
:1014D0004FF00000704700BFD01A01BAB1FA81F195
:1014E00001F0180122FA01F0CB40C1F12001DBB27A
:1014F000C0B2C01A2CFA01F3D11A914311EAC311F8
:10150000E6D17047B2F120030AD5C2F1200301FAF7
:1015100002F120FA03F300FA02F041EA03017047F6
:1015200000FA03F14FF0000070473A2800D230383B
:1015300020F02002412A01D3A2F13700884201D3D2
:101540004FF0FF307047000001491820ABBEFEE7A6
:1015500026000200704720F07F4C80EA030023F051
:101560007F47ACEB070303F57C5300F0004003F129
:10157000FF032DE980494FEA154B09B44FEA1443A4
:1015800025EA0B4E24EA03480FF2042606EB132744
:1015900049083E785FEA320203FB0667C7F5000799
:1015A00007FB06F64FEA54374FEAD64606F1020625
:1015B00007FB066CCCF1005C4FEA1C472CEA074C99
:1015C00007FB06F40CFB06F504EB15464FEA9616EE
:1015D00034BF00204FF000404FEAD13706FB07FC34
:1015E0004FEA1C4C0CFB0BF7D21B03FB0CF761EB17
:1015F00007010CFB0EF7B0EB074072EB17420CFB38
:1016000008F734BFA2EB0742B2EB074261EB174188
:101610004FEA0C444FEA910706FB07FC4FEA1C4CCB
:101620000CFB0BF7B0EBC74072EB573203FB0CF728
:1016300034BFA2EBC742B2EBC74261EB57310CFBA0
:101640000EF7B0EBC70072EB57720CFB08F734BF14
:10165000A2EBC702B2EBC70261EB5771039F4FEADF
:10166000816141EA921104EBCC044FEAD1374FEA91
:10167000826206FB07FC42EA90124FEA80604FEA62
:101680001C4C0CFB0BF7D21B03FB0CF761EB0701A7
:101690000CFB0EF7B0EB074072EB17420CFB08F7A0
:1016A00034BFA2EB0742B2EB074261EB17414FEAAE
:1016B0008C554FEA910704EB9C2406FB07FC4FEA8C
:1016C0001C4C0CFB0BF7B0EBC74072EB573203FB23
:1016D0000CF734BFA2EBC742B2EBC74261EB573104
:1016E0000CFB0EF7B0EBC70072EB57720CFB08F760
:1016F00034BFA2EBC702B2EBC70261EB577115EB27
:101700004C254FEA816141EA92114FEA82624FEA29
:10171000D13742EA901206FB07FC44F100044FEA7D
:1017200080604FEA1C4C0CFB0BF7D21B03FB0CF741
:1017300061EB07010CFB0EF7B0EB074072EB1742B1
:101740000CFB08F734BFA2EB0742B2EB074261EB98
:10175000174115EB1C154FEA813141EA92414FEADE
:10176000823242EA90424FEA80304FEA0C7644F1EE
:10177000000448EA03434EEA0B484FF0000EB2EB78
:10178000080C71EB030724BF624639464EEB0E0E80
:101790004FF0000B0018524149414BEB0B0BB2EBE1
:1017A000080C71EB03077BF1000B24BF624639463E
:1017B0004EEB0E0E4FF0000B0018524149414BEB1F
:1017C0000B0BB2EB080C71EB03077BF1000B24BF92
:1017D000624639464EEB0E0E51EA020718BF46F03C
:1017E000010616EB0E7655F1000254F1000103D507
:1017F000BDE88901BDE80088BDE88901BDE8004871
:10180000B619524141EB0101A3F1010370478080F9
:101810007F7E7D7C7B7A797877767675747372714A
:1018200071706F6E6E6D6C6C6B6A6A696868676602
:1018300066656464636362616160605F5F5E5E5D94
:101840005D5C5C5B5B5A5A59595858575756565508
:1018500055555454535352525251515050504F4F6A
:101860004F4E4E4D4D4D4C4C4C4B4B4B4A4A4A49BA
:1018700049494848484747474746464645454544FD
:1018800044444443434343424242424141410000B5
:1018900046EA0646A3F570534FEA164646EA425614
:1018A0004FEAD22242EA415210B54FEAD121A3F1C8
:1018B000010300F02FF820F0004000F1020C00F0CE
:1018C000004701EB00501146BCF5006F40EA0700ED
:1018D00000D210BDBAF1000F0AD01CB503B44FF00E
:1018E00004004FF004014FF000000FBCBDE81040B1
:1018F0004FF00001BBF1010FB9BF04484FF0FF31B9
:101900000348002140EA070010BD00BFFFFFEF7F42
:101910000000F07F002B9C4630D477002BD01CB504
:101920004FEA370703B44FF010004FF01001BAF13F
:10193000000F06D0BCF1000FDCBF40F0080040F003
:1019400008014FF000000FBCBDE810400BF1010B87
:10195000BBF1010F08BF5FEA170722BF12F10102B6
:1019600011F101014FF0004143F1000300F000408C
:1019700043EA00007047F9D35708D0E746EA064625
:1019800013F1400F4FEA16461FDD13F1200FDFBFA2
:1019900016430A46002120335B42BED0C3F1200724
:1019A00046EA064602FA07F74FEA164646EA0706EF
:1019B000C3F1200722FA03F201FA07F721FA03F133
:1019C0004FF0000342EA0702A7E746EA020646EAAA
:1019D00006464FEA164646EA0106BCBF46EA0646F8
:1019E000360C4FF000034FF000024FF0000194E777
:1019F0002DE9804C9A46934670B491E8380007C8A8
:101A000031EA400C48BF34EA430C03D5FFF7A3FD8D
:101A1000FFF780FFF0BCBDE8008C2DE9804C9A46B2
:101A2000934670B491E8380007C831EA400C48BFCB
:101A300034EA430C03D5FFF78EFDFFF729FFF0BC16
:101A4000BDE8008C2DE9804C9A46934670B491E82D
:101A5000380007C810F0804F08BF13F0804F03D143
:101A600000F01AF8FFF756FFF0BCBDE8008C2DE936
:101A7000804C9A46934670B491E8380007C810F03D
:101A8000804F08BF13F0804F03D100F005F8FFF737
:101A9000FFFEF0BCBDE8008C20F07F4780EA030029
:101AA00023F07F4C07EB0C03A3F57C5300F00040C0
:101AB000A3F1FE0392F0000F00F0B38095F0000F49
:101AC00000F077802DE901494FEA11404FEA1446B2
:101AD00021EA004800FB06FC24EA064708FB06F65C
:101AE00007FB08F800FB07F718EB06484CEB164C11
:101AF0004FEA124B18EB07484FEA15464CEB1740DC
:101B000022EA0B4E0BFB06FC25EA06470EFB06F607
:101B100007FB0EFE0BFB07F71EEB064E4CEB164CBD
:101B20004FF000061EEB074E4CEB174B18EB0B0863
:101B300040F1000018EB0E0B58EB000840F10000DC
:101B40008F1A4FF000013CBFC943661B14BFB5EBB1
:101B5000040C00213CBFC943F61B4FEA17444EEA70
:101B60008E0E27EA04454FEA1C4704FB07622CEA65
:101B7000074C05FB07F70CFB05F604FB0CFC16EB0A
:101B8000074642EB174216EB0C4642EB1C421BEB9E
:101B9000060658EB0202414146EA9E0601D5BDE821
:101BA0000189B619524141EB0101A3F10103BDE8DE
:101BB00001894FEA14454FEA114724EA054621EA14
:101BC000074C05FB07F406FB07F70CFB06F105FBCA
:101BD0000CFC11EB074144EB17444FEA124711EBA1
:101BE0000C4144EB1C4422EA074C05FB07F206FBC0
:101BF00007F70CFB06F605FB0CFC16EB074642EB61
:101C0000174216EB0C4642EB1C456A1854F10001D2
:101C100048BF7047B619524141EB0101A3F10103DE
:101C2000704795F0000F37D04FEA11424FEA144742
:101C300021EA024624EA074C02FB07F106FB07F7FC
:101C40000CFB06F402FB0CFC14EB074441EB1741C0
:101C50004FEA154714EB0C4441EB1C4125EA074CB5
:101C600002FB07F506FB07F70CFB06F602FB0CFC74
:101C700016EB074645EB174516EB0C4645EB1C42A9
:101C8000121951F1000148BF7047B619524141EB9A
:101C90000101A3F1010370474FEA14454FEA1147D0
:101CA00024EA054621EA074C05FB07F106FB07F786
:101CB0000CFB06F24FF0000605FB0CFC12EB074292
:101CC00041EB174112EB0C4251EB1C4148BF7047EE
:101CD000921841EB0101A3F10103704710B52DEDFE
:101CE000028BB0EE408AF0EE608A9FED0B0B51EC58
:101CF000180B53EC102B07F035FA06D2B0EE480A59
:101D0000F0EE680ABDEC028B10BD51EC180B06F02A
:101D100007FE41EC100BF5E700000000000000009A
:101D200070B5094D4FF4807400222146284601F019
:101D3000FFF8142000F0C6FF21462846BDE8704099
:101D4000012201F0F5B80000000C024070B5164CFD
:101D5000164E054602462188304601F0E9F86188B2
:101D60002A46304601F0E4F8A1882A46304601F0C0
:101D7000DFF8E1882A46304601F0DAF821892A4660
:101D8000304601F0D5F861892A46304601F0D0F896
:101D9000A1892A46304601F0CBF8E1892A4630462F
:101DA000BDE8704001F0C4B81000002000080240F7
:101DB0000349002231F81010024801F0B9B80000C0
:101DC00010000020000802400349012231F81010E1
:101DD000024801F0ADB800001000002000080240E9
:101DE00010B53C21044802F091F8BDE810403C21B8
:101DF000024802F08BB80000D804002068050020DB
:101E000070B5274D044655F8240004F078FE55F8C7
:101E1000240004F08DF855F8240004F0A1FD214AB7
:101E200055F82400511E04F03CFB1E4A55F82400CE
:101E3000921E111D04F038FB55F82400002104F017
:101E4000D9FB55F824000122002104F081FC012275
:101E500055F82400114604F07BFC55F8240041F6A7
:101E60009912012104F0B5FC55F824004FF47012CA
:101E7000002104F0AEFC55F8240048F2E80104F01B
:101E8000D0FC55F824001222002104F023FD55F85F
:101E90002400BDE870400E22012104F01BBD0000AB
:101EA000A02400202E00002070B50546C0EBC5011F
:101EB0000E4800EB810400F67C30214650F82500E6
:101EC00004F005FB2089094900EE100A05EB4500E6
:101ED0007839B8EE400A01EBC00003F08DFBBCEE90
:101EE000C00A10EE100A80B2208170BD24190020B3
:101EF0002DE9F0475E4C4FF032082DED028B0022A9
:101F00000821204601F014F8DFF868910022012131
:101F1000484601F00DF800224021484601F008F83B
:101F200000220421484601F003F80022102148460F
:101F300000F0FEFF404600F0C5FE012208212046C9
:101F400000F0F6FF404600F0BDFE4B484B4E00F659
:101F5000B8244B4D20605227C0F8586180F85C715E
:101F6000297804F043FB2168287881F85C0100207F
:101F7000FFF746FF01221146484600F0D9FF4046D0
:101F800000F0A0FEA4F513606060C0F8586180F80E
:101F90005C71697804F02AFB6168687881F85C01FB
:101FA0000120FFF72DFF01224021484600F0C0FF2D
:101FB000404600F087FEA4F5F560A060C0F85861C7
:101FC00080F85C71A97804F011FBA168A87881F809
:101FD0005C010220FFF714FF01220421484600F0B3
:101FE000A7FF404600F06EFEA4F5C460E060C0F8B4
:101FF000586180F85C71E97804F0F8FAE168E878F3
:1020000081F85C010320FFF7FBFE01221021484606
:1020100000F08EFF404600F055FEA4F5936020616D
:10202000C0F8586180F85C71297904F0DFFA216901
:10203000287981F85C010420FFF7E2FE114D9FED45
:10204000128ADFED128A002404EB4400B0EE680A25
:1020500005EBC000B0EE481AF0EE400A03F0BEFAFD
:10206000641CE4B2052CEFD3BDEC028BBDE8F08715
:1020700000040240000C0240E81900208404002003
:1020800034000020AC1800206F12833A0AD7233C9A
:10209000074810B590ED040B53EC102B90ED060B98
:1020A00051EC100B07F0A0F841EC100B10BD000034
:1020B0007801002010B50F4802F05CF94FF47A73F4
:1020C00003220D490B4802F085FC0B489FED0B0BDA
:1020D000401E80ED040B80ED020B80ED060B0A2004
:1020E00000F0F0FDBDE8104021220649014802F051
:1020F000C3BB0000F80500207901002000000000AB
:10210000000000004028002010B5FFF7D3FFBDE815
:10211000104021220149024802F0AEBB40280020B5
:10212000F80500202DE9F041214D224F224E2A785A
:102130000446642801DD642407E06FF063008442F4
:1021400001DA044614E0002C11DD4FF08001304626
:1021500000F0EEFE287840B100222021304600F049
:10216000E7FE38684463BDE8F0810122F5E711DA43
:1021700072B14FF0000200BF4FF08001304600F016
:10218000D7FE2A782021304600F0D2FE60420CE0D3
:102190000122F1E700228021304600F0C9FE002232
:1021A0002021304600F0C4FE002039684863DAE799
:1021B0004000002020050020000C024070B50220E5
:1021C000FFF702FE0320FFF7F3FD0420FFF7F0FD09
:1021D0000520FFF7EDFD0420FFF766FE06F05DFE2B
:1021E000114CA4F18005C4E91E016888233006F073
:1021F0006BFEC4E91C010D4803F016F894ED120BB8
:1022000051EC100B06F01AFEE9680844FFF78AFF4C
:1022100094ED120B51EC100B06F010FEE968BDE8CE
:102220007040081A00F04AB9C00000208026002043
:1022300010B504460146134803F0F2F81148214650
:10224000703003F0EDF80F482146E03003F0E8F875
:1022500021460D4803F0E4F80B482146703003F0A6
:10226000DFF809482146E03003F0DAF82146074854
:1022700003F0D6F821460548BDE81040703003F061
:10228000CFB80000C02400201026002060270020C6
:1022900019481F4980ED180B80ED1A1B703080ED36
:1022A000180B80ED1A1B703080ED180B80ED1A1B97
:1022B000703080ED180B80ED1A1B9FED100B703005
:1022C0009FED101B80ED180B80ED1A1B703080ED18
:1022D000180B80ED1A1B0D4890ED1C0B81ED180BAF
:1022E00090ED1E1B01F1700081ED1A1B80ED180BA3
:1022F00080ED1A1B70470000C02400200000000081
:1023000000002EC00000000000002E404000002011
:1023100060270020084988607031886070318860CB
:102320007031886070318860703188607031886089
:102330007031886070470000C0240020014880ECA4
:10234000060B7047882700207CB5584803F01EF81C
:102350005648703003F01AF85448E03003F016F88D
:10236000534803F013F85248703003F00FF8504808
:10237000E03003F00BF84D4801254E4CC07804F1D5
:102380001006CDE9005004F1D00396EC060BA3F142
:102390000802A2F10801454802F000FF4348183640
:1023A000703004F1E803C078A3F10802CDE90050D1
:1023B0003E48A2F1080196EC060B703002F0EEFEEA
:1023C0003B481836703804F1D003C078A3F10802F6
:1023D000CDE900503648A2F1080196EC060B7038A2
:1023E00002F0DCFE324804F1E803A3F10802C078F1
:1023F000A2F10801CDE900502D4896EC060B02F041
:10240000CDFE2B481836703004F1F003C078A3F1EC
:102410002802CDE90050264802F1300196EC060B67
:10242000703002F0BBFE224804F1F003E030583473
:10243000C078A3F11002CDE900501D4802F120013F
:1024400094EC060BE03002F0A9FE1B48283404F19E
:102450009803C078A3F10802CDE90050A2F1080169
:1024600094EC060B144802F099FE134804F1B003F3
:102470007030A3F10802C078A2F10801CDE9005044
:1024800004F118050C4895EC060B703002F086FE3E
:102490002120FFF73FFF94ED0E1B94ED0C0BFFF78F
:1024A000F7FEBDE87C400120FFF7C2BEC02400203B
:1024B0001026002040000020602700202DE9F04178
:1024C000214D224F224E2A780446642801DD6424DF
:1024D00007E06FF06300844201DA044615E0002C47
:1024E00012DD7AB14FF000024FF00801304600F0E3
:1024F0001FFD2A780221304600F01AFD38688463F7
:10250000BDE8F0810122EFE70FDA4FF00801304615
:1025100000F00EFD287830B100220221304600F094
:1025200007FD60420CE00122F7E700220821304657
:1025300000F0FEFC00220221304600F0F9FC0020F1
:1025400039688863DCE70000400000202005002097
:10255000000C024010B50420FFF7A6FC054C60807B
:102560000320FFF7A1FC20810120FFF79DFC608183
:1025700010BD00004000002010B50420FFF794FCBF
:10258000054CA0800320FFF78FFCE0800120FFF7BF
:102590008BFC608110BD00004000002010B50A488F
:1025A00001F042FB0021084801F06AFE04210648C0
:1025B00001F066FE01221103044800F0B9FCBDE8F9
:1025C0001040FFF7C1BE00002005002000080240B7
:1025D00070B5142528266C424C2806D0522806D007
:1025E000462809D042280ED013E0284607E02046AE
:1025F000FFF798FD28460AE06FF027042046FFF712
:1026000091FD204603E03046FFF78CFD3046FFF792
:1026100055FF142000F056FBBDE87040AFF300807A
:1026200010B50020FFF77EFDBDE810400020FFF749
:1026300045BF000070B5FFF73DFDFFF729FD284CB1
:10264000A4F1800084ED020B9FED260B53EC102BC0
:1026500090ED100B51EC100B06F0A0F9C4E9060147
:102660004FF47A7000F02EFB204D17E0FFF710FDBD
:1026700084ED020B1E4802F0D7FD94ED040B51ECE3
:10268000100B06F0DBFB4042FFF74CFD94ED040B12
:1026900051EC100B06F0D2FBFFF710FF2878022850
:1026A00016D094ED060B53EC102B94ED020B51EC6D
:1026B000100B06F099FD41EC100BFFF70FFB9FED9F
:1026C0000D1B51EC100B53EC112B06F04BFDCDD331
:1026D0004C20FFF77DFFBDE87040FFF7EBBC00002A
:1026E0004001002000000000008056400000002053
:1026F00060270020000000000000244070B5FFF7B4
:10270000D9FCFFF7C5FC284CA4F1800084ED080B30
:102710009FED260B53EC102B90ED160B51EC100B8C
:1027200006F062FDC4E90C014FF47A7000F0CAFAB9
:10273000204D17E0FFF7ACFC84ED080B1E4802F0BB
:1027400073FD94ED0A0B51EC100B06F077FB404241
:10275000FFF7E8FC94ED0A0B51EC100B06F06EFB52
:10276000FFF7ACFE2878022816D094ED0C0B53EC42
:10277000102B94ED080B51EC100B06F035FD41ECDD
:10278000100BFFF7ABFA9FED0D1B51EC100B53EC48
:10279000112B06F0E7FCCDD35220FFF719FFBDE85F
:1027A0007040FFF787BC00004001002000000000DF
:1027B0000080564000000020D027002000000000CC
:1027C00000001C4038B5164C207838B1217860786C
:1027D000144A0244401C607011701AE02078C0B99D
:1027E0000F4811A11830A0F11003A0F108020090C9
:1027F0000C48FDF7DFFD94ED062B94ED021B94EDE4
:10280000040BFFF79BFD0020607030210548FDF7A9
:102810008AFEBDE8384001220149074802F041B86C
:102820009801002086280020256C6620256C6620F3
:10283000256C6600000000003C06002001220249D1
:10284000024802F02EB80000980100203C0600204B
:10285000FEE70000014800F0C3B800008417002024
:1028600001681823CAB2103AB2FBF3F2054B6FF3BA
:102870000901032A9B5CC36500D9091D81650846CF
:1028800070470000D294000810B5014600208B6903
:102890008A6A4FF0C07453B1B3F5005F15D072B1BE
:1028A000012A0CD0022A0AD0032A09D104E01AB165
:1028B000012A06D0022A03D1C96AC90100D5012024
:1028C00010BDC96AA142FAD010BD002AF7D0012A72
:1028D000F2D0022AF3D0032AF3D010BD30B5046839
:1028E000256825F480252560046863608368402B93
:1028F000036803D099600068C26030BD9A600068C8
:10290000C16030BD7047022000F00EBA042000F014
:102910000BBA082000F008BA102000F005BA2020F9
:1029200000F002BA72B6FEE72DE9F0410446876D69
:1029300000F004FB064694F835000025022806D076
:102940008020606584F834500120BDE8F081206863
:10295000016821F0160101602068416921F08001C1
:102960004161206C08B9A06C20B12068016821F099
:10297000080101602068016821F0010101600CE09C
:1029800000F0DCFA801B052807D9202060650320B1
:1029900084F8350084F83450D7E720680068C00711
:1029A000EED194F85C103F208840B860012084F894
:1029B000350084F834500020C7E790F8351002291C
:1029C00003D08021416501207047052180F8351032
:1029D0000068016821F001010160002070470000DB
:1029E0002DE9F84304464FF00009CDF80090634804
:1029F0004FF41651A56D0068B0FBF1F72E6894F8FE
:102A00005C10082000FA01F131420FD021680A68F9
:102A100052070BD50A6822F004020A6094F85C1091
:102A20008840A860606D40F00100606594F85C101B
:102A30004FF0010808FA01F0304208D021684969D6
:102A4000090604D5A860606D40F00200606594F846
:102A50005C1004208840304208D02168096889074A
:102A600004D5A860606D40F00400606594F85C10C7
:102A700010208840304218D021680968090714D511
:102A8000A86020680168490304D50068000308D5E0
:102A9000A16C07E00168C90503D4016821F00801B1
:102AA0000160216C09B12046884794F85C10202011
:102AB0008840304231D021680968C9062DD5A86008
:102AC00094F8350005282068016806D0490347D5E9
:102AD000006800031DD4616C1CE021F01601016048
:102AE0002068416921F080014161206C08B9A06C27
:102AF00020B12068016821F00801016094F85C10A1
:102B00003F208840A86084F8358084F83490216D97
:102B10001FE0E16B09B120468847606D00282BD08B
:102B2000606DC00714D0052084F835002068016866
:102B300021F0010101600098401C0090B84203D8C8
:102B400020680068C007F6D184F8358084F8349096
:102B5000E16C002910D001B02046BDE8F0430847E1
:102B60000168C905D5D4016821F01001016084F81D
:102B7000358084F83490CCE7BDE8F88380040020E9
:102B80002DE9F041044600F0D9F906465CB1022077
:102B900084F83500002584F834502068016821F05D
:102BA000010101600DE00120BDE8F08100F0C6F9EF
:102BB000801B052805D920206065032084F8350096
:102BC000F2E720680068C007F0D122681168204849
:102BD0000140D4E901031843D4E9033633431843D1
:102BE00063691843A3691843E3691843236A1843C8
:102BF0000843616A042903D1D4E90B13194308433C
:102C0000106020684069666A20F0070130460E4374
:102C1000012704280CD1A06A0643E06A40B120468F
:102C2000FFF732FE20B14020606584F83570BAE7C6
:102C3000206846612046FFF713FE94F85C203F2190
:102C400091408160656584F835700020ACE7000034
:102C50003F8010F02DE9F0410446866D90F8340075
:102C6000002501280DD0012084F8340094F8357037
:102C70000020012F07D084F8340002252846BDE843
:102C8000F0810220FBE7022784F83570606520465A
:102C9000FFF724FE94F85C103F208840B060206865
:102CA000016841F016010160206C20B120680168C4
:102CB00041F0080101602068016841F001010160F4
:102CC000DCE7000070B5044600F038F90546601CEA
:102CD00002D004480078044400F030F9401BA042C0
:102CE000FAD370BD740400200D4A0E491388834244
:102CF00001D1002003E05388834202D101200870F3
:102D000070479388834201D10220F8E7D388834239
:102D100001D10320F3E712898242F1D10420EEE7CA
:102D20002000002000000020044910B50A6802427B
:102D300002D00860FFF7D8FF10BD0000143C01402E
:102D40002DE9F84FDFF8BCA10022012503264FF042
:102D50000F090AF1040BAAF1040E00BF0B6805FA73
:102D600002F42340A34270D10F7907F00307012F2B
:102D700001D0022F16D187684FEA420806FA08FCF4
:102D800027EA0C07D1F80CC00CFA08FC4CEA070C37
:102D9000C0F808C04768A7430C79C4F300149440F6
:102DA0003C4344600C79E443A4070AD0C4684FEA6A
:102DB000420C06FA0CF7BC438F6807FA0CF727435E
:102DC000C7600C7904F00304022C12D1D40800EB84
:102DD000840CDCF820405707FF0E09FA07F824EAB4
:102DE0000804D1F8108008FA07F848EA0408CCF87B
:102DF000208004684FEA420C06FA0CF7BC430F79B6
:102E000007F0030707FA0CF7274307604C6814F430
:102E1000403F70D03C4C276847F4804727602468C7
:102E200022F0030704F480440094384C07EB040CB0
:102E3000DCF8084897074FEA177809FA08F7BC4307
:102E4000334FB84202D1002724E054E0314FB8425A
:102E500001D101271EE0304FB84201D1022719E00D
:102E60002E4FB84201D1032714E02D4FB84201D1B3
:102E700004270FE02B4FB84201D105270AE02A4F63
:102E8000B84201D1062705E0284FB84201D10727F3
:102E900000E0082707FA08F72743CCF80878DAF8A3
:102EA00000405746D1F804C09C435FEACC2C00D5C3
:102EB0001C433C60DBF800405F46D1F804C09C43F3
:102EC0005FEA8C2C00D51C433C60DEF8004077465E
:102ED000D1F804C09C435FEA8C3C00D51C433C60A5
:102EE000084F083F3C68D1F804C09C435FEACC3CE3
:102EF00000D51C433C60521C102AFFF42FAFBDE8E4
:102F0000F88F0000083C0140443802400030014086
:102F1000000002400004024000080240000C024091
:102F2000001002400014024000180240001C024041
:102F30000AB1816170470904FBE70000014880681D
:102F4000704700007404002070B5040025D094F888
:102F50003D00002520B984F83C50204600F03EFAA0
:102F6000242084F83D002068016821F001010160FF
:102F70002068016841F4004101602068016821F483
:102F80000041016000F094FB4D4A6168914201D814
:102F90004C4900E04C49884201D2012070BD4B49A8
:102FA0002368B0FBF1F15E6826F03F060E435E60D9
:102FB0006368934206D94FF4967359434FF47A737A
:102FC000B1FBF3F12368491C1E6A26F03F0631432A
:102FD00019626168914210D84900401EB0FBF1F2BD
:102FE000521CC2F30B02042A01D2042022E0B0FBDF
:102FF000F1F0401CC0F30B001CE0A268F2B301EB3F
:10300000C10303EB0116431EB3FBF6F35B1C43F451
:1030100080431B0549D092B301EBC10202EB0111C1
:10302000401EB0FBF1F0401CC0F30B0040F48040A8
:1030300040F400402168CA694CF6FF739A4310437C
:10304000C861D4E9071001432068026822F0C00279
:1030500011430160D4E9030101432068826848F20A
:10306000FF339A4311438160D4E905010843216885
:10307000CA6822F0FF021043C86001E00EE016E0CB
:103080002068016841F0010101602564202084F876
:103090003D00256384F83E50002070BD01EB4106E1
:1030A000431EB3FBF6F35B1CB3E70120C2E701EB61
:1030B0004101401EB0FBF1F0401CC0F30B00B7E72C
:1030C000A086010080841E0000093D0040420F00E0
:1030D0002DE9F84F1F4690468A460446DDF82890B1
:1030E000FFF72CFF054694F83D00202875D11923E1
:1030F00001226C492046009501F0D0FD0028F5D151
:1031000094F83C00012868D0012084F83C00206835
:103110000168C90703D1016841F00101016020681D
:10312000016821F400610160222084F83D00102034
:1031300084F83E0000262664C4F824806785608DEC
:1031400020855948E0622B464A465146204601F008
:10315000BBFC002878D1208D544F68B1012814D0D1
:1031600002282068016816D041F48061016020685F
:1031700041698069009087E0206841698169009118
:10318000016841F4007101607EE02068016821F46B
:1031900080610160F0E721F48061016020680168CE
:1031A00041F40061E2E7032848D801280AD0022848
:1031B00014D04B46002239462046009501F06EFDA2
:1031C000D8BB27E02A464946204601F0E6FDA0BBD1
:1031D00020680069616A08704DE061E04B4600229A
:1031E00039462046009501F059FD30BB2068016842
:1031F00041F40071016020680069616A0870606ACA
:10320000401C6062218D491E2185618D491E6185AA
:1032100021682EE02068016821F480610160206847
:103220000069616A0870606A401C6062208D401EFF
:103230002085608D401E6085D0E705E02A4649461E
:10324000204601F0AAFD10B10120BDE8F88F2068EA
:103250000069616A0870606A401C6062218D491EC5
:103260002185618D491E618521684A69D2435207D3
:103270000AD409690170606A401C6062208D401E9A
:103280002085608D401E6085208D00288BD12020F8
:1032900084F83D0084F83E6084F83C600020D4E768
:1032A0000220D2E7020010000000FFFF040001002E
:1032B0002DE9F84F1F4690468A460446DDF82890CF
:1032C000FFF73CFE054694F83D0020287FD11923E6
:1032D000012240492046009501F0E0FC002876D10B
:1032E00094F83C00012872D0012084F83C0020684A
:1032F0000168C90703D1016841F00101016020683C
:10330000016821F400610160212084F83D00102053
:1033100084F83E0000262664C4F824806785608D0A
:1033200020852D48E0622B464A465146204601F052
:1033300041FC90B9206841698069009036E02A46D6
:103340004946204601F05CFD50B1206C042804D1B0
:103350002068016841F4007101600120BDE8F88F28
:10336000606A216800780861606A401C6062618D53
:10337000491E6185218D491E89B2218522685369C4
:10338000DB435B070BD451B100781061606A401CCD
:103390006062608D401E6085208D401E20852A461B
:1033A0004946204601F054FC0028CED1208D00284B
:1033B000C5D154F83D0B016841F400710160202033
:1033C00004F81E09E67766770020C7E7FFE70220CA
:1033D000C4E70000020010000000FFFF10B586B037
:1033E000044614216846FDF7C0F814492068884255
:1033F00021D113480021026842F0020202600068F5
:1034000000F0020005904FF4107000901220CDE9FA
:103410000101032003900420049069460948FFF746
:103420008FFC07481030016841F40011016000680A
:1034300000F40010059006B010BD000000540040DC
:10344000303802400004024002488168027811448A
:1034500081607047740400200B4810B5016841F486
:1034600000710160016841F480610160016841F40C
:1034700080710160032000F06FF80E2000F006F864
:1034800000F024F8002010BD003C024070B50D4D46
:1034900004464FF47A712878B1FBF0F00A490968C4
:1034A000B1FBF0F000F00CFB48B9102C07D2002261
:1034B0002146501E00F030F800206C6070BD0120E5
:1034C00070BD000074040020800400200A4808B584
:1034D000016841F480410160006800F48040009080
:1034E0000548001F016841F080510160006800F04C
:1034F0008050009008BD000044380240002809DBDD
:1035000000F01F02012191404009800000F1E020FD
:10351000C0F8001170470000F0B40E4B1B680C4659
:10352000C3F30223C3F10705042D00D90425191D97
:10353000072901D2002300E0DB1E012606FA05F16F
:10354000491E214099409E40761E16403143F0BCF2
:1035500004F09EBD0CED00E0064900F0070208688B
:103560004FF6FF03184040EA0220034A1043086068
:10357000704700000CED00E00000FA052DE9F0476F
:103580000E46050065D0DFF81481D8F80000F7B2C8
:1035900000F00700B04207D288F80070D8F80000A9
:1035A00000F00700B04254D128683D4C810712D585
:1035B000400703D5206840F4E050206028780007D9
:1035C00003D5206840F4604020602068A96820F09E
:1035D000F000084320602878C0072DD03049686883
:1035E0000839012812D0022813D0032811D0096805
:1035F000890700292DDA216821F0030101432160A8
:10360000FFF79CFC814641F2883A0EE00968890385
:10361000EFE709688901ECE7FFF790FCA0EB0901EF
:10362000514502D90320BDE8F0872068696800F0A1
:103630000C00B0EB810FEFD1D8F80010404601F03C
:103640000701B14207D90770006800F00700B042D7
:1036500001D00120E7E72878400705D52068E96810
:1036600020F4E050084320602878000706D5206841
:10367000296920F4604040EAC100206000F038F879
:103680002168084AC1F30311515CC840064908602B
:1036900006480068FFF7FAFE0020C4E7003C02403D
:1036A00008380240DA9400088004002078040020E2
:1036B0000448054900680968044AC1F38221515C45
:1036C000C84070478004002008380240EA9400088F
:1036D0000448054900680968044AC1F34231515C55
:1036E000C84070478004002008380240EA9400086F
:1036F000154810B5006810F00C02144813D0144996
:10370000042A0FD0082A0ED10F4C241F22682368E8
:1037100002F03F025B0207D52068C0F38810A0FBCF
:10372000010106E0084610BD2168C1F38811A1FB24
:1037300000010023FCF7C6FD2168C1F30141491CCB
:103740004900B0FBF1F010BD083802400024F4003D
:1037500040787D012DE9F84F04006ED02078DFF825
:103760004C93C007A9F104054AD009F1040001688F
:10377000C1F38101012908D00068C0F3810002284B
:103780000AD1D9F80000400206D52868800337D551
:1037900060680028E1D033E06068B0F5803F10D069
:1037A000B0F5A02F286810D020F480302860286859
:1037B00020F4802028606068A8B1FFF7BFFB0646B0
:1037C0000DE0286840F48030F4E740F48020286061
:1037D000F7E700BFFFF7B2FB801B642873D82868A7
:1037E0008003F7D50CE0FFF7A9FB064605E000BF14
:1037F000FFF7A4FB801B6428F0D828688003F7D467
:103800002078DFF8AC8280074FF0000A3ED5A74849
:10381000001D016811F00C0F08D00068C0F3810092
:1038200002280BD1D9F80000400207D4286880078D
:1038300016D5E068012800D112E033E1E068B8B1A4
:103840000120C8F80000FFF779FB064605E000BF3D
:10385000FFF774FB801B0228C0D828688007F7D5C3
:103860002868216920F0F80040EAC10028600DE0D6
:10387000C8F800A0FFF762FB064604E0FFF75EFB16
:10388000801B02281FD828688007F7D420780007FB
:1038900022D5864F87486169703771B10121016077
:1038A000FFF74CFB064604E0FFF748FB801B0228AD
:1038B00009D838688007F7D50EE0C0F800A0FFF7F8
:1038C0003DFB064605E082E0FFF738FB801B02283F
:1038D0007DD838688007F7D42078400768D5DFF8AE
:1038E000CCB100270BF13C0BDBF80000C0000BD47F
:1038F000DBF8001041F08051CBF80010DBF800003D
:10390000012700F0805000906B4E3068C00510D445
:10391000306840F480703060FFF710FB009005E0E5
:10392000FFF70CFB0099401A022850D83068C005F8
:10393000F6D55E4EA0686C3601280FD00528306899
:1039400010D020F001003060306820F004003060BA
:10395000A068B8B1FFF7F2FA00900FE0306840F0CD
:103960000100F4E740F004003060F7E7FFF7E6FA03
:103970000099411A41F28830814266D83068800748
:10398000F4D50EE0FFF7DAFA009007E0FFF7D6FA79
:103990000099411A41F28830814256D83068800738
:1039A000F4D42FB1DBF8001021F08051CBF80010D7
:1039B000A069C8B33D49091D0968C1F38101022905
:1039C0004AD00228504607D0C8F8600000E03CE02A
:1039D000FFF7B4FA04463BE04746C8F86000FFF73B
:1039E000ADFA064605E000BFFFF7A8FA801B0228E3
:1039F0002BD828688001F7D4D4E907010843A16ACD
:103A00002E4A490802EB0141626A41EA82110843E9
:103A100094F82C1040EA0161C9F8001001203866C2
:103A2000FFF78CFA044606E03EE000BFFFF786FA97
:103A3000001B022809D828688001F7D534E000BFB0
:103A4000FFF77CFA001B022802D90320BDE8F88F9B
:103A500028688001F4D427E00128F7D0D9F80000C5
:103A6000E26900F4800191421CD1226A00F03F011A
:103A7000914217D147F6C071626A0140B1EB821FD3
:103A800010D1A26A4FF0FF3300F4403103EB520231
:103A9000B1EB024F06D194F82C1000F07060B0EB3F
:103AA000016F01D00120D1E70020CFE704380240A8
:103AB00000004742800E4742007000400000FFFFB8
:103AC00010B5401EB0F1807F01D3012010BD4FF032
:103AD000E02460610F21601704F0DAFA0020A06191
:103AE00007202061002010BD7047704770B590F826
:103AF0003C20012A32D0012480F83C40022280F888
:103B00003D2003685A689D6822F070060A683243B7
:103B10005A60134B02689A4214D0B2F1804F11D010
:103B2000104B9A420ED0104B9A420BD00F4B9A4238
:103B300008D00F4B9A4205D00E4B9A4202D00E4B42
:103B40009A4204D1496825F080031943916080F8B6
:103B50003D40002180F83C10084670BD022070BD39
:103B6000000001400004004000080040000C00403C
:103B700000040140004001400018004010B504005E
:103B800003D094F83D0010B107E0012010BD0020E3
:103B900084F83C00204600F01FF8022084F83D0025
:103BA000211D206801F0AEFD012084F8460084F854
:103BB0003E0084F83F0084F8400084F8410084F817
:103BC000420084F8430084F8440084F8450084F8F7
:103BD0003D00002010BD000008B501681048B1F19B
:103BE000804F14D00F4A914219D1016841F0400131
:103BF00001600068002200F04000009001212B20AD
:103C0000FFF78AFCBDE808402B20FFF777BC01686E
:103C100041F001010160006800F00100009008BD62
:103C2000403802400018004090F83D10012901D0B2
:103C300001207047022180F83D1000681149884238
:103C400014D0B0F1804F11D00F4988420ED00F49E7
:103C500088420BD00E49884208D00E49884205D0D0
:103C60000D49884202D00D49884204D1816801F093
:103C70000701062903D0016841F00101016000201D
:103C800070470000000001400004004000080040B0
:103C9000000C0040000401400040014000180040BA
:103CA00070B5044690F83C000025012817D0012685
:103CB00084F83C60022084F83D002068826822F08D
:103CC000770222F47F4282600868502838D00DDCE9
:103CD00020284FD005DC90B3102811D14AE00220F3
:103CE00070BD302846D040280AD13BE060282FD054
:103CF00070280DD0B0F5805F03D0B0F5005F12D012
:103D0000012584F83D60002084F83C00284670BD01
:103D1000CB68D1E90121206801F065FD2068816848
:103D200041F0770109E0CB68D1E90121206801F079
:103D30005AFD2068816841F480418160E1E719E023
:103D4000CA684968206801F023FE5021206806E017
:103D5000CA684968206801F02CFE6021206801F0E3
:103D60004CFDCEE7CA684968206801F011FE402189
:103D70002068F4E7226801461046F0E72DE9F0419B
:103D80000D46040003D094F83D0018B108E001206E
:103D9000BDE8F081002084F83C00204600F040F8A7
:103DA000022084F83D002068816844F207029143B4
:103DB0008160211D206801F0A5FC2268906891694E
:103DC000166A2B68AF69034340F20330814341EA2E
:103DD0000721A868EF6908434FF6FC418843E9686A
:103DE00040EA0720014328692F6A000140EA0730B2
:103DF000084369686D6926F0AA0646EA0515294355
:103E000093602268906154F8460B0162012004F827
:103E10001F09E0752076E0762077A0750020B7E7CF
:103E200030B587B0044614216846FCF79EFB314A42
:103E30002168002430480225914227D12E491431AF
:103E40000A6842F001020A60096801F00101059167
:103E5000016841F0100101600068694600F010003F
:103E600005904FF420600090CDE901540120CDE988
:103E700003402248FEF764FF002211461820FFF796
:103E80004BFB1820FFF73AFB07B030BD1C4A9142AC
:103E9000FAD1194910310A6842F004020A6009682F
:103EA00001F004010591016841F008010160016819
:103EB00001F008010591016841F00201016000680C
:103EC000694600F0020005904FF480500090CDE963
:103ED00001540C48CDE90345FEF732FF80200090E5
:103EE000CDE9015469460848CDE90345FEF728FFAE
:103EF000CAE70000000001403038024000100240D4
:103F000000080040000C02400004024070B590F828
:103F10003E60044690F83F5090F8423090F84320BD
:103F2000022021B104290ED0012E1BD114E0012E54
:103F300018D1012B16D184F83E0084F842000122EA
:103F40000021206820E0012D0CD1012A0AD184F83B
:103F50003F0084F8430014E0012D03D1012B01D16F
:103F6000012A01D0012070BD84F83E0084F83F0092
:103F700084F8420084F8430001220021206801F007
:103F800025FC01220421206801F020FC2068016842
:103F900041F001010160002070BD704770B504461A
:103FA000006801694FF00005C943890715D4C1684D
:103FB000C943890711D4E91E0161012020772068D7
:103FC00080698007204602D0FFF7E7FF04E000F099
:103FD000C1F8204600F053F9257720680169C943EC
:103FE000490717D4C168C943490713D46FF00401C6
:103FF0000161022020772068806910F4407F20460C
:1040000002D0FFF7CAFF04E000F0A4F8204600F059
:1040100036F9257720680169C943090716D4C168B4
:10402000C943090712D46FF0080101610420207709
:104030002068C0698007204602D0FFF7AEFF04E089
:1040400000F088F8204600F01AF925772068016909
:10405000C943C90617D4C168C943C90613D46FF050
:1040600010010161082020772068C06910F4407FAA
:10407000204602D0FFF791FF04E000F06BF82046E5
:1040800000F0FDF8257720680169C943C90708D108
:10409000C168C943C90704D1891E0161204600F0E7
:1040A00053F920680169C943090609D4C168C943A5
:1040B000090605D46FF0800101612046FFF714FD69
:1040C00020680169C943490609D4C168C943490642
:1040D00005D46FF040010161204600F049F92068E5
:1040E0000169C94389060BD4C168C943890607D44D
:1040F0006FF0200101612046BDE87040FFF7F5BC7C
:1041000070BD000010B586B0044614216846FCF767
:104110002CFA2068B0F1804F15D10C4800210268BC
:1041200042F001020260006800F0010005902220C8
:1041300000900220CDE901010120CDE9031069467C
:104140000348FEF7FDFD06B010BD00003038024008
:1041500000000240704770B5044690F83C0000260D
:104160000D4601280FD0012084F83C006AB1042AD2
:104170001DD0082A2FD00C2A3FD00126002084F819
:104180003C00304670BD022070BD206801F03EFB4F
:104190002068816941F0080181612068816921F00E
:1041A00004018161206881692A69114311E0206856
:1041B00001F05CFB2068816941F400618161206845
:1041C000816921F480618161206881692A6941EAFD
:1041D00002218161D2E7206801F07EFB2068C1697D
:1041E00041F00801C1612068C16921F00401C16189
:1041F0002068C1692A69114311E0206801F0A0FB21
:104200002068C16941F40061C1612068C16921F47D
:104210008061C1612068C1692A6941EA0221C161E6
:10422000ACE710B5040003D094F83D0010B107E0EE
:10423000012010BD002084F83C00204600F01EF84C
:10424000022084F83D00211D206801F05BFA012066
:1042500084F8460084F83E0084F83F0084F840006B
:1042600084F8410084F8420084F8430084F8440054
:1042700084F8450084F83D00002010BD7047704769
:1042800010B50446022249B104290ED0082913D0E2
:1042900094F84100012816D0012010BD94F83E008A
:1042A0000128F9D184F83E200FE094F83F0001285E
:1042B000F2D184F83F2008E094F840000128EBD1C7
:1042C00084F8402001E084F841200122206801F0B8
:1042D0007DFA16492068164A884201D0904203D1DF
:1042E000436C43F4004343642068884213D0B0F128
:1042F000804F10D00F4988420DD00F4988420AD014
:104300000E49884207D0904205D00D49884202D01C
:104310000C49884204D1816801F00701062903D0C5
:10432000016841F001010160002010BD0000014062
:10433000000401400004004000080040000C004060
:10434000004001400018004010B507490068074CC4
:104350000968884204D1FDF731FFE08A401CE08201
:10436000208B401C208310BDB0050020E4170020E6
:104370007047704710B504460068406994F83D10D6
:10438000C0F3C010212911D180B12068143050E849
:10439000001F21F0800140E80012002AF5D1606B77
:1043A00008B1FEF7C1FA204601F0B7FB206840696A
:1043B00094F83E10C0F38010222911D180B12068FA
:1043C000143050E8001F21F0400140E80012002A9C
:1043D000F5D1A06B08B1FEF7A7FA204601F076FBF5
:1043E000002010BD70470000F8B501680446086859
:1043F000CA684B6910F00F0F4FF0000559D003F059
:10440000010602F49077374365D0C10705D0D10586
:1044100003D5216C41F001012164410705D5D9077D
:1044200003D0216C41F002012164810705D5D90731
:1044300003D0216C41F004012164010707D502F08B
:104440002001314303D0216C41F008012164216C2B
:1044500000293AD0800604D5900602D5204601F006
:104460006AFB20684069216CC0F38010090700D402
:1044700060B3204601F02AFB20684069400621D540
:104480002068143050E8001F21F0400140E800127D
:10449000002AF5D1A06BA8B16C490165A06BFEF7AD
:1044A0008CFA002811D0A06B016D01B0BDE8F0407E
:1044B000084783060FD593060DD52046BDE8F84082
:1044C00001F039BB2046FFF78DFFF8BD2046FFF70E
:1044D00089FF2564F8BD266B2023012E79D1C606FD
:1044E00077D5D60675D508684868009048694006B3
:1044F00040D5A16B086840680004000CEAD0A28D8A
:104500008242E7D9E085C869B0F5807F2DD0206868
:104510000C3050E8001F21F4807140E80012002A9E
:10452000F5D12068143050E8001F21F0010140E867
:104530000012002AF5D12068143050E8001F21F045
:10454000400140E80012002AF5D184F83E3025638E
:1045500020680C3050E8001F21F0100140E80012E4
:10456000002AF5D1A06BFEF7DFF9A08DE18D401A8E
:1045700081B229E0A08DE18D401A81B2E08D002842
:10458000A8D00029A6D020680C3050E8002F22F4D3
:10459000907240E80026002EF5D12068143050E8D3
:1045A000002F22F0010240E80026002EF5D184F809
:1045B0003E30256320680C3050E8002F22F01002B6
:1045C00040E80023002BF5D12046FFF7D2FEF8BDCE
:1045D000FFE705062BD5150629D594F83D002128BF
:1045E000F5D1A068B0F5805F01D12069B0B1206A33
:1045F000411C2162216800784860E08C401E000464
:10460000000CE084E3D12068C16821F08001C16022
:104610002068C16841F04001C160D8E7206A008885
:10462000C0F308004860206A801C2062E5E740066D
:10463000CDD55006CBD5CA68204622F04002CA60CC
:1046400084F83D3000F01FFAC1E70000D759000898
:1046500070B5040004D094F83D00002510B106E0C8
:10466000012070BD84F83C50204600F023F824203F
:1046700084F83D002068C16821F40051C1602046E3
:1046800001F0BAFA2068016921F4904101612068C3
:10469000416921F02A0141612068C16841F400515B
:1046A000C1602564202084F83D0084F83E0000208D
:1046B00070BD000070B586B0064614216846FBF751
:1046C00054FF364C30680025354902230322A042AE
:1046D0003BD133481030046844F4802404600068FF
:1046E00000F480200590086840F002000860086827
:1046F000694600F0020005909002CDE90003012018
:10470000CDE90202072004902648FEF719FB274C4A
:10471000254820604FF00060C4E901054014C4E959
:1047200003506561A561E561256220466562FEF77B
:1047300027FA08B1FEF7F6F8B4630022012127201A
:10474000A663FEF7E9FE272024E0194CA04223D1FE
:1047500013481430046844F020040460006800F03A
:1047600020000590086840F0040008600868694669
:1047700000F004000590C0208DE829000820CDE954
:1047800003200C48FEF7DCFA002211464720FEF712
:10479000C3FE4720FEF7B2FE06B070BD00480040E1
:1047A0003038024000040240286002408417002094
:1047B00000140140000802402DE9F84F044690F82B
:1047C0003E009A4616460D46202853D1FDB1F6B15B
:1047D00094F83C0001284DD0012084F83C000027CB
:1047E0002764222084F83E002763FEF7A7FBA685F6
:1047F0008146E685A0684FF48058404501D1206984
:1048000040B12E465FF0000584F83C7027E001209F
:10481000BDE8F88F0026F7E74B460022202120460E
:10482000CDF800A001F0D5FA08B10320F0E726B1D9
:10483000A06840451BD038B108E020684068C0F34C
:10484000080025F8020B07E0206980B12068406865
:1048500000F07F0006F8010BE08D401EE085E08D42
:104860000028D9D1202084F83E000020D0E720681D
:104870004068EFE70220CBE790F83E30202B0ED1C6
:1048800059B152B190F83C30012B08D0012380F887
:104890003C300023036301F035BA01207047022049
:1048A000704790F83E30202B0ED159B152B190F89C
:1048B0003C30012B08D0012380F83C3000230363F7
:1048C00001F06ABA012070470220704710B50068F5
:1048D0002E49884252D12E4801782E4C532903D0BC
:1048E000BDE8104003F056BE94ED060B84ED020BBC
:1048F0004179807941EA002004F0E6FA9FED261B19
:1049000053EC112B04F030FB9FED251B53EC112BC6
:1049100004F02AFB41EC100B84ED060B94ED020B26
:1049200053EC102B94ED060B51EC100B04F05CFCD7
:104930009FED1D1B53EC112B04F014FC02D29FEDD4
:104940001C0B12E094ED020B53EC102B94ED060BB4
:1049500051EC100B04F048FC9FED171B53EC112B8E
:1049600004F0C6FA03D29FED160B84ED040BBDE8EC
:104970001040212206491448FFF77EBF13498842A0
:1049800003D1BDE81040FDF71DBF10BD0048004039
:104990004028002078010020000000000000003FB7
:1049A00000000000008066400000000000406F40F2
:1049B00000000000008076400000000000406FC052
:1049C0000000000000000000F80500200014014075
:1049D000704700002DE9F843044690F83D001F465B
:1049E00016460D4620284CD1C5B1BEB194F83C0006
:1049F000012846D0012084F83C004FF00008C4F89C
:104A00004080212084F83D00FEF798FAA684814674
:104A1000E684A068B0F5805F03D004E00120BDE823
:104A2000F883206928B12E465FF0000584F83C80A9
:104A30000EE00026FAE78021204601F0CAF9A0B96D
:104A4000AEB116F8010B21684860E08C401EE0848E
:104A5000E08C4B464FF0000200970028EBD14FF05E
:104A60004001204601F0B5F930B10320D7E735F811
:104A7000020BC0F30800E6E7202084F83D00002088
:104A8000CDE70220CBE7704702480068C00700D09E
:104A900000BEFEE7F0ED00E001684A69D24352052E
:104AA0000FD46FF480624A61002140F8301F202249
:104AB00042738173026942F00402026101730120B2
:104AC00070470020704700002DE9F84F0446C06A87
:104AD0001E4693460D4621680A6842F480620A60C9
:104AE000082807D0012805D010F5803F02D0206BA0
:104AF000112804D12068016841F4807101604FF0F1
:104B000001195B46002249462046009600F0C6F88F
:104B10004FF4007840B120680068C00501D5C4F8A2
:104B200040800320BDE8F88F2069DFF884A0B0F54D
:104B3000804F0FD00620216800EAD51747F0F0001B
:104B4000086133465A460AF10601204600F0DAF8B9
:104B500058BB03E0E8B240F001001CE02168E8B275
:104B6000086133465A465146204600F0CBF8E0B97A
:104B70002068416981690091016841F48071016098
:104B80005B46002249462046009600F087F8002840
:104B9000C1D147F0F1002168086133465A465146B9
:104BA000204600F0AFF80028BCD00120BAE7000092
:104BB00002000100F8B50446C06A1E460D461746BD
:104BC000082807D0012805D010F5803F02D0206BBF
:104BD000122804D12068016841F4807101601346F5
:104BE00000224FF001112046009600F057F840B126
:104BF00020680068C00502D54FF4007020640320CF
:104C0000F8BD2069B0F5804F0ED00620216800EA7B
:104C1000D51040F0F000086133463A460B49204673
:104C200000F070F878B902E005F0FE0000E0E8B2AC
:104C300021680861054933463A46891F204600F03D
:104C400061F80028DCD00120F8BD00000800010058
:104C500070B516460D4604460DE02046FFF71CFFD2
:104C600008B1012070BD681C05D0FEF767F9801BF4
:104C7000A84207D835B120684069C0434007ECD44A
:104C8000002070BD002044F8300F20216173A07314
:104C9000216941F0200121612073E2E72DE9F0470D
:104CA0001E4690460D460446C1F30747DDF82090A6
:104CB00008E0701C06D0FEF741F9A0EB0900B042F5
:104CC0000FD876B12068012F18D0806925EA00003E
:104CD0000004000C14D000214145EAD00020BDE8BA
:104CE000F087002044F8300F20216173A073216900
:104CF00041F02001216120730120F0E74069E5E7E0
:104D00000121E9E72DE9F0479A4691460E4604460F
:104D100000254FF02008C1F3074725E020684069CF
:104D2000C043400514D42068016841F4007101605B
:104D300021686FF480604861256384F83D8084F8C1
:104D40003E50206C40F00400206484F83C501FE08A
:104D5000B9F1FF3F08D0FEF7F1F8A0EB0A01494591
:104D60000CD8B9F1000F09D02068012F13D0806949
:104D700026EA00000004000C0BD0CFE744F8305FB7
:104D800084F80D80A573206940F020002061257310
:104D90000120BDE8F0874069EAE72DE9F0410025F0
:104DA00090460E460446202717E04069C043C006DF
:104DB0000CD454F8301B6FF01000486144F81059BF
:104DC0006777A577206A2062257717E0FEF7B6F8A7
:104DD000A0EB0800B04208D83EB120684169C94341
:104DE0004906E2D40020BDE8F08144F8305F6773E3
:104DF000A573206940F02000206125730120F2E7AF
:104E000070B516460D4604460DE02046FFF744FEF9
:104E100008B1012070BD681C05D0FEF78FF8801B1B
:104E2000A84207D835B120684069C0430006ECD4D9
:104E3000002070BD002044F8300F20216173A07362
:104E4000216941F0200121612073E2E72DE9F0475B
:104E500086B014216846FBF788FB5448002401689B
:104E600041F010010160016801F010010591016835
:104E700041F080010160016801F080010591016845
:104E800041F004010160016801F00401059101682D
:104E900041F001010160016801F001010591016823
:104EA00041F002010160016801F002010591016811
:104EB00041F0080101600068DFF8F48000F00800AC
:104EC00041F23F550590002229464046FEF730F852
:104ED0000122DFF8E090160231464846FEF728F836
:104EE00042F2FF07002239464846FEF721F8DFF874
:104EF000C8A0002208215046FEF71AF83E20009074
:104F00004FF48810CDE9010469462C48FDF718FFDD
:104F100000950125CDE90154694640460394FDF70B
:104F20000FFF11200096CDE901046946484603941D
:104F3000FDF706FF0097CDE9015469464846039402
:104F4000FDF7FEFE08200090CDE901546946504669
:104F50000394FDF7F5FE002211460720FEF7DCFA68
:104F60000720FEF7CBFA002211460820FEF7D4FAFC
:104F70000820FEF7C3FA002211460920FEF7CCFAFA
:104F80000920FEF7BBFA002211460A20FEF7C4FAF8
:104F90000A20FEF7B3FA002211461720FEF7BCFAEA
:104FA0001720FEF7ABFA06B0BDE8F08730380240B4
:104FB00000080240000C02400004024000100240C1
:104FC0001FB5002111480091019102910E4A0391F1
:104FD000026042F2CF02C0E901214FF4B972C0E988
:104FE000032180218161FEF7C9FD08B172B6FEE799
:104FF0004FF48050009069460448FEF751FE0028A7
:1050000001D072B6FEE71FBD00180040B0050020B9
:1050100010B58CB024216846FBF7A7FA0024174886
:10502000099415490A94C0E900144FF6FF71C0E9CC
:10503000024180210461C0E905410120CDE900045D
:105040000A21CDE902040491CDE90540079469469F
:105050000A480894FEF792FE08B172B6FEE709947A
:1050600009A906480A94FEF741FD002801D072B64E
:10507000FEE70CB010BD000000000140D804002085
:1050800010B58EB000240794089409940A940B94E8
:105090001C2168460C94FBF768FA22484FF08041C7
:1050A00001602921C0E901146321C0E903148021B2
:1050B0008161FEF763FD08B172B6FEE74FF48050E0
:1050C000079007A91748FEF7EBFD08B172B6FEE797
:1050D0001448FFF7A6F808B172B6FEE70B940BA9C7
:1050E00010480C94FEF702FD08B172B6FEE760208E
:1050F000CDE900040294002269460A480494FFF7AF
:105100002AF808B172B6FEE7042269460548FFF79F
:1051100022F808B172B6FEE70248FEF7F3FF0EB0C0
:1051200010BD00002005002010B58CB02421684679
:10513000FBF71BFA00241748099415490A94C0E9A3
:1051400000144FF6FF71C0E90241802104618161C2
:1051500001200221CDE900010A21CDE902040491D8
:10516000CDE90540079469460A480894FEF706FE13
:1051700008B172B6FEE7099409A906480A94FEF739
:10518000B5FC002801D072B6FEE70CB010BD0000DF
:105190000008004068050020FEE7FEE770B5044601
:1051A0002DED068B04F1400C0020B0EE419ADDE9B4
:1051B0000A568CE80E00F0EE619AB0EE40AAF0EECE
:1051C00060AA6070B0EE428AF0EE628A9FED121B18
:1051D0009FED130B204600F031F96420A0603146AA
:1051E000204600F0FBF82946B0EE482AF0EE682A87
:1051F000B0EE491AF0EE691AB0EE4A0AF0EE6A0A09
:10520000204600F073F9FDF799FEA168401A60602E
:10521000BDEC068B70BD00000000000000E06F4098
:10522000000000000000000070B504462DED088B62
:10523000407800287ED0FDF781FE05466068A168B1
:10524000281A814277D8206C90ED009BA06C53EC1B
:10525000192B90ED000B51EC100B03F0C5FF94EDF2
:10526000160B41EC1A0B53EC102B51EC190B03F0FD
:10527000BBFF94ED0C0B41EC180B53EC1A2B51ECCB
:10528000100B03F071FE94ED141B53EC112B03F083
:1052900085FB41EC1B0B84ED14BB207868B994EDC1
:1052A0000A0B53EC182B51EC100B03F05DFE53EC82
:1052B0001B2B03F08DFFC4E9140194ED1A1B94ED30
:1052C000140B53EC112B51EC100B03F04BFF02D2DB
:1052D00094ED1A0B0CE094ED181B94ED140B53ECA9
:1052E000112B51EC100B03F003FE03D294ED180BBD
:1052F00084ED140B207850B194ED0A0B53EC1A2B6B
:1053000051EC100B03F030FE41EC1A0B01E09FED65
:105310001DAB94ED0E0B53EC182B51EC100B03F05E
:1053200023FE94ED141B53EC112B03F051FF53ECAF
:105330001A2B01E020E022E003F030FB94ED1A0B81
:1053400041EC180B53EC102B03F00CFF02D294ED40
:105350001A8B0AE094ED180B51EC180B53EC102B40
:1053600003F0C6FD01D294ED188B606C80ED008BCC
:1053700084ED169B01206560BDEC088B70BD00209C
:10538000FAE70000000000000000000010B504462D
:10539000406C90ED000B84ED140B206C90ED001B25
:1053A00051EC100B84ED161B94ED1A1B53EC112BD2
:1053B00003F0D8FE02D294ED1A0B0CE094ED181B0A
:1053C00094ED140B53EC112B51EC100B03F090FDEA
:1053D00003D294ED180B84ED140B10BD70B5044688
:1053E00040780D46D0B1E078A84217D094ED0A0B72
:1053F00051EC100B03F094FAC4E90A0194ED0C0B84
:1054000051EC100B03F08CFAC4E90C0194ED0E0B77
:1054100051EC100B03F084FAC4E90E01E57070BD85
:1054200070B50446012901D0002505E0607801250A
:1054300010B92046FFF7AAFF657070BD10B504468D
:105440002DED048BB0EE418AF0EE618AB0EE409A09
:10545000F0EE609A53EC182B51EC190B03F082FE1E
:1054600041D984ED189B84ED1A8B607800283AD0DE
:10547000606C53EC182B90ED000B51EC100B03F00B
:1054800071FE02D294ED1A0B0DE0606C94ED180BD6
:1054900090ED001B53EC102B51EC110B03F028FD89
:1054A00004D294ED180B606C80ED000B94ED1A1B88
:1054B00094ED140B53EC112B51EC100B03F052FE36
:1054C00002D294ED1A0B0CE094ED181B94ED140B22
:1054D00053EC112B51EC100B03F00AFD03D294EDA9
:1054E000180B84ED140BBDEC048B10BD70B50D468C
:1054F0002DED088BB0EE408AF0EE608A0446B0EEE7
:1055000042AA9FED319BF0EE62AAB0EE41BAF0EEF6
:1055100061BA53EC192B51EC180B03F0E9FC4ED394
:1055200053EC192B51EC1B0B03F0E2FC47D353EC6B
:10553000192B51EC1A0B03F0DBFC40D3A570012DA5
:1055400040D00020207084ED048B84ED06BB84EDF8
:1055500008ABA06803F0B8FC9FED1D1B53EC112BAA
:1055600003F0D8FA41EC190B84ED0A8B53EC192B9C
:1055700051EC1B0B03F0F8FC41EC1B0B53EC192B0B
:1055800084ED0CBB51EC1A0B03F0C4FA41EC190B7F
:1055900084ED0E9BE078012811D151EC180B03F03B
:1055A000BFF9C4E90A0151EC1B0B03F0B9F9C4E9D6
:1055B0000C0151EC190B03F0B3F9C4E90E01BDEC79
:1055C000088B70BD0120BDE7000000000000000056
:1055D0000000000000408F407047704780EC030AD5
:1055E0009FED040A80ED030A80ED040A80ED050AB0
:1055F0007047000000000000D0EC020A71EE200AA3
:10560000C1EE201AC0ED051AD0ED040A30EE602A72
:10561000B0EE600A01EE820A80ED030A70EEC00A65
:1056200090ED022AF0EEE00A60EE820AB7EE002A60
:1056300072EE611A41EE810AC0ED010A80ED040AA2
:105640007047FDF701BF000030B593B030216846C8
:10565000FAF78BFF14210CA8FAF787FF1D480025E5
:10566000016841F080510160006800F080501190A5
:105670001948016841F4804101600068022400F487
:105680008040119001200090000401908001CDE93C
:105690000640192008904FF4A870CDE909040420B1
:1056A0000B906846FEF756F808B172B6FEE70CA9F3
:1056B0000F2081E831004FF4A0500F901090052189
:1056C0000CA8FDF75BFF002801D072B6FEE713B00F
:1056D00030BD0000403802400070004002480168C0
:1056E00041F470010160704788ED00E00148FEF769
:1056F00055BC0000D80400200148FEF74FBC000054
:10570000B0050020F0B50268254C264D264E274FE7
:10571000274B4FF0804CA04209D0604507D0A842EB
:1057200005D0B04203D0B84201D0984204D122F053
:10573000700E4A6842EA0E02A0421BD0604519D0A2
:10574000A84217D0B04215D0B84213D0984211D019
:10575000184DA8420ED0184DA8420BD0174DA842A4
:1057600008D0174DA84205D0164DA84202D0164DBC
:10577000A84203D122F44075CA682A434D6922F039
:1057800080022A4302608A68C2620A688262A0427A
:1057900001D0984201D10969016301214161F0BD45
:1057A000000001400004004000080040000C0040E0
:1057B0000004014000400140004401400048014015
:1057C00000180040001C00400020004010B501F00F
:1057D0001F030121046A99408C430462016A9A40C4
:1057E0001143016210BD10B5846842EA032224F41B
:1057F0007F440A432243826010BD826822F0700217
:105800000A4342F00701816070470000F0B5026A68
:1058100022F001020262036A42688469124E24F097
:1058200073050C682C4323F002058B682B430D4D48
:10583000A84201D0B04205D123F00807CB683B4312
:1058400023F00403A84201D0B04205D14D6922F4EF
:10585000407215438A692A43426084614968416302
:105860000362F0BD0000014000040140F0B5026A8F
:1058700022F010020262026A436884690D6824F40F
:10588000E64444EA05248D6822F0200242EA05122B
:105890000F4D104EA84201D0B04206D1CF6822F081
:1058A000800242EA071222F04002A84201D0B04230
:1058B00007D14D6923F4406343EA85038D6943EAC8
:1058C000850343608461496881630262F0BD000022
:1058D0000000014000040140F0B5026A22F4807229
:1058E0000262026A4368C46922F4007224F07305FC
:1058F0000C68124E2C438D6842EA05220E4DA842D8
:1059000001D0B04206D1CF6822F4006242EA0722F9
:1059100022F48062A84201D0B04207D14D6923F43D
:10592000405343EA05138D6943EA05134360C4619C
:105930004968C1630262F0BD0000014000040140FB
:1059400030B5026A22F480520262046A4268C36976
:105950000D6823F4E64343EA05238D6824F40054DC
:1059600044EA0534084DA84202D0084DA84204D1AB
:105970004D6922F4804242EA85124260C36149685F
:105980000164046230BD00000000014000040140D9
:1059900010B5036A046A24F001040462846924F0E7
:1059A000F00444EA021423F00A020A43846102620A
:1059B00010BD10B5036A23F0100303628369046A03
:1059C00023F4704343EA023224F0A00343EA0111B6
:1059D0008261016210BD10B5806B0021C185C18458
:1059E000FEF700FD10BD70B5846B2068406994F827
:1059F0003D10C0F3C0100025212904D118B1E58461
:105A0000204600F08AF82068406994F83E10C0F300
:105A10008010222904D118B1E585204600F056F8FF
:105A2000206C40F0100020642046FEF7DBFC70BDC7
:105A300010B50146806B09680968C9052FD400219B
:105A4000C18501680C3151E8002F22F4807241E8D1
:105A50000023002BF5D10168143151E8002F22F00A
:105A6000010241E80023002BF5D10168143151E80F
:105A7000002F22F0400241E80023002BF5D1202125
:105A800080F83E10016B012909D101680C3151E801
:105A9000002F22F0100241E80023002BF5D1016B0A
:105AA000012902D0FEF712FF10BD818DFEF761FCC7
:105AB00010BD10B5806B016B012902D0FEF788FF85
:105AC00010BD818D4908FEF754FC10BD01680C31F2
:105AD00051E8002F22F4907241E80023002BF5D109
