:020000040800F2
:10000000E830002085020008475F000839580008E2
:10001000455F00087D370008FB7000080000000005
:100020000000000000000000000000004D65000816
:1000300031380008000000008563000837670008B9
:100040009F0200089F0200089F0200089F0200080C
:100050009F0200089F0200089F0200083338000832
:10006000393800083F380008453800089F0200086A
:10007000813700089F0200089F0200089F020008C5
:100080009F0200089F0200089F0200089F020008CC
:100090009F0200089F0200089F0200084B380008DA
:1000A000F5670008116800089F0200089F02000819
:1000B0009F0200089F0200089F0200089F0200089C
:1000C0009F0200089F0200089F0200089F0200088C
:1000D0009F0200089F0200089F0200089F0200087C
:1000E0009F0200089F0200089F0200089F0200086C
:1000F0009F0200089F0200089F0200089F0200085C
:100100009F0200089F0200089F0200089F0200084B
:100110009F0200089F0200089F0200089F0200083B
:100120009F0200089F0200089F0200089F0200082B
:100130009F0200089F0200089F0200089F0200081B
:100140009F0200089F0200089F0200089F0200080B
:100150009F0200089F0200089F0200089F020008FB
:100160009F0200089F0200089F0200089F020008EB
:100170009F0200089F0200089F0200080000000084
:100180009F0200089F02000800F002F800F06AF8E1
:100190000AA090E8000C82448344AAF10107DA45E2
:1001A00001D100F05FF8AFF2090EBAE80F0013F0CA
:1001B000010F18BFFB1A43F00103184788B700006E
:1001C000A8B700000A444FF0000C10F8013B13F0F0
:1001D000070408BF10F8014B1D1108BF10F8015BA0
:1001E000641E05D010F8016B641E01F8016BF9D193
:1001F00013F0080F1EBF10F8014BAD1C0C1B09D1EA
:100200006D1E58BF01F801CBFAD505E014F8016B5B
:1002100001F8016B6D1EF9D59142D6D370470000ED
:100220000023002400250026103A28BF78C1FBD8FF
:10023000520728BF30C148BF0B6070471FB50BF095
:100240009BFA00F06FFC0400002000210AF002FD80
:10025000401C6060002000210AF0E6FCE0601FBD49
:1002600010B510BD00F0A0FE1146FFF7E7FF0AF041
:1002700091F801F0FDF803B4FFF7F2FF03BC01F0C1
:1002800063F900000948804709480047FEE7FEE798
:10029000FEE7FEE7FEE7FEE7FEE7FEE7FEE7FEE736
:1002A00004480549054A064B70470000D16700081D
:1002B00089010008E82A0020E8300020E82C00200E
:1002C000E82C002053EA020C00F069802DE9F04B85
:1002D0004FF00006002B1FBFB3FA83F503FA05F4B5
:1002E00024FA05F65E4012BF1643B2FA82F502FA0E
:1002F00005F4C5F120051EBF22FA05FC44EA0C04F2
:10030000203556EA044C4FEA144418BF641C4FF0E1
:1003100000084FF00009904271EB030C39D300291B
:1003200019BFB1FA81F701FA07F6B0FA80F700FABF
:1003300007F6C7F120071EBF20FA07FC46EA0C06A5
:100340002037B6FBF4FCA7EB0507103F07F01F0BA7
:10035000CBF120060CFA0BFB2CFA06F644BFB34691
:100360000026202FA4BF5E464FF0000B5BEA060C70
:1003700008BF4FF0010B19EB0B09ABFB027C48EBFC
:100380000608C01B06FB02CC0BFB03CC71EB0C0177
:10039000C1E70B46024641464846BDE8F08B13B51F
:1003A0004FF000004FF00001AFF30080BDE81C40AB
:1003B000704700000FB400B58DB010A909900091EE
:1003C0000B904FF0FF300A9000200C9006487844C4
:1003D0000690064878446A4607900F9909A800F0ED
:1003E00071FB0DB05DF814FB130700002B07000034
:1003F00040EA0103024630B59B0710D14FF00134AB
:1004000000E008C208C91D1B9D4315EAC41FF8D0AF
:1004100013F0FF0102F8011B0DD01B0AF8E711F8D9
:10042000013B002B02F8013B05D011F8013B002BEA
:1004300002F8013BF3D130BD032A40F2308010F0C6
:10044000030C00F0158011F8013BBCF1020F62446F
:1004500098BF11F801CB00F8013B38BF11F8013B00
:10046000A2F1040298BF00F801CB38BF00F8013BAD
:1004700011F0030300F02580083AC0F0088051F81D
:10048000043B083A51F804CBA0E80810F5E7121D28
:100490005CBF51F8043B40F8043BAFF30080D20747
:1004A00024BF11F8013B11F801CB48BF11F8012B13
:1004B00024BF00F8013B00F801CB48BF00F8012B36
:1004C000704710B5203AC0F00B80B1E81850203AC0
:1004D000A0E81850B1E81850A0E81850BFF4F5AFE4
:1004E0005FEA027C24BFB1E81850A0E8185044BF6E
:1004F00018C918C0BDE810405FEA827C24BF51F8DB
:10050000043B40F8043B08BF7047D20728BF31F8CE
:10051000023B48BF11F8012B28BF20F8023B48BF1F
:1005200000F8012B70474FF000020429C0F0128040
:1005300010F0030C00F01B80CCF1040CBCF1020F96
:1005400018BF00F8012BA8BF20F8022BA1EB0C016B
:1005500000F00DB85FEAC17C24BF00F8012B00F861
:10056000012B48BF00F8012B70474FF0000200B587
:10057000134694469646203922BFA0E80C50A0E8C6
:100580000C50B1F12001BFF4F7AF090728BFA0E874
:100590000C5048BF0CC05DF804EB890028BF40F840
:1005A000042B08BF704748BF20F8022B11F0804F82
:1005B00018BF00F8012B7047704770477047000064
:1005C0002DE9FF4F06468BB00878FF2806D0491C5E
:1005D0002D2805D000244FF0000908E000200CE091
:1005E0000124F8E709EB8903491C00EB430908786B
:1005F000FF28F7D114B1C9F1000081461078002519
:100600002C46AA4629462D2801D02B2804D1521C5D
:100610002D2813D0002082468B461078FF280FD05B
:100620004FF0000C0A21521CA5FB017804FB01814C
:1006300005FB0C11C5194BEB0104EEE70120EAE7BD
:10064000002108464FF00000BAF1000F02D000EB85
:1006500080004008C0F38157012F01DD4FF0FF37C4
:100660000E9955EA040009EB01080BD04FF002097E
:1006700018F5FA7F16DA4FEACA70002F706008DDAD
:10068000012007E04FEACA70C6E900B00FB0BDE82C
:10069000F08F0020306000F049FAC0F80090182177
:1006A000084616E0B8F5FA7F18DD002F02DAF748A1
:1006B000784401E0F6487844D0E90010C6E900101B
:1006C00040EACA70706000F031FAC0F8009014215E
:1006D00008460FB0BDE8F04F0BF058B800210846AF
:1006E0004FF00000B8F10001099002DAC7F10002F2
:1006F00000E03A4601DAC8F1000106A800F0DEFB8E
:1007000006AB93E8070003AB83E8070044F23E0022
:100710005BEA04010090584604D144F21E012C46C5
:100720005D460091210C0904014306D1009924047F
:1007300044EA15442D041039009104F07F4101432F
:1007400006D10099240244EA15642D02083900916B
:1007500004F07041014306D10099240144EA157464
:100760002D01091F009104F04041014306D1009979
:10077000A40044EA9574AD00891E009104F0004184
:10078000084304D100986D196441401E00904FF059
:1007900001033A466846B8F1000FCDE9014503A9C7
:1007A00002DD01F064F901E001F037F9BAF1000F60
:1007B00004460D4601D084F00044002108464FF065
:1007C0000000099940F2FF77484010F00C0F07D164
:1007D00024F00040284303D0C4F30A50B84212D199
:1007E00000F0A4F9C0F80090C4F30A50B8420AD14E
:1007F000A8487844D0E90010C6E9001004F0004190
:100800000843706042E7C6E900543FE72DE9FF4F17
:100810001F464FF0000A4FF0FF38454691B0D7E928
:100820000146CDF83CA000F07DF9C0680168405C4D
:100830001090B96912986D1C8847396A81468847BB
:100840000028F6D1B9F1FF3F0AD0002E24F4D0647D
:1008500011DDB9F12B0F08D0B9F12D0F0BD102E04A
:10086000404615B013E744F48064B96912986D1CD2
:100870008847761E8146600504A901D52D2000E039
:100880002B20002E01F1010B0DF130088DF8100026
:100890003FDDB9F1690F08D0B9F1490F05D0B9F1C1
:1008A0006E0F02D0B9F14E0F1CD13B4601A8009546
:1008B00080E85002DDE912126FF002000AF0CDFF6D
:1008C000C11CCED10EE0B96912986D1C88478146D3
:1008D0001398761E44F4007405600F98401C002E97
:1008E0000F9016DDB9F1300FEDD0B9F1780F02D0CD
:1008F000B9F1580F0DD10F9801280AD13B46CDE927
:100900000054DDE91212001F02960AF0A4FFC11C78
:10091000A7D1109989453ED144F0800406E013998F
:10092000681CAAF1010A44F400740860B9696D1CDE
:100930001298761E884730288146F0D02BE0109917
:10094000894505D1200603D4761E44F0800418E0C2
:10095000484608F010FE08B3761E0DF123018B45C2
:1009600044F4007408D2A9F130000BF8010B200602
:1009700007D5AAF1010003E0200602D40AF1010024
:100980008246A00502D51399681C0860B9691298BF
:100990006D1C88478146002ED1DC53E0002E51DDCE
:1009A000B9F1650F02D0B9F1450F4BD1A00549D57A
:1009B000B9696D1C1298761E24F440748847002E85
:1009C00081460CDD2B2804D0B9F12D0F07D144F45A
:1009D0008074B96912986D1C8847761E8146E005BF
:1009E00001D52D2100E02B2108F8011BCDF8008056
:1009F00021E0761E0DF13901884544F400740CD2D3
:100A0000A9F1300010F0FF0088F8000002D1009931
:100A1000884509D908F1010806E0E00501D51E481E
:100A200001E042F20F708246B96912986D1C884746
:100A3000814613980560002E04DD484608F09BFDB2
:100A40000028D6D1F96912988847FF2053468BF8C1
:100A5000000088F8000000200A900B9004AA0CA95E
:100A60000AA8FFF7ADFDA00502D46FF00100F8E67B
:100A700014F0240F12D0E0071CD13868DDE90A1207
:100A8000031D3B600068C0E9001213E0B8B200002B
:100A9000AAB200006EB10000F1D8FFFF0AA96846B3
:100AA00008F056FDE00705D13868009A011D39604D
:100AB000006802602846D4E6026811441378016099
:100AC00018467047D1600549794451610449794419
:100AD000116200211161114600F036B8EDFFFFFFF1
:100AE00063000000426842B1016811F8013B23B184
:100AF000521EC0E90012184670470121C160881ECD
:100B0000704742685AB1C368016843B983688B4231
:100B100005D0491E521CC0E90012002070474FF05A
:100B2000FF30704700487047A42A002000487047F3
:100B3000842A002010B5044600F05CFA0068005DCD
:100B400000F0010010BD00002DE9F34F4FF0000A46
:100B50000C4656468DB001200C9001F10C000B9014
:100B600062690B9801219047051E2DD0252D2CD0B0
:100B7000216A8847C0B162690B9801219047216AB8
:100B800088470028F7D16269411E0B98904700E022
:100B9000761CA1690D988847216A88470028F7D1FB
:100BA000E1690D988847DBE7A1690D988847A8425D
:100BB000074601D1761CD3E7E1690D9888477F1C71
:100BC00002D1BAF1000F6FD06BE162690B98002778
:100BD0003D46394690472A2804D162690B98012185
:100BE00090470125DFF8D08262690B980121904778
:100BF000A0F130010A290AD24745E5DC07EB87015D
:100C000000EB4107303FDFD445F01005ECE7E90683
:100C100001D46FF000476C280AD04C2814D0682803
:100C200015D06A280DD074281CD07A281AD01DE05F
:100C300062690B98012190476C2802D045F00405A9
:100C400014E045F002050DE045F020050AE0626978
:100C50000B9801219047682802D045F0080505E06F
:100C600045F4006562690B9801219047C4E901577A
:100C700065283DD019DC58287AD00CDC452837D0BF
:100C800004DC252826D041289ED131E046282FD0EB
:100C9000472899D12CE05B2877D0612828D0632899
:100CA0007CD0642823D15AE0F6E06F2848D008DCD5
:100CB00066281DD067281BD0692821D06E2816D140
:100CC00027E0702845D0732868D0752847D0782849
:100CD0000DD14DE0A1690D988847252805463FF4C0
:100CE00069AFE1690D9888476D1C3FF46AAFD8E0A1
:100CF0000D9923466A466FF001000AF0AAFDC5E08F
:100D000045F0400023464FF000026060A80736D44B
:100D10003EE0E8077FF447AF2068011D21600068CE
:100D2000290501D506701BE7290701D5068017E7BD
:100D3000A90703D5F117C0E9006111E706600FE7C5
:100D400045F0400023464FF008026060A80716D423
:100D50001EE040F60E0125EA0100606016E045F055
:100D6000400023464FF00A026060A80707D40FE056
:100D700045F040006060A80708D5234610220D9971
:100D80006FF00100AFF3008080E007E010222346FF
:100D90000D996FF00100AFF3008077E04FF000098C
:100DA00063284F46C8464B46CB4602D05B2806D048
:100DB00038E0E80601D40120A060012732E0626932
:100DC000D4F80CB00B98012190475E2807D14FF062
:100DD000010949466269D4F80CB00B989047216923
:100DE00039B900210A4603AB43F82120491C0829E0
:100DF000FADBD8B3216949B308F1010862690B989D
:100E0000012190475D28F4D1B9F1000F09D00020ED
:100E100003A951F82020D24341F82020401C082883
:100E2000F7DB03AB2069002820794FEA40701ED021
:100E30005B462246CDF80080CDE901970D99002848
:100E40006FF0010020DAAFF300801FE0C11703AAA2
:100E500000EBD1614B1121F01F0102EB8302411A1B
:100E600013680120884003431360C7E719E00D9918
:100E7000224600286FF00100009702DAAFF30080ED
:100E800004E0AFF3008001E0AFF3008000280ADA4D
:100E9000401C06D10C9820B14FF0FF300FB0BDE8D8
:100EA000F08F5046FAE7E90701D10AF1010A06443A
:100EB00000200C9054E60000CCCCCC0C2DE9F0477F
:100EC000814616468AB0354878440DC88DE80D0035
:100ED00032487844801C03AC0DC884E80D0041F60C
:100EE0009B300844372190FBF1F290FBF1F5A5F11E
:100EF000800501FB12041B3C02D56442012000E086
:100F00000020DFF898A080460027FA44AAF1BE0A24
:100F10000EE0E0070AD03246684607EB470101239E
:100F20000AEB810100F08EFD8DE8070064107F1C44
:100F3000002CEED1194F7F44AE3F19E0E80715D0E1
:100F400007EB04100DF1180A90E80E008AE80E0075
:100F5000C068F04201D1981908903246012306A9D1
:100F600003A800F06FFD03AB83E807006D10641C5D
:100F7000002DE3D14FF0010332466946B8F1000F6E
:100F800003A802D000F034FD01E000F05BFDC9E9E8
:100F90000001C9F808200AB0BDE8F08760AA000087
:100FA00000487047842A00207546FFF7F9FFAE46D7
:100FB00005006946534620F00700854618B020B565
:100FC000FFF76EF9BDE820404FF000064FF0000734
:100FD0004FF000084FF0000B21F00701AC46ACE8E1
:100FE000C009ACE8C009ACE8C009ACE8C0098D464E
:100FF0007047000010B5FFF795FD001D10BD00BF44
:10100000559C000010B5FFF791FD006810BD10B5AC
:101010000446FFF78BFD046010BD00002DE9FF4F73
:101020001F464FF03C0987B04FF00042DDE9141035
:1010300001F10108DDF858A002EA405003900020B9
:1010400005908346054604460490B969461E0898F3
:101050008847AAF1010A0290BAF1000F3BDD02981D
:101060002E2815D0102100F060FA00282EDB4FF05A
:10107000010B0599014317D0B9F1000F0BDB4A466C
:10108000C11700F03FFA05430C43A9F1040905E03C
:10109000012004900BE008B145F001050120059006
:1010A000049820B9361D02E0049800B1361FB969D2
:1010B000089808F101088847BBF1000FAAF1010A5E
:1010C0000290C9D00999C1F80080C5E7029870283C
:1010D00008D0502806D0F96908988847BBF1000F5E
:1010E00014D04FE0002002900120BBF1000F0490CB
:1010F00009D0B969089808F101088847AAF10109DF
:10110000B9F1000F07DCF969089888476FF0010012
:101110000BB0BDE8F08F2B2804D02D280CD14FF058
:10112000FF300490B969089808F101088847A9F1CF
:101130000109B9F1000FE6DD411CE4D00A2100F0FD
:10114000F4F90028DFDB029908F1010801EB8101C5
:1011500000EB41000290B969089888470A2100F025
:10116000E4F9099AA9F10109B9F1000FC2F8008068
:1011700001DD0028E7DAF9690898884704990298A0
:1011800000FB016655EA040004D004F04041090068
:1011900002D006E0039898E0A40044EA9574AD00FC
:1011A000B61E04F00041080002D16D196441761E9C
:1011B000159810F0240F03D04FF00B095C4803E0A2
:1011C0004FF028096FF07D008246564507DAAAEBFA
:1011D00006018944B9F1410F01DD4FF041090120B9
:1011E0000021A9F1010200F08DF9024628400B46CA
:1011F0002140084301D0012100E00021501E02914E
:1012000043F1FF3128402140084301D0012000E094
:1012100000200299834651EA0B014FD00021084675
:101220004FF00000039900F4400039B100EB80005A
:101230004FF4400100EBD07001EA600080150128F6
:1012400002DD4FF0FF3000E013D0401C36D0029892
:1012500060B3BBF1000F0CD14A460120002100F021
:1012600051F928402140084301D0012000E000202E
:10127000E0B101204A46002100F044F9034640193C
:101280000A4661412D1A8C4111D3B9F1400F09DD95
:10129000159810F0240F02D0AAF1340603E0AAF149
:1012A000170600E0761C00254FF0004406E05B1EA8
:1012B00042F1FF3220EA030521EA0204CAF10100EB
:1012C000B04206DA1B4903980843019000200090C1
:1012D0000EE0039AC4F3D321E80A0A43164940EA10
:1012E00044500A433146CDE90002684608F039F916
:1012F000159810F0240F0BD01598C00715D1386839
:10130000DDE90012031D3B600068C0E900120CE03B
:1013100002A8694608F01CF91598C00705D138687D
:10132000029A011D3960006802604046F0E6000044
:1013300002FCFFFF0000F07F0000F03F2DE9FF4FAF
:1013400092461D4685B04FF00041DDE9124BDDE9C4
:1013500014727F1E01EA4B50414940F0FF4940EAB8
:101360000108002122F020004928049102D04E28D3
:1013700028D04CE03BA0012607C88DE80700A969EA
:101380000698641C88477F1E014606D41DF8060097
:1013900018B121F0200181420BD0E96906988847F5
:1013A000032E34D0082E32D06FF0010009B0BDE812
:1013B000F08F761C032E01D0082EE0D1601CCAF8F5
:1013C0000000DCE7A9690698641C88477F1E2AD4C0
:1013D00020F02000412826D1A9690698641C88477E
:1013E0007F1E20D420F020004E281CD1A969069829
:1013F000641C88477F1E48F4002849F48009CAF815
:10140000004001D4282806D0E969069888475FEA99
:10141000CB7012D022E0A9690698641C88477F1E11
:1014200001D4002803DAE96906988847BCE729282F
:10143000F1D1641CCAF80040E9E71BF0240F07D083
:1014400028680499031D2B600068C0E9001805E0B6
:101450002868021D2A600068C0F800902046A5E7B1
:101460000000F07F494E46494E49545900000000A3
:1014700010B50446AFF300802046BDE81040FEF7EB
:10148000FABE00004FF0013C50F8042B51F8043B29
:101490009A4221D1A2EB0C03934313EACC1317D148
:1014A00050F8042B51F8043B9A4215D1A2EB0C03DF
:1014B000934313EACC130BD150F8042B51F8043B9F
:1014C0009A4209D1A2EB0C03934313EACC13DBD06D
:1014D0004FF00000704700BFD01A01BAB1FA81F195
:1014E00001F0180122FA01F0CB40C1F12001DBB27A
:1014F000C0B2C01A2CFA01F3D11A914311EAC311F8
:10150000E6D17047B2F120030AD5C2F1200301FAF7
:1015100002F120FA03F300FA02F041EA03017047F6
:1015200000FA03F14FF0000070473A2800D230383B
:1015300020F02002412A01D3A2F13700884201D3D2
:101540004FF0FF307047000001491820ABBEFEE7A6
:1015500026000200704720F07F4C80EA030023F051
:101560007F47ACEB070303F57C5300F0004003F129
:10157000FF032DE980494FEA154B09B44FEA1443A4
:1015800025EA0B4E24EA03480FF2042606EB132744
:1015900049083E785FEA320203FB0667C7F5000799
:1015A00007FB06F64FEA54374FEAD64606F1020625
:1015B00007FB066CCCF1005C4FEA1C472CEA074C99
:1015C00007FB06F40CFB06F504EB15464FEA9616EE
:1015D00034BF00204FF000404FEAD13706FB07FC34
:1015E0004FEA1C4C0CFB0BF7D21B03FB0CF761EB17
:1015F00007010CFB0EF7B0EB074072EB17420CFB38
:1016000008F734BFA2EB0742B2EB074261EB174188
:101610004FEA0C444FEA910706FB07FC4FEA1C4CCB
:101620000CFB0BF7B0EBC74072EB573203FB0CF728
:1016300034BFA2EBC742B2EBC74261EB57310CFBA0
:101640000EF7B0EBC70072EB57720CFB08F734BF14
:10165000A2EBC702B2EBC70261EB5771039F4FEADF
:10166000816141EA921104EBCC044FEAD1374FEA91
:10167000826206FB07FC42EA90124FEA80604FEA62
:101680001C4C0CFB0BF7D21B03FB0CF761EB0701A7
:101690000CFB0EF7B0EB074072EB17420CFB08F7A0
:1016A00034BFA2EB0742B2EB074261EB17414FEAAE
:1016B0008C554FEA910704EB9C2406FB07FC4FEA8C
:1016C0001C4C0CFB0BF7B0EBC74072EB573203FB23
:1016D0000CF734BFA2EBC742B2EBC74261EB573104
:1016E0000CFB0EF7B0EBC70072EB57720CFB08F760
:1016F00034BFA2EBC702B2EBC70261EB577115EB27
:101700004C254FEA816141EA92114FEA82624FEA29
:10171000D13742EA901206FB07FC44F100044FEA7D
:1017200080604FEA1C4C0CFB0BF7D21B03FB0CF741
:1017300061EB07010CFB0EF7B0EB074072EB1742B1
:101740000CFB08F734BFA2EB0742B2EB074261EB98
:10175000174115EB1C154FEA813141EA92414FEADE
:10176000823242EA90424FEA80304FEA0C7644F1EE
:10177000000448EA03434EEA0B484FF0000EB2EB78
:10178000080C71EB030724BF624639464EEB0E0E80
:101790004FF0000B0018524149414BEB0B0BB2EBE1
:1017A000080C71EB03077BF1000B24BF624639463E
:1017B0004EEB0E0E4FF0000B0018524149414BEB1F
:1017C0000B0BB2EB080C71EB03077BF1000B24BF92
:1017D000624639464EEB0E0E51EA020718BF46F03C
:1017E000010616EB0E7655F1000254F1000103D507
:1017F000BDE88901BDE80088BDE88901BDE8004871
:10180000B619524141EB0101A3F1010370478080F9
:101810007F7E7D7C7B7A797877767675747372714A
:1018200071706F6E6E6D6C6C6B6A6A696868676602
:1018300066656464636362616160605F5F5E5E5D94
:101840005D5C5C5B5B5A5A59595858575756565508
:1018500055555454535352525251515050504F4F6A
:101860004F4E4E4D4D4D4C4C4C4B4B4B4A4A4A49BA
:1018700049494848484747474746464645454544FD
:1018800044444443434343424242424141410000B5
:1018900046EA0646A3F570534FEA164646EA425614
:1018A0004FEAD22242EA415210B54FEAD121A3F1C8
:1018B000010300F02FF820F0004000F1020C00F0CE
:1018C000004701EB00501146BCF5006F40EA0700ED
:1018D00000D210BDBAF1000F0AD01CB503B44FF00E
:1018E00004004FF004014FF000000FBCBDE81040B1
:1018F0004FF00001BBF1010FB9BF04484FF0FF31B9
:101900000348002140EA070010BD00BFFFFFEF7F42
:101910000000F07F002B9C4630D477002BD01CB504
:101920004FEA370703B44FF010004FF01001BAF13F
:10193000000F06D0BCF1000FDCBF40F0080040F003
:1019400008014FF000000FBCBDE810400BF1010B87
:10195000BBF1010F08BF5FEA170722BF12F10102B6
:1019600011F101014FF0004143F1000300F000408C
:1019700043EA00007047F9D35708D0E746EA064625
:1019800013F1400F4FEA16461FDD13F1200FDFBFA2
:1019900016430A46002120335B42BED0C3F1200724
:1019A00046EA064602FA07F74FEA164646EA0706EF
:1019B000C3F1200722FA03F201FA07F721FA03F133
:1019C0004FF0000342EA0702A7E746EA020646EAAA
:1019D00006464FEA164646EA0106BCBF46EA0646F8
:1019E000360C4FF000034FF000024FF0000194E777
:1019F0002DE9804C9A46934670B491E8380007C8A8
:101A000031EA400C48BF34EA430C03D5FFF7A3FD8D
:101A1000FFF780FFF0BCBDE8008C2DE9804C9A46B2
:101A2000934670B491E8380007C831EA400C48BFCB
:101A300034EA430C03D5FFF78EFDFFF729FFF0BC16
:101A4000BDE8008C2DE9804C9A46934670B491E82D
:101A5000380007C810F0804F08BF13F0804F03D143
:101A600000F01AF8FFF756FFF0BCBDE8008C2DE936
:101A7000804C9A46934670B491E8380007C810F03D
:101A8000804F08BF13F0804F03D100F005F8FFF737
:101A9000FFFEF0BCBDE8008C20F07F4780EA030029
:101AA00023F07F4C07EB0C03A3F57C5300F00040C0
:101AB000A3F1FE0392F0000F00F0B38095F0000F49
:101AC00000F077802DE901494FEA11404FEA1446B2
:101AD00021EA004800FB06FC24EA064708FB06F65C
:101AE00007FB08F800FB07F718EB06484CEB164C11
:101AF0004FEA124B18EB07484FEA15464CEB1740DC
:101B000022EA0B4E0BFB06FC25EA06470EFB06F607
:101B100007FB0EFE0BFB07F71EEB064E4CEB164CBD
:101B20004FF000061EEB074E4CEB174B18EB0B0863
:101B300040F1000018EB0E0B58EB000840F10000DC
:101B40008F1A4FF000013CBFC943661B14BFB5EBB1
:101B5000040C00213CBFC943F61B4FEA17444EEA70
:101B60008E0E27EA04454FEA1C4704FB07622CEA65
:101B7000074C05FB07F70CFB05F604FB0CFC16EB0A
:101B8000074642EB174216EB0C4642EB1C421BEB9E
:101B9000060658EB0202414146EA9E0601D5BDE821
:101BA0000189B619524141EB0101A3F10103BDE8DE
:101BB00001894FEA14454FEA114724EA054621EA14
:101BC000074C05FB07F406FB07F70CFB06F105FBCA
:101BD0000CFC11EB074144EB17444FEA124711EBA1
:101BE0000C4144EB1C4422EA074C05FB07F206FBC0
:101BF00007F70CFB06F605FB0CFC16EB074642EB61
:101C0000174216EB0C4642EB1C456A1854F10001D2
:101C100048BF7047B619524141EB0101A3F10103DE
:101C2000704795F0000F37D04FEA11424FEA144742
:101C300021EA024624EA074C02FB07F106FB07F7FC
:101C40000CFB06F402FB0CFC14EB074441EB1741C0
:101C50004FEA154714EB0C4441EB1C4125EA074CB5
:101C600002FB07F506FB07F70CFB06F602FB0CFC74
:101C700016EB074645EB174516EB0C4645EB1C42A9
:101C8000121951F1000148BF7047B619524141EB9A
:101C90000101A3F1010370474FEA14454FEA1147D0
:101CA00024EA054621EA074C05FB07F106FB07F786
:101CB0000CFB06F24FF0000605FB0CFC12EB074292
:101CC00041EB174112EB0C4251EB1C4148BF7047EE
:101CD000921841EB0101A3F10103704710B52DEDFE
:101CE000028BB0EE408AF0EE608A9FED0B0B51EC58
:101CF000180B53EC102B09F013FC06D2B0EE480A77
:101D0000F0EE680ABDEC028B10BD51EC180B08F028
:101D1000B7FF41EC100BF5E70000000000000000E9
:101D20002DE9F041044602F09BF80A4F05464FF4B6
:101D3000807600223146384602F08CF802F090F8A6
:101D4000401BA042FAD331463846BDE8F04101229B
:101D500002F080B8000C024070B5164C164E0546D5
:101D600002462188304602F075F861882A463046DE
:101D700002F070F8A1882A46304602F06BF8E1883C
:101D80002A46304602F066F821892A46304602F09B
:101D900061F861892A46304602F05CF8A1892A463A
:101DA000304602F057F8E1892A463046BDE87040D7
:101DB00002F050B8100000200008024070B5124C2C
:101DC000124D2188284602F03DF86188284602F02D
:101DD00039F8A188284602F035F8E188284602F053
:101DE00031F82189284602F02DF86189284602F051
:101DF00029F8A189284602F025F8E1892846BDE89E
:101E0000704002F01FB800001000002000080240DF
:101E10000349002231F81010024802F01BB80000FC
:101E200010000020000802400349012231F8101080
:101E3000024802F00FB80000100000200008024025
:101E400002480068406A00B270470000BC050020EC
:101E500002480068406A00B2704700004C0600204B
:101E6000024900200968486270470000BC05002054
:101E70000249002009684862704700004C060020B3
:101E800010B53C21044803F049F8BDE810403C215E
:101E9000024803F043B80000BC0500204C060020B7
:101EA00070B5294D044655F8240005F072FF55F829
:101EB000240005F087F955F8240005F09BFE234A1D
:101EC00055F82400511E05F036FC204A55F8240030
:101ED000921E111D05F032FC55F82400012105F079
:101EE000D3FC55F824000122002105F07BFD0122DE
:101EF00055F82400114605F075FD55F824004FF4FF
:101F00008042012105F0AFFD55F824004FF4001286
:101F1000002105F0A8FD55F8240044F6206105F0E5
:101F2000CAFD55F824001222002105F01DFE55F8C7
:101F300024000E22012105F017FE55F82400BDE80B
:101F4000704005F013BE0000042500202E00002084
:101F500070B53E4C04F67C352146286805F0CEFA73
:101F6000208940F2C576A0F10B01B1420CD200EEFF
:101F7000100AA4F17800B8EE400A04F0B7FBBCEEFA
:101F8000C00A10EE100A2081304C68681C342146CB
:101F900005F0B4FA2089A0F10B01B1420CD200EE99
:101FA000100AA4F17C00B8EE400A04F09FFBBCEEDE
:101FB000C00A10EE100A2081244CA868383421464B
:101FC00005F09CFA2089A0F10B01B1420CD200EE81
:101FD000100AA4F18000B8EE400A04F087FBBCEEC2
:101FE000C00A10EE100A2081184CE86854342146CB
:101FF00005F084FA2089A0F10B01B1420CD200EE69
:10200000100AA4F18400B8EE400A04F06FFBBCEEA5
:10201000C00A10EE100A20810C4C28697034214649
:1020200005F06CFA2089A0F10B01B1420CD200EE50
:10203000100AA4F18800B8EE400A04F057FBBCEE89
:10204000C00A10EE100A208170BD0000881900201F
:102050000349C0EBC00001EB80000089704700001D
:10206000881900200849C0EBC00201EB820110B5BD
:10207000064A0C4652F8200005F040FA208919283B
:1020800001D84FF4FA6010BD881900200425002003
:102090002DE9F047DFF880914FF046082DED048BD5
:1020A00000220821484601F0D5FEDFF870A1002289
:1020B0000121504601F0CEFE00224021504601F0A1
:1020C000C9FE00220421504601F0C4FE0022102166
:1020D000504601F0BFFE404601F078FD012210217C
:1020E000504601F0B7FE404601F070FD4C484D4EA1
:1020F00000F593644C4D20615227C0F8586180F878
:102100005C71297905F0BCFB2169287981F85C01B3
:102110000420FFF7C5FE01221146504601F09AFE49
:10212000404601F053FDA4F513606060C0F85861AB
:1021300080F85C71697805F0A3FB6168687881F8C4
:102140005C010120FFF7ACFE01220421504601F0A2
:1021500081FE404601F03AFDA4F5C460E060C0F89D
:10216000586180F85C71E97805F08AFBE168E878ED
:1021700081F85C010320FFF793FE01220821484605
:1021800001F068FE404601F021FDA4F6B820206071
:10219000C0F8586180F85C71297805F071FB2168FE
:1021A000287881F85C010020FFF77AFE01224021A7
:1021B000504601F04FFE404601F008FDA4F5F560E1
:1021C000A060C0F8586180F85C71A97805F058FBF0
:1021D000A168A87881F85C010220FFF761FE134D29
:1021E0009FED138ADFED138A9FED139A002400BF41
:1021F00004EB440005EBC000B0EE481AF0EE680AAC
:10220000B0EE490A04F064FA641CE4B2052CEFD382
:10221000BDEC048BBDE8F08700040240000C0240D6
:102220006C200020680500203400002010190020D8
:102230006F12833A0AD7233C295C8F3D074810B5BB
:1022400090ED040B53EC102B90ED060B51EC100BA2
:1022500009F0A8F941EC100B10BD0000400200206D
:1022600070B519482DED028B03F08AF84FF47A759A
:102270002B4603221549144803F084FA134C9FEDB2
:10228000148B641E052084ED048B84ED028B84ED99
:10229000068B01F09BFC2B460322611C0A4803F0CD
:1022A00071FA84ED048B84ED028B84ED068B05209E
:1022B00001F08CFCBDEC028B2122BDE87040064988
:1022C000014803F09BB900002407002041020020D0
:1022D0000000000000000000F029002010B5FFF70A
:1022E000BFFFBDE8104021220149024803F086B932
:1022F000F02900202407002010B50420FFF7A8FED5
:102300001C4CA52807DD0320FFF7A2FEA52802DD4F
:1023100094ED080B29E00420FFF7A4FE91280EDAC3
:1023200000F0BEF81448406C90ED000B53EC102BFD
:1023300094ED080B51EC100B09F034F913E0032075
:10234000FFF790FE912814DA00F03AFB0A4870304B
:10235000406C90ED000B53EC102B94ED080B51ECFE
:10236000100B08F0CBFC41EC100BBDE8104000F066
:10237000C9B810BD40000020E026002005489FEDB0
:10238000062B9FED073B80EC080B703080EC080BB0
:10239000704700003029002000000000000022C02B
:1023A000000000000000224010B5154C154804F153
:1023B00020012DED028B9FED108B91EC080BB0EE00
:1023C000484AF0EE684A01F081F940340D48B0EE19
:1023D000484A94EC080BF0EE684A703001F076F948
:1023E000A4F1C00090ED121B90ED100BBDEC028B20
:1023F000BDE81040FFF7C2BF0000000000003440FD
:1024000040010020102900202DE9F041214D224FEC
:10241000224E2A780446642801DD642407E06FF028
:102420006300844201DA044614E0002C11DD4FF011
:102430008001304601F00EFD287840B100222021B5
:10244000304601F007FD38684463BDE8F0810122A1
:10245000F5E711DA72B14FF0000200BF4FF08001D2
:10246000304601F0F7FC2A782021304601F0F2FCDA
:1024700060420CE00122F1E700228021304601F0A9
:10248000E9FC00222021304601F0E4FC00203968FC
:102490004863DAE74000002004060020000C0240F8
:1024A00010B50020FFF7C0FC0120FFF7B1FC0220AF
:1024B000FFF7AEFC0320FFF7ABFC0420FFF7A8FCFE
:1024C0000520FFF7A5FC0620FFF7A2FC0720FFF779
:1024D0009FFC0420FFF7BCFD08F0BDFE074CC4E9DB
:1024E0000A01A4F5C070006908F0B5FEC4E908014E
:1024F000BDE81040024803F06DBD0000C00100209F
:10250000E026002070B502202DED028BB0EE408A4F
:10251000F0EE608AFFF788FC0020FFF779FC0120CD
:10252000FFF776FC0320FFF773FC0420FFF770FC35
:102530000520FFF76DFC0620FFF76AFC0720FFF778
:1025400067FC124C84ED128BFFF778FE84ED0E0BC6
:102550000F4803F03FFD94ED100B51EC100B08F009
:102560001DFEA4F5C075E968081AFFF74DFF94ED4C
:10257000100B51EC100B08F011FEE968BDEC028B5A
:102580000844BDE8704000F0CFB90000C001002051
:10259000C027002010B50446FFF762FC164802F081
:1025A00027FB204608F06EFE9FED141B53EC112B09
:1025B00008F060FC9FED131B53EC112B08F0B2FEEA
:1025C0009FED121B53EC112B08F0ACFE9FED111B7D
:1025D00053EC112B08F04EFC08F010FE1FFA80F4AB
:1025E000FFF72EFCA042FBDB034802F041FBBDE8F5
:1025F0001040FFF735BC000094060020A744D559D1
:102600008CA263400000000000C067400000000092
:10261000008056400000000000002C4010B5044629
:102620000146154803F0D2FD13482146703003F0EF
:10263000CDFD11482146E03003F0C8FD21460F488A
:1026400003F0C4FD0D482146703003F0BFFD0B4878
:102650002146E03003F0BAFD2146094803F0B6FDFB
:1026600007482146703003F0B1FD21460448BDE81B
:102670001040703803F0AABD2025002070260020ED
:10268000302800201D489FED1E2B264980ED180B99
:1026900080ED1A1B703080ED180B80ED1A1B703026
:1026A00080ED182B9FED182B80ED1A2B703080EDEC
:1026B000180B80ED1A1B9FED160B70309FED161B4B
:1026C00080ED180B80ED1A1B703080ED180B80ED3B
:1026D0001A1B134890ED102B81ED182B90ED123B37
:1026E00001F1700081ED1A3B80ED182B80ED1A3B53
:1026F000E03880ED180B80ED1A1B70472025002074
:1027000000000000000034C0000000000000344061
:102710000000000000002EC00000000000002E405D
:10272000C00000203028002009498860703188608E
:102730007031886070318860703188607031886075
:10274000E031886070318860E0398860704700004F
:10275000202500207CB56A4803F0EEFC6848703004
:1027600003F0EAFC6648E03003F0E6FC654803F05D
:10277000E3FC6448703003F0DFFC6248E03003F0B3
:10278000DBFC614803F0D8FC5F48703003F0D4FCF8
:102790005D48703803F0D0FC594801265B4CC07886
:1027A00004F12805CDE9006004F5C07395EC060B33
:1027B000A3F10802A2F10801514803F0C5FB5048FB
:1027C0002035703004F5CC73C078A3F10802CDE950
:1027D00000604B48A2F1080195EC060B703003F045
:1027E000B3FB48481835703804F5C073C078A3F1BE
:1027F0000802CDE900604348A2F1080195EC060B00
:10280000703803F0A1FB3F4804F5CC73A3F1080234
:10281000C078A2F10801CDE900603A4895EC060BBA
:1028200003F092FB37482035703004F5D073C07840
:10283000A3F12802CDE90060324894ED1E0B02F1AD
:10284000300195EC041B703003F07EFB2D4804F53D
:10285000D073E03005F11004C078A3F11002CDE987
:102860000060284802F1200194EC060BE03003F0F0
:102870006BFB2548703404F1E003C078A3F1080233
:10288000CDE9006094ED002B95ED1E1B95ED1C0B22
:10289000A2F108011C4803F057FB1B4804F1080C87
:1028A000703004F1F803C078A3F10802CDE90060AC
:1028B0001548A2F108019CEC060B703003F044FBB4
:1028C00011482835703804F1C803C078A3F1080214
:1028D000CDE900600C48A2F1080195EC060B7038B8
:1028E00003F032FB1420FFF71FFF94ED1A1B94ED49
:1028F000180BFFF7C7FEBDE87C400120FFF78EBE36
:1029000020250020702600203028002040000020D4
:1029100004489FED020B80ED080B7047000000009B
:1029200000000000400000202DE9F041214D224F21
:10293000224E2A780446642801DD642407E06FF003
:102940006300844201DA044615E0002C12DD7AB1FE
:102950004FF000024FF00801304601F07BFA2A7870
:102960000221304601F076FA38688463BDE8F081D0
:102970000122EFE70FDA4FF00801304601F06AFA62
:10298000287830B100220221304601F063FA60421B
:102990000CE00122F7E700220821304601F05AFA44
:1029A00000220221304601F055FA00203968886380
:1029B000DCE700004000002004060020000C02407C
:1029C00010B50120FFF730FA0020FFF721FA0220AE
:1029D000FFF71EFA0320FFF71BFA0420FFF718FA8F
:1029E0000520FFF715FA0620FFF712FA0720FFF778
:1029F0000FFA0320FFF72CFB08F02DFC074CC4E96D
:102A00000C01A4F5C070406908F025FCC4E9080178
:102A1000BDE81040024803F0DDBA0000C00100200C
:102A20005027002010B5FFF793FA0420FFF710FBA2
:102A3000104C20610320FFF70BFB6061162001F0B2
:102A4000C5F8FFF785FA0420FFF702FB2061032099
:102A5000FFF7FEFA6061162001F0B8F8FFF778FA88
:102A60000420FFF7F5FA20610320FFF7F1FA606117
:102A700010BD0000400000200149C8607047000000
:102A80004000002010B50C4802F076F800210A48FA
:102A900002F0FEFB0421084802F0FAFB01221103B8
:102AA000064801F0D7F9FFF755FEFFF77DFC044813
:102AB00000218170417010BD040600200008024012
:102AC0004000002070B51E2519266C424C2806D007
:102AD000522806D0462809D042280ED013E02846B6
:102AE00007E02046FFF790FC28460AE06FF0180444
:102AF0002046FFF789FC204603E03046FFF784FCC0
:102B00003046FFF711FF1E2001F060F8BDE870406D
:102B1000AFF3008010B50020FFF776FCBDE8104051
:102B20000020FFF701BF00002DE9F04105202DED49
:102B3000048BFFF779F90020FFF76AF90120FFF70E
:102B400067F90220FFF764F90320FFF761F9042019
:102B5000FFF75EF90620FFF75BF90720FFF758F94A
:102B60004620FFF7AFFF71480178714D9FED718BE3
:102B7000A5F1800605F580749FED709B19B1007872
:102B800001286DD0CBE03220FFF7CAF8322001F0E7
:102B90001DF83220FFF7C4F895ED180B53EC102BFD
:102BA00096ED080B51EC100B08F0A8F8C4E91801D9
:102BB000962001F00BF801F053F9074632E000BF10
:102BC000FFF73CFB84ED140B94ED181B5D4800F0FF
:102BD0005FFC84ED160B51EC100B08F0DFFA40425D
:102BE000FFF712FC94ED160B51EC100B08F0D6FA1F
:102BF000FFF79AFE94ED180B53EC102B94ED140B89
:102C000051EC100B08F0CEFC41EC100BFFF766F80E
:102C100053EC192B51EC100B08F048FB02D201F0D9
:102C20001FF902E001F01CF90546401BC82806D236
:102C300001F016F9C01B40F6C4118842C0D3FFF75B
:102C40000FFB4048E038406C80ED008B3D48703809
:102C5000406C80ED008B3C48406C80ED008B5CE06C
:102C6000FFF7ECFA95ED181B51EC100B53EC112B00
:102C700008F08CFCC4E91801FFF7F2FA3220FFF7E4
:102C80004FF8322000F0A2FF3220FFF749F801F0A0
:102C9000E7F8074632E000BFFFF7D0FA84ED140BE7
:102CA00094ED181B274800F0F3FB84ED160B51EC54
:102CB000100B08F073FA4042FFF7A6FB94ED160BD9
:102CC00051EC100B08F06AFAFFF72EFE94ED180B8A
:102CD00053EC102B94ED140B51EC100B08F062FC2C
:102CE00041EC100BFEF7FAFF53EC192B51EC100BD3
:102CF00008F0DCFA02D201F0B3F802E001F0B0F81B
:102D00000546401BC82806D201F0AAF8C01B40F2B5
:102D100014518842C0D3FFF7A3FA86ED088B052033
:102D2000BDEC048BBDE8F041FFF772B80000002055
:102D3000C0000020000000000000000000000000B3
:102D40000000004010290020C02700202DE9F04796
:102D500003202DED028BFFF767F80020FFF758F8EE
:102D60000120FFF755F80220FFF752F80420FFF783
:102D70004FF80520FFF74CF80620FFF749F8072029
:102D8000FFF746F84620FFF79DFE89480178894CF9
:102D9000A4F1800904F580779FED878B4FF47A7555
:102DA00019B1007801287CD0FAE00320FFF75AF926
:102DB000A52801DA012602E0002640F6C4151420F9
:102DC000FEF7AEFF94ED140BA04653EC102B99EDDB
:102DD000080B4C4651EC100B07F090FFC7E91801A7
:102DE000B946C82000F0F2FE01F03AF8824631E020
:102DF000FFF724FA89ED140B99ED181B704800F0C9
:102E000047FB89ED160B51EC100B08F0C7F9404257
:102E1000FFF7FAFA99ED160B51EC100B08F0BEF91A
:102E2000FFF782FD99ED180B53EC102B99ED140B65
:102E300051EC100B08F0B6FB41EC100BFEF74EFF07
:102E400053EC182B51EC100B08F030FA02D201F0C1
:102E500007F802E001F004F80746C01B962805D2E7
:102E600000F0FEFFA0EB0A00A842C1D3FFF752FE1C
:102E700006B36FF013052846FFF7C6FA2846FFF79A
:102E800053FD40F2262000F0A1FEFFF7E9F94620AD
:102E900000F09CFEFFF73EFE9FED4A0B4B48406C56
:102EA00000E014E080ED000B84ED080B322000F010
:102EB0008DFE75E098ED140B53EC102B94ED080B80
:102EC00051EC100B07F01AFFC4E9080168E094ED1B
:102ED000140B4C4653EC102B99ED080B51EC100BD6
:102EE00007F00CFFC7E91801FFF7BAF93220FEF727
:102EF00017FF322000F06AFE3220FEF711FF00F0CB
:102F0000AFFF804632E000BFFFF798F987ED140B62
:102F100097ED181B2A4800F0BBFA87ED160B51EC11
:102F2000100B08F03BF94042FFF76EFA97ED160BD5
:102F300051EC100B08F032F9FFF7F6FC97ED180B87
:102F400053EC102B97ED140B51EC100B08F02AFBEF
:102F500041EC100BFEF7C2FE53EC182B51EC100B9A
:102F600008F0A4F902D200F07BFF02E000F078FF45
:102F70000646801BC82805D200F072FFA0EB0800AF
:102F8000A842C1D3FFF75AF997ED181B51EC100B6B
:102F900053EC112B08F0FAFAC4E90801FFF760F9C5
:102FA000BDEC028B0320BDE8F047FEF731BF000007
:102FB00000000020C00000200000000000000040D1
:102FC000102900200000000000000000C0270020A1
:102FD000014801F04DBE000094060020014801F0B8
:102FE00007BE0000940600202DE9F04106202DEDDB
:102FF000048BFEF719FF0020FEF70AFF0120FEF701
:1030000007FF0220FEF704FF0320FEF701FF042064
:10301000FEF7FEFE0520FEF7FBFE0720FEF7F8FE9A
:103020004620FFF74FFD70480178704F9FED708B81
:10303000A7F1800505F5C0749FED6F9B40F2145613
:1030400019B1007801286AD0C6E01420FEF768FEA6
:1030500097ED1A0B53EC102B95ED080B51EC100B60
:1030600007F04CFEC4E91E01654801F001FE962000
:1030700000F0ACFD00F0F4FE804631E0FFF7DEF832
:1030800084ED1A0B94ED1E1B5E4800F001FA84EDEE
:103090001C0B51EC100B08F081F84042FFF7B4F91B
:1030A00094ED1C0B51EC100B08F078F8FFF73CFC8A
:1030B00094ED1E0B53EC102B94ED1A0B51EC100BEE
:1030C00008F070FA41EC100BFEF708FE53EC192BD8
:1030D00051EC100B08F0EAF802D200F0C1FE02E059
:1030E00000F0BEFE0746C01BC82805D200F0B8FE9F
:1030F000A0EB0800B042C1D3FFF7B2F84248406CE1
:1031000080ED008B40487030406C80ED008B3E4875
:103110007038406C80ED008B85ED088B5CE0FFF72C
:103120008DF897ED1A1B51EC100B53EC112B08F096
:103130002DFAC4E91E01FFF793F83220FEF7F0FDE7
:10314000322000F043FD3220FEF7EAFD00F088FE59
:10315000804631E0FFF772F884ED1A0B94ED1E1BE8
:10316000284800F095F984ED1C0B51EC100B08F089
:1031700015F84042FFF748F994ED1C0B51EC100B89
:1031800008F00CF8FFF7D0FB94ED1E0B53EC102B5E
:1031900094ED1A0B51EC100B08F004FA41EC100BF3
:1031A000FEF79CFD53EC192B51EC100B08F07EF848
:1031B00002D200F055FE02E000F052FE0746C01BAE
:1031C000C82805D200F04CFEA0EB0800B042C1D3E5
:1031D00085ED088BFFF744F8BDEC048B0620BDE8B5
:1031E000F041FEF715BE000000000020C0000020E6
:1031F000000000000000000000000000000000408F
:103200009406002080290020302800202DE9F04776
:1032100004202DED028BFEF707FE0020FEF7F8FDDF
:103220000120FEF7F5FD0220FEF7F2FD0320FEF778
:10323000EFFD0520FEF7ECFD0620FEF7E9FD072077
:10324000FEF7E6FD4620FFF73DFC89480178894CF2
:10325000A4F1800904F580779FED878B4FF47A7590
:1032600019B1007801287CD0FAE00420FEF7FAFEBC
:10327000A52801DA012602E0002640F6C415142034
:10328000FEF74EFD94ED160BA04653EC102B99ED76
:10329000080B4C4651EC100B07F030FDC7E91E013E
:1032A000B946962000F092FC00F0DAFD824631E04B
:1032B000FEF7C4FF89ED1A0B99ED1E1B704800F054
:1032C000E7F889ED1C0B51EC100B07F067FF40424B
:1032D000FFF79AF899ED1C0B51EC100B07F05EFF0D
:1032E000FFF722FB99ED1E0B53EC102B99ED1A0BF7
:1032F00051EC100B08F056F941EC100BFEF7EEFC08
:1033000053EC182B51EC100B07F0D0FF02D200F059
:10331000A7FD02E000F0A4FD0746C01BC82805D2A7
:1033200000F09EFDA0EB0A00A842C1D3FFF7F2FB1C
:1033300006B36FF013052846FFF766F82846FFF737
:10334000F3FA40F2262000F041FCFEF789FF462008
:1033500000F03CFCFFF7DEFB9FED4A0B4B48406C56
:1033600000E014E080ED000B84ED080B322000F04B
:103370002DFC75E098ED160B53EC102B94ED080B1B
:1033800051EC100B07F0BAFCC4E9080168E094EDB9
:10339000160B4C4653EC102B99ED080B51EC100B0F
:1033A00007F0ACFCC7E91E01FEF75AFF3220FEF71A
:1033B000B7FC322000F00AFC3220FEF7B1FC00F02E
:1033C0004FFD804632E000BFFEF738FF87ED1A0B55
:1033D00097ED1E1B2A4800F05BF887ED1C0B51ECA3
:1033E000100B07F0DBFE4042FFF70EF897ED1C0BC9
:1033F00051EC100B07F0D2FEFFF796FA97ED1E0B7B
:1034000053EC102B97ED1A0B51EC100B08F0CAF887
:1034100041EC100BFEF762FC53EC182B51EC100B37
:1034200007F044FF02D200F01BFD02E000F018FD9F
:103430000646801BC82805D200F012FDA0EB08004C
:10344000A842C1D3FEF7FAFE97ED1E1B51EC100BFC
:1034500053EC112B08F09AF8C4E90801FEF700FFBD
:10346000BDEC028B0420BDE8F047FEF7D1BC0000A4
:1034700000000020C000002000000000000000400C
:10348000802900200000000000000000C02700206C
:103490002DE9F04704462DED108BB0EE418AF0EE99
:1034A000618AB0EE40AAF0EE60AA00F0D9FC616C2F
:1034B0000746256C401A85427ED853EC1A2B51ECF6
:1034C000180B08F06FF841EC180B94ED000B53EC5F
:1034D000182B51EC100B07F025FF41EC1B0B284675
:1034E00007F0D0FE0E4646EC110B054653EC182BA8
:1034F00051EC110B07F016FF94ED121B53EC112B3E
:1035000007F0FCFB94ED140B41EC190B53EC102B62
:1035100051EC180B07F0F2FB41EC1C0B46EC1D5B69
:1035200094ED020B9FED651B51EC100B53EC112B2E
:1035300007F0F8FE53EC1D2B07F0F4FE53EC1C2BA8
:1035400007F0F0FE53EC192B07F0D8FB41EC100B01
:1035500084ED120B94ED0E1B53EC112B07F0E0FFE2
:1035600002D294ED0E0B0FE094ED0C1B94ED120BB8
:1035700053EC112B51EC100B07F098FE02D394ED95
:10358000120B03E094ED0C0B84ED120B94ED021B77
:1035900053EC102B51EC110B07F0C4FE41EC1C0B4B
:1035A000206C07F06FFE8946064649EC190B94ED36
:1035B000060B9FED44DB00E079E053EC1D2B51EC52
:1035C000100B07F0AFFE884648EC110B054653EC94
:1035D000192B51EC110B07F091FB94ED180B41ECFA
:1035E0001F0B53EC102B51EC1A0B07F0DBFF94ED83
:1035F000049B41EC1E0B53EC1D2B51EC190B07F0F7
:1036000091FE53EC1E2B07F08DFE48EC105B49EC4D
:10361000116B41EC1D0B53EC102B51EC110B07F00F
:10362000C1FF94ED161B53EC112B07F07BFE53ECFE
:103630001D2B07F0B7FF53EC1F2B07F01BFC41ECD1
:10364000100B51EC190B84ED160B53EC102B07F0FB
:1036500069FE41EC190B53EC1C2B51EC1B0B07F0D2
:103660004DFB53EC192B07F049FB41EC100B84ED9B
:103670001A0B94ED0A1B53EC112B07F051FF02D2E9
:1036800094ED0A0B0CE094ED080B94ED1A1B53EC2F
:10369000102B51EC110B07F009FE03D294ED080B2F
:1036A00084ED1A0B84ED18AB84ED148B676494EDF4
:1036B0001A0BBDEC108BBDE8F08700000000000085
:1036C0000000E03F000000000000004010B504468C
:1036D00051EC140B84EC080B07F090FD9FED060BEA
:1036E000206484ED120B84ED140B84ED160B84ED35
:1036F000180B84ED1A0B10BD000000000000000044
:1037000038B5124C207838B121786078104A0244DC
:10371000401C6070117012E0207880B90B480DA138
:103720001830A0F11003A0F1080200900848FCF73F
:1037300041FE0020607030210548FCF7F4FEBDE832
:10374000384001220149074801F06DBF60020020A6
:10375000142A0020256C6620256C6620256C6600E6
:10376000000000006807002001220249024801F021
:103770005ABF00006002002068070020FEE700003A
:10378000014800F0B1B80000B0180020016818230B
:10379000CAB2103AB2FBF3F2054B6FF30901032AE8
:1037A0009B5CC36500D9091D816508467047000010
:1037B0008EB8000810B5014600208B698A6A4FF068
:1037C000C07453B1B3F5005F15D072B1012A0CD0AB
:1037D000022A0AD0032A09D104E01AB1012A06D02C
:1037E000022A03D1C96AC90100D5012010BDC96AE6
:1037F000A142FAD010BD002AF7D0012AF2D0022A45
:10380000F3D0032AF3D010BD30B50468256825F441
:1038100080252560046863608368402B036803D0BB
:1038200099600068C26030BD9A600068C16030BDB8
:103830007047022000F002BA042000F0FFB908200F
:1038400000F0FCB9102000F0F9B9202000F0F6B922
:1038500072B6FEE72DE9F0410446876D00F000FBEB
:10386000064694F835000025022806D080206065C1
:1038700084F834500120BDE8F0812068016821F00F
:10388000160101602068416921F080014161206CCE
:1038900008B9A06C20B12068016821F0080101601E
:1038A0002068016821F0010101600CE000F0D8FA05
:1038B000801B052807D920206065032084F8350087
:1038C00084F83450D7E720680068C007EED194F838
:1038D0005C103F208840B860012084F8350084F8EF
:1038E00034500020C7E700002DE9F84304464FF0AC
:1038F0000009CDF8009063484FF41651A56D00689B
:10390000B0FBF1F72E6894F85C10082000FA01F182
:1039100031420FD021680A6852070BD50A6822F09D
:1039200004020A6094F85C108840A860606D40F062
:103930000100606594F85C104FF0010808FA01F08E
:10394000304208D021684969090604D5A860606D35
:1039500040F00200606594F85C100420884030421A
:1039600008D021680968890704D5A860606D40F017
:103970000400606594F85C1010208840304218D034
:1039800021680968090714D5A860206801684903FF
:1039900004D50068000308D5A16C07E00168C905DB
:1039A00003D4016821F008010160216C09B12046AF
:1039B000884794F85C1020208840304231D021683C
:1039C0000968C9062DD5A86094F835000528206837
:1039D000016806D0490347D5006800031DD4616C17
:1039E0001CE021F0160101602068416921F080018E
:1039F0004161206C08B9A06C20B12068016821F0F9
:103A00000801016094F85C103F208840A86084F8A9
:103A1000358084F83490216D1FE0E16B09B12046B8
:103A20008847606D00282BD0606DC00714D005203A
:103A300084F835002068016821F0010101600098D8
:103A4000401C0090B84203D820680068C007F6D137
:103A500084F8358084F83490E16C002910D001B0EE
:103A60002046BDE8F04308470168C905D5D4016880
:103A700021F01001016084F8358084F83490CCE79F
:103A8000BDE8F883640500202DE9F041044600F00C
:103A9000E7F906465CB1022084F83500002584F879
:103AA00034502068016821F0010101600DE001201F
:103AB000BDE8F08100F0D4F9801B052805D920204D
:103AC0006065032084F83500F2E720680068C007CD
:103AD000F0D12268116820480140D4E9010318435D
:103AE000D4E903363343184363691843A369184381
:103AF000E3691843236A18430843616A042903D120
:103B0000D4E90B1319430843106020684069666AC2
:103B100020F0070130460E43012704280CD1A06A8B
:103B20000643E06A40B12046FFF744FE20B1402042
:103B3000606584F83570BAE7206846612046FFF773
:103B400025FE94F85C203F2191408160656584F8F2
:103B500035700020ACE700003F8010F02DE9F04107
:103B60000446866D90F83400002501280DD0012010
:103B700084F8340094F835700020012F07D084F8C1
:103B8000340002252846BDE8F0810220FBE7022729
:103B900084F8357060652046FFF736FE94F85C10B7
:103BA0003F208840B0602068016841F01601016044
:103BB000206C20B12068016841F008010160206894
:103BC000016841F001010160DCE7000070B50446C6
:103BD00000F046F90546601C02D004480078044411
:103BE00000F03EF9401BA042FAD370BD58050020FA
:103BF0000F4A10B514880F490123844201D10020D7
:103C000012E05488844201D10B700EE09488844203
:103C100001D1022008E0D488844201D1032003E0CE
:103C20001289824201D1042008700348037010BD3C
:103C3000200000200300002002000020044910B5ED
:103C40000A68024202D00860FFF7D2FF10BD0000F0
:103C5000143C01402DE9F84FDFF8BCA100220125FA
:103C600003264FF00F090AF1040BAAF1040E00BF5E
:103C70000B6805FA02F42340A34270D10F7907F0D4
:103C80000307012F01D0022F16D187684FEA42089F
:103C900006FA08FC27EA0C07D1F80CC00CFA08FC5D
:103CA0004CEA070CC0F808C04768A7430C79C4F376
:103CB000001494403C4344600C79E443A4070AD0C8
:103CC000C4684FEA420C06FA0CF7BC438F6807FA47
:103CD0000CF72743C7600C7904F00304022C12D1BF
:103CE000D40800EB840CDCF820405707FF0E09FADB
:103CF00007F824EA0804D1F8108008FA07F848EA1F
:103D00000408CCF8208004684FEA420C06FA0CF74D
:103D1000BC430F7907F0030707FA0CF72743076046
:103D20004C6814F4403F70D03C4C276847F48047FF
:103D30002760246822F0030704F480440094384C80
:103D400007EB040CDCF8084897074FEA177809FAE4
:103D500008F7BC43334FB84202D1002724E054E0B7
:103D6000314FB84201D101271EE0304FB84201D196
:103D7000022719E02E4FB84201D1032714E02D4F3E
:103D8000B84201D104270FE02B4FB84201D10527DB
:103D90000AE02A4FB84201D1062705E0284FB84271
:103DA00001D1072700E0082707FA08F72743CCF8D6
:103DB0000878DAF800405746D1F804C09C435FEA1F
:103DC000CC2C00D51C433C60DBF800405F46D1F8AA
:103DD00004C09C435FEA8C2C00D51C433C60DEF899
:103DE00000407746D1F804C09C435FEA8C3C00D584
:103DF0001C433C60084F083F3C68D1F804C09C431A
:103E00005FEACC3C00D51C433C60521C102AFFF4F6
:103E10002FAFBDE8F88F0000083C01404438024055
:103E2000003001400000024000040240000802404F
:103E3000000C024000100240001402400018024032
:103E4000001C0240426921EA02030A4043EA02419F
:103E5000816170470AB1816170470904FBE7000086
:103E600001488068704700005805002070B50400C4
:103E700025D094F83D00002520B984F83C50204618
:103E800000F03EFA242084F83D002068016821F00B
:103E9000010101602068016841F40041016020686F
:103EA000016821F40041016000F094FB4D4A616813
:103EB000914201D84C4900E04C49884201D201208E
:103EC00070BD4B492368B0FBF1F15E6826F03F06F8
:103ED0000E435E606368934206D94FF4967359436C
:103EE0004FF47A73B1FBF3F12368491C1E6A26F084
:103EF0003F06314319626168914210D84900401E63
:103F0000B0FBF1F2521CC2F30B02042A01D20420CE
:103F100022E0B0FBF1F0401CC0F30B001CE0A268F3
:103F2000F2B301EBC10303EB0116431EB3FBF6F33F
:103F30005B1C43F480431B0549D092B301EBC102E3
:103F400002EB0111401EB0FBF1F0401CC0F30B006E
:103F500040F4804040F400402168CA694CF6FF7389
:103F60009A431043C861D4E90710014320680268EE
:103F700022F0C00211430160D4E90301014320682B
:103F8000826848F2FF339A4311438160D4E9050106
:103F900008432168CA6822F0FF021043C86001E0AC
:103FA0000EE016E02068016841F00101016025641F
:103FB000202084F83D00256384F83E50002070BD29
:103FC00001EB4106431EB3FBF6F35B1CB3E7012094
:103FD000C2E701EB4101401EB0FBF1F0401CC0F311
:103FE0000B00B7E7A086010080841E0000093D0099
:103FF00040420F002DE9F84F1F4690468A4604467E
:10400000DDF82890FFF72CFF054694F83D002028A6
:1040100075D1192301226C492046009501F016FD47
:104020000028F5D194F83C00012868D0012084F8DC
:104030003C0020680168C90703D1016841F0010113
:1040400001602068016821F400610160222084F889
:104050003D00102084F83E0000262664C4F8248029
:104060006785608D20855948E0622B464A46514657
:10407000204601F001FC002878D1208D544F68B112
:10408000012814D002282068016816D041F480610C
:104090000160206841698069009087E0206841697B
:1040A00081690091016841F4007101607EE020683F
:1040B000016821F480610160F0E721F48061016012
:1040C0002068016841F40061E2E7032848D801282C
:1040D0000AD0022814D04B460022394620460095CB
:1040E00001F0B4FCD8BB27E02A464946204601F03F
:1040F0002CFDA0BB20680069616A08704DE061E09A
:104100004B46002239462046009501F09FFC30BB0B
:104110002068016841F40071016020680069616AEB
:104120000870606A401C6062218D491E2185618D86
:10413000491E618521682EE02068016821F48061B4
:10414000016020680069616A0870606A401C6062F2
:10415000208D401E2085608D401E6085D0E705E0E3
:104160002A464946204601F0F0FC10B10120BDE886
:10417000F88F20680069616A0870606A401C60629C
:10418000218D491E2185618D491E618521684A69FD
:10419000D24352070AD409690170606A401C606208
:1041A000208D401E2085608D401E6085208D00285A
:1041B0008BD1202084F83D0084F83E6084F83C6078
:1041C0000020D4E70220D2E7020010000000FFFF29
:1041D000040001002DE9F84F1F4690468A46044628
:1041E000DDF82890FFF73CFE054694F83D002028B6
:1041F0007FD11923012240492046009501F026FC79
:10420000002876D194F83C00012872D0012084F86F
:104210003C0020680168C90703D1016841F0010131
:1042200001602068016821F400610160212084F8A8
:104230003D00102084F83E0000262664C4F8248047
:104240006785608D20852D48E0622B464A465146A1
:10425000204601F087FB90B9206841698069009091
:1042600036E02A464946204601F0A2FC50B1206CB7
:10427000042804D12068016841F400710160012024
:10428000BDE8F88F606A216800780861606A401CA8
:104290006062618D491E6185218D491E89B221852B
:1042A00022685369DB435B070BD451B1007810617E
:1042B000606A401C6062608D401E6085208D401EDB
:1042C00020852A464946204601F09AFB0028CED197
:1042D000208D0028C5D154F83D0B016841F40071D0
:1042E0000160202004F81E09E67766770020C7E702
:1042F000FFE70220C4E70000020010000000FFFFFB
:1043000010B586B0044614216846FCF72EF914490E
:104310002068884221D113480021026842F002023D
:104320000260006800F0020005904FF410700090E9
:104330001220CDE901010320039004200490694676
:104340000948FFF787FC07481030016841F4001165
:104350000160006800F40010059006B010BD000078
:104360000054004030380240000402400248816896
:104370000278114481607047580500200B4810B541
:10438000016841F400710160016841F480610160DD
:10439000016841F480710160032000F06FF80E2085
:1043A00000F006F800F024F8002010BD003C0240A8
:1043B00070B50D4D04464FF47A712878B1FBF0F0DA
:1043C0000A490968B1FBF0F000F00CFB48B9102C69
:1043D00007D200222146501E00F030F800206C6009
:1043E00070BD012070BD000058050020640500204C
:1043F0000A4808B5016841F480410160006800F492
:10440000804000900548001F016841F08051016024
:10441000006800F08050009008BD00004438024061
:10442000002809DB00F01F020121914040098000B3
:1044300000F1E020C0F8001170470000F0B40E4B0E
:104440001B680C46C3F30223C3F10705042D00D9F2
:104450000425191D072901D2002300E0DB1E0126D7
:1044600006FA05F1491E214099409E40761E1640ED
:104470003143F0BC04F056BF0CED00E0064900F0FB
:10448000070208684FF6FF03184040EA0220034A7B
:1044900010430860704700000CED00E00000FA05D2
:1044A0002DE9F0470E46050065D0DFF81481D8F8F5
:1044B0000000F7B200F00700B04207D288F80070A1
:1044C000D8F8000000F00700B04254D128683D4CF5
:1044D000810712D5400703D5206840F4E0502060E2
:1044E0002878000703D5206840F4604020602068E9
:1044F000A96820F0F000084320602878C0072DD07C
:10450000304968680839012812D0022813D00328DE
:1045100011D00968890700292DDA216821F00301EB
:1045200001432160FFF79CFC814641F2883A0EE08E
:1045300009688903EFE709688901ECE7FFF790FC58
:10454000A0EB0901514502D90320BDE8F08720689E
:10455000696800F00C00B0EB810FEFD1D8F80010C3
:10456000404601F00701B14207D90770006800F02A
:104570000700B04201D00120E7E72878400705D5C1
:104580002068E96820F4E05008432060287800079C
:1045900006D52068296920F4604040EAC100206007
:1045A00000F038F82168084AC1F30311515CC84093
:1045B0000649086006480068FFF7FAFE0020C4E7D5
:1045C000003C02400838024096B80008640500200C
:1045D0005C0500200448054900680968044AC1F3E5
:1045E0008221515CC84070476405002008380240B1
:1045F000A6B800080448054900680968044AC1F3E0
:104600004231515CC84070476405002008380240C0
:10461000A6B80008154810B5006810F00C02144840
:1046200013D01449042A0FD0082A0ED10F4C241F8E
:104630002268236802F03F025B0207D52068C0F3BE
:104640008810A0FB010106E0084610BD2168C1F3F7
:104650008811A1FB00010023FBF734FE2168C1F3A0
:104660000141491C4900B0FBF1F010BD083802407F
:104670000024F40040787D012DE9F84F04006ED04D
:104680002078DFF84C93C007A9F104054AD009F15E
:1046900004000168C1F38101012908D00068C0F35A
:1046A000810002280AD1D9F80000400206D5286806
:1046B000800337D560680028E1D033E06068B0F54A
:1046C000803F10D0B0F5A02F286810D020F48030A3
:1046D0002860286820F4802028606068A8B1FFF76F
:1046E000BFFB06460DE0286840F48030F4E740F454
:1046F00080202860F7E700BFFFF7B2FB801B64282B
:1047000073D828688003F7D50CE0FFF7A9FB0646AD
:1047100005E000BFFFF7A4FB801B6428F0D82868E1
:104720008003F7D42078DFF8AC8280074FF0000ACE
:104730003ED5A748001D016811F00C0F08D0006895
:10474000C0F3810002280BD1D9F80000400207D441
:104750002868800716D5E068012800D112E033E10F
:10476000E068B8B10120C8F80000FFF779FB064601
:1047700005E000BFFFF774FB801B0228C0D8286843
:104780008007F7D52868216920F0F80040EAC100C9
:1047900028600DE0C8F800A0FFF762FB064604E0C1
:1047A000FFF75EFB801B02281FD828688007F7D41C
:1047B0002078000722D5864F87486169703771B12C
:1047C00001210160FFF74CFB064604E0FFF748FBC0
:1047D000801B022809D838688007F7D50EE0C0F89A
:1047E00000A0FFF73DFB064605E082E0FFF738FB3F
:1047F000801B02287DD838688007F7D420784007CE
:1048000068D5DFF8CCB100270BF13C0BDBF80000DA
:10481000C0000BD4DBF8001041F08051CBF8001041
:10482000DBF80000012700F0805000906B4E3068EC
:10483000C00510D4306840F480703060FFF710FB82
:10484000009005E0FFF70CFB0099401A022850D8B1
:104850003068C005F6D55E4EA0686C3601280FD0D2
:104860000528306810D020F001003060306820F05A
:1048700004003060A068B8B1FFF7F2FA00900FE0D2
:10488000306840F00100F4E740F004003060F7E7E2
:10489000FFF7E6FA0099411A41F28830814266D862
:1048A00030688007F4D50EE0FFF7DAFA009007E0F1
:1048B000FFF7D6FA0099411A41F28830814256D862
:1048C00030688007F4D42FB1DBF8001021F080515C
:1048D000CBF80010A069C8B33D49091D0968C1F3B0
:1048E000810102294AD00228504607D0C8F860004A
:1048F00000E03CE0FFF7B4FA04463BE04746C8F866
:104900006000FFF7ADFA064605E000BFFFF7A8FA22
:10491000801B02282BD828688001F7D4D4E907012E
:104920000843A16A2E4A490802EB0141626A41EA42
:104930008211084394F82C1040EA0161C9F8001074
:1049400001203866FFF78CFA044606E03EE000BF1F
:10495000FFF786FA001B022809D828688001F7D5DE
:1049600034E000BFFFF77CFA001B022802D90320C5
:10497000BDE8F88F28688001F4D427E00128F7D03B
:10498000D9F80000E26900F4800191421CD1226A4A
:1049900000F03F01914217D147F6C071626A0140B1
:1049A000B1EB821F10D1A26A4FF0FF3300F4403107
:1049B00003EB5202B1EB024F06D194F82C1000F039
:1049C0007060B0EB016F01D00120D1E70020CFE78C
:1049D0000438024000004742800E47420070004009
:1049E0000000FFFF10B5401EB0F1807F01D3012011
:1049F00010BD4FF0E02460610F21601704F092FCBD
:104A00000020A06107202061002010BD7047704782
:104A100070B590F83C20012A32D0012480F83C4047
:104A2000022280F83D2003685A689D6822F07006D3
:104A30000A6832435A60134B02689A4214D0B2F1AA
:104A4000804F11D0104B9A420ED0104B9A420BD08F
:104A50000F4B9A4208D00F4B9A4205D00E4B9A4208
:104A600002D00E4B9A4204D1496825F080031943C5
:104A7000916080F83D40002180F83C10084670BDF0
:104A8000022070BD0000014000040040000800400A
:104A9000000C0040000401400040014000180040AC
:104AA00010B5040003D094F83D0010B107E00120D8
:104AB00010BD002084F83C00204600F01FF80220C2
:104AC00084F83D00211D206801F0B0FE012084F82B
:104AD000460084F83E0084F83F0084F8400084F8E3
:104AE000410084F8420084F8430084F8440084F8CC
:104AF000450084F83D00002010BD000008B50168A5
:104B0000B1F1804F12D0194A1948914219D1016868
:104B100041F4803101600068002200F48030009090
:104B200002211820FFF78AFC18201BE01048001F04
:104B3000016841F001010160006800F0010000908F
:104B400008BD0C4A9142FBD1016841F4003101607B
:104B50000068002200F40030009003211920FFF7C4
:104B60006DFC1920BDE80840FFF75ABC0040014029
:104B7000443802400044014090F83D10012901D022
:104B800001207047022180F83D10006811498842D9
:104B900014D0B0F1804F11D00F4988420ED00F4988
:104BA00088420BD00E49884208D00E49884205D071
:104BB0000D49884202D00D49884204D1816801F034
:104BC0000701062903D0016841F0010101600020BE
:104BD0007047000000000140000400400008004051
:104BE000000C00400004014000400140001800405B
:104BF00090F83D10012901D001207047022180F872
:104C00003D100168CA6842F00102CA60006811499B
:104C1000884214D0B0F1804F11D00F4988420ED095
:104C20000E4988420BD00E49884208D00D4988426F
:104C300005D00D49884202D00C49884204D18168D0
:104C400001F00701062903D0016841F0010101606C
:104C500000207047000001400004004000080040B0
:104C6000000C0040000401400040014000180040DA
:104C70000168CA6822F00102CA6001680A6A41F24A
:104C800011131A4207D10A6A9B101A4203D10A680B
:104C900022F001020A60012180F83D1000207047D7
:104CA00070B5044690F83C000025012817D0012675
:104CB00084F83C60022084F83D002068826822F07D
:104CC000770222F47F4282600868502838D00DDCD9
:104CD00020284FD005DC90B3102811D14AE00220E3
:104CE00070BD302846D040280AD13BE060282FD044
:104CF00070280DD0B0F5805F03D0B0F5005F12D002
:104D0000012584F83D60002084F83C00284670BDF1
:104D1000CB68D1E90121206801F0F9FD20688168A4
:104D200041F0770109E0CB68D1E90121206801F069
:104D3000EEFD2068816841F480418160E1E719E07F
:104D4000CA684968206801F0B7FE5021206806E073
:104D5000CA684968206801F0C0FE6021206801F03F
:104D6000E0FDCEE7CA684968206801F0A5FE402151
:104D70002068F4E7226801461046F0E72DE9F0418B
:104D80000D46040003D094F83D0018B108E001205E
:104D9000BDE8F081002084F83C00204600F040F897
:104DA000022084F83D002068816844F207029143A4
:104DB0008160211D206801F039FD226890689169A9
:104DC000166A2B68AF69034340F20330814341EA1E
:104DD0000721A868EF6908434FF6FC418843E9685A
:104DE00040EA0720014328692F6A000140EA0730A2
:104DF000084369686D6926F0AA0646EA0515294345
:104E000093602268906154F8460B0162012004F817
:104E10001F09E0752076E0762077A0750020B7E7BF
:104E200030B587B0044614216846FBF79EFB354A2F
:104E3000216800243448022591422FD1324914318F
:104E40000A6842F001020A60096801F00101059157
:104E5000016841F0100101600068694600F010002F
:104E600005904FF420600090CDE901540120CDE978
:104E700003402648FEF7EEFE002202211820FFF72D
:104E8000DDFA1820FFF7CCFA002203211920FFF7E2
:104E9000D5FA1920FFF7C4FA07B030BD1C4A914279
:104EA000FAD1194910310A6842F004020A6009680F
:104EB00001F004010591016841F0080101600168F9
:104EC00001F008010591016841F0020101600068EC
:104ED000694600F0020005904FF480500090CDE943
:104EE00001540C48CDE90345FEF7B4FE8020009044
:104EF000CDE9015469460848CDE90345FEF7AAFE0D
:104F0000CAE70000000001403038024000100240B3
:104F100000080040000C02400004024070B590F808
:104F20003E60044690F83F5090F8423090F843209D
:104F3000022021B104290ED0012E1BD114E0012E34
:104F400018D1012B16D184F83E0084F842000122CA
:104F50000021206820E0012D0CD1012A0AD184F81B
:104F60003F0084F8430014E0012D03D1012B01D14F
:104F7000012A01D0012070BD84F83E0084F83F0072
:104F800084F8420084F8430001220021206801F0E7
:104F9000B1FC01220421206801F0ACFC206801680A
:104FA00041F001010160002070BD704770B50446FA
:104FB000006801694FF00005C943890715D4C1682D
:104FC000C943890711D4E91E0161012020772068B7
:104FD00080698007204602D0FFF7E7FF04E000F079
:104FE000C1F8204600F053F9257720680169C943CC
:104FF000490717D4C168C943490713D46FF00401A6
:105000000161022020772068806910F4407F2046EB
:1050100002D0FFF7CAFF04E000F0A4F8204600F039
:1050200036F9257720680169C943090716D4C16894
:10503000C943090712D46FF00801016104202077E9
:105040002068C0698007204602D0FFF7AEFF04E069
:1050500000F088F8204600F01AF9257720680169E9
:10506000C943C90617D4C168C943C90613D46FF030
:1050700010010161082020772068C06910F4407F8A
:10508000204602D0FFF791FF04E000F06BF82046C5
:1050900000F0FDF8257720680169C943C90708D1E8
:1050A000C168C943C90704D1891E0161204600F0C7
:1050B00053F920680169C943090609D4C168C94385
:1050C000090605D46FF0800101612046FFF79EFCC0
:1050D00020680169C943490609D4C168C943490622
:1050E00005D46FF040010161204600F047F92068C7
:1050F0000169C94389060BD4C168C943890607D42D
:105100006FF0200101612046BDE87040FFF77FBCD1
:1051100070BD000010B586B0044614216846FBF748
:1051200024FA2068B0F1804F15D10C4800210268A4
:1051300042F001020260006800F0010005902220A8
:1051400000900220CDE901010120CDE9031069465C
:105150000348FEF77FFD06B010BD00003038024066
:1051600000000240704770B5044690F83C000026ED
:105170000D4601280FD0012084F83C006AB1042AB2
:105180001DD0082A2FD00C2A3FD00126002084F8F9
:105190003C00304670BD022070BD206801F0CAFBA3
:1051A0002068816941F0080181612068816921F0EE
:1051B00004018161206881692A69114311E0206836
:1051C00001F0E8FB2068816941F400618161206899
:1051D000816921F480618161206881692A6941EADD
:1051E00002218161D2E7206801F00AFC2068C169D0
:1051F00041F00801C1612068C16921F00401C16169
:105200002068C1692A69114311E0206801F02CFC73
:105210002068C16941F40061C1612068C16921F45D
:105220008061C1612068C1692A6941EA0221C161C6
:10523000ACE710B5040003D094F83D0010B107E0CE
:10524000012010BD002084F83C00204600F01EF82C
:10525000022084F83D00211D206801F0E7FA0120BA
:1052600084F8460084F83E0084F83F0084F840004B
:1052700084F8410084F8420084F8430084F8440034
:1052800084F8450084F83D00002010BD7047704749
:1052900010B50446022249B104290ED0082913D0C2
:1052A00094F84100012816D0012010BD94F83E006A
:1052B0000128F9D184F83E200FE094F83F0001283E
:1052C000F2D184F83F2008E094F840000128EBD1A7
:1052D00084F8402001E084F841200122206801F098
:1052E00009FB16492068164A884201D0904203D132
:1052F000436C43F4004343642068884213D0B0F108
:10530000804F10D00F4988420DD00F4988420AD0F3
:105310000E49884207D0904205D00D49884202D0FC
:105320000C49884204D1816801F00701062903D0A5
:10533000016841F001010160002010BD0000014042
:10534000000401400004004000080040000C004040
:105350000040014000180040064900680968884282
:1053600001D1FCF7C9BF04490968884201D1FCF7A3
:10537000EFBD704794060020DC06002070477047A0
:1053800010B504460068406994F83D10C0F3C010A1
:10539000212911D180B12068143050E8001F21F07C
:1053A000800140E80012002AF5D1606B08B1FEF7D9
:1053B00051FA204601F06AFD2068406994F83E10D9
:1053C000C0F38010222911D180B12068143050E838
:1053D000001F21F0400140E80012002AF5D1A06B27
:1053E00008B1FEF737FA204601F029FD002010BD74
:1053F000704770B5040004D094F83D00002510B14A
:1054000006E0012070BD84F83C50204600F022F8F0
:10541000242084F83D002068C16821F40051C16057
:10542000204601F041FD2068016921F490410161AD
:105430002068416921F02A0141612068C16841F476
:105440000051C1602564202084F83D0084F83E00AE
:10545000002070BD70B586B0064614216846FBF783
:1054600084F82F4C306800252E4902230322A042E5
:1054700036D12C481030046844F48024046000685D
:1054800000F480200590086840F002000860086879
:10549000694600F0020005909002CDE9000301206A
:1054A000CDE90202072004901F48FEF7D3FB204CF1
:1054B0001E4820604FF00060C4E901054014C4E9B3
:1054C00003506561A561E561256220466562FEF7CE
:1054D000DBFA08B1FEF7BCF9B463A66306B070BD91
:1054E000144CA042FAD10F481430046844F0200450
:1054F0000460006800F020000590086840F0040097
:1055000008600868694600F004000590C0208DE836
:1055100029000820CDE903200748FEF79BFBDDE7C3
:105520000048004030380240000402402860024039
:10553000B018002000140140000802402DE9F84F87
:10554000044690F83E009A4616460D46202853D150
:10555000FDB1F6B194F83C0001284DD0012084F84B
:105560003C0000272764222084F83E002763FEF7D2
:1055700077FCA6858146E685A0684FF480584045B3
:1055800001D1206940B12E465FF0000584F83C70DF
:1055900027E00120BDE8F88F0026F7E74B46002200
:1055A00020212046CDF800A001F06BFD08B10320BA
:1055B000F0E726B1A06840451BD038B108E020686C
:1055C0004068C0F3080025F8020B07E0206980B1AD
:1055D0002068406800F07F0006F8010BE08D401E57
:1055E000E085E08D0028D9D1202084F83E000020FD
:1055F000D0E720684068EFE70220CBE790F83E3024
:10560000202B0ED159B152B190F83C30012B08D06B
:10561000012380F83C300023036301F0CBBC012060
:1056200070470220704790F83E30202B0ED159B1C0
:1056300052B190F83C30012B08D0012380F83C3067
:105640000023036301F000BD012070470220704772
:1056500010B53C492DED028B0068884266D13A486E
:1056600001789FED3A8B3B4C532905D0BDEC028B62
:10567000BDE8104004F096BD94ED060B84ED020BDE
:105680004179807941EA002005F0FCFD9FED321B55
:1056900053EC112B05F046FE9FED311B53EC112B03
:1056A00005F040FE41EC100B84ED060B94ED020B6F
:1056B00053EC102B94ED060B51EC100B05F072FF20
:1056C0009FED291B53EC112B05F02AFF08D294ED16
:1056D000040B53EC182B51EC100B05F00FFB18E0EA
:1056E00094ED020B53EC102B94ED060B51EC100BC8
:1056F00005F058FF9FED1E1B53EC112B05F0D6FD56
:105700000BD294ED040B53EC182B51EC100B05F05D
:1057100049FF41EC100B84ED040B2122BDEC028B00
:105720000949BDE810401448FFF768BF1349884293
:1057300005D1BDEC028BBDE81040FDF7E1BFBDEC2B
:10574000028B10BD00480040F0290020000000003E
:105750000080764040020020000000000000003F72
:1057600000000000008066400000000000406F4024
:105770000000000000406FC024070020001401401A
:10578000704700002DE9F843044690F83D001F469D
:1057900016460D4620284CD1C5B1BEB194F83C0048
:1057A000012846D0012084F83C004FF00008C4F8DE
:1057B0004080212084F83D00FEF752FBA6848146FC
:1057C000E684A068B0F5805F03D004E00120BDE866
:1057D000F883206928B12E465FF0000584F83C80EC
:1057E0000EE00026FAE78021204601F04AFCA0B92D
:1057F000AEB116F8010B21684860E08C401EE084D1
:10580000E08C4B464FF0000200970028EBD14FF0A0
:105810004001204601F035FC30B10320D7E735F8D0
:10582000020BC0F30800E6E7202084F83D000020CA
:10583000CDE70220CBE7000002480068C00700D097
:1058400000BEFEE7F0ED00E001684A69D243520570
:105850000FD46FF480624A61002140F8301F20228B
:1058600042738173026942F00402026101730120F4
:1058700070470020704700002DE9F84F0446C06AC9
:105880001E4693460D4621680A6842F480620A600B
:10589000082807D0012805D010F5803F02D0206BE2
:1058A000112804D12068016841F4807101604FF033
:1058B00001195B46002249462046009600F0C6F8D2
:1058C0004FF4007840B120680068C00501D5C4F8E5
:1058D00040800320BDE8F88F2069DFF884A0B0F590
:1058E000804F0FD00620216800EAD51747F0F0005E
:1058F000086133465A460AF10601204600F0DAF8FC
:1059000058BB03E0E8B240F001001CE02168E8B2B7
:10591000086133465A465146204600F0CBF8E0B9BC
:105920002068416981690091016841F480710160DA
:105930005B46002249462046009600F087F8002882
:10594000C1D147F0F1002168086133465A465146FB
:10595000204600F0AFF80028BCD00120BAE70000D4
:1059600002000100F8B50446C06A1E460D461746FF
:10597000082807D0012805D010F5803F02D0206B01
:10598000122804D12068016841F480710160134637
:1059900000224FF001112046009600F057F840B168
:1059A00020680068C00502D54FF400702064032011
:1059B000F8BD2069B0F5804F0ED00620216800EABE
:1059C000D51040F0F000086133463A460B492046B6
:1059D00000F070F878B902E005F0FE0000E0E8B2EF
:1059E00021680861054933463A46891F204600F080
:1059F00061F80028DCD00120F8BD0000080001009B
:105A000070B516460D4604460DE02046FFF71CFF14
:105A100008B1012070BD681C05D0FEF721FA801B7B
:105A2000A84207D835B120684069C0434007ECD48C
:105A3000002070BD002044F8300F20216173A07356
:105A4000216941F0200121612073E2E72DE9F0474F
:105A50001E4690460D460446C1F30747DDF82090E8
:105A600008E0701C06D0FEF7FBF9A0EB0900B0427D
:105A70000FD876B12068012F18D0806925EA000080
:105A80000004000C14D000214145EAD00020BDE8FC
:105A9000F087002044F8300F20216173A073216942
:105AA00041F02001216120730120F0E74069E5E722
:105AB0000121E9E72DE9F0479A4691460E46044652
:105AC00000254FF02008C1F3074725E02068406912
:105AD000C043400514D42068016841F4007101609E
