:020000040800F2
:10000000000002207D660008E9140008EB140008D7
:10001000ED140008EF140008F114000800000000BF
:10002000000000000000000000000000F3140008C1
:10003000F514000800000000F7140008F914000887
:10004000CD660008CD660008CD660008CD660008C4
:10005000CD660008CD660008CD660008CD660008B4
:10006000CD660008CD660008CD660008CD660008A4
:10007000CD660008CD660008CD660008CD66000894
:10008000CD660008CD660008CD660008CD66000884
:10009000CD660008CD660008CD660008CD66000874
:1000A000CD660008CD660008CD660008CD66000864
:1000B000CD660008CD660008CD660008CD66000854
:1000C000CD660008CD660008CD660008CD66000844
:1000D000CD66000801150008CD660008CD66000851
:1000E000CD660008CD660008CD660008CD66000824
:1000F000CD660008CD660008CD660008CD66000814
:10010000CD660008CD660008CD660008CD66000803
:10011000CD660008CD660008CD660008CD660008F3
:10012000CD660008CD66000811150008CD660008F0
:10013000CD660008CD660008CD660008CD660008D3
:10014000CD660008CD660008CD660008CD660008C3
:10015000CD660008CD660008CD660008CD660008B3
:10016000CD660008CD660008CD660008CD660008A3
:10017000CD660008CD660008CD66000800000000CE
:08018000CD660008CD66000801
:1001900010B5054C237833B9044B13B10448AFF3C1
:1001A00000800123237010BD3803002000000000F0
:1001B0000C76000808B5034B1BB103490348AFF3A5
:1001C000008008BD000000003C0300200C76000801
:1001D00001F0FF01102A2BDB10F0070F08D010F8F8
:1001E000013B013A8B422DD010F0070F42B3F6D1FC
:1001F000F0B441EA012141EA014122F007047FF015
:1002000000070023F0E80256083C85EA010586EA6B
:10021000010685FA47F5A3FA87F586FA47F6A5FAA7
:1002200087F68EB9EED1F0BC01F0FF0102F00702B3
:1002300032B110F8013B013A83EA010313B1F8D15E
:100240000020704701387047002D06BF354603383F
:10025000073815F0010F07D1013015F4807F02BF78
:10026000013015F4C03F0130F0BC0138704700BFC9
:1002700081F0004102E000BF83F0004330B54FEA57
:1002800041044FEA430594EA050F08BF90EA020FC4
:100290001FBF54EA000C55EA020C7FEA645C7FEA57
:1002A000655C00F0E2804FEA5454D4EB5555B8BF7A
:1002B0006D420CDD2C4480EA020281EA030382EAEB
:1002C000000083EA010180EA020281EA0303362D7D
:1002D00088BF30BD11F0004F4FEA01314FF4801C50
:1002E0004CEA113102D0404261EB410113F0004F62
:1002F0004FEA03334CEA133302D0524263EB430319
:1003000094EA050F00F0A780A4F10104D5F1200EB6
:100310000DDB02FA0EFC22FA05F2801841F1000111
:1003200003FA0EF2801843FA05F359410EE0A5F1E5
:1003300020050EF1200E012A03FA0EFC28BF4CF016
:10034000020C43FA05F3C01851EBE37101F00045CC
:1003500007D54FF0000EDCF1000C7EEB00006EEBD9
:100360000101B1F5801F1BD3B1F5001F0CD3490863
:100370005FEA30004FEA3C0C04F101044FEA4452BA
:1003800012F5800F80F09A80BCF1004F08BF5FEA41
:10039000500C50F1000041EB045141EA050130BD21
:1003A0005FEA4C0C404141EB0101013C28BFB1F533
:1003B000801FE9D291F0000F04BF01460020B1FA7E
:1003C00081F308BF2033A3F10B03B3F120020CDA51
:1003D0000C3208DD02F1140CC2F10C0201FA0CF02F
:1003E00021FA02F10CE002F11402D8BFC2F1200C94
:1003F00001FA02F120FA0CFCDCBF41EA0C0190404A
:10040000E41AA2BF01EB0451294330BD6FEA040492
:100410001F3C1CDA0C340EDC04F11404C4F120027D
:1004200020FA04F001FA02F340EA030021FA04F38F
:1004300045EA030130BDC4F10C04C4F1200220FAE6
:1004400002F001FA04F340EA0300294630BD21FA24
:1004500004F0294630BD94F0000F83F4801306BFEA
:1004600081F480110134013D4EE77FEA645C18BFDE
:100470007FEA655C29D094EA050F08BF90EA020F75
:1004800005D054EA000C04BF1946104630BD91EA6D
:10049000030F1EBF0021002030BD5FEA545C05D170
:1004A0004000494128BF41F0004130BD14F58004AF
:1004B0003CBF01F5801130BD01F0004545F0FE4123
:1004C00041F470014FF0000030BD7FEA645C1ABF58
:1004D000194610467FEA655C1CBF0B46024650EA8F
:1004E000013406BF52EA033591EA030F41F40021BB
:1004F00030BD00BF90F0000F04BF0021704730B541
:100500004FF4806404F132044FF000054FF0000115
:1005100050E700BF90F0000F04BF0021704730B5D6
:100520004FF4806404F1320410F0004548BF4042AB
:100530004FF000013EE700BF42004FEAE2014FEA00
:1005400031014FEA02701FBF12F07F4393F07F4FDB
:1005500081F06051704732F07F4208BF704793F0DE
:100560007F4F04BF41F40021704730B54FF46074F1
:1005700001F0004521F000411CE700BF50EA0102F4
:1005800008BF704730B54FF000050AE050EA01029D
:1005900008BF704730B511F0004502D5404261EB0D
:1005A00041014FF4806404F132045FEA915C3FF44E
:1005B000D8AE4FF003025FEADC0C18BF03325FEAEB
:1005C000DC0C18BF033202EBDC02C2F1200300FA9C
:1005D00003FC20FA02F001FA03FE40EA0E0021FAC1
:1005E00002F11444BDE600BF70B54FF0FF0C4CF4AF
:1005F000E06C1CEA11541DBF1CEA135594EA0C0F61
:1006000095EA0C0F00F0DEF82C4481EA030621EA9B
:100610004C5123EA4C5350EA013518BF52EA0335D6
:1006200041F4801143F4801338D0A0FB02CE4FF088
:100630000005E1FB02E506F00042E0FB03E54FF0B8
:100640000006E1FB03569CF0000F18BF4EF0010EB0
:10065000A4F1FF04B6F5007F64F5407404D25FEAAC
:100660004E0E6D4146EB060642EAC62141EA55515F
:100670004FEAC52040EA5E504FEACE2EB4F1FD0CA1
:1006800088BFBCF5E06F1ED8BEF1004F08BF5FEA1F
:10069000500E50F1000041EB045170BD06F00046D1
:1006A00046EA010140EA020081EA0301B4EB5C047E
:1006B000C2BFD4EB0C0541EA045170BD41F4801176
:1006C0004FF0000E013C00F3AB8014F1360FDEBF9B
:1006D000002001F0004170BDC4F10004203C35DA77
:1006E0000C341BDC04F11404C4F1200500FA05F3FA
:1006F00020FA04F001FA05F240EA020001F000429B
:1007000021F0004110EBD37021FA04F642EB060110
:100710005EEA430E08BF20EAD37070BDC4F10C043A
:10072000C4F1200500FA04F320FA05F001FA04F2FE
:1007300040EA020001F0004110EBD37041F10001EA
:100740005EEA430E08BF20EAD37070BDC4F12005F5
:1007500000FA05F24EEA020E20FA04F301FA05F25D
:1007600043EA020321FA04F001F0004121FA04F205
:1007700020EA020000EBD3705EEA430E08BF20EAD5
:10078000D37070BD94F0000F0FD101F0004640000F
:1007900041EB010111F4801F08BF013CF7D041EA91
:1007A000060195F0000F18BF704703F00046520095
:1007B00043EB030313F4801F08BF013DF7D043EA66
:1007C0000603704794EA0C0F0CEA135518BF95EA1C
:1007D0000C0F0CD050EA410618BF52EA4306D1D1A3
:1007E00081EA030101F000414FF0000070BD50EAC2
:1007F000410606BF1046194652EA430619D094EA4C
:100800000C0F02D150EA013613D195EA0C0F05D135
:1008100052EA03361CBF104619460AD181EA030189
:1008200001F0004141F0FE4141F470014FF0000041
:1008300070BD41F0FE4141F4780170BD70B54FF0DC
:10084000FF0C4CF4E06C1CEA11541DBF1CEA13555C
:1008500094EA0C0F95EA0C0F00F0A7F8A4EB05043E
:1008600081EA030E52EA03354FEA013100F0888035
:100870004FEA03334FF0805545EA131343EA1263FE
:100880004FEA022245EA111545EA10654FEA0026B3
:100890000EF000419D4208BF964244F1FD0404F56C
:1008A000407402D25B084FEA3202B61A65EB0305C8
:1008B0005B084FEA32024FF480104FF4002CB6EB85
:1008C000020E75EB030E22BFB61A754640EA0C0005
:1008D0005B084FEA3202B6EB020E75EB030E22BF45
:1008E000B61A754640EA5C005B084FEA3202B6EB86
:1008F000020E75EB030E22BFB61A754640EA9C0045
:100900005B084FEA3202B6EB020E75EB030E22BF14
:10091000B61A754640EADC0055EA060E18D04FEAD2
:10092000051545EA16754FEA06164FEAC30343EA72
:1009300052734FEAC2025FEA1C1CC0D111F4801F3F
:100940000BD141EA00014FF000004FF0004CB6E738
:1009500011F4801F04BF01430020B4F1FD0C88BFD7
:10096000BCF5E06F3FF6AFAEB5EB030C04BFB6EBE2
:10097000020C5FEA500C50F1000041EB045170BDD5
:100980000EF0004E4EEA113114EB5C04C2BFD4EB02
:100990000C0541EA045170BD41F480114FF0000E86
:1009A000013C90E645EA060E8DE60CEA135594EA02
:1009B0000C0F08BF95EA0C0F3FF43BAF94EA0C0F05
:1009C0000AD150EA01347FF434AF95EA0C0F7FF47A
:1009D00025AF104619462CE795EA0C0F06D152EACE
:1009E00003353FF4FDAE1046194622E750EA4106B2
:1009F00018BF52EA43067FF4C5AE50EA41047FF4C3
:100A00000DAF52EA43057FF4EBAE12E74FF0FF3C27
:100A100006E000BF4FF0010C02E000BF4FF0010CF8
:100A20004DF804CD4FEA410C7FEA6C5C4FEA430C71
:100A300018BF7FEA6C5C1BD001B050EA410C0CBFC0
:100A400052EA430C91EA030F02BF90EA020F002022
:100A5000704710F1000F91EA030F58BF994208BF89
:100A600090422CBFD8176FEAE37040F00100704746
:100A70004FEA410C7FEA6C5C02D150EA013C07D19D
:100A80004FEA430C7FEA6C5CD6D152EA033CD3D0E8
:100A90005DF8040B704700BF8446104662468C46E2
:100AA0001946634600E000BF01B5FFF7B7FF002815
:100AB00048BF10F1000F01BD4DF808EDFFF7F4FF3E
:100AC0000CBF012000205DF808FB00BF4DF808EDC9
:100AD000FFF7EAFF34BF012000205DF808FB00BFEC
:100AE0004DF808EDFFF7E0FF94BF012000205DF80E
:100AF00008FB00BF4DF808EDFFF7CEFF94BF0120C3
:100B000000205DF808FB00BF4DF808EDFFF7C4FFBB
:100B100034BF012000205DF808FB00BF53B94AB97B
:100B2000002908BF00281CBF4FF0FF314FF0FF30F5
:100B300000F06EB9ADF1080C6DE904CE00F006F8D6
:100B4000DDF804E0DDE9022304B070472DE9F04749
:100B5000089D04468C46002B40F083808A4217464D
:100B600047D9B2FA82F242B1C2F1200024FA00F071
:100B70009140974040EA010C94404FEA1748230CFB
:100B8000BCFBF8F61FFA87FE08FB16C143EA0143D7
:100B900006FB0EF1994209D9FB1806F1FF3080F0EF
:100BA0001981994240F21681023E3B445B1AA4B27D
:100BB000B3FBF8F008FB103344EA034400FB0EFEDD
:100BC000A64509D93C1900F1FF3380F00581A645FF
:100BD00040F2028102383C4440EA0640A4EB0E0495
:100BE00000261DB1D4400023C5E900433146BDE8CD
:100BF000F08702B9FFDEB2FA82F2002A50D1CB1B95
:100C00004FEA174E1FFA87F80126B3FBFEFC210CB2
:100C10000EFB1C3341EA034108FB0CF38B4207D95E
:100C200079180CF1FF3002D28B4200F2E980844641
:100C3000C91AA3B2B1FBFEF00EFB101143EA014446
:100C400008FB00F8A04507D93C1900F1FF3302D298
:100C5000A04500F2D9801846A4EB080440EA0C40F5
:100C6000BFE78B4209D9002D00F0B1800026C5E90D
:100C7000000130463146BDE8F087B3FA83F6002E16
:100C80004AD18B4202D3824200F2B880841A61EBCF
:100C9000030101208C46002DA8D0C5E9004CA5E732
:100CA000C2F1200320FA03F6974001FA02F04FEA5E
:100CB000174ED9403043030CB1FBFEF61FFA87F8FC
:100CC0000EFB161143EA014306FB08F1994204FAB0
:100CD00002F409D9FB1806F1FF3C80F08D8099429F
:100CE00040F28A80023E3B445B1A81B2B3FBFEF0C5
:100CF0000EFB103341EA034100FB08F38B4207D996
:100D0000791800F1FF3C73D28B4271D90238394413
:100D1000CB1A40EA064678E7C6F1200C03FA06F43F
:100D200022FA0CF31C4320FA0CF701FA06F34FEAFF
:100D3000144E21FA0CF11F433B0CB1FBFEF91FFAD4
:100D400084F80EFB191143EA014109FB08FA8A45B0
:100D500002FA06F200FA06F308D9611809F1FF3029
:100D600048D28A4546D9A9F102092144A1EB0A01DA
:100D7000BFB2B1FBFEF00EFB101147EA014700FBCA
:100D800008F8B84507D9E71900F1FF312ED2B84568
:100D90002CD90238274440EA0940A7EB0807A0FBFA
:100DA00002894F45C64649461AD317D05DB1B3EB09
:100DB0000E0267EB010707FA0CFCF2404CEA020254
:100DC000F740C5E9002700263146BDE8F0872E46EA
:100DD00028460BE70646E9E61846FDE64345E5D218
:100DE000B8EB020E69EB04010138DFE70846D2E7F1
:100DF00060468DE78146B9E7664675E730464AE7C3
:100E0000ACF1020C394413E702383C4424E700BF3C
:100E1000704700BF38B52C4C23682C4AC3F85C21BE
:100E2000292283F860212A4D00224FF400512846E0
:100E300003F06AFE142003F099FA01224FF40051E6
:100E4000284603F061FE142003F090FA206800F0B9
:100E5000C3FB206800F03CFE206801F0B7F91D4A92
:100E60001D49206800F016FF1C4A1D49206801F04A
:100E7000D7FA0021206800F0B3FB0122002120688E
:100E800000F0D6FC01221146206800F0D1FC41F6AA
:100E900099120121206800F023FD4FF47012002107
:100EA000206800F01DFD48F2E801206800F0BAFB60
:100EB00012220021206800F0BDFB0E2201212068D3
:100EC00000F0B8FB38BD00BF00000020BC050020CA
:100ED000000C024014050020150500200C05002020
:100EE0001005002010B5064C2146064B186801F08D
:100EF000B2F8054B5881B4F908209A8110BD00BFA3
:100F000060030020000000201006002008B5212208
:100F10000249034805F096FB08BD00BF9805002074
:100F2000380700207047000008B50F4B1B78552B81
:100F30000CD04FF47A7301220B490C4805F06DF880
:100F40000B4AB2F9003001331380EEE7064B46221C
:100F50001A70074AB2F90230013353802122054941
:100F6000024805F06FFB08BD040000203807002090
:100F700010060020980500200268164B9A4200D007
:100F8000704710B5144B1B78532B02D0FFF7CCFFE2
:100F900010BD124AB2F90430013393800E4CA0798F
:100FA000637943EA0020FFF7B5FA00224FF07C5343
:100FB000FFF71AFB00220A4BFFF716FB094BC3E9A8
:100FC0000001094800F030F921222146074805F0C8
:100FD00039FBDDE7001001409805002010060020D5
:100FE000008066409005002018050020380700208A
:100FF00030B58BB0002405940694079408940994A6
:101000000094234B1A6B42F004021A631A6B02F02D
:1010100004020092009A01941A6B42F080021A6353
:101020001A6B02F080020192019A02941A6B42F04C
:1010300008021A631A6B02F008020292029A0394E1
:101040001A6B42F001021A631A6B02F0010203925A
:10105000039A04941A6B42F002021A631B6B03F0AA
:1010600002030493049B0B4D22464FF40051284683
:1010700003F04AFD4FF400530593012306930794B0
:10108000089405A9284603F055FC0BB030BD00BFFD
:1010900000380240000C024000B583B000210191ED
:1010A000094B1A6B42F480021A631B6B03F4800332
:1010B0000193019B0A463A2003F07EF93A2003F09F
:1010C000AFF903B05DF804FB0038024072B6FEE7EA
:1010D00008B50A480A4B03604FF4E133436000232C
:1010E0008360C36003610C2242618361C36104F0C9
:1010F00065FF00B908BDFFF7E9FF00BF3807002012
:101100000010014008B50A480A4B03600A4B4360CF
:1011100000238360C3604FF48042026143618361B6
:10112000C361036203F012FF00B908BDFFF7CEFFF1
:10113000BC05002000540040A086010000B595B019
:101140003022002108A805F0FBFA00230393049342
:101150000593069307930193184A116C41F080514F
:101160001164126C02F080520192019A0293144AA7
:10117000116841F480411160126802F480420292C9
:10118000029A0222089201220B9210220C920E93D4
:1011900008A804F0B3FA68B90F230393002104915F
:1011A00005910691079103A804F0F4FC20B915B04D
:1011B0005DF804FBFFF78AFFFFF788FF0038024065
:1011C0000070004010B503F0A5F8FFF7B7FFFFF778
:1011D0000FFFFFF761FFFFF77BFFFFF793FFFFF7BD
:1011E000A1FE012401E00134E4B214F0800F0ED11D
:1011F000642302226100094804F0B6F90028F2D104
:101200002146074805F0A4FA064BDC81EBE7FFF71F
:101210007DFEFFF7FFFDFFF765FEFCE7BC05002044
:1012200024760008100600202DE9F04F2DED04ABC8
:1012300085B00446407820B905B0BDEC04ABBDE8EC
:10124000F08F03F08DF805466368C31AA2689A42CE
:1012500000F29080236CD3E90089A16C42464B4692
:10126000D1E90001FFF708F806460F46CDE902670D
:10127000D4E9162340464946FEF7FEFFCDE90001BA
:1012800032463B46D4E90C01FFF7AEF9D4E914230A
:10129000FEF7F4FF06460F46C4E9146794F800A071
:1012A000BAF1000F0DD1DDE90023D4E90A01FFF7FF
:1012B0009BF902460B4630463946FEF7DDFFC4E98E
:1012C000140194ED14ABD4E91A6732463B4651EC55
:1012D0001A0BFFF719FC00283AD0C4E91467BAF1D9
:1012E000000F42D0DDE90223D4E90A01FFF77CF9BF
:1012F000CDE90201D4E914ABDDE90023D4E90E0104
:10130000FFF772F902460B4650465946FEF7B4FF06
:10131000DDE90223FEF7B2FF82468B4602460B460A
:1013200030463946FFF7D2FB50B9D4E91867524628
:101330005B4630463946FFF7E7FB08B956465F463D
:10134000636CC3E90067C4E916896560012073E72F
:1013500094ED18BB53EC1B2B51EC1A0BFFF7B6FBAB
:101360000028BCD084ED14BBB9E79FED037B8DED65
:10137000027BBFE700205FE70000000000000000E4
:1013800082B0002100910B4B5A6C42F480425A64A7
:101390005A6C02F480420092009A01911A6C42F059
:1013A00080521A641B6C03F080530193019B02B0BE
:1013B000704700BF0038024030B589B00023039366
:1013C00004930593069307930268144B9A4201D045
:1013D00009B030BD00250195114C236B43F0020389
:1013E0002363236B03F002030193019BC023039348
:1013F000122304930595032306930423079303A95B
:10140000084803F097FA0295236C43F40013236411
:10141000236C03F400130293029BD9E700540040AD
:10142000003802400004024030B589B00023039325
:101430000493059306930793026803F1804303F531
:1014400088339A4201D009B030BD04460025019589
:1014500003F594335A6C42F010025A645A6C02F04D
:1014600010020192019A02951A6B42F001021A636E
:101470001B6B03F001030293029B4FF4C0630393C1
:10148000022304930595032306930723079303A9D7
:10149000124803F04FFA1248124B03604FF00063FA
:1014A00043608560C5604FF4806303614561856179
:1014B000C5610562456203F057F858B9084BA3634C
:1014C0009C6300221146252002F076FF252002F0C1
:1014D000A7FFB8E7FFF7FAFDF0E700BF0000024002
:1014E000D806002040640240FEE7FEE7FEE7FEE784
:1014F000FEE770477047704708B502F025FF08BD4A
:1015000008B5024804F0B2FE08BD00BF380700204D
:1015100008B5024803F020F908BD00BFD806002036
:1015200070B50C4616460025B54207DAAFF30080C9
:10153000214601F8010B01350C46F5E7304670BD38
:1015400070B50C4616460025B54205DA14F8010BB5
:10155000AFF300800135F7E7304670BD4FF0FF3044
:1015600070474FF400534B600020704701207047D4
:101570000020704710B503460C4A0D490D4800681D
:1015800040B10C4800680344521A934206D8094AF5
:10159000136010BD0748084C0460F2E705F098F8A6
:1015A0000C2303604FF0FF30F3E700BF0000022080
:1015B0000004000054030020D0070020034AD2F8A2
:1015C000883043F47003C2F88830704700ED00E0C3
:1015D00008B500F029FF08BD6FF0620070470000F9
:1015E000152907D801228A40054B13402BB10174FD
:1015F000002070476FF0070070476FF007007047DA
:101600000B003000037C0B700020704710B50C46B7
:101610000A46092102F0D6FD18B9237803F0010328
:10162000237010BD08B502F00EF908BD08B502F030
:101630007DF908BD08B501F062FF08BD08B502F0EC
:10164000E2F808BDF0B583B006460C461746002305
:101650008DF807300DF10702012102F0B3FD9DF86E
:101660000730054668BB012F06D0042C38D8DFE8C8
:1016700004F0191C1F222500042C2DD8DFE804F0EB
:101680000306090C0F0043F010041BE043F028048C
:1016900018E043F0040415E043F0400412E043F086
:1016A00080040FE003F0EF040CE003F0D70409E03E
:1016B00003F0FB0406E003F0BF0403E003F07F0443
:1016C00000E01C469C4204D075B10DB986F830414B
:1016D0008DB1284603B0F0BD1C466FF00305F1E75D
:1016E0001C466FF00305EDE722460121304602F06B
:1016F00047FD0546E9E771693046FFF793FFE8E7E4
:101700000020187004291CD8DFE801F003080D122E
:101710001700C2F300121A7000207047C2F3C00213
:101720001A7000207047C2F380021A7000207047C0
:10173000C2F380121A7000207047D2091A7000207C
:1017400070476FF00300704730B583B004460D4614
:1017500000238DF807300DF10702012102F032FD60
:1017600028B160B198B1D0B108B303B030BD2B46F9
:101770009DF8072000212046FFF7C2FFF1E7AB1CD0
:101780009DF8072001212046FFF7BAFFEAE76B1C0E
:101790009DF8072002212046FFF7B2FFE3E7EB1C8C
:1017A0009DF8072003212046FFF7AAFFDCE72B1D49
:1017B0009DF8072004212046FFF7A2FFD5E730B5AA
:1017C00083B005460C460DF10602F82102F02CFD0F
:1017D00058B140B9BDF806301BB1009AB2FBF3F323
:1017E00023602368AB6103B030BD6A4604212846FC
:1017F00002F03CFDEDE7037F0B700020704730B531
:1018000083B004460D460DF10602202102F00CFDC6
:1018100030B9BDF806302BB9236A2B60002323773B
:1018200003B030BDDB002B60236201232377F7E791
:10183000052942D870B505460C4616463AB101F165
:101840000C0300EB83035A680023012102E01146D8
:1018500001230022052C33D8DFE804F00307141815
:101860001C2385F82810002006E0C2F34F224421F3
:10187000284602F095FC20B9D6B92C44002384F800
:10188000283070BD85F82A100020F5E785F82B1068
:101890000020F1E75B00FE226021284602F0ACFC4C
:1018A000E9E71B01EF226021284602F0A5FCE2E7F0
:1018B0002C44012384F82830E3E76FF003007047DD
:1018C0006FF00300DDE7052905D8084490F82830BB
:1018D000137000207047002313706FF003007047EF
:1018E00070B506460C461546431893F828302BB9B8
:1018F0000C3100EB81046260002070BD05291FD807
:10190000DFE801F00306121518187263002006E0E4
:10191000C2F34F22442102F043FC0028EDD10C34E5
:1019200006EB84046560E8E7F2630020F7E73264C1
:101930000020F4E7C2F34F22642102F031FCECE70F
:101940006FF00300D9E7F0B583B006460C461546A4
:1019500005292AD8DFE801F0030B161A1E1E476B73
:101960000023184608B943BB2F6003B0F0BD0DF14A
:101970000602442102F058FCD8B9BDF806707F0277
:101980000123EFE7C76B00231846EBE7076C002342
:101990001846E7E70DF10602642102F045FC034614
:1019A00048B9BDF806707F02DCE700236FF0030042
:1019B000D8E70123D6E70023D4E757B904F10C0395
:1019C00006EB83035B682B603444002384F82830E3
:1019D000CBE72F6004F10C0306EB83035F60344414
:1019E000012384F82830C0E730B583B004460D46A3
:1019F0000DF10702012102F0E5FB034640B99DF815
:101A0000072084F8302112F0800F08D100222A70BC
:101A100013B92A7884F84C20184603B030BD01224F
:101A20002A70F5E72DE9F04107460E46FFF7EAFD7B
:101A3000044660B10CB9002333737CB1ACB1DCB1A6
:101A4000002C38D0002C3DD02046BDE8F08106F1B6
:101A500008013846FFF7B3FE0446EBE706F1100134
:101A60003846FFF7CCFE0446E8E706F11401384695
:101A7000FFF7AEFD0446E2E70025052DE0DC002C73
:101A8000DED11FFA85F805F1080206EB8202043266
:101A900041463846FFF757FF204344B2002CCFD1D0
:101AA00005F11802324441463846FFF70CFF204347
:101AB00044B20135E1E706F13C013846FFF794FFF7
:101AC0000446BFE7311D3846FFF7B0FD0446BBE7CB
:101AD000F0B593B005460022882102F051FB0023A7
:101AE00085F8F0304FF47A72A5F852214FF4C8729D
:101AF000A5F85421654AC5F85821654AC5F8D4208F
:101B00002B6202A92846FFF78DFF044688B90023FF
:101B10008DF808308DF8093005F1100602AF0FCFAF
:101B20000FC60FCF0FC60FCF0FC697E80F0086E87E
:101B30000F006423A5F834314FF46173A5F83631F2
:101B40004FF4FA73A5F838314FF42063A5F83C310F
:101B5000012685F8506132468021284602F010FBAC
:101B6000044364B23246FF21284602F009FB0443D5
:101B700064B200221146284602F002FB044364B21C
:101B80000DF107029121284602F01CFB044364B2C8
:101B90009DF8073085F83A3132460021284602F098
:101BA000EFFA044364B20022FF21284602F0E8FA6B
:101BB000044364B200228021284602F0E1FA204367
:101BC00044B20026052E09DC44B90122B1B22846F0
:101BD000FFF72EFE204344B20136F3E77CB1ACB1EF
:101BE000DCB10CB33CB374B3ACB3E4B3002C41D060
:101BF00014B9002385F81531204613B0F0BD00223A
:101C000002212846FFF714FE0446E8E700220321DC
:101C10002846FFF70DFE0446E2E70022042128468D
:101C2000FFF706FE0446DCE7002205212846FFF701
:101C3000FFFD0446D6E74FF4901200212846FFF737
:101C40004FFE0446CFE74FF4804201212846FFF7BC
:101C500047FE0446C8E74FF40C1202212846FFF75E
:101C60003FFE0446C1E7002203212846FFF738FE65
:101C70000446BBE7FF2285F830210121284602F007
:101C80007FFA0446012385F83231B1E7856B010004
:101C9000A470090008B5012300F01EFE08BD000075
:101CA0002DE9F0418EB005460C460C230AAA1421FA
:101CB00002F04AFA0746002865D10023A375236085
:101CC0009DF832209DF8330000EB022080B2636063
:101CD0009DF82E309DF82F2002EB032292B2520283
:101CE000E2609DF830109DF8313003EB01239BB288
:101CF0005B0223619DF82A109DF82B3003EB012332
:101D00009BB2A3829DF82810B5F8526195F831C1B5
:101D1000B6F57A7F22D000FB06F000F5FA70374E58
:101D200086FB00E6C017C0EBA616B0B2D5F820E0DF
:101D300095F81C80B8F1000F10D01FFA8EFE03FB3F
:101D40000EFE4FEA2E28B2EB2E2F49D0B0B202FB86
:101D500000F0A2EB0808B0FBF8F080B2BCF1000F75
:101D600047D086082681C0B28001E0750DF13700AA
:101D700001900094284602F071F807437FB217B92A
:101D80009DF8373023763FBB03AE05F1500CBCE81D
:101D90000F000FC69CE8070086E807002389ADF80E
:101DA0001430E37D8DF823306389ADF81630636815
:101DB0000493E368069323690793A38AADF8203060
:101DC000237E8DF8243005F1500403AD0FCD0FC4F0
:101DD00095E8070084E8070038460EB0BDE8F081BA
:101DE000BCF1000F02D042F2B820B7E748F6E0207D
:101DF000B4E720810020E075B8E700BFD34D621042
:101E000070B582B0064614461D460DF106020E213D
:101E100002F00AFABDF80610094A02EA41422260BD
:101E200008B102B070BD0DF106020C21304602F07F
:101E3000FBF9BDF80620024B03EA42432B60F0E7B2
:101E40000000FE1F70B582B090F8DA30013BDBB2C3
:101E5000022B03D90025284602B070BD04460E4669
:101E60006B4601AA0121FFF7CBFF0546019BB3F5A5
:101E70007F0F03D8009BB3F57F0FECD9002DEAD17B
:101E80002EB11149204601F0B8FD0546E3E70422D2
:101E9000FF21204602F074F905436DB20022702143
:101EA000204602F06DF905436DB20022FF21204665
:101EB00002F066F905436DB200228021204602F04F
:101EC0005FF905436DB2C6E70001002030B583B06D
:101ED00004460DF10701FFF795FB01228021204602
:101EE00002F04EF90122FF21204602F049F90022BA
:101EF0001146204602F044F994F83A2191212046F7
:101F000002F03EF901220021204602F039F90022B8
:101F1000FF21204602F034F900228021204602F001
:101F20002FF99DF80730012B2BD0032B3AD01BB192
:101F30006FF0070003B030BD01220021204602F0FF
:101F40001FF901228DF806200028F3D100250FE0AB
:101F50000DF106020021204602F034F901359DF80A
:101F6000063013F0010F06D028B9B5F5FA6F02D28A
:101F7000002DF3D0ECE7B5F5FA6FDBD36FF0060078
:101F8000D8E750B102220021204602F0F9F80028DB
:101F9000D0D1042384F83231CCE701212046FFF769
:101FA00051FFEFE750B104220021204602F0E8F88B
:101FB0000028BFD1042384F83231BBE70121204639
:101FC000FFF740FFEFE710B582B004460DF10701BF
:101FD000FFF718FB10B99DF807304BB160B128B975
:101FE0009DF8073013B9032384F8323102B010BDD5
:101FF0002046FFF76BFFF1E7204600F0F8FDEEE723
:1020000070B582B00646002501220B21304602F051
:10201000B7F8044600220B21304602F0B1F8044321
:1020200064B20DF107021321304602F0CBF82043D1
:1020300040B20135EDB29DF8073013F0070F03D021
:10204000022D01D80028DFD0022D01D802B070BDCA
:102050006FF00B00FAE738B504460D460021FFF794
:10206000BFFA10B128B148B138BD2046FFF7ABFF29
:10207000F8E729462046FFF713FEF4E70021204643
:10208000FFF7BEFFF0E770B59DF81060002940F043
:10209000998005461C46142A09D0152A10D0042C14
:1020A00000F28880DFE804F07474747474002EB950
:1020B00010228421284602F063F87AE00122F8E732
:1020C0000122FF2102F05CF8044600221146284656
:1020D00002F056F8044364B20022FF21284602F0C1
:1020E0004FF8044364B201228021284602F048F8E8
:1020F000044364B202228521284602F041F80443D9
:1021000064B20422FF21284602F03AF8044364B284
:102110000022CD21284602F033F8044364B2112294
:10212000CC21284602F02CF8044364B20722FF2198
:10213000284602F025F8044364B20022BE21284656
:1021400002F01EF8044364B20622FF21284602F082
:1021500017F8044364B20922CC21284602F010F893
:10216000044364B20022FF21284602F009F8044328
:1021700064B20122FF21284602F002F8044364B24F
:1021800000221146284601F0FBFF204340B210E038
:1021900022460A2101F0F4FF38B906B11026334671
:1021A000EF228421284602F027F808B985F8DA40A2
:1021B00018B170BD6FF00A00EEE700212846FFF766
:1021C0001FFFF6E76FF00900F3E70000F0B597B0E6
:1021D00007464022002106A804F0B2FA0023ADF819
:1021E00016308DF815308DF81430049301213846DF
:1021F00000F060FD97F8131197F81421012A03D815
:1022000010D092B90C2910D905AA04A9384600F0BB
:1022100085FB044674B997F85031002B50D1D7F89C
:102220004C1108E02029EFD8EBE7384600F0F4F92C
:102230000446EFE75C49002C44D0002C47D0002C2A
:102240004ED024B9BDF816301B01C7F8D430002C8D
:102250005CD0002C60D064B907F1100506AE0FCE3B
:102260000FC50FCE0FC50FCE0FC596E80F0085E83E
:102270000F00002C5DD0002C69D0002C6ED014B95A
:10228000032387F83231002C6FD01CB99DF80F3032
:1022900087F8E830002C70D01CB99DF80F3087F813
:1022A000E030002C71D014B9029BC7F8E430002C48
:1022B00072D014B9029BC7F8DC30204617B0F0BDCD
:1022C0003949B8E7384601F098FB0446B5E70021E4
:1022D000009104230A463846FFF7D5FE0446AEE7D0
:1022E0000122FF21384601F04BFF04460DF1160292
:1022F0008421384601F098FF044364B20022FF2194
:10230000384601F03DFF204344B29AE706A938461B
:10231000FFF788FB04469CE70DF115013846FFF7EF
:1023200075F90446002896D19DF8153087F83131AB
:1023300091E70DF115020121384601F043FF0446F3
:10234000002898D19DF8153087F8303193E70022A6
:1023500011463846FFF776F904468EE7002202213F
:102360003846FFF76FF9044689E70DF10F020021A7
:102370003846FFF763F9044687E70DF10F020121A4
:102380003846FFF75BF9044686E702AA0321384680
:1023900000F09AFF044686E702AA0421384600F0BE
:1023A00093FF044685E700BF0C00002010B582B003
:1023B0000C460DF10702132101F004FF9DF80730D0
:1023C00003F00702226013F0180F01D102B010BD14
:1023D0006FF00500FAE710B582B00C4690F8DA30DD
:1023E000042B0DD00DF10702142101F0EBFE78B99A
:1023F0009DF8073013F0010F0FD00123237007E081
:102400006946FFF7D3FF009B042B03D00023237002
:1024100002B010BD01232370FAE700232370F7E711
:1024200008B500F07BFA08BD10B582B00C460DF17E
:102430000602282101F0F8FE60B9BDF80630C3F3AA
:102440000B03B3F5006F07D3A3F58053FA2202FB09
:1024500003F3236002B010BDFA2203FB02F32360F2
:10246000F8E7F0B44FF0FF341C60D70802F0070C17
:102470003D46002609E044FA0CF4E4B262460BE063
:1024800002EBC5021A60012601358D420CD25EB9FD
:10249000445DBD42EFD00022072AF5D814F0010FA9
:1024A000EED164080132F7E7F0BC70478009044BB5
:1024B00053F820300BB1012070470020704700BF57
:1024C000B8020020B1EBD20F0CD930B4D40802F01E
:1024D0000705012303FA05F2035D134303550020AA
:1024E00030BC70476FF03100704708B50A460623CC
:1024F000B02101F00BFE08BD08B50A460623B02145
:1025000001F022FE08BD2DE9F04F87B00190894609
:1025100000929846109EDDF844B0129FDDF84CA062
:102520000597002506E0224631464046FFF7CAFFE0
:10253000671C0135554512D205AB3A463146009825
:10254000FFF78FFF059CB4F1FF3F10D004EB0B00A9
:10255000FFF7ACFF4845E6D06FF0310000E0002007
:10256000149B1F6030B150B107B0BDE8F08F6FF021
:102570003100F5E741460198FFF7B7FFF3E703A9FC
:102580000198FFF7B9FF0023B342EDD218F803100A
:1025900006AA1A4412F80C2C914201D10133F3E738
:1025A0006FF03100E0E770B588B004460D4690F852
:1025B0003061C022012101F0E3FD034630B15BB17F
:1025C0008BB1BBB1EBB1184608B070BD01A9204674
:1025D000FFF741FD0346F2E70122FF21204601F00B
:1025E000CFFD0346ECE72A46B621204601F01CFE4B
:1025F0000346E6E70022FF21204601F0C1FD034625
:10260000E0E732460121204601F0BAFD03460028EA
:10261000D9D184F83061D6E7F0B589B005460F46C8
:1026200016460122FF2101F0ABFD034658B18BB1E4
:10263000BBB1EBB10023052B20D8E818002480F8AB
:1026400024410133F7E700224F21284601F098FD8D
:102650000346ECE72C224E21284601F091FD03466B
:10266000E6E70022FF21284601F08AFD0346E0E765
:10267000B422B621284601F083FDDBE726BB002407
:1026800007AB049303970294B423019306230093AA
:1026900005F5927305F5957231462846FFF733FF2D
:1026A00030B9012385F8153185F8137185F8146167
:1026B00009B0F0BD013404F1B400FFF7F7FE0028C3
:1026C000DED12B2CF6D9DBE70024F4E710B5044665
:1026D00041F00102002101F053FD10B128B148B1D1
:1026E00010BD204600F083FAF8E700212046FFF7EE
:1026F00087FCF4E700221146204601F041FDEFE798
:102700002DE9F04F83B005460E4690461F469DF8D2
:1027100038A09DF83C904FF0000B8DF807B00122D7
:10272000FF2101F02DFD04465A465946284601F086
:1027300027FD044364B25A46FF21284601F020FDDC
:10274000044364B2A6B3BAF1000F20D1B9F1000F6F
:1027500025D10122FF21284601F012FD044364B275
:1027600001220021284601F00BFD044364B200223F
:10277000FF21284601F004FD20439DF8073003F0B7
:10278000EF030D9A137040B203B0BDE8F08F0C9ABE
:10279000CB21284601F016FD044364B2D6E70DF1C3
:1027A0000702EE21284601F00DFD044364B2D0E794
:1027B000BAF1000F0BD1B9F1000FCAD03B4680220D
:1027C000EE21284601F018FD044364B2C1E74246F9
:1027D000CB21284601F0D4FC044364B2EBE72DE999
:1027E000F04186B004460D46164600228DF81720AB
:1027F0001F4613B190F8308100E09846012211463F
:10280000204601F0BDFC034650B10BB9012E0DD09E
:1028100000222A7003B9BFB9184606B0BDE8F0819E
:1028200040212046FFF752FF0346EEE700220392C5
:10283000012102910DF117030193009513462046E3
:10284000FFF75EFF0346E5E742460121204601F01F
:1028500097FC03460028DFD184F83081DCE72DE9BE
:10286000F04186B004460D4616461F4613B190F857
:10287000308100E0984602220121204601F080FCD0
:10288000034650B10BB9012E0DD000222A7003B9B6
:10289000BFB9184606B0BDE8F08100212046FFF719
:1028A00015FF0346EEE701210391002202920195F4
:1028B0000DF11703009313462046FFF721FF03464F
:1028C000E5E742460121204601F05AFC0346002874
:1028D000DFD184F83081DCE7F8B5044616461D46A2
:1028E00090F8307100232A46FFF779FF034610B1B4
:1028F0004BB11846F8BD00232A4631462046FFF763
:10290000AEFF0346F4E73A460121204601F038FCC9
:1029100003460028EDD184F83071EAE72DE9F04F45
:1029200095B005460C910D920023119310938DF8EC
:102930003D308DF83C30B0F83CA1052B05D8EA18A5
:10294000002182F824110133F7E70122FF212846F4
:1029500001F016FC0446002831D0002C36D0002CA3
:102960003BD0002C40D0002C45D0002C4AD0002C6D
:1029700051D0002C63D000231F460B939846089338
:10298000002C40F01A81BDF83E30534580F015818F
:102990009DF820200B92D5F824011290B5F828213B
:1029A000ADF84C20CDF824A0A3EB0A03002BB8BF50
:1029B0005B420A934FF003084FF0000BC1E0002286
:1029C0004F21284601F0DCFB0446C6E72C224E21AD
:1029D000284601F0D5FB0446C1E70022FF21284626
:1029E00001F0CEFB0446BCE7B422B621284601F034
:1029F000C7FB0446B7E700228021284601F0C0FB50
:102A00000446B2E700230FAA0DF13D012846FFF767
:102A100063FF0446ABE70021119111AB049303233C
:102A200003930291B42301930623009305F5927357
:102A300005F595722846FFF766FD044699E7119F54
:102A40000DF13E012846FFF7AEFD0446002845D1B2
:102A5000BDF83E3053450CD800230B93984608939D
:102A60008EE7EA18002182F824110133052BF8D9EA
:102A700002E00023FAE7013707F1B400FFF716FD83
:102A800008B92B2FF7D911AB0493032303930297B3
:102A9000B42301930623009305F5927305F595720F
:102AA00001212846FFF72FFD044628B100230B9390
:102AB00098460123089363E7119F0DF13E012846D4
:102AC000FFF771FD044670B9BDF83E30534510D88C
:102AD00000230B9398460123089351E700230B939F
:102AE000984608934CE700230B93984601230893DC
:102AF00046E701230B934FF00308089340E7771C48
:102B000049462846FFF7F1FC04463DE012A9284655
:102B1000FFF7EBFC04461298C5F82401BDF84C30D1
:102B2000A5F82831CDF81C804FF0010B07E0D5F84F
:102B300024011290B5F82821ADF84C200A93DDF855
:102B40001C80BBF1000F38D110AB3A46062105F5C9
:102B50009570FFF786FC109EB6F1FF3F2BD03746ED
:102B600006F1B400FFF7A2FC089B984225D108F1BA
:102B70000103079305F59279324606214846FFF78F
:102B8000A1FC04460028BAD05CBB0DF13E012846EA
:102B9000FFF709FD044638BBBDF83E20099BD31A58
:102BA000002BB8BF5B425245C1D90A9A9A42ADD3B5
:102BB0004FF0010BC3E76FF0310474B90C9AC2F8FF
:102BC00000800D990B980870012385F81531137852
:102BD00085F813310B7885F81431204615B0BDE81F
:102BE000F08FDDF81C80E8E7DDF81C80E5E730B504
:102BF00083B0054600248DF807400DF107012846F3
:102C0000FFF7E9FB024668B99DF80730012B09D0B0
:102C10000134B4F5FA6F03D2284601F04FFBECE71C
:102C20006FF00602104603B030BD0130C0B2400064
:102C300000F0FE00704740080138C0B270470246FD
:102C40004FF08043934201D99B08FBE7002001E04D
:102C500040089B0833B1C1189142F9D8521A03EBCE
:102C60005000F6E7704770B582B006460022832117
:102C700001F086FA0446A0B900250DF10702832170
:102C8000304601F09FFA04469DF8073023B918B981
:102C90000135B5F5FA6FF0D3B5F5FA6F01D36FF0E2
:102CA000060401228321304601F06AFA204340B233
:102CB00002B070BD2DE9F04F8DB005460E460023E1
:102CC0000893079390F8F070072F24D14FF0000875
:102CD000C346C246C1464446002C40F0A782072F97
:102CE00000F0A48216F0010F00F06A8217F0010FC5
:102CF00040F0668285F8139185F814A10023052B16
:102D000000F35E820CAA1A4412F8301CEA1882F80A
:102D10002A110133F3E70122802101F031FA044640
:102D20000122FF21284601F02BFA044364B200225D
:102D30001146284601F024FA044364B20622FF211A
:102D4000284601F01DFA044364B20DF12F028321DD
:102D5000284601F037FA044364B29DF82F2042F070
:102D600004028321284601F00BFA044364B20722CF
:102D7000FF21284601F004FA044364B201228121B4
:102D8000284601F0FDF9044364B2284601F096FAA2
:102D9000044364B201228021284601F0F1F9044382
:102DA00064B216F001095BD017F0010F03D04FF0A9
:102DB000000AD14655E06B229421284601F0E0F943
:102DC000044364B22846FFF74EFF044364B20AAAE4
:102DD0009021284601F04AFA044364B20A9BC3F3E7
:102DE0000629C3F3C03A24229421284601F0C8F9E9
:102DF000044364B22846FFF736FF044364B20AAACC
:102E00009021284601F032FA044364B20A9B1A0E5C
:102E10008DF80020C3F307428DF80120C3F3072289
:102E20008DF802208DF8033025229421284601F0E8
:102E3000A7F9044364B22846FFF715FF044364B2C0
:102E40000AAA9021284601F011FA044364B20A9BB1
:102E50001A0E8DF80420C3F307438DF8053000E007
:102E6000CA4616F0020F02D017F0020F0BD016F070
:102E7000040F00F0658117F0040F00F0DC804FF0C4
:102E80000008C3465FE102229421284601F078F948
:102E9000044364B22846FFF7E6FE044364B20DF132
:102EA00027029021284601F08DF9044364B27B2269
:102EB0009421284601F064F9044364B22846FFF7E0
:102EC000D2FE044364B20DF126029021284601F09F
:102ED00079F9044364B277229421284601F050F92D
:102EE000044364B22846FFF7BEFE044364B20AAA54
:102EF0009021284601F0BAF9044364B20A9B5A0EA5
:102F00008DF80820C3F386428DF80920C3F3C6224A
:102F10008DF80A20C3F306128DF80B20DB0003F0B6
:102F200078038DF82F3078229421284601F028F973
:102F3000044364B22846FFF796FE044364B20AAA2B
:102F40009021284601F092F9044364B20A9B9DF84F
:102F50002F2002EB53728DF80C20C3F386528DF8AC
:102F60000D20C3F3C6328DF80E20C3F306228DF870
:102F70000F20C3F346028DF810209B0103F040039D
:102F80008DF82F3079229421284601F0F9F8044376
:102F900064B22846FFF767FE044364B20AAA902190
:102FA000284601F063F9044364B20A9B9DF82F2080
:102FB00002EB93628DF81120C3F3C6428DF8122004
:102FC000C3F306328DF81320C3F346128DF8142094
:102FD0009B0003F07C038DF82F307A229421284641
:102FE00001F0CEF8044364B22846FFF73CFE0443E8
:102FF00064B20AAA9021284601F038F9044364B269
:103000000A9B9DF82F2002EB93728DF81520C3F3D5
:10301000C6528DF81620C3F306428DF81720C3F36D
:1030200046228DF81820C3F386038DF8193000234B
:103030008DF81A301BE77B229421284601F0A0F876
:10304000044364B22846FFF70EFE044364B208AAA4
:103050009021284601F00AF9044364B27C229421AD
:10306000284601F08DF8044364B22846FFF7FBFDC3
:10307000044364B207AA9021284601F0F7F80443FC
:1030800064B273229421284601F07AF8044364B2B2
:103090002846FFF7E8FD044364B20AAA90212846B7
:1030A00001F0E4F8044364B20A9B4FEA03281FFAD4
:1030B00088F874229421284601F062F8044364B22F
:1030C0002846FFF7D0FD044364B20AAA902128469F
:1030D00001F0CCF8044364B29DF82B3043EA0808B1
:1030E00075229421284601F04BF8044364B2284627
:1030F000FFF7B9FD044364B20AAA9021284601F003
:10310000B5F8044364B20A9B4FEA032B1FFA8BFB0A
:1031100076229421284601F033F8044364B228460D
:10312000FFF7A1FD044364B20AAA9021284601F0EA
:103130009DF8044364B29DF82B3043EA0B0B02E088
:103140004FF00008C34600228121284601F018F8FC
:10315000044364B20622FF21284601F011F804431B
:1031600064B20DF12F028321284601F02BF80443AD
:1031700064B29DF82F2002F0FB028321284600F064
:10318000FFFF044364B20122FF21284600F0F8FF4C
:10319000044364B201220021284600F0F1FF0443F9
:1031A00064B20022FF21284600F0EAFF044364B223
:1031B00000228021284600F0E3FF044364B28BE53F
:1031C00016F0020F02D017F0020F1CD016F0040FF9
:1031D00029D017F0040F26D1089BC5F81831079B9A
:1031E000C5F81C314FEA4823C5F82031BBF1000F68
:1031F00017D0ABF5C85B4FF47A7303FB0BF31B09D5
:103200005B421BB20EE09DF8273085F8F1309DF847
:10321000263085F8F23002A905F1F30003F0B0FA88
:10322000D4E70023EB603E4385F8F06020460DB004
:10323000BDE8F08F014800FB01F07047002F3A0015
:1032400070B10138002330F0FF0203D04008013391
:103250009BB2F8E71B029BB253FA80F080B2704732
:1032600000207047C3B2000A03FA00F00130704733
:1032700010B50C461146FFF7DDFF00F5FA7306485E
:10328000A0FB03239809DB094FF47A7101FB043397
:10329000B3FBF0F010BD00BFD34D621010B50C466B
:1032A0001146FFF7C7FF00F5FA70064BA3FB00209D
:1032B000800900FB04F000F5FA70A3FB00308009E0
:1032C00010BD00BFD34D6210F0B585B00446154661
:1032D00000238DF80E30ADF80C30022909D90329EE
:1032E00021D0042942D0002006462860304605B08F
:1032F000F0BD0DF10F021946FEF7A0F9064650B1D8
:103300009DF80E00FFF7AEFF9DF80F2081B220461A
:10331000FFF7C4FFE9E70DF10E024621204600F059
:1033200051FF0646ECE70DF10F020021FEF786F98A
:10333000064608B10020D8E70DF10F020021204613
:10334000FEF77CF9064650B1BDF80C00FFF78AFF86
:103350009DF80F2081B22046FFF7A0FFC5E703AA22
:103360005121204600F060FF0646EDE701A9FEF777
:10337000EBF99DF80730B3B10DF10F0200212046A3
:10338000FEF75CF9064610B10027A6B90CE003AAC7
:103390005121204600F048FF0646BDF80C00FFF71B
:1033A00061FF87B2F1E700270DF10F0201212046EE
:1033B000FEF744F9064646B10021C91B9DF80F20CF
:1033C00089B22046FFF76AFF8FE70DF10A027121EB
:1033D000204600F029FF0646BDF80A00FFF742FF2D
:1033E00081B2EAE7F0B585B004461746022917D93D
:1033F000032936D004297FD101A9FEF7A5F99DF84C
:103400000730002B58D00DF10F0200212046FEF7A7
:1034100015F90546002843D00026002D54D14CE074
:1034200000260DF10F023146FEF708F9054670B986
:103430009DF80F2039462046FFF71AFF83B2B3F5F7
:10344000807F0CD8C6B2013EF6B2A4F8D860E5BBC6
:1034500032464621204600F093FE054635E0FF2621
:10346000F3E70DF10F020021FEF7E8F805469DF89D
:103470000F2039462046FFF7FBFE80B2FFF7E0FE43
:10348000ADF80C00A4F8D8001DB1F5B9C4F8E4708B
:103490001BE002465121204600F082FE0546F4E77B
:1034A00003AA5121204600F0BFFE0546BDF80C00DE
:1034B000FFF7D8FE86B2B0E700260DF10F0201211A
:1034C0002046FEF7BBF8054615B1284605B0F0BD0D
:1034D0009DF80F2039462046FFF7CAFE3044FFF71B
:1034E000AFFE02467121204600F05AFE0546002834
:1034F000EBD1C4F8DC70E8E76FF00305E5E7F0B561
:1035000085B000238DF8033012F0010F40F06F8179
:1035100004460E46154629B90B2A40F26B81122A41
:1035200000F26B81012E0AD0EEBB0C2D0FD00E2DB8
:1035300018D0102D21D0122D2AD0002036E0072DD2
:1035400040F25E810E2DEFD96FF0030012E11822D8
:103550005721204600F014FE08225621204600F094
:103560000FFE23E030225721204600F009FE0822FA
:103570005621204600F004FE18E040225721204644
:1035800000F0FEFD08225621204600F0F9FD0DE076
:1035900050225721204600F0F3FD082256212046F4
:1035A00000F0EEFD02E0012E10D00020002840F0D7
:1035B000DF802846FFF73FFB0746002E00F0CD8056
:1035C000012E00F0F1806FF00300D2E0082D08D04A
:1035D0000A2D35D00C2D62D00E2D00F08F800020EA
:1035E000E4E710224821204600F0CAFD08224721C6
:1035F000204600F0C5FD074602223221204600F099
:10360000BFFD07437FB20C223021204600F0B8FDF9
:1036100007437FB20122FF21204600F0B1FD07439E
:103620007FB230221146204600F0AAFD07437FB248
:103630000022FF21204600F0A3FD384340B2B5E749
:1036400028224821204600F09BFD082247212046E1
:1036500000F096FD074603223221204600F090FD3F
:1036600007437FB209223021204600F089FD07433D
:103670007FB20122FF21204600F082FD07437FB286
:1036800020223021204600F07BFD07437FB200223C
:10369000FF21204600F074FD384340B286E738220F
:1036A0004821204600F06CFD08224721204600F00A
:1036B00067FD074603223221204600F061FD0743E3
:1036C0007FB208223021204600F05AFD07437FB226
:1036D0000122FF21204600F053FD07437FB2202244
:1036E0003021204600F04CFD07437FB20022FF212D
:1036F000204600F045FD384340B257E748221146C6
:10370000204600F03DFD08224721204600F038FD0C
:10371000074603223221204600F032FD07437FB2E4
:1037200007223021204600F02BFD07437FB2012203
:10373000FF21204600F024FD07437FB220223021E4
:10374000204600F01DFD07437FB20022FF212046E6
:1037500000F016FD384340B228E702AA03212046B4
:10376000FFF7B2FD40B168B190B1B8B184F8E8504C
:1037700080B3A0B305B0F0BD01AA02212046FFF737
:10378000A3FDF0E73A465021204600F0F9FCEBE7B4
:10379000029A03212046FFF725FEE6E7019A02215F
:1037A0002046FFF71FFEE1E703AA04212046FFF7AA
:1037B0008BFD18B140B184F8E050D9E73A4670214A
:1037C000204600F0DDFCF5E7039A04212046FFF7D0
:1037D00009FEF0E761692046FDF724FFC9E70123F0
:1037E00000220DF103012046FFF739F8C2E76FF020
:1037F0000300BFE76FF00300BCE76FF00300B9E719
:103800006FF00300B6E730B583B0154631B101293A
:1038100012D06FF00304204603B030BD0DF1070253
:10382000502100F0CFFC0446002CF4D19DF8070095
:10383000FFF7FBF92870EEE70DF10702702100F0A9
:10384000C1FC0446F0E770B584B04FF4FA6301930D
:103850000023009344F61F6399425ED905460C4647
:10386000A1F6363602A9FDF76FFF034618BB9DF897
:1038700008202AB99DF8092012B99DF80A20D2B172
:1038800001AA02212846FFF71FFD0346D8B99DF87B
:1038900008202AB1019A02F24E22964240D9B61A65
:1038A0009DF80A2092B1019A02F2B2225100B6EBC1
:1038B000420F16D9761A33B99DF80B20BAB913B94D
:1038C0009DF80C2002BB184604B070BD9DF809207D
:1038D000002AF0D0019A02F52572964204D9B61A50
:1038E000E9E76FF00303EEE76FF00303EBE76A46E7
:1038F00003212846FFF7E8FC0346009A02F52572EB
:10390000964210D9B61ADAE7A6F2262204212846F2
:10391000FFF768FD03466C61D5E76FF00303D2E75C
:103920006FF00303CFE76FF00303CCE730B587B048
:1039300005460C464FF4FA6302930023019340F6C8
:1039400036330B6004A9FDF7FFFE034668BB9DF804
:1039500010202AB99DF8112012B99DF81220CAB181
:1039600002AA02212846FFF7AFFC034690B99DF852
:1039700010202AB1029A02F24E2122680A442260E3
:103980009DF81220A2B1029A02F2B221226802EB43
:103990004102226013B99DF81320A2B913B99DF812
:1039A0001420EAB90BB922686A61184607B030BD25
:1039B0009DF81120002AEDD0029A02F525712268A7
:1039C0000A442260E6E701AA03212846FFF77CFCAF
:1039D0000346019A02F5257122680A442260DDE758
:1039E00003AA04212846FFF76FFC0346039A02F25C
:1039F000262122680A442260D4E7F0B583B0074646
:103A00000D46002420463CE0AB5CA21C032B44D8AE
:103A1000DFE803F0020B141DA95CE21CAB5C04346C
:103A200003EB0123A7F834312BE0A95CE21CAB5C6B
:103A3000043403EB0123A7F8363122E0A95CE21C31
:103A4000AB5C043403EB0123A7F8383119E0A95C1F
:103A5000E21CAB5C043403EB0123A7F83C3110E01B
:103A6000A95C0234002206E0285D02AE164406F886
:103A7000040C013401329342F6DC01AA384600F00E
:103A800045FB2B5D6BB160B9621CFF2BBCD0042BD6
:103A9000E6D914466FF00300F3E714466FF0030015
:103AA000EFE703B0F0BD70B582B006460D46144690
:103AB000002313600DF10701FDF79DFE48B99DF845
:103AC000073033B1336AAA8A03FB02F380331B0A3F
:103AD000236002B070BD10B582B01446CB6813608D
:103AE00001AAFFF7E0FF18B92368019A1344236085
:103AF00002B010BD2DE9F04186468C46079D08991D
:103B0000099FB0F85401DEF8586106FB00F68036D4
:103B1000360A06FB00F610465AB1540804EB8C2412
:103B2000B4FBF2F000EB400000FB00F000F50040B9
:103B3000000C069A02FB03F404F50044240C04FB79
:103B400004F205F500431B0C0333264CA4FB03438E
:103B50009B08C3EBC303B3F5803F3FD20335214C31
:103B6000A4FB0535AD08C5EBC50505F500452C0CD6
:103B700004FB04F4144404EB5104B4FBF1F4A40377
:103B80007F346408184BA3FB0434A40904FB00F43D
:103B900004F5FA741548A0FB0434A409240104F5C3
:103BA000FA74A0FB0430850906F120008009FFF7B4
:103BB00046F88046B4F57A7F12D30C48A0FB043057
:103BC00006EBD016B6FBF5F0FFF739F8C7F8008022
:103BD000804500D938600020BDE8F081044CC9E779
:103BE0000020F1E7ABAAAAAA09040281D34D621012
:103BF0000000F0FF2DE9F04F8FB005468846069291
:103C00000793036A0D930B694FF47A7404FB03F373
:103C10000893CB6809930CAAFFF75DFF0DAA4146F4
:103C20002846FFF740FF0746DDF8309004FB09F611
:103C300006F50046330C05930D9B04FB03F4B4F525
:103C4000481F01D94FF44814C7BBD5F8DC300A939C
:103C500095F8E0A0524619462846FFF709FB83462F
:103C6000D5F8E4300B9395F8E82019462846FFF77D
:103C7000FFFABAF1080F30D00323834403FB0BF3A0
:103C8000DB0203F5FA736D4AA2FB03139B0940F2B2
:103C9000776A0AFB03FA0AF5FA7AA2FB0A3A4FEAB4
:103CA0009A1A09F180094FEA19290AFB09FB0BF15D
:103CB000800B4FEA1B2B4FEA09230C934FB9059B4E
:103CC0006BB95F4B069A1360C5F840310023079A21
:103CD000136038460FB0BDE8F08F0223CDE7BBF18B
:103CE000000F01D14FF0010B089B1F0C3F04059BF7
:103CF000B7FBF3F7534B9F4200D91F464FF416739F
:103D000003FB07F70BEB4B008000FEF798FF4FEA31
:103D10004009B8F808304C4A02FB03F3360C36046D
:103D2000A6EB440404F5FA74444AA2FB0414A40963
:103D300006F5FA76A2FB0626B6092402B4FBF6F6CF
:103D4000360298F81820002A60D1404CA4FB0334B6
:103D5000A40AC6F5803604FB06F404F50044240CDE
:103D600004F58034640804FB04F4A40B4FF4487099
:103D700000FB04F000F50040000C07F500431B0CAD
:103D800003FB03F300FB0030FEF759FF0004323061
:103D90002F4BA3FB00304009B0FBF9F940F6B533D7
:103DA00041F2883003FB09092A4EA6FB0936760B3F
:103DB000294B994501D94FF470460A9B0B9A13443D
:103DC00003F5FA73DFF87480A8FB03239809DB0975
:103DD00003F5C813B3FBF0F0FEF731FF000200F566
:103DE000FA70A8FB0030800900FB00F006FB06001B
:103DF000FEF725FF4FF47A7303FB00F0BBF1000FD1
:103E000007D00F4B984205D90D4803E04FF480349A
:103E1000ACE70B48069B1860C5F84001079B03936D
:103E2000CDF808A001974FF4487300932346099AF0
:103E30000C992846FFF75EFE07464AE7D34D62100D
:103E4000AE878F02666666009A990600517BC63778
:103E50001F85EB515917B7D10F279F242DE9F04F3C
:103E60008BB0044601921E46DDF854A000238DF865
:103E700027308DF826308DF825308DF82430ADF8B8
:103E800012300393C1F3C30511F0780F11D0052D43
:103E900044D0072D45D00C2D46D00D2D47D00E2DEA
:103EA00048D00F2D02D04FF0000B04E04FF0010B73
:103EB00001E04FF0010B0DF1270200212046FDF734
:103EC00002FD9DF82790B9F1000F03D0002834D0EF
:103ED0004FF00009002851D09DF8257017B1002837
:103EE00053D0002700287AD09DF82480B8F1000F25
:103EF0007FD000287BD1002E77D0019B1A02B2FB25
:103F0000F6F605AA03212046FDF71DFD059B002BB3
:103F10007BD0B3427CD84FF000086AE04FF0010B31
:103F2000C9E74FF0010BC6E74FF0010BC3E74FF0B5
:103F3000010BC0E74FF0010BBDE703AB08AA1499D2
:103F40002046FFF757FE10B9039B149A538110B116
:103F50004FF00009BEE707AA00212046FDF7F3FC59
:103F6000079B2BB1089A934205D34FF00009B1E7A4
:103F70004FF00009AEE74FF00109ABE70DF1250264
:103F800002212046FDF79FFCA6E706AA0221204653
:103F9000FDF7D9FC60B188B1B8B1BDF812305B0251
:103FA000C4F84831069AB2B19A4216D3002799E76D
:103FB0000122FF21204600F0E3F8ECE70DF11202A8
:103FC000B621204600F030F9E6E70022FF21204626
:103FD00000F0D6F8E1E7002784E7012782E709AA85
:103FE00003212046FDF76FFC7EE7002689E74FF0AE
:103FF000000898B9BBF1000F0DD16B1EDBB2022B8C
:1040000027D805238AF8003008E04FF00008F0E7D1
:104010004FF00108EDE7FF238AF800309AF80030EE
:104020000BB9149A53810DF1260201212046FDF7A8
:104030004AFC002843D19DF827300BB94FF0010905
:1040400084F82E90042D2AD09DF82630D3BB01236E
:1040500026E0062D13D0092D11D0082D13D00A2DDE
:1040600011D0012F0FD0042D11D0B8F1010F0ED0B7
:10407000B9F1010F0FD000238AF80030CEE70423F6
:104080008AF80030CAE703238AF80030C6E7022323
:104090008AF80030C2E701238AF80030BEE7012326
:1040A00084F82F309DF8253003B9012784F830704B
:1040B0009DF824300BB94FF0010884F831800BB023
:1040C000BDE8F08F0023EBE700B583B002F10A03EF
:1040D000009393B20A4690F86011D0F85C0101F0A9
:1040E00013F803B05DF804FB10B582B002F10A03C7
:1040F00090F86041009393B20A4644F00101D0F871
:104100005C0101F0BDF802B010BD00003F2B12D8D9
:10411000F8B505460E4611461C460A4F384600F8CB
:10412000016B1A4602F0FEFA621C39462846FFF778
:10413000CBFF18B9F8BD6FF0030070476FF01300A4
:10414000F8E700BF7C07002070B582B00446154632
:104150001E468DF8071001220DF10701FFF7B4FF8D
:1041600038B9324629462046FFF7BEFF20B902B0D3
:1041700070BD6FF01300FAE76FF01300F7E700006F
:1041800008B5064B19705A7002221946FFF79CFFBA
:1041900000B908BD6FF01300FBE700BF7C070020EB
:1041A00008B5074B1970110A59709A700322194605
:1041B000FFF78AFF00B908BD6FF01300FBE700BFEF
:1041C0007C07002030B583B0044615468DF80710F3
:1041D00001220DF10701FFF777FF38B901222946C7
:1041E0002046FFF781FF20B903B030BD6FF0130008
:1041F000FAE76FF01300F7E7F0B583B006460F4615
:1042000015461C460DF10702FFF7DCFF08B103B0AD
:10421000F0BD9DF807202A4022438DF8072039463B
:104220003046FFF7ADFFF2E730B583B004461546E0
:104230008DF8071001220DF10701FFF745FF68B95E
:10424000022209492046FFF74FFF50B906490A7874
:104250004B7803EB02232B8003B030BD6FF01300CB
:10426000FAE76FF01300F7E77C07002030B583B062
:10427000044615468DF8071001220DF10701FFF7DE
:1042800023FF98B904220C492046FFF72DFF80B97F
:1042900009490A784B781B0403EB02638A7803EB25
:1042A0000223CA7813442B6003B030BD6FF01300B3
:1042B000FAE76FF01300F7E77C07002008B502204B
:1042C00000F054F8002008BD10B504460E4B1878D5
:1042D0004FF47A73B3FBF0F30C4A1068B0FBF3F0C1
:1042E00000F0ACF868B90F2C01D901200AE00022D7
:1042F00021464FF0FF3000F05FF8054B1C600020B6
:1043000000E0012010BD00BFC8020020080000200E
:10431000CC02002008B50B4B1A6842F400721A60F8
:104320001A6842F480621A601A6842F480721A6055
:10433000032000F02FF80F20FFF7C6FFFDF720F84D
:10434000002008BD003C0240034A1168034B1B7863
:104350000B441360704700BFBC070020C802002058
:10436000014B1868704700BFBC07002038B50446F1
:10437000FFF7F6FF0546B4F1FF3F02D0044B1B7870
:104380001C44FFF7EDFF401BA042FAD338BD00BF2D
:10439000C8020020074AD36823F4E0631B041B0C07
:1043A000000200F4E060034343F0BF6343F40033D2
:1043B000D360704700ED00E030B4174BDB68C3F307
:1043C0000223C3F10704042C28BF04241D1D062D5D
:1043D00018D9033B4FF0FF3505FA04F421EA040134
:1043E000994005FA03F322EA0303194300280BDB83
:1043F0000901C9B200F1604000F5614080F8001386
:1044000030BC70470023E5E700F00F000901C9B296
:10441000024B1954F4E700BF00ED00E014ED00E09A
:10442000002807DB00F01F02400901239340024AE5
:1044300042F82030704700BF00E100E00138B0F1E1
:10444000807F0AD2064B5860064AF02182F823107A
:104450000020986007221A6070470120704700BF53
:1044600010E000E000ED00E030B405682C6824F4B2
:1044700080242C60046863608368402B05D0036847
:1044800099600368DA6030BC704703689A6003681B
:10449000D960F8E710B40368D9B210390C4AA2FB0E
:1044A000014212090B4CA25CC2655F2909D923F4B1
:1044B0007F7323F0030304338365806D5DF8044B41
:1044C000704723F47F7323F003038365F5E700BF90
:1044D000ABAAAAAA60760008836A826992B9012B06
:1044E0000AD0022B02D00BB100207047C36A13F030
:1044F000807F28D100207047C36AB3F1C07F24D0E9
:1045000000207047B2F5005F09D0022B25D9032B9C
:1045100025D1C36A13F0807F23D100207047032B7D
:1045200003D8DFE803F01404140A00207047C36ABC
:1045300013F0807F0DD100207047C36AB3F1C07FB4
:1045400009D00020704701207047012070470120EA
:1045500070470120704701207047012070470020FC
:10456000704701207047000070B50446FFF7F8FE61
:10457000002C5BD00546022384F83530002384F8F4
:1045800034302268136823F00103136023681A682B
:1045900012F0010F0AD0FFF7E3FE431B052BF5D9FC
:1045A00020236365032084F8350070BD1A68204815
:1045B00010406168A2680A43E1680A4321690A431E
:1045C00061690A43A1690A43E1690A43216A0A430E
:1045D0000243616A04291ED01A602668756925F0B5
:1045E0000705636A1D43042B07D1A36A1D43E36AD1
:1045F0001BB12046FFF770FF90B975612046FFF7A9
:1046000049FFE26D3F2393408360002060650123F2
:1046100084F83530C9E7E16A206B01430A43DBE7E0
:1046200040236365012084F83500BEE70120BCE724
:104630003F8010F038B50446856D90F834000128AD
:104640002BD0012084F8340094F83500C0B2012842
:1046500004D0002384F83430022038BD022084F8CE
:104660003500002060652046FFF7FEFEE26D3F2327
:104670009340AB602268136843F016031360236C09
:1046800023B12268136843F008031360226813689B
:1046900043F0010313600020DFE70220DDE770B57F
:1046A0000446866DFFF75CFE94F83530DBB2022BD2
:1046B00006D080236365002384F83430012070BD68
:1046C00005462268136823F01603136022685369B5
:1046D00023F080035361236CE3B12268136823F055
:1046E000080313602268136823F001031360236832
:1046F0001B6813F0010F11D0FFF732FE431B052B8F
:10470000F5D920236365032084F83500002384F85D
:104710003430D4E7A36C002BDFD1E3E7E26D3F2315
:104720009340B360012384F83530002084F83400CE
:10473000C5E790F83530DBB2022B03D08023436508
:1047400001207047052380F835300268136823F094
:104750000103136000207047F0B583B004460023C6
:104760000193724B1D68724BA3FB0535AD0A876D33
:104770003E68C26D08239340334210D003681A6824
:1047800012F0040F0BD01A6822F004021A60C26DF6
:1047900008239340BB60436D43F001034365E26D22
:1047A00001239340334209D02268526912F0800FEE
:1047B00004D0BB60636D43F002036365E26D0423C4
:1047C0009340334209D02268126812F0020F04D0DD
:1047D000BB60636D43F004036365E26D1023934097
:1047E000334224D02268126812F0080F1FD0BB6039
:1047F00023681A6812F4802F0DD01B6813F4002F61
:1048000004D1236C9BB12046984710E0A36C73B190
:10481000204698470BE01A6812F4807F03D11A688B
:1048200022F008021A60236C0BB120469847E26D13
:1048300020239340334255D02268126812F0100FA3
:1048400050D0BB6094F83530DBB2052B0ED0236816
:104850001A6812F4802F33D01B6813F4002F2AD16A
:10486000636C002B3ED0204698473BE022681368DB
:1048700023F0160313602268536923F08003536109
:10488000236CA3B12268136823F008031360E26D60
:104890003F239340BB60012384F83530002384F824
:1048A0003430236D002B3FD0204698473CE0A36C6A
:1048B000002BE7D1EBE7E36BA3B12046984711E06B
:1048C0001A6812F4807F09D11A6822F010021A6067
:1048D000012384F83530002384F83430E36B0BB1C6
:1048E00020469847636DFBB1636D13F0010F17D03D
:1048F000052384F835302268136823F00103136020
:10490000019B01330193AB4204D823681B6813F069
:10491000010FF5D1012384F83530002384F83430B9
:10492000E36C0BB12046984703B0F0BD08000020AF
:10493000B5814E1B00230F2B00F2DD80F0B482B056
:104940005DE086685F000324BC4026EA0406CC686C
:10495000BC4034438460466826EA02064C68C4F3CF
:1049600000129A403243426057E0DC08083450F8A5
:10497000247003F0070296000F22B24027EA0207D4
:104980000A69B2403A4340F824205AE0072200E086
:104990000022B2403A430234574E46F82420574A88
:1049A0009468EA4324EA05064F6817F4801F01D093
:1049B00045EA0406514CA660E46802EA04064F6822
:1049C00017F4001F01D045EA04064C4CE660646809
:1049D00002EA04064F6817F4003F01D045EA0406D6
:1049E000464C6660246822404E6816F4803F01D031
:1049F00045EA0402414C226001330F2B78D8012292
:104A00009A400C6804EA020532EA0404F4D14C68C6
:104A100004F00304013C012C93D94A6802F003021C
:104A2000032A09D0C4685E000322B24024EA0204CB
:104A30008A68B2402243C2604A6802F00302022A36
:104A400093D004685E000322B24024EA02044A685C
:104A500002F00302B240224302604A6812F4403F6F
:104A6000CAD000220192264A546C44F48044546413
:104A7000526C02F480420192019A9C08A61C1E4AC4
:104A800052F8267003F0030296000F22B24027EA84
:104A900002071C4A90423FF47BAF02F580629042CD
:104AA0001AD002F58062904218D002F580629042DE
:104AB00016D002F58062904214D002F580629042D6
:104AC00012D002F58062904210D002F580629042CE
:104AD0003FF45CAF08225CE701225AE7022258E764
:104AE000032256E7042254E7052252E7062250E744
:104AF00002B0F0BC7047704700380140003C0140F4
:104B000000380240000002400AB181617047090488
:104B10008161704703685A6912F4806F01D10020E7
:104B200070476FF480625A6100230363202280F88B
:104B30003D2080F83E30026C42F00402026480F8AE
:104B40003C30012070472DE9F04107460D46904664
:104B50001E4622E0FFF704FC069BC01AB04200D8B4
:104B6000DEB900233B63202287F83D2087F83E30E2
:104B70003A6C42F020023A6487F83C3001201AE097
:104B80003B689C6925EA0404A4B2B4FA84F464097D
:104B9000A0450FD1B6F1FF3FDCD1C5F30743012B90
:104BA000EED13B685C6925EA0404A4B2B4FA84F44B
:104BB0006409EDE70020BDE8F0812DE9F0410546EC
:104BC0000E46174698463DE01A6842F400721A6095
:104BD0002B686FF480625A6100232B63202285F8D2
:104BE0003D2085F83E302A6C42F004022A6485F8A4
:104BF0003C30012034E0FFF7B3FBA0EB0800B842E3
:104C000000D8FFB900232B63202285F83D2085F8CA
:104C10003E302A6C42F020022A6485F83C300120A4
:104C20001EE02B689C6926EA0404A4B2003C18BF6D
:104C30000124A4B12B685A6912F4806FC4D1B7F172
:104C4000FF3FD8D1C6F30743012BEAD12B685C693B
:104C500026EA0404A4B2003C18BF0124E9E70020BE
:104C6000BDE8F081F0B583B004460D4616461F46F8
:104C7000C36A082B0DD0012B0BD013F5803F08D051
:104C8000036B122B0AD10268136843F4807313601C
:104C900004E02268136843F480731360009733467E
:104CA00000224FF001112046FFF74DFF80B9236924
:104CB000B3F5804F16D1236805F0FE051D613B4614
:104CC000324613492046FFF778FFF8B903B0F0BD2C
:104CD00023681B6813F4807F02D04FF400732364B1
:104CE0000320F3E7EB11226803F0060343F0F0031F
:104CF00013613B46324607492046FFF75EFF18B96D
:104D00002368EDB21D61DAE70120DFE70120DDE76E
:104D100002000100080001002DE9F04184B00446C2
:104D20000D4616461F46C26A01680B6843F480634D
:104D30000B60082A0DD0012A0BD012F5803F08D055
:104D4000036B112B0AD10268136843F4807313605C
:104D500004E02268136843F48073136000973346BD
:104D600000224FF001112046FFF7EDFE98B92369AC
:104D7000B3F5804F19D1236845F00105EDB21D61EF
:104D80003B4632462A492046FFF717FF00284CD100
:104D900004B0BDE8F08123681B6813F4807F02D063
:104DA0004FF4007323640320F2E74FEAE51808F09C
:104DB0000608236848F0F0021A613B4632461D4956
:104DC0002046FFF7FAFE08B10120E1E72368EDB2C3
:104DD0001D613B46324616492046FFF7EEFE08B1FC
:104DE0000120D5E70022039223685969039199694C
:104DF00003910399196841F4807119600097334653
:104E00004FF001112046FFF79EFE20B9226848F0BE
:104E1000F1031361B4E723681B6813F4807F02D0A9
:104E20004FF4007323640320B2E70120B0E700BF12
:104E3000020001000800010070B504460D46164648
:104E400023685B6913F0800F1CD12046FFF762FED8
:104E5000D0B9B5F1FF3FF3D0FFF782FA801BA8422B
:104E600001D8002DECD100232363202284F83D20BB
:104E700084F83E30226C42F02002226484F83C30F8
:104E8000012000E0002070BD0120FCE770B5044661
:104E90000D46164623685B6913F0040F1CD12046AB
:104EA000FFF738FED0B9B5F1FF3FF3D0FFF758FA5E
:104EB000801BA84201D8002DECD1002323632022BF
:104EC00084F83D2084F83E30226C42F020022264B7
:104ED00084F83C30012000E0002070BD0120FCE798
:104EE00070B505460C4616462B68596911F0400FFF
:104EF00029D1596911F0100F15D1FFF731FA801B34
:104F0000A04201D8002CEFD100232B63202285F88A
:104F10003D2085F83E302A6C42F020022A6485F854
:104F20003C30012070BD6FF010025A6100232B63EA
:104F3000202285F83D2085F83E302A6C2A6485F8C9
:104F40003C300120EEE70020ECE70000002800F0F4
:104F5000CC80F8B5044690F83D30002B77D0242360
:104F600084F83D302268136823F00103136022683F
:104F7000136843F4004313602268136823F400436A
:104F8000136000F0BDFE62685A4B9A4264D85A4BD7
:104F900098428CBF00230123002B40F0A880574D7E
:104FA000A5FB0035AF0C2668716821F03F0141EA8E
:104FB0009541716021680B6A23F03F0365684D4A93
:104FC00095424FD87A1C13430B622568E96921F496
:104FD0004F4121F0FF016368464A93424CD80138A3
:104FE0005B00B0FBF3F0013040F6FC73184278D060
:104FF000C0F30B030B43EB6121680B6823F0C00384
:10500000E269206A024313430B6021688B6823F432
:10501000034323F0FF032269E068024313438B60DC
:105020002168CB6823F0FF036269A0690243134340
:10503000CB602268136843F00103136000202064F2
:10504000202384F83D30206384F83E00F8BD80F8CA
:105050003C30FCF7B1F982E7294B98428CBF002322
:10506000012399E74FF4967202FB07F2254DA5FB49
:10507000025292090132A6E7A268BAB9461E03EBB2
:105080004307B6FBF7F60136C6F30B06B6FA86F60B
:10509000760946BBC2B9421E03EB4303B2FBF3F2EF
:1050A0000132C2F30B0242F40043A3E7461E03EBB6
:1050B000830707EB8707B6FBF7F60136C6F30B0647
:1050C000B6FA86F67609E4E7421E03EB830303EBA8
:1050D0008303B2FBF3F20132C2F30B0242F440430A
:1050E00088E7042386E7012384E701207047012035
:1050F000ACE700BFA08601007F841E0083DE1B4357
:10510000FF083D00D34D62102DE9F04385B0044601
:105110000F46914698460C9EFFF722F9054694F8F3
:105120003D00C0B2202804D00227384605B0BDE8B3
:10513000F0830095192301224F492046FFF703FD14
:10514000002840F0928094F83C30012B00F08F80D2
:10515000012384F83C3023681A6812F0010F03D150
:105160001A6842F001021A602268136823F400638F
:105170001360212384F83D30102384F83E3000234F
:105180002364C4F82490A4F82A80638D23853B4BC4
:10519000E3622B46324639462046FFF763FD074659
:1051A000002866D10023039323685A6903929B6900
:1051B0000393039B11E0236C042B01D00127B4E778
:1051C0002268136843F400731360F7E72A463146F8
:1051D0002046FFF75BFE00282ED1238D002B36D012
:1051E0002A4631462046FFF727FE0028E3D1626AAF
:1051F000236812781A61616A4B1C6362638D9BB2EB
:10520000013B9BB26385238D013B9BB223852268C2
:10521000506910F0040FD9D0002BD7D04B78136110
:10522000636A01336362638D9BB2013B9BB263850A
:10523000238D013B2385C9E7236C042B01D0012773
:1052400073E72268136843F400731360F7E722687A
:10525000136843F400731360202384F83D30002367
:1052600084F83E3084F83C305FE702275DE7022790
:105270005BE7012759E700BF020010000000FFFFB5
:105280002DE9F04387B004460F46914698460E9E9E
:10529000FFF766F8054694F83D00C0B2202804D018
:1052A0000227384607B0BDE8F08300951923012294
:1052B0009E492046FFF747FC002840F0468194F8BD
:1052C0003C30012B00F04381012384F83C302368FB
:1052D0001A6812F0010F03D11A6842F001021A6035
:1052E0002268136823F400631360222384F83D309E
:1052F000102384F83E3000232364C4F82490A4F8DB
:105300002A80638D23858A4BE3622B4632463946D9
:105310002046FFF701FD0746002840F01A81238D43
:105320005BB9029323685A6902929A690292029ABF
:105330001A6842F400721A609DE0012B0FD0022B14
:105340001FD02268136843F4806313600023059321
:1053500023685A6905929B690593059B8BE0226837
:10536000136823F4806313600023039323685A694E
:1053700003929A690392039A1A6842F400721A60BF
:1053800079E02268136823F480631360226813684D
:1053900043F4006313600023049323685A69049262
:1053A0009B690493049B66E02A4631462046FFF73A
:1053B00097FD002840F0CF8023681A69636A1A704D
:1053C000636A01336362238D013B2385638D9BB246
:1053D000013B9BB263854EE0009533460022554960
:1053E0002046FFF7B0FB002840F0B7802268136822
:1053F00043F40073136023681A69636A1A70626A5F
:10540000531C6362238D013B2385638D9BB2013B5B
:105410009BB2638523681B695370636A01336362BF
:10542000238D013B2385638D9BB2013B9BB263853A
:1054300021E02268136843F40073136023681A693B
:10544000636A1A70626A531C6362238D013B238571
:10545000638D9BB2013B9BB2638523681B695370CC
:10546000636A01336362238D013B2385638D9BB2A5
:10547000013B9BB26385238D002B5DD0032B2BD882
:10548000012B91D0022BA7D0009533460022294949
:105490002046FFF758FB002861D12268136823F4E7
:1054A0008063136023681A69636A1A70636A013340
:1054B0006362238D013B2385638D9BB2013B9BB2CD
:1054C00063850095334600221A492046FFF73BFBCF
:1054D0000028AED00127E4E62A4631462046FFF7F1
:1054E000FFFC00283DD123681A69636A1A70626A5A
:1054F000531C6362238D013B2385638D9BB2013B6B
:105500009BB263852368596911F0040FB3D01B69FE
:105510005370636A01336362238D013B2385638D7E
:105520009BB2013B9BB26385A5E700BF0200100060
:105530000000FFFF04000100202384F83D30002319
:1055400084F83E3084F83C30ABE60227A9E6022717
:10555000A7E60127A5E60127A3E60127A1E6012783
:105560009FE601279DE600BF2DE9F04784B0054680
:10557000894692461E46FEF7F3FE95F83D30DBB2B3
:10558000202B03D0022004B0BDE8F087074600902E
:105590001923012257492846FFF7D5FA002840F081
:1055A000A08095F83C30012B00F09D80012385F808
:1055B0003C302B681A6812F0010F03D11A6842F0D0
:1055C00001021A602A68136823F40063136024231D
:1055D00085F83D3000232B64474AEA6298463FE055
:1055E0002B681B6813F4807F02D04FF400732B6488
:1055F0000320C8E7A02385F83D302A685369C3F328
:1056000040035269C2F3802295F83D40E4B2A02CD9
:1056100009D043B93AB9FEF7A3FEC01BB042E9D89E
:10562000002EEAD1E6E7202385F83D302B685A6941
:1056300012F0020F32D11A6842F400721A602B681D
:105640006FF480625A610097192301222949284684
:10565000FFF779FA00284AD108F10108D04538D27D
:105660002A68136843F4807313600097334600225E
:105670004FF001112846FFF766FA0028B0D12B68D9
:1056800009F0FE021A61FEF76BFE07462A685369AD
:10569000C3F340035269C2F38022B5E71A6842F4AB
:1056A00000721A60002303932B685A6903929B6966
:1056B0000393039B0097192301220E492846FFF705
:1056C00042FA90B9202385F83D30002385F83C301C
:1056D00059E7202385F83D30002385F83C30012030
:1056E00051E702204FE702204DE701204BE7012060
:1056F00049E700BF020010000000FFFF002800F093
:10570000DF8170B582B00446036813F0010F3BD00F
:10571000A64B9B6803F00C03042B2CD0A34B9B6877
:1057200003F00C03082B21D06368B3F5803F4FD002
:10573000B3F5A02F52D09D4B1A6822F480321A6024
:105740001A6822F480221A606368002B50D0FEF79A
:1057500007FE0546954B1B6813F4003F14D1FEF776
:10576000FFFD401B6428F5D90320B0E18F4B5B6837
:1057700013F4800FD8D08D4B1B6813F4003F03D077
:105780006368002B00F09E81236813F0020F54D051
:10579000864B9B6813F00C0F3ED0844B9B6803F044
:1057A0000C03082B33D0E368002B67D0804B012219
:1057B0001A60FEF7D5FD05467C4B1B6813F0020FFF
:1057C00053D1FEF7CDFD401B0228F5D903207EE121
:1057D000764A136843F480331360B5E7734B1A6855
:1057E00042F480221A601A6842F480321A60ABE7F1
:1057F000FEF7B6FD05466D4B1B6813F4003FC3D0A2
:10580000FEF7AEFD401B6428F5D903205FE1674B2E
:105810005B6813F4800FC6D1644B1B6813F0020F52
:1058200003D0E368012B40F04F81604A136823F0F6
:10583000F803216943EAC1031360236813F0080FDA
:1058400040D0636963B35B4B01221A60FEF788FDA9
:105850000546564B5B6F13F0020F33D1FEF780FD08
:10586000401B0228F5D9032031E1504A136823F088
:10587000F803216943EAC1031360DEE74C4B0022C1
:105880001A60FEF76DFD0546484B1B6813F0020FCA
:10589000D3D0FEF765FD401B0228F5D9032016E1A1
:1058A000444B00221A60FEF75BFD05463F4B5B6FE1
:1058B00013F0020F06D0FEF753FD401B0228F5D966
:1058C000032004E1236813F0040F78D0374B1B6CDE
:1058D00013F0805F0DD100230193344B1A6C42F01A
:1058E00080521A641B6C03F080530193019B0125C5
:1058F00000E00025304B1B6813F4807F21D0A368A3
:10590000012B32D0052B36D0284B1A6F22F0010222
:105910001A671A6F22F004021A67A368002B34D0AA
:10592000FEF71EFD0646214B1B6F13F0020F45D1FB
:10593000FEF716FD801B41F288339842F3D903200D
:10594000C5E01D4A136843F480731360FEF708FD39
:105950000646194B1B6813F4807FD0D1FEF700FD7B
:10596000801B0228F5D90320B1E0104A136F43F0E1
:1059700001031367D1E70D4B1A6F42F004021A6757
:105980001A6F42F001021A67C7E7FEF7E9FC064604
:10599000064B1B6F13F0020F10D0FEF7E1FC801BCB
:1059A00041F288339842F3D9032090E00038024056
:1059B00000004742800E474200700040EDB9A369E5
:1059C000002B00F08380494A926802F00C02082AFA
:1059D00051D0022B17D0464B00221A60FEF7C0FCB4
:1059E0000446424B1B6813F0007F42D0FEF7B8FC20
:1059F000001B0228F5D9032069E03C4A136C23F010
:105A000080531364DBE73A4B00221A60FEF7A8FCD0
:105A10000546364B1B6813F0007F06D0FEF7A0FC4E
:105A2000401B0228F5D9032051E0E369226A1343A1
:105A3000626A43EA8213A26A5208013A43EA0243C5
:105A4000E26A43EA0263294A5360294B01221A6041
:105A5000FEF786FC0446254B1B6813F0007F06D139
:105A6000FEF77EFC001B0228F5D903202FE0002062
:105A70002DE000202BE0012B2BD01C4B5B6803F4A6
:105A80008001E269914226D103F03F02216A8A42F5
:105A900023D1616A47F6C0721A40B2EB811F1ED152
:105AA00003F44031A26A5208013AB1EB024F18D117
:105AB00003F07063E26AB3EB026F14D1002006E0DA
:105AC00001207047012002E0012000E0002002B028
:105AD00070BD0120FBE70120F9E70120F7E7012075
