:020000040800F2
:10000000F01600207102000847310008C32A0008DA
:1000100045310008350B00083138000800000000A9
:100020000000000000000000000000004B3100084C
:10003000E90B000800000000493100084D310008BC
:100040008B0200088B0200088B0200088B0200085C
:100050008B0200088B0200088B0200088B0200084C
:100060008B0200088B0200088B0200088B0200083C
:10007000390B00088B0200088B0200088B02000875
:100080008B0200088B0200089D0500088B02000807
:100090008B0200088B0200088B0200088B0200080C
:1000A0008B0200088B0200088B0200088B020008FC
:1000B0008B0200088B0200088B0200088B020008EC
:1000C0008B0200088B0200088B0200088B020008DC
:1000D0008B0200088B0200088B0200088B020008CC
:1000E0008B0200088B0200088B0200088B020008BC
:1000F0008B0200088B0200088B0200088B020008AC
:100100008B0200088B0200088B0200088B0200089B
:100110008B0200088B0200088B0200088B0200088B
:100120008B0200088B0200088B0200088B0200087B
:100130008B0200088B0200088B0200088B0200086B
:100140008B0200088B0200088B0200088B0200085B
:100150008B0200088B0200088B0200088B0200084B
:100160008B0200088B0200088B0200088B0200083B
:100170008B0200088B0200088B02000800000000C0
:100180008B0200088B02000800F002F800F060F813
:100190000AA090E8000C82448344AAF10107DA45E2
:1001A00001D100F055F8AFF2090EBAE80F0013F0D4
:1001B000010F18BFFB1A43F00103184798650000B0
:1001C000B865000010F8013B0A4413F0030408BFAF
:1001D00010F8014B1D1108BF10F8015B641E05D01B
:1001E00010F8016B641E01F8016BF9D1002D15D0D8
:1001F00010F8014B03F00C030C2BA1EB04040ABF15
:1002000010F8013BA4EB8314A4EB032405F10103D4
:1002100014F8016B5B1E01F8016BF9D5914238BFF0
:1002200010F8013BD1D3704700230024002500269D
:10023000103A28BF78C1FBD8520728BF30C148BF49
:100240000B6070471FB506F06FFA1FBD10B510BDEB
:1002500000F06AF91146FFF7F5FF05F09FFD00F089
:1002600088F903B4FFF7F2FF03BC00F08FF9000038
:100270000948804709480047FEE7FEE7FEE7FEE73A
:10028000FEE7FEE7FEE7FEE7FEE7FEE70448054976
:10029000054A064B70470000E53100088901000857
:1002A000F0100020F0160020F0120020F0120020C4
:1002B00053EA020C00F069802DE9F04B4FF0000684
:1002C000002B1FBFB3FA83F503FA05F424FA05F6F1
:1002D0005E4012BF1643B2FA82F502FA05F4C5F188
:1002E00020051EBF22FA05FC44EA0C04203556EA1C
:1002F000044C4FEA144418BF641C4FF000084FF040
:100300000009904271EB030C39D3002919BFB1FAEF
:1003100081F701FA07F6B0FA80F700FA07F6C7F19D
:1003200020071EBF20FA07FC46EA0C062037B6FB62
:10033000F4FCA7EB0507103F07F01F0BCBF12006DD
:100340000CFA0BFB2CFA06F644BFB3460026202F0E
:10035000A4BF5E464FF0000B5BEA060C08BF4FF0EF
:10036000010B19EB0B09ABFB027C48EB0608C01B29
:1003700006FB02CC0BFB03CC71EB0C01C1E70B4677
:10038000024641464846BDE8F08B13B54FF00000E9
:100390004FF00001AFF30080BDE81C40704740EA19
:1003A0000103024630B59B0710D14FF0013400E045
:1003B00008C208C91D1B9D4315EAC41FF8D013F0DD
:1003C000FF0102F8011B0DD01B0AF8E711F8013BF1
:1003D000002B02F8013B05D011F8013B002B02F87D
:1003E000013BF3D130BD032A40F2308010F0030C02
:1003F00000F0158011F8013BBCF1020F624498BF78
:1004000011F801CB00F8013B38BF11F8013BA2F114
:10041000040298BF00F801CB38BF00F8013B11F08F
:10042000030300F02580083AC0F0088051F8043B2F
:10043000083A51F804CBA0E80810F5E7121D5CBF9C
:1004400051F8043B40F8043BAFF30080D20724BFCF
:1004500011F8013B11F801CB48BF11F8012B24BF63
:1004600000F8013B00F801CB48BF00F8012B7047B2
:1004700010B5203AC0F00B80B1E81850203AA0E83F
:100480001850B1E81850A0E81850BFF4F5AF5FEA73
:10049000027C24BFB1E81850A0E8185044BF18C926
:1004A00018C0BDE810405FEA827C24BF51F8043BCD
:1004B00040F8043B08BF7047D20728BF31F8023B21
:1004C00048BF11F8012B28BF20F8023B48BF00F8B5
:1004D000012B70474FF0000200B513469446964634
:1004E000203922BFA0E80C50A0E80C50B1F1200147
:1004F000BFF4F7AF090728BFA0E80C5048BF0CC0F5
:100500005DF804EB890028BF40F8042B08BF704752
:1005100048BF20F8022B11F0804F18BF00F8012BC4
:100520007047704770477047754600F02BF8AE462D
:1005300005006946534620F00700854618B020B5EF
:10054000FFF7A4FEBDE820404FF000064FF0000783
:100550004FF000084FF0000B21F00701AC46ACE86B
:10056000C009ACE8C009ACE8C009ACE8C0098D46D8
:10057000704710B50446AFF300802046BDE8104038
:10058000FFF76FBE00487047901000200149182007
:10059000ABBEFEE72600020070470000014800F0F5
:1005A000E1BB00002C030020464910B54A6822F444
:1005B00040324A604A6843681A434A6001684A68A0
:1005C00022F480724A6001684A68036942EA0322A1
:1005D0004A6001684A6822F040724A6001684A68CD
:1005E00083681A434A6001688A6822F400628A605C
:1005F00001688A68C3681A438A60816A6FF0706212
:10060000D14201688A6822F070628A6001688A6853
:100610000CD0836A1A438A6001688A6822F04052CB
:100620008A6001688A68C36A1A4301E022F0405276
:100630008A6001688A6822F002028A6001688A681A
:10064000037E42EA43028A6090F820100029016884
:100650004A680FD042F400624A6001684A6822F496
:1006600060424A6001684A68174C436A04EB4333AE
:100670001A4301E022F400624A600168CA6A22F467
:100680007002CA620168CA6A838B104C04EB035380
:100690001A43CA6201688A6822F400728A6001689B
:1006A0008A6890F8303042EA43228A6001688A689A
:1006B00022F480628A6001688A68406942EA802088
:1006C000886010BD0023014000E0FFFF0000F0FF44
:1006D00003480068406A034900B208807047000080
:1006E000C80300201000002003480068406A034946
:1006F00000B208807047000058040020100000205D
:1007000010B53C21044801F0F3FEBDE810403C2147
:10071000024801F0EDBE0000C8030020580400208C
:1007200010B5094800F01BFB0849084A0860002181
:1007300012F1040232F81130834201D9C8B210BD5F
:10074000491C0529F6DB10BD2C03002014000020F5
:10075000014800F001BC00002C03002070B5274DBB
:10076000044655F8240003F0E4FE55F8240003F095
:10077000C5F855F8240003F00DFE214A55F8240071
:10078000511E03F081FB1E4A55F82400921E111DD4
:1007900003F07DFB55F82400002103F01FFC55F801
:1007A00024000122002103F0C7FC012255F8240097
:1007B000114603F0C1FC55F8240041F699120121BD
:1007C00003F0FBFC55F824004FF47012002103F0F5
:1007D000F4FC55F8240044F6206103F016FD55F8AA
:1007E00024001222002103F069FD55F82400BDE821
:1007F00070400E22012103F061BD000014100020A2
:100800002600002010B50E4CA4F60821206803F045
:1008100051FBA4F6EC11606803F04CFBA4F51D61DC
:10082000A06803F047FBA4F6B411E06803F042FBB4
:10083000A4F698112069BDE8104003F03BBB00000E
:10084000141000202DE9F047524C4FF032080022DE
:100850000821204600F082FEDFF83C910022402172
:10086000484600F07BFE00221021484600F076FE4C
:1008700000220421484600F071FE00220121484672
:1008800000F06CFE404600F05FFD0122082120468A
:1008900000F064FE404600F057FD4048404E00F531
:1008A0001664404D20605227C0F85C6180F860718A
:1008B000297803F08FFB2168287881F860010020F7
:1008C000FFF74CFF01224021484600F047FE40461A
:1008D00000F03AFDA4F5FA606060C0F85C6180F851
:1008E0006071697803F076FB6168687881F860016F
:1008F0000120FFF733FF01221021484600F02EFEB1
:10090000404600F021FDA4F5C860A060C0F85C611D
:1009100080F86071A97803F05DFBA168A87881F880
:1009200060010220FFF71AFF01220421484600F06F
:1009300015FE404600F008FDA4F59660E060C0F8A2
:100940005C6180F86071E97803F044FBE168E87865
:1009500081F860010320FFF701FF0122114648469C
:1009600000F0FCFD404600F0EFFCA4F5487020616B
:10097000C0F85C6180F86071297903F02BFB216974
:10098000287981F860010420FFF7E8FE0120BDE826
:10099000F087000000040240000C0240B406002072
:1009A000740300202C000020074810B590ED040BC4
:1009B00053EC102B90ED060B51EC100B05F0CAFD1B
:1009C00041EC100B10BD0000400000202122024924
:1009D000024801F0D9BF00002C100020A004002024
:1009E0002DE9F0411E4C051E1E4EB4F90000DFF843
:1009F00078804FF0640710DDC2B28021404600F0DD
:100A0000ADFD208838B100222021404600F0A6FD2F
:100A10006068684310E00122F6E715DA90B1002221
:100A20008021404600F09AFD22782021404600F0C7
:100A300095FD606869424843B0FBF7F03168486350
:100A4000BDE8F0810122EBE700228021404600F062
:100A500085FD00222021404600F080FD0020EDE7CA
:100A60003400002010040020000C02402DE9F04169
:100A70001E4C051E1E4EB4F90000DFF878804FF0C2
:100A8000640710DDC2B20821404600F067FD2088EF
:100A900038B100220221404600F060FD60686843E2
:100AA00010E00122F6E715DA90B100220821404655
:100AB00000F054FD22780221404600F04FFD6068AE
:100AC00069424843B0FBF7F031688863BDE8F081C4
:100AD0000122EBE700220821404600F03FFD002202
:100AE0000221404600F03AFD0020EDE734000020EE
:100AF00010040020000C024010B50B4801F090FBE0
:100B00000021094801F0F8FD0421074801F0F4FD37
:100B100001221103054800F021FD0349044809683A
:100B20004068C86210BD00001004002000080240A8
:100B300034000020FEE70000014800F093BA0000F6
:100B4000AC05002001681823CAB2103AB2FBF3F2D8
:100B5000054B6FF30901032A9B5CC36500D9091D8E
:100B600081650846704700003267000810B50146ED
:100B700000208B698A6A4FF0C07453B1B3F5005FEF
:100B800015D072B1012A0CD0022A0AD0032A09D149
:100B900004E01AB1012A06D0022A03D1C96AC901A8
:100BA00000D5012010BDC96AA142FAD010BD002AAB
:100BB000F7D0012AF2D0022AF3D0032AF3D010BDD5
:100BC00030B50468256825F48025256004686360D5
:100BD0008368402B036803D099600068C26030BD11
:100BE0009A600068C16030BD704772B6FEE770471A
:100BF00078B50024009490F83C20012A19D00122F5
:100C000080F83C200A6807230568092A13D9EE6892
:100C10000A3A02EB420293409E43EE600B788A68E8
:100C20000A3B03EB43039A400368DD682A43DA601A
:100C300010E0022078BD2E6902EB420293409E43F1
:100C40002E610B788A6803EB43039A4003681D69A1
:100C50002A431A614A681F23072A13D205686E6B5C
:100C6000521E02EB820293409E436E630B790A8808
:100C70005B1E92B203EB83039A4003685D6B2A43C9
:100C80005A6327E005680D2A12D22E6BD21F02EBA1
:100C9000820293409E432E630B790A88DB1F92B237
:100CA00003EB83039A4003681D6B2A431A6311E028
:100CB000EE6A0D3A02EB820293409E43EE620B799C
:100CC0000A880D3B92B203EB83039A400368DD6A06
:100CD0002A43DA62164B0568144A9D4206D10D6814
:100CE000122D03D1556845F48005556005689D4275
:100CF00018D10B68102B01D0112B13D1536843F47A
:100D000000035360096810290CD10A490A4A09688E
:100D1000B1FBF2F101EB8101490000E0491E0091B5
:100D20000029FBD180F83C40002078BD0023014021
:100D3000002001402803002040420F0010B5054963
:100D400000680968884204D1024800F008F80249A6
:100D5000086010BD2C0300201400002070470068BC
:100D6000C06C704770B5044600680668456816F0A8
:100D7000020F05F020012AD049B3216CC90603D423
:100D8000216C41F400712164816811F0405F17D13A
:100D9000217EA9B9C16A11F4700F02D0816849059A
:100DA0000ED4416821F020014160206C20F4807055
:100DB0002064206CC00403D4206C40F00100206447
:100DC0002046FFF7BBFF21686FF01200086016F0A5
:100DD000040F05F0800132D089B3206CC00603D423
:100DE000206C40F4005020642068816811F4401F9A
:100DF0001ED1816B11F4401F02D08168490517D4C0
:100E00004168490514D4816811F0405F10D1217EFA
:100E100071B9416821F080014160206C20F480505C
:100E20002064206CC00503D4206C40F001002064D5
:100E30002046FFF7DCFE21686FF00C00086016F01A
:100E4000010F05F040010FD071B120680068C007A4
:100E50000AD0206C40F480302064204600F043F833
:100E600021686FF00100086016F0200F05F0806126
:100E70000ED000290CD0606C40F002006064206845
:100E80006FF0200505602046FFF768FF20680560C9
:100E900070BD70B504004FF0000503D0206C002633
:100EA00010B107E0012070BD204600F01DF8666417
:100EB00084F83C60206CC00610D4206C20F488506C
:100EC00040F0020020642046FFF76EFB6664206C51
:100ED00020F0020040F00100206400E0012584F8C9
:100EE0003C60284670BD704710B586B0044614219A
:100EF0006846FFF7EFFA15492068884224D1144864
:100F00000021026842F480720260006800F4807080
:100F100005900F481438026842F001020260006830
:100F200000F001000590012000900320CDE90101AF
:100F30006946084800F01AFA00221146122000F013
:100F400001FE122000F0F0FD06B010BD00200140AF
:100F5000443802400000024018B50021009190F88A
:100F60003C20012A07D0012280F83C2002689368C7
:100F7000DB0702D011E0022018BD936843F00103A3
:100F80009360314A314B1268B2FBF3F202EB42023A
:100F900000E0521E0092002AFBD102689368DB0732
:100FA00047D0036C40F20164A34343F480730364AD
:100FB00053685B0505D5036C23F4005343F4805359
:100FC0000364036CDB0404D5436C23F00603436421
:100FD00000E0416480F83C101D4B6FF0220111606D
:100FE00001684A681B4C22434A6059680068CA0677
:100FF000194906D0884224D1816811F0405F13D08E
:101000001FE08842F8D0154A904203D1D1F804235A
:10101000D206F1D0124A904213D1D1F8041301F054
:101020001F011029E8D30CE0816841F08041816004
:1010300007E0016C41F010010164416C41F00101D5
:101040004164002018BD00002803002040420F002A
:101050000023014020000004002001400021014045
:10106000002201402DE9F84304464FF00009CDF875
:10107000009063484FF41651A56D0068B0FBF1F77E
:101080002E6894F85C10082000FA01F131420FD06C
:1010900021680A6852070BD50A6822F004020A6028
:1010A00094F85C108840A860606D40F001006065B5
:1010B00094F85C104FF0010808FA01F0304208D0B3
:1010C00021684969090604D5A860606D40F00200F6
:1010D000606594F85C1004208840304208D0216894
:1010E0000968890704D5A860606D40F00400606558
:1010F00094F85C1010208840304218D021680968AC
:10110000090714D5A86020680168490304D5006860
:10111000000308D5A16C07E00168C90503D4016884
:1011200021F008010160216C09B12046884794F83C
:101130005C1020208840304231D021680968C906FF
:101140002DD5A86094F8350005282068016806D0E0
:10115000490347D5006800031DD4616C1CE021F0F1
:10116000160101602068416921F080014161206C15
:1011700008B9A06C20B12068016821F00801016065
:1011800094F85C103F208840A86084F8358084F88B
:101190003490216D1FE0E16B09B120468847606DF6
:1011A00000282BD0606DC00714D0052084F83500CE
:1011B0002068016821F0010101600098401C009046
:1011C000B84203D820680068C007F6D184F835809B
:1011D00084F83490E16C002910D001B02046BDE8BD
:1011E000F04308470168C905D5D4016821F0100112
:1011F000016084F8358084F83490CCE7BDE8F8834A
:10120000280300202DE9F041044600F0ADF9064620
:101210005CB1022084F83500002584F83450206841
:10122000016821F0010101600DE00120BDE8F081BD
:1012300000F09AF9801B052805D92020606503205D
:1012400084F83500F2E720680068C007F0D1226812
:10125000116820480140D4E901031843D4E903365A
:101260003343184363691843A3691843E369184378
:10127000236A18430843616A042903D1D4E90B1394
:1012800019430843106020684069666A20F007012E
:1012900030460E43012704280CD1A06A0643E06AB9
:1012A00040B12046FFF762FC20B14020606584F821
:1012B0003570BAE7206846612046FFF743FC94F892
:1012C0005C203F2191408160656584F83570002085
:1012D000ACE700003F8010F02DE9F0410446866D38
:1012E00090F83400002501280DD0012084F8340046
:1012F00094F835700020012F07D084F834000225BF
:101300002846BDE8F0810220FBE7022784F835700B
:1013100060652046FFF754FC94F85C103F2088403D
:10132000B0602068016841F016010160206C20B1B6
:101330002068016841F0080101602068016841F0FF
:1013400001010160DCE7000070B5044600F00CF913
:101350000546601C02D004480078044400F004F9FB
:10136000401BA042FAD370BD1C0300202DE9F84FAA
:10137000DFF8BCA10022012503264FF00F090AF176
:10138000040BAAF1040E00BF0B6805FA02F4234017
:10139000A34270D10F7907F00307012F01D0022F6C
:1013A00016D187684FEA420806FA08FC27EA0C07BC
:1013B000D1F80CC00CFA08FC4CEA070CC0F808C0C5
:1013C0004768A7430C79C4F3001494403C4344603D
:1013D0000C79E443A4070AD0C4684FEA420C06FA29
:1013E0000CF7BC438F6807FA0CF72743C7600C79EA
:1013F00004F00304022C12D1D40800EB840CDCF8B6
:1014000020405707FF0E09FA07F824EA0804D1F82C
:10141000108008FA07F848EA0408CCF8208004682D
:101420004FEA420C06FA0CF7BC430F7907F00307AA
:1014300007FA0CF7274307604C6814F4403F70D05C
:101440003C4C276847F480472760246822F0030754
:1014500004F480440094384C07EB040CDCF8084892
:1014600097074FEA177809FA08F7BC43334FB84299
:1014700002D1002724E054E0314FB84201D10127C6
:101480001EE0304FB84201D1022719E02E4FB8427A
:1014900001D1032714E02D4FB84201D104270FE0FA
:1014A0002B4FB84201D105270AE02A4FB84201D19B
:1014B000062705E0284FB84201D1072700E008279A
:1014C00007FA08F72743CCF80878DAF800405746BF
:1014D000D1F804C09C435FEACC2C00D51C433C608F
:1014E000DBF800405F46D1F804C09C435FEA8C2CD7
:1014F00000D51C433C60DEF800407746D1F804C0BC
:101500009C435FEA8C3C00D51C433C60084F083F7D
:101510003C68D1F804C09C435FEACC3C00D51C4336
:101520003C60521C102AFFF42FAFBDE8F88F00007A
:10153000083C0140443802400030014000000240B5
:101540000004024000080240000C0240001002406B
:101550000014024000180240001C02400AB18161E0
:1015600070470904FBE700000148806870470000ED
:101570001C03002070B5040025D094F83D00002520
:1015800020B984F83C50204600F03EFA242084F82C
:101590003D002068016821F00101016020680168B8
:1015A00041F4004101602068016821F400410160BC
:1015B00000F094FB4D4A6168914201D84C4900E02B
:1015C0004C49884201D2012070BD4B492368B0FBD1
:1015D000F1F15E6826F03F060E435E606368934259
:1015E00006D94FF4967359434FF47A73B1FBF3F174
:1015F0002368491C1E6A26F03F0631431962616860
:10160000914210D84900401EB0FBF1F2521CC2F3C7
:101610000B02042A01D2042022E0B0FBF1F0401CAE
:10162000C0F30B001CE0A268F2B301EBC10303EBB3
:101630000116431EB3FBF6F35B1C43F480431B050A
:1016400049D092B301EBC10202EB0111401EB0FB85
:10165000F1F0401CC0F30B0040F4804040F4004027
:101660002168CA694CF6FF739A431043C861D4E9F4
:10167000071001432068026822F0C0021143016094
:10168000D4E9030101432068826848F2FF339A439A
:1016900011438160D4E9050108432168CA6822F03A
:1016A000FF021043C86001E00EE016E02068016808
:1016B00041F0010101602564202084F83D0025638C
:1016C00084F83E50002070BD01EB4106431EB3FB81
:1016D000F6F35B1CB3E70120C2E701EB4101401EBA
:1016E000B0FBF1F0401CC0F30B00B7E7A08601008F
:1016F00080841E0000093D0040420F002DE9F84F94
:101700001F4690468A460446DDF82890FFF72CFFD6
:10171000054694F83D00202875D1192301226C4913
:101720002046009501F0D0FA0028F5D194F83C004D
:10173000012868D0012084F83C0020680168C907AE
:1017400003D1016841F0010101602068016821F4C2
:1017500000610160222084F83D00102084F83E00E2
:1017600000262664C4F824806785608D208559484A
:10177000E0622B464A465146204601F0BBF900285C
:1017800078D1208D544F68B1012814D002282068E8
:10179000016816D041F48061016020684169806968
:1017A000009087E02068416981690091016841F4F7
:1017B000007101607EE02068016821F480610160B1
:1017C000F0E721F4806101602068016841F4006164
:1017D000E2E7032848D801280AD0022814D04B4653
:1017E000002239462046009501F06EFAD8BB27E06A
:1017F0002A464946204601F0E6FAA0BB2068006967
:10180000616A08704DE061E04B460022394620468F
:10181000009501F059FA30BB2068016841F400716D
:10182000016020680069616A0870606A401C60623B
:10183000218D491E2185618D491E618521682EE01B
:101840002068016821F48061016020680069616A94
:101850000870606A401C6062208D401E2085608D8B
:10186000401E6085D0E705E02A464946204601F043
:10187000AAFA10B10120BDE8F88F20680069616AFA
:101880000870606A401C6062218D491E2185618D4F
:10189000491E618521684A69D24352070AD4096901
:1018A0000170606A401C6062208D401E2085608D42
:1018B000401E6085208D00288BD1202084F83D00BB
:1018C00084F83E6084F83C600020D4E70220D2E730
:1018D000020010000000FFFF040001002DE9F84F96
:1018E0001F4690468A460446DDF82890FFF73CFEE6
:1018F000054694F83D0020287FD119230122404954
:101900002046009501F0E0F9002876D194F83C00DB
:10191000012872D0012084F83C0020680168C907C2
:1019200003D1016841F0010101602068016821F4E0
:1019300000610160212084F83D00102084F83E0001
:1019400000262664C4F824806785608D20852D4894
:10195000E0622B464A465146204601F041F990B9D3
:10196000206841698069009036E02A464946204651
:1019700001F05CFA50B1206C042804D120680168A1
:1019800041F4007101600120BDE8F88F606A2168B0
:1019900000780861606A401C6062618D491E618543
:1019A000218D491E89B2218522685369DB435B077B
:1019B0000BD451B100781061606A401C6062608D88
:1019C000401E6085208D401E20852A4649462046BF
:1019D00001F054F90028CED1208D0028C5D154F84B
:1019E0003D0B016841F400710160202004F81E09DC
:1019F000E67766770020C7E7FFE70220C4E700002C
:101A0000020010000000FFFF10B586B0044614214C
:101A10006846FEF75FFD14492068884221D11348CB
:101A20000021026842F002020260006800F0020039
:101A300005904FF4107000901220CDE901010320B1
:101A400003900420049069460948FFF78FFC07487B
:101A50001030016841F400110160006800F40010CA
:101A6000059006B010BD0000005400403038024020
:101A70000004024002488168027811448160704786
:101A80001C0300200B4810B5016841F4007101608F
:101A9000016841F480610160016841F48071016076
:101AA000032000F06FF80F2000F006F800F024F893
:101AB000002010BD003C024070B50D4D04464FF4AF
:101AC0007A712878B1FBF0F00A490968B1FBF0F0AF
:101AD00000F00AFB48B9102C07D200222146501E04
:101AE00000F030F800206C6070BD012070BD000077
:101AF0001C030020280300200A4808B5016841F4AF
:101B000080410160006800F4804000900548001F9B
:101B1000016841F080510160006800F08050009041
:101B200008BD000044380240002809DB00F01F0215
:101B3000012191404009800000F1E020C0F800112F
:101B400070470000F0B40E4B1B680C46C3F3022331
:101B5000C3F10705042D00D90425191D072901D259
:101B6000002300E0DB1E012606FA05F1491E214094
:101B700099409E40761E16403143F0BC03F0C9BF29
:101B80000CED00E0064900F0070208684FF6FF037D
:101B9000184040EA0220034A1043086070470000E2
:101BA0000CED00E00000FA052DE9F0470E460500B7
:101BB00065D0DFF81481D8F80000F7B200F0070014
:101BC000B04207D288F80070D8F8000000F0070093
:101BD000B04254D128683D4C810712D5400703D547
:101BE000206840F4E05020602878000703D5206882
:101BF00040F4604020602068A96820F0F0000843AD
:101C000020602878C0072DD030496868083901283D
:101C100012D0022813D0032811D00968890700299F
:101C20002DDA216821F0030101432160FFF79CFCBC
:101C3000814641F2883A0EE009688903EFE70968B6
:101C40008901ECE7FFF790FCA0EB0901514502D9AF
:101C50000320BDE8F0872068696800F00C00B0EB55
:101C6000810FEFD1D8F80010404601F00701B142D2
:101C700007D90770006800F00700B04201D00120CA
:101C8000E7E72878400705D52068E96820F4E050A8
:101C9000084320602878000706D52068296920F4C9
:101CA000604040EAC100206000F038F82168084A2E
:101CB000C1F30311515CC84006490860064800683A
:101CC000FFF7FAFE0020C4E7003C0240083802405B
:101CD0003A67000828030020200300200448054933
:101CE00000680968044AC1F38221515CC84070470A
:101CF00028030020083802404A67000804480549C4
:101D000000680968044AC1F34231515CC840704719
:101D100028030020083802404A670008154810B51B
:101D2000006810F00C02144813D04110042A0FD0A0
:101D3000082A0ED10F4C241F2268236802F03F02AC
:101D40005B0207D52068C0F38810A0FB010106E004
:101D5000084610BD2168C1F38811A1FB00010023D2
:101D6000FEF7A6FA2168C1F30141491C4900B0FB06
:101D7000F1F010BD083802400024F4002DE9F84FBE
:101D800004006ED02078DFF84C93C007A9F1040559
:101D90004AD009F104000168C1F38101012908D08A
:101DA0000068C0F3810002280AD1D9F8000040027F
:101DB00006D52868800337D560680028E1D033E075
:101DC0006068B0F5803F10D0B0F5A02F286810D023
:101DD00020F480302860286820F480202860606823
:101DE000A8B1FFF7C1FB06460DE0286840F480303B
:101DF000F4E740F480202860F7E700BFFFF7B4FB6A
:101E0000801B642873D828688003F7D50CE0FFF79F
:101E1000ABFB064605E000BFFFF7A6FB801B64286E
:101E2000F0D828688003F7D42078DFF8AC828007E8
:101E30004FF0000A3ED5A748001D016811F00C0FB5
:101E400008D00068C0F3810002280BD1D9F8000047
:101E5000400207D42868800716D5E068012800D121
:101E600012E033E1E068B8B10120C8F80000FFF7E4
:101E70007BFB064605E000BFFFF776FB801B0228D0
:101E8000C0D828688007F7D52868216920F0F800B5
:101E900040EAC10028600DE0C8F800A0FFF764FB2D
:101EA000064604E0FFF760FB801B02281FD8286865
:101EB0008007F7D42078000722D5864F87486169CC
:101EC000703771B101210160FFF74EFB064604E057
:101ED000FFF74AFB801B022809D838688007F7D52E
:101EE0000EE0C0F800A0FFF73FFB064605E082E0E9
:101EF000FFF73AFB801B02287DD838688007F7D4AB
:101F00002078400768D5DFF8CCB100270BF13C0BF7
:101F1000DBF80000C0000BD4DBF8001041F080516A
:101F2000CBF80010DBF80000012700F08050009093
:101F30006B4E3068C00510D4306840F4807030605B
:101F4000FFF712FB009005E0FFF70EFB0099401A27
:101F5000022850D83068C005F6D55E4EA0686C36B1
:101F600001280FD00528306810D020F00100306023
:101F7000306820F004003060A068B8B1FFF7F4FAD0
:101F800000900FE0306840F00100F4E740F00400FA
:101F90003060F7E7FFF7E8FA0099411A41F288301C
:101FA000814266D830688007F4D50EE0FFF7DCFA8E
:101FB000009007E0FFF7D8FA0099411A41F2883003
:101FC000814256D830688007F4D42FB1DBF8001076
:101FD00021F08051CBF80010A069C8B33D49091D1C
:101FE0000968C1F3810102294AD00228504607D06E
:101FF000C8F8600000E03CE0FFF7B6FA04463BE0BA
:102000004746C8F86000FFF7AFFA064605E000BF94
:10201000FFF7AAFA801B02282BD828688001F7D482
:10202000D4E907010843A16A2E4A490802EB01419D
:10203000626A41EA8211084394F82C1040EA016177
:10204000C9F8001001203866FFF78EFA044606E052
:102050003EE000BFFFF788FA001B022809D8286875
:102060008001F7D534E000BFFFF77EFA001B02289D
:1020700002D90320BDE8F88F28688001F4D427E056
:102080000128F7D0D9F80000E26900F480019142FC
:102090001CD1226A00F03F01914217D147F6C0716E
:1020A000626A0140B1EB821F10D1A26A4FF0FF3388
:1020B00000F4403103EB5202B1EB024F06D194F829
:1020C0002C1000F07060B0EB016F01D00120D1E75F
:1020D0000020CFE70438024000004742800E47420C
:1020E000007000400000FFFF10B5401EB0F1807F7F
:1020F00001D3012010BD4FF0E02460610F21601773
:1021000003F007FD0020A06107202061002010BD22
:1021100070B590F83C20012A32D0012480F83C4070
:10212000022280F83D2003685A689D6822F07006FC
:102130000A6832435A60134B02689A4214D0B2F1D3
:10214000804F11D0104B9A420ED0104B9A420BD0B8
:102150000F4B9A4208D00F4B9A4205D00E4B9A4231
:1021600002D00E4B9A4204D1496825F080031943EE
:10217000916080F83D40002180F83C10084670BD19
:10218000022070BD00000140000400400008004033
:10219000000C0040000401400040014000180040D5
:1021A00010B5040003D094F83D0010B107E0012001
:1021B00010BD002084F83C00204600F01FF80220EB
:1021C00084F83D00211D206801F014F8012084F8F6
:1021D000460084F83E0084F83F0084F8400084F80C
:1021E000410084F8420084F8430084F8440084F8F5
:1021F000450084F83D00002010BD000008B50068CF
:10220000B0F1804F08D10548016841F0010101603B
:10221000006800F00100009008BD00004038024056
:1022200090F83D10012901D001207047022180F86B
:102230003D1000681149884214D0B0F1804F11D090
:102240000F4988420ED00F4988420BD00E49884270
:1022500008D00E49884205D00D49884202D00D4968
:10226000884204D1816801F00701062903D0016882
:1022700041F00101016000207047000000000140B2
:102280000004004000080040000C00400004014031
:10229000004001400018004070B5044690F83C0032
:1022A0000025012817D0012684F83C60022084F81C
:1022B0003D002068826822F0770222F47F4282602B
:1022C0000868502838D00DDC20284FD005DC90B3AA
:1022D000102811D14AE0022070BD302846D0402895
:1022E0000AD13BE060282FD070280DD0B0F5805F78
:1022F00003D0B0F5005F12D0012584F83D600020C6
:1023000084F83C00284670BDCB68D1E901212068E3
:1023100000F0E1FF2068816841F0770109E0CB68B7
:10232000D1E90121206800F0D6FF2068816841F4DE
:1023300080418160E1E719E0CA684968206801F0DE
:102340009FF85021206806E0CA684968206801F0BB
:10235000A8F86021206800F0C8FFCEE7CA68496885
:10236000206801F08DF840212068F4E722680146DA
:102370001046F0E72DE9F0410D46040003D094F833
:102380003D0018B108E00120BDE8F081002084F88C
:102390003C00204600F040F8022084F83D00206810
:1023A000816844F2070291438160211D206800F09A
:1023B00021FF226890689169166A2B68AF69034310
:1023C00040F20330814341EA0721A868EF690843DE
:1023D0004FF6FC418843E96840EA07200143286939
:1023E0002F6A000140EA0730084369686D6926F0EA
:1023F000AA0646EA0515294393602268906154F8BD
:10240000460B0162012004F81F09E0752076E07692
:102410002077A0750020B7E730B587B004461421B7
:102420006846FEF757F82C4A216800242B480225FD
:1024300091421CD1294914310A6842F001020A6014
:10244000096801F001010591016841F01001016086
:102450000068694600F0100005904FF4206000907D
:10246000CDE901540120CDE903401D482FE01D4A6C
:1024700091422ED1194910310A6842F004020A60D3
:10248000096801F004010591016841F0080101604B
:10249000016801F008010591016841F00201016045
:1024A0000068694600F0020005904FF480500090EB
:1024B000CDE901540C48CDE90345FEF757FF8020D4
:1024C0000090CDE9015469460848CDE90345FEF77F
:1024D0004DFF07B030BD0000000001403038024021
:1024E0000010024000080040000C024000040240BE
:1024F00070B590F83E60044690F83F5090F8423036
:1025000090F84320022021B104290ED0012E1BD1C6
:1025100014E0012E18D1012B16D184F83E0084F866
:10252000420001220021206820E0012D0CD1012A67
:102530000AD184F83F0084F8430014E0012D03D150
:10254000012B01D1012A01D0012070BD84F83E0089
:1025500084F83F0084F8420084F8430001220021FF
:10256000206800F0ABFE01220421206800F0A6FEE6
:102570002068016841F001010160002070BD000089
:1025800010B586B0044614216846FDF7A3FF206805
:10259000B0F1804F15D10C480021026842F00102D1
:1025A0000260006800F001000590222000900220E7
:1025B000CDE901010120CDE9031069460348FEF78A
:1025C000D5FE06B010BD00003038024000000240C9
:1025D00070B5044690F83C0000260D4601280FD047
:1025E000012084F83C006AB1042A1DD0082A2FD0AB
:1025F0000C2A3FD00126002084F83C00304670BDF4
:10260000022070BD206800F079FE2068816941F0E9
:10261000080181612068816921F0040181612068DD
:1026200081692A69114311E0206800F097FE206853
:10263000816941F4006181612068816921F48061D0
:102640008161206881692A6941EA02218161D2E7BA
:10265000206800F0B9FE2068C16941F00801C1613D
:102660002068C16921F00401C1612068C1692A693B
:10267000114311E0206800F0DBFE2068C16941F4DD
:102680000061C1612068C16921F48061C161206875
:10269000C1692A6941EA0221C161ACE710B50400B1
:1026A00003D094F83D0010B107E0012010BD0020D8
:1026B00084F83C00204600F01EF8022084F83D001B
:1026C000211D206800F096FD012084F8460084F862
:1026D0003E0084F83F0084F8400084F8410084F80C
:1026E000420084F8430084F8440084F8450084F8EC
:1026F0003D00002010BD704710B50446022249B1CC
:1027000004290ED0082913D094F84100012816D0CE
:10271000012010BD94F83E000128F9D184F83E2034
:102720000FE094F83F000128F2D184F83F2008E040
:1027300094F840000128EBD184F8402001E084F8AF
:1027400041200122206800F0B9FD16492068164A90
:10275000884201D0904203D1436C43F40043436468
:102760002068884213D0B0F1804F10D00F498842C2
:102770000DD00F4988420AD00E49884207D09042B6
:1027800005D00D49884202D00C49884204D18168A5
:1027900001F00701062903D0016841F00101016041
:1027A000002010BD00000140000401400004004072
:1027B00000080040000C00400040014000180040AC
:1027C0007047704770B5040004D094F83D000025B0
:1027D00010B106E0012070BD84F83C50204600F0A6
:1027E00023F8242084F83D002068C16821F40051BA
:1027F000C160204600F010FF2068016921F490417B
:1028000001612068416921F02A0141612068C168A5
:1028100041F40051C1602564202084F83D0084F813
:102820003E00002070BD000070B586B00646142141
:102830006846FDF74FFE1F493068884238D11E4870
:102840000025016841F480210160006800F48020C7
:10285000059019481038016841F0020101600068D4
:10286000694600F0020005904FF44060009002209D
:10287000CDE9010503200390072004900F48FEF7DF
:1028800075FD104C0E4820604FF00060C4E9010552
:102890004014C4E903506561A561E56125622046E5
:1028A0006562FEF7AFFC08B1FEF79FF9B463A6635B
:1028B00006B070BD004800404038024000040240AD
:1028C00028600240AC0500202DE9F84F044690F83E
:1028D0003E009A4616460D46202853D1FDB1F6B16A
:1028E00094F83C0001284DD0012084F83C000027DA
:1028F0002764222084F83E002763FEF735FEA68574
:102900008146E685A0684FF48058404501D1206992
:1029100040B12E465FF0000584F83C7027E00120AE
:10292000BDE8F88F0026F7E74B460022202120461D
:10293000CDF800A000F040FF08B10320F0E726B179
:10294000A06840451BD038B108E020684068C0F35B
:10295000080025F8020B07E0206980B12068406874
:1029600000F07F0006F8010BE08D401EE085E08D51
:102970000028D9D1202084F83E000020D0E720682C
:102980004068EFE70220CBE790F83E30202B0ED1D5
:1029900059B152B190F83C30012B08D0012380F896
:1029A0003C300023036300F0BDBE012070470220CD
:1029B0007047000010B532492DED028B0068884247
:1029C0005BD130489FED308B314C0178532905D0D5
:1029D000BDEC028BBDE8104003F0B6B994ED060BD8
:1029E00084ED020BB0F8050003F030FC9FED291BCD
:1029F00053EC112B03F07AFC9FED281B53EC112BA9
:102A000003F074FC41EC100B53EC182B84ED060B17
:102A100003F0E0FB28D094ED020B53EC102B94ED67
:102A2000060B51EC100B03F095FD9FED1E1B53ECB4
:102A3000112B03F059FD04D29FED1C0B84ED040B08
:102A400012E094ED020B53EC102B94ED060B51ECBD
:102A5000100B03F07FFD9FED171B53EC112B03F0C0
:102A600009FC01D284ED048B2122BDEC028B0549C7
:102A7000BDE810401148FFF787BFBDEC028B10BDC9
:102A8000004800402C100020000000000000000062
:102A900040000020000000000000003F0000000097
:102AA000008066400000000000E07540000000006B
:102AB000008076400000000000E075C0A004002007
:102AC0007047FEE701684A69D24352050FD46FF49C
:102AD00080624A61002140F8301F202242738173D6
:102AE000026942F004020261017301207047002074
:102AF000704700002DE9F84F0446C06A1E46934611
:102B00000D4621680A6842F480620A60082807D0EE
:102B1000012805D010F5803F02D0206B112804D188
:102B20002068016841F4807101604FF001195B4633
:102B3000002249462046009600F0C6F84FF400787F
:102B400040B120680068C00501D5C4F8408003206A
:102B5000BDE8F88F2069DFF884A0B0F5804F0FD072
:102B60000620216800EAD51747F0F00008613346D7
:102B70005A460AF10601204600F0DAF858BB03E095
:102B8000E8B240F001001CE02168E8B20861334679
:102B90005A465146204600F0CBF8E0B9206841691A
:102BA00081690091016841F4807101605B460022F7
:102BB00049462046009600F087F80028C1D147F02A
:102BC000F1002168086133465A465146204600F01C
:102BD000AFF80028BCD00120BAE7000002000100D5
:102BE000F8B50446C06A1E460D461746082807D0A9
:102BF000012805D010F5803F02D0206B122804D1A7
:102C00002068016841F480710160134600224FF092
:102C100001112046009600F057F840B12068006886
:102C2000C00502D54FF4007020640320F8BD206970
:102C3000B0F5804F0ED00620216800EAD51040F094
:102C4000F000086133463A460B49204600F070F820
:102C500078B902E005F0FE0000E0E8B22168086102
:102C6000054933463A46891F204600F061F800289E
:102C7000DCD00120F8BD00000800010070B5164648
:102C80000D4604460DE02046FFF71CFF08B1012069
:102C900070BD681C05D0FEF767FC801BA84207D8F2
:102CA00035B120684069C0434007ECD4002070BDB6
:102CB000002044F8300F20216173A073216941F096
:102CC000200121612073E2E72DE9F0471E4690467E
:102CD0000D460446C1F30747DDF8209008E0701C5C
:102CE00006D0FEF741FCA0EB0900B0420FD876B148
:102CF0002068012F18D0806925EA00000004000C2C
:102D000014D000214145EAD00020BDE8F087002022
:102D100044F8300F20216173A073216941F0200134
:102D2000216120730120F0E74069E5E70121E9E72F
:102D30002DE9F0479A4691460E46044600254FF08D
:102D40002008C1F3074725E020684069C0434005DB
:102D500014D42068016841F40071016021686FF4A7
:102D600080604861256384F83D8084F83E50206C83
:102D700040F00400206484F83C501FE0B9F1FF3FAC
:102D800008D0FEF7F1FBA0EB0A0149450CD8B9F1D8
:102D9000000F09D02068012F13D0806926EA0000B7
:102DA0000004000C0BD0CFE744F8305F84F80D80AE
:102DB000A573206940F02000206125730120BDE843
:102DC000F0874069EAE72DE9F041002590460E467C
:102DD0000446202717E04069C043C0060CD454F8CD
:102DE000301B6FF01000486144F810596777A577E1
:102DF000206A2062257717E0FEF7B6FBA0EB0800FB
:102E0000B04208D83EB120684169C9434906E2D4BE
:102E10000020BDE8F08144F8305F6773A573206936
:102E200040F02000206125730120F2E770B51646BE
:102E30000D4604460DE02046FFF744FE08B1012090
:102E400070BD681C05D0FEF78FFB801BA84207D819
:102E500035B120684069C0430006ECD4002070BD45
:102E6000002044F8300F20216173A073216941F0E4
:102E7000200121612073E2E77FB50024154800940A
:102E8000019402941249039401604FF48031C0E927
:102E9000011401250461057680F820400E49C0E93F
:102EA0000A14C561C46080F830404561FDF7F1FF48
:102EB00008B172B6FEE706200094CDE901506946DC
:102EC0000448FDF795FE002801D072B6FEE77FBDED
:102ED000002001402C0300200100000F2DE9F043E9
:102EE00087B014216846FDF7F5FA334800240168DD
:102EF00041F004010160016801F0040105910168DD
:102F000041F080010160016801F0800105910168D4
:102F100041F001010160016801F0010105910168C2
:102F200041F010010160016801F010010591016894
:102F300041F002010160016801F0020105910168A0
:102F400041F00801016000681C4F00F0080042F2E7
:102F5000FF050590002229463846FEF7FFFADFF804
:102F60006080BE14002231464046FEF7F7FADFF8D3
:102F70005490002208214846FEF7F0FA00950125FA
:102F8000CDE90154694638460394FEF7EFF90096FF
:102F9000CDE90154694640460394FEF7E7F908205D
:102FA0000090CDE90154694648460394FEF7DEF9E6
:102FB00007B0BDE8F083000030380240000C02404A
:102FC000000802400004024010B58CB0242168467D
:102FD000FDF780FA00241648099414490A94C0E9C0
:102FE00000144FF6FF71C0E902410461446184613D
:102FF0000320CDE900040120CDE902040494CDE9C9
:103000000540079469460A480894FFF7B3F908B1E8
:1030100072B6FEE7099409A905480A94FFF778F803
:10302000002801D072B6FEE70CB010BD00000140D0
:10303000C803002010B58EB00024079408940994AA
:103040000A940B941C2168460C94FDF743FA21481E
:103050004FF08041C0E900140921C0E902418021FC
:1030600004618161FFF79CF808B172B6FEE74FF486
:103070008050079007A91748FFF70EF908B172B6FC
:10308000FEE71448FFF70AFB08B172B6FEE70B949F
:103090000BA910480C94FFF73BF808B172B6FEE795
:1030A0006020CDE900040294002269460948049496
:1030B000FFF78EFA08B172B6FEE7042269460548AA
:1030C000FFF786FA08B172B6FEE70248FFF758FA32
:1030D0000EB010BD1004002010B58CB0242168463D
:1030E000FDF7F8F900241648099414490A94C0E938
:1030F00000144FF6FF71C0E90241046184610320AE
:10310000CDE900040120CDE902040494CDE9054095
:10311000079469460A480894FFF72CF908B172B67B
:10312000FEE7099409A906480A94FEF7F1FF002872
:1031300001D072B6FEE70CB010BD000000080040E0
:1031400058040020FEE7FEE770477047FEF792BC88
:1031500030B593B030216846FDF7BCF914210CA8B6
:10316000FDF7B8F91D480025016841F08051016064
:10317000006800F0805011901948016841F48041C6
:1031800001600068022400F480401190012000904A
:10319000000401908001CDE9064008AA0420A8217E
:1031A00082E813000B906846FEF7E8FD08B172B69E
:1031B000FEE70CA90F2081E831004FF4A0500F90DA
:1031C0004FF48050109005210CA8FEF7EDFC00286C
:1031D00001D072B6FEE713B030BD000040380240A7
:1031E000007000400248016841F4700101607047BE
:1031F00088ED00E0F0B50268254C264D264E274F9D
:10320000274B4FF0804CA04209D0604507D0A84220
:1032100005D0B04203D0B84201D0984204D122F088
:10322000700E4A6842EA0E02A0421BD0604519D0D7
:10323000A84217D0B04215D0B84213D0984211D04E
:10324000184DA8420ED0184DA8420BD0174DA842D9
:1032500008D0174DA84205D0164DA84202D0164DF1
:10326000A84203D122F44075CA682A434D6922F06E
:1032700080022A4302608A68C2620A688262A042AF
:1032800001D0984201D10969016301214161F0BD7A
:10329000000001400004004000080040000C004015
:1032A000000401400040014000440140004801404A
:1032B00000180040001C00400020004010B501F044
:1032C0001F030121046A99408C430462016A9A40F9
:1032D0001143016210BD10B5846842EA032224F450
:1032E0007F440A432243826010BD826822F070024C
:1032F0000A4342F00701816070470000F0B5026A9E
:1033000022F001020262036A42688469124E24F0CC
:1033100073050C682C4323F002058B682B430D4D7D
:10332000A84201D0B04205D123F00807CB683B4347
:1033300023F00403A84201D0B04205D14D6922F424
:10334000407215438A692A43426084614968416337
:103350000362F0BD0000014000040140F0B5026AC4
:1033600022F010020262026A436884690D6824F444
:10337000E64444EA05248D6822F0200242EA051260
:103380000F4D104EA84201D0B04206D1CF6822F0B6
:10339000800242EA071222F04002A84201D0B04265
:1033A00007D14D6923F4406343EA85038D6943EAFD
:1033B000850343608461496881630262F0BD000057
:1033C0000000014000040140F0B5026A22F480725E
:1033D0000262026A4368C46922F4007224F0730531
:1033E0000C68124E2C438D6842EA05220E4DA8420D
:1033F00001D0B04206D1CF6822F4006242EA07222F
:1034000022F48062A84201D0B04207D14D6923F472
:10341000405343EA05138D6943EA05134360C461D1
:103420004968C1630262F0BD000001400004014030
:1034300030B5026A22F480520262046A4268C369AB
:103440000D6823F4E64343EA05238D6824F4005411
:1034500044EA0534084DA84202D0084DA84204D1E0
:103460004D6922F4804242EA85124260C361496894
:103470000164046230BD000000000140000401400E
:1034800010B5036A046A24F001040462846924F01C
:10349000F00444EA021423F00A020A43846102623F
:1034A00010BD10B5036A23F0100303628369046A38
:1034B00023F4704343EA023224F0A00343EA0111EB
:1034C0008261016210BD70B5846B2068406994F818
:1034D0003D10C0F3C0100025212904D118B1E584A6
:1034E000204600F08AF82068406994F83E10C0F346
:1034F0008010222904D118B1E585204600F056F845
:10350000206C40F0100020642046FFF75AF970BD8F
:1035100010B50146806B09680968C9052FD40021E0
:10352000C18501680C3151E8002F22F4807241E816
:103530000023002BF5D10168143151E8002F22F04F
:10354000010241E80023002BF5D10168143151E854
:10355000002F22F0400241E80023002BF5D120216A
:1035600080F83E10016B012909D101680C3151E846
:10357000002F22F0100241E80023002BF5D1016B4F
:10358000012902D0FFF716FA10BD818DFFF718F957
:1035900010BD10B5806B016B012902D0FFF790FAC6
:1035A00010BD818D4908FFF70BF910BD01680C3182
:1035B00051E8002F22F4907241E80023002BF5D14E
:1035C0000168143151E8002F22F0010241E8002384
:1035D000002BF5D1016B012909D101680C3151E8AB
:1035E000002F22F0100241E80023002BF5D120210A
:1035F00080F83E1000210163704701680C3151E8EA
:10360000002F22F0C00241E80023002BF5D1202139
:1036100080F83D107047000070B5044600680169ED
:10362000E26821F44051114301612169A068E26917
:1036300008436169114308432168CA6849F20C6371
:103640009A430243CA6020684169A26921F440712B
:103650001143416131492068884202D03049884293
:1036600002D1FEF74BFB01E0FEF738FBE2690023D5
:10367000192164253226B2F5004F626828D0A0FBDC
:103680000101930F9200FCF713FE0146B0FBF5F029
:103690006FF01802504301EB800006EB0010B0FB06
:1036A000F5F000F0F002B1FBF5F002EB0012B1FB17
:1036B000F5F06FF01803584301EB800006EB0010A3
:1036C000B0FBF5F000F00F0021681044886070BD79
:1036D000A0FB010192185B41FCF7EAFD0146B0FB3B
:1036E000F5F00201B1FBF5F06FF01803584301EB60
:1036F000800006EBC000B0FBF5F000F0F80002EB34
:103700004002B1FBF5F0584301EB800006EBC0002E
:10371000B0FBF5F000F00700D6E700000010014014
:103720000014014038B581628285002513460446A5
:103730000564222084F83E00A26B1C48D063A26B73
:103740001B481064A26B1B48D064A06B0A46056539
:103750002168A06B091DFDF7BFFD20680168406866
:10376000009084F83C50206948B120680C3050E843
:10377000001F41F4807140E80012002AF5D1206852
:10378000143050E8001F41F0010140E80012002A07
:10379000F5D12068143050E8001F41F0400140E8A6
:1037A0000012002AF5D1002038BD000011350008B4
:1037B00093350008C73400082DE9F04198461746B4
:1037C0000E460446069D27E0681C25D02DB1FDF766
:1037D000CBFEA0EB0800A8421ED920680C3050E8B0
:1037E000001F21F4D07140E80012002AF5D12068B2
:1037F000143050E8001F21F0010140E80012002AB7
:10380000F5D1202084F83D0084F83E00002084F8A3
:103810003C000320BDE8F0812068006836EA000023
:1038200004D00020B842CFD00020F3E70120F9E710
:10383000FEE700007CB50446002094F8DA200D462F
:10384000012A03D0022A01D0032A14D101AB6A460F
:103850000121204600F091F9009A4FF47F018A423D
:1038600002D8019A8A4206D9002804D125B10F490D
:10387000204601F0E7FC7CBD0422FF21204600F039
:103880005BFE054600227021204600F055FE0543F0
:103890000022FF21204600F04FFE05430022802138
:1038A000204600F049FE28437CBD00005301002063
:1038B000F8B50646002401220B21304600F03CFEFC
:1038C000074600220B21304600F036FE40EA07058D
:1038D0006A461321304600F00EFB641C9DF8001070
:1038E0002843E4B2490704D0032C04D20028E2D0D4
:1038F000F8BD032CFCD36FF00B00F8BDF0B591B010
:1039000004460022882100F017FE002584F8F050BC
:103910004FF47A70A4F852014FF4C870A4F854011F
:103920005748C4F8580157482562C4F8D40069467E
:10393000204600F0A9F8060009D18DF800508DF856
:1039400001504022694604F11000FCF791FD64200B
:10395000A4F834014FF46170A4F836014FF4FA7002
:10396000A4F838014FF42060A4F83C01012784F842
:1039700050713A468021204600F0DEFD06430122C8
:10398000FF21204600F0D8FD0643002211462046C4
:1039900000F0D2FD064310AA9121204600F0ABFAB8
:1039A00006439DF8400084F83A0101220021204698
:1039B00000F0C2FD06430022FF21204600F0BCFDBE
:1039C000064300228021204600F0B6FD3043002649
:1039D000002852D1B1B20122204600F0ADFB761C86
:1039E000062EF5DB002848D100220221204600F0F7
:1039F000A3FB002841D100220321204600F09CFBBC
:103A000000283AD100220421204600F095FB00282E
:103A100033D100220521204600F08EFB00282CD156
:103A20004FF490120021204600F0C7FB002824D15B
:103A30004FF480420121204600F0BFFB00281CD13A
:103A40004FF40C120221204600F0B7FB002814D1DD
:103A500000220321204600F0B0FB00280DD1FF20FA
:103A600084F8300102460121204600F065FD84F80B
:103A70003271002801D184F8155111B0F0BD000059
:103A8000856B0100A470090070B506460C46007CE9
:103A900001F8080B304600F044F8002833D12073B9
:103AA00004F11001304600F0D9F900282BD104F1BF
:103AB0001401304600F0E4F8002824D1002501E08C
:103AC000002820D104EB8502A9B23046243200F050
:103AD0007BF8002817D16219A9B23046183200F0DD
:103AE00066F86D1C062DEBDB00280CD104F13C01BF
:103AF000304600F098F9002805D1211D3046BDE878
:103B0000704000F0BBB870BD10B50C460A460921E4
:103B100000F0F1F9002803D1217801F001012170B2
:103B200010BD3EB50C46054602AAF82100F01CFA6D
:103B300000280ED16A460421284600F0F1F9002839
:103B400007D1BDF8081029B1009AB2FBF1F121604C
:103B5000A9613EBD2168FBE738B50C466A461321D2
:103B600000F0C9F99DF8001001F0070211F0180FDC
:103B7000226001D06FF0050038BDF8B515461C462F
:103B800006466A460E2100F0EFF9BDF8001009055F
:103B9000C9082960002809D16A460C21304600F086
:103BA000E3F9BDF800100905C9082160F8BD034616
:103BB0000020062902D3001F002102E0194491F8D9
:103BC0002810117070470000F8B504460020154613
:103BD00006292ED2DFE801F00305191B1D1D646BB9
:103BE00025E06A464421204600F0BEF9002803D1B2
:103BF000BDF800104FEA412606D1EEB12E604FF01D
:103C00000101A66384F82910F8BDE46B0FE0246C71
:103C10000DE06A464FF06401204600F0A5F9002847
:103C200004D100BFBDF800104FEA4124ECD12C6054
:103C3000F8BD6FF00300F8BDA16B29604FF00001E3
:103C4000E0E77CB50C4690F8DA100025012604293F
:103C50000AD06A46142100F04EF900280BD19DF8D5
:103C60000010C90706D007E001A9FFF775FF019909
:103C7000042901D025707CBD26707CBD01F01FB9E0
:103C800001F07FB9F0B58DB00C4605460C2302AAB1
:103C9000142100F087F906007ED10021A175216072
:103CA0009DF813009DF81220616000EB02209DF842
:103CB0000F209DF80E304FF47A7E02EB032212049F
:103CC000D209E2609DF811309DF8106080B203EBDC
:103CD00006231B04DB0923619DF80B309DF80A6065
:103CE00003EB06239BB2A382B5F852619DF80870DE
:103CF00095F831C176451FD0464306F5FA7696FB16
:103D0000FEF02E8C95F81CE080B2B6B2BEF1000F2A
:103D100012D05E43B2EB262F08D1BCF1000F02D0C7
:103D200042F2B82008E048F6E0200DE05043A2EB54
:103D30002626B0FBF6F080B2BCF1000F04D081085B
:103D400021818001E07501E02081E1750CA8CDE9B9
:103D500000403946284601F02FF9060025D19DF88C
:103D60003000207605F150011C220D4605A8FCF715
:103D70007FFB2089ADF81C00E07D8DF82B00608969
:103D8000ADF81E0060680690E06808902069099010
:103D9000A08AADF8280000E007E0207E8DF82C0016
:103DA0001C2205A92846FCF763FB0DB03046F0BD88
:103DB00038B5054600200C468DF800006A46012102
:103DC000284600F098F800282AD123469DF80020C4
:103DD0000021284602F0A8F8002821D1A31C9DF854
:103DE00000200121284602F09FF8002818D1631C0A
:103DF0009DF800200221284602F096F800280FD1F5
:103E0000E31C9DF800200321284602F08DF80028CD
:103E100006D1231D9DF800200421284602F084F8D5
:103E200038BD01F0E1B938B50C4605466A460121B6
:103E300000F061F800280BD19DF8001085F83011D2
:103E4000090601D5012100E00021217085F84C1000
:103E500038BD02460020127F0A70704738B50D4603
:103E600004466A46202100F07FF8002807D1BDF8FB
:103E7000001029B1C900296021620121217738BDD4
:103E8000216A29600021F9E7012301F082BA01F0DB
:103E9000A0BA70B5047C054614B900F011FA10B947
:103EA000284601F021FA50EA040102D1032185F8E5
:103EB000321170BD70B50C460546002100F08EF839
:103EC000002810D12846FFF7E4FF00280BD1214637
:103ED0002846FFF7D7FE002805D12846BDE87040E8
:103EE0000021FFF7E5BC70BD10B500240220FDF7EE
:103EF0002BFA204610BDF7B51646074600240122CE
:103F000001A901F0F8FD6FF0130528B9012231462F
:103F1000384601F0E0FD00B12C462046FEBD000011
:103F2000F7B5164607460024012201A901F0E3FD7A
:103F30006FF0130528B904220A49384601F0CBFD79
:103F400008B12C460BE00748C178027801EB02610A
:103F500042788078120402EB00200844306020464A
:103F6000FEBD00004D100020F7B5164607460024A0
:103F7000012201A901F0BFFD6FF0130528B902224B
:103F80000749384601F0A7FD08B12C4605E0044872
:103F90004178007801EB002030802046FEBD000013
:103FA0004D1000202DE9FF4117461E468046002493
:103FB000012201A901F09FFD6FF0130528B93246D7
:103FC0003946404601F087FD00B12C4604B020463A
:103FD000BDE8F0814A088A2100F0AEBA024600200E
:103FE00003290BD003DC49B1012904D106E01429CF
:103FF00004D0152902D06FF0070070471174704784
:1040000070B51C46049E054611B16FF0090070BDE5
:10401000142A08D0152A0FD0052C6FD2DFE804F03F
:1040200066686A6C6F002EB10122BDE87040842181
:1040300000F082BA1022F8E70122FF2100F07CFA9A
:10404000044600221146284600F076FA0443002276
:10405000FF21284600F070FA0443012280212846FF
:1040600000F06AFA044302228521284600F064FA2F
:1040700004430422FF21284600F05EFA0443002294
:10408000CD21284600F058FA04431122CC212846BD
:1040900000F052FA04430722FF21284600F04CFAB0
:1040A00004430022BE21284600F046FA04430622BB
:1040B000FF21284600F040FA04430922CC2128467B
:1040C00000F03AFA04430022FF21284600F034FAB7
:1040D00004430122FF21284600F02EFA0443002267
:1040E0001146284600F028FA204370BD002207E060
:1040F000012205E0022203E0032201E017E004228E
:104100000A21284600F018FA0028EED196B11023B3
:10411000EF228421284600F0F7F90028E5D185F840
:10412000DA402846BDE870400021FFF7C1BB6FF0C0
:104130000A0070BD0023EBE72DE9F04104460020A2
:104140000D461646071F034601460246062D02D3BA
:104150003846BDE8F08156B104EB85014B6B012177
:10416000062DF5D2DFE805F005080F12151801221B
:10417000F6E784F8281017E0C3F34F2244212046C5
:1041800000F0ECF90EE084F82A100DE084F82B1012
:104190000AE05300FE2201E01301EF2260212046D5
:1041A00000F0B2F90028D4D1611926B15FF0010204
:1041B00081F82820CDE70022FAE770B514460022E6
:1041C000431800EB810593F82830DBB1C4F34F238B
:1041D000062914D2DFE801F00305080A0C0C446339
:1041E00010E01A46442105E0C4630BE0046409E0D2
:1041F0001A46642100F0B2F9020003D003E06FF028
:10420000030200E06C63104670BD01F0A0BA2DE916
:10421000F8430746002090460E468DF800006A4697
:1042200001213846FFF767FE05009DF800000446AF
:104230002ED1291FB8F1010F06D0052E2CD2DFE8B0
:1042400006F0191C1F222500052E25D2DFE806F0F6
:104250000306090C0F0044F0100419E044F0280490
:1042600016E044F0040413E044F0400410E044F08D
:1042700080040DE004F0EF040AE004F0D70407E046
:1042800004F0FB0404E004F0BF0401E004F07F0448
:10429000844210D015B10EE00D460CE022460121FB
:1042A000384600F049F9050005D187F83041384615
:1042B0007969FFF7AAFF2846BDE8F88301F0FBBA49
:1042C000F8B501250646047C2A46802100F034F921
:1042D0000122FF21304600F02FF90022114630461E
:1042E00000F02AF996F83A219121304600F024F99D
:1042F00001220021304600F01FF90022FF21304644
:1043000000F01AF900228021304600F015F93CB186
:104310000425012C26D0032C2FD06FF00700F8BD08
:1043200001220021304600F007F98DF800500028E6
:10433000F5D100244FF4FA6705E024B16A46002164
:104340003046FFF7D8FD9DF80020641C25EA0201E5
:10435000014304D0BC42E2D36FF00600F8BDBC427A
:10436000EBD3F9E718B901213046FFF763FA0222CF
:1043700009E000BF86F83251F8BD18B90121304676
:10438000FFF758FA04220021304600F0D5F8002843
:10439000F0D0F8BD30B597B00446402101A8FCF735
:1043A00099F800258DF84450ADF850508DF85450D0
:1043B00001212046169500F0EEFA94F8142194F8A5
:1043C0001311012A06D802D1202903D808E03AB9EE
:1043D0000C2905D915AA16A9204600F0FAFF02E01B
:1043E000204601F015FA474900287DD194F8500184
:1043F00008B9D4F84C11204600F024FF00287ED1E3
:1044000000220423114620460095FFF7F9FD0028FD
:1044100075D10122FF21204600F08EF8054614AA2E
:1044200084212046FFF7A0FD05430022FF212046FE
:1044300000F082F8284362D1BDF8500001A90001C4
:10444000C4F8D4002046FFF71FFB002857D111A95C
:104450002046FFF759FB002851D19DF8440084F80D
:104460003101402201A904F11000FCF701F811AA62
:1044700001212046FFF73FFD002840D19DF8440070
:1044800084F83001002211462046FFF7C0FE0028C4
:1044900035D1002202212046FFF7B9FE00282ED197
:1044A000032084F8320112AA00212046FFF7B9FC4C
:1044B000002824D19DF8480084F8E80012AA0121C0
:1044C0002046FFF7AEFC002819D19DF8480084F87B
:1044D000E00013AA0321204601F0BDFB00280ED105
:1044E000139813AA042100E009E0C4F8E400204670
:1044F00001F0B1FB002802D11399C4F8DC1017B009
:1045000030BD000060000020F8B515461C460E4680
:1045100007466A46FFF7EFFC002809D19DF8002006
:1045200031462A4022438DF80020384600F004F836
:10453000F8BD6FF062007047034610B506480024CE
:104540000170427001460222184601F0D4FA08B107
:104550006FF01304204610BD4D100020034610B527
:10456000074800240170110A41708270014603223D
:10457000184601F0C0FA08B16FF01304204610BDD0
:104580004D10002070B51C460025134606463F2CF2
:1045900001D9281F70BD0848224600F8011B1946A2
:1045A000FBF721FF621C0449304601F0A4FA08B170
:1045B0006FF01305284670BD4D1000202DE9F0471F
:1045C000B0F854C1D0F85801DDE90A860CFB00F5BB
:1045D0008035DDE908972C0A4FF0000A04FB0CF443
:1045E000554652B1880200EB5200B0FBF2F000EBEE
:1045F0004000404300F50040050C07F50040000C6A
:104600000622C01CB0FBF2F003FB09F303F50043E4
:10461000190C4943C0EBC000B0F5803F01D31C48E2
:1046200008E0FF1CB7FBF2F0C0EBC00000F5004053
:10463000000C4043084400EB5800B0FBF8F0800346
:10464000FE227F30B0FBF2F068434FF47A7100F540
:10465000FA70B0FBF1F0000100F5FA70B0FBF1F771
:10466000402004F12001B1FBF0F000F0D5FD05463B
:1046700027B104EB5700B0FBF7F000E0002000F09A
:10468000CBFD3560854200D930605046BDE8F087EB
:104690000000F0FF01EBC10140F277600902A1FBCD
:1046A000000170472DE9FF4F87B00446006A06906D
:1046B000884608694FF47A714843000C0390D8F893
:1046C0000C000590DFF8F8B14FF4481604AA4146F3
:1046D000204600F064FD06AA4146204600F06DFD2C
:1046E00081464FF47A710498069D484300F50040D6
:1046F000070C4D43B54200D93546B9F1000074D1DD
:10470000D4F8DC00019094F8E0600146324620467F
:1047100000F0DCF88246D4F8E4000090014694F8FA
:10472000E820204600F0D2F801460320082E00D1F0
:10473000022051444143C9024FF47A7001F5FA71E5
:10474000B1FBF0F140F27762514301F5FA71B1FB30
:10475000F0FA04988030010A01FB0AF08030060A62
:10476000080204900FB14EB109E00999C1F800B0F8
:10477000C4F840B10A98002101609DE001264FF481
:104780004870029003984F490004B0FBF7F088424C
:1047900000D908464FF4167100FB01F906EB4600FC
:1047A000800000F039FD40000390B8F8081046483A
:1047B0006A424143380400EB42024FF47A7002F53A
:1047C000FA72B2FBF0F2431003EB0743B3FBF0F0D5
:1047D0001202B2FBF0F0002800DA404298F81820EC
:1047E00000021AB14FF480350FE066E041F25C221E
:1047F000B1FBF2F1C0F58030484300F50040000CF9
:1048000000F5803040084043850B4FF4487105FBAC
:1048100001F000F50040000C10FB00F109F500402C
:10482000000C4043084400F0F7FC000464213230DF
:10483000B0FBF1F10398B1FBF0F040F6B53148431D
:1048400041F2883108444900B0FBF1F74FF4704061
:10485000874200D90746DDE9001008444FF47A7812
:1048600000F5FA70B0FBF8F04FF4C81101EB5001FD
:10487000B1FBF0F000F0D0FC000200F5FA70B0FBE4
:10488000F8F07F434043384400F0C6FC41464843BB
:104890000EB1584500D9584609990860C4F840013E
:1048A0000A98029B03908DE80806DDE904122B4666
:1048B0002046FFF783FE814648460BB0BDE8F08FE7
:1048C000AE878F02666666009A99060000B50B46B1
:1048D0001146FFF7DFFE4FF47A7100F5FA70B0FB76
:1048E000F1F04B4303EB5001B1FBF0F000BD00B51C
:1048F0000B461146FFF7CEFE4FF47A7100F5FA70C1
:10490000B0FBF1F0434303F5FA73B3FBF1F000BDE4
:104910000146C0B2090A8840401C70474000801C14
:10492000C0B27047F8B5064600228321FFF704FEA7
:10493000040011D100254FF4FA676A4683213046FE
:10494000FFF7D9FA04469DF8000020430BD0BD4282
:1049500002D300BF6FF00604012283213046FFF727
:10496000EBFD2043F8BD6D1CBD42E6D3F2E700220B
:10497000114648B1401E02E04008491C89B2020AB3
:10498000FAD161F31F2082B210467047FF2101EB7C
:104990005000C0B270472DE9F04F95B00025044695
:1049A0000E954FF4C8500F95CDE90450129594F828
:1049B000F0600F46AB46AA46072E7ED0012280212A
:1049C0002046FFF7B9FD80460122FF212046FFF770
:1049D000B3FD40EA0805002211462046FFF7ACFD72
:1049E00040EA05080622FF212046FFF7A5FD40EA20
:1049F000080502AA83212046FFF77DFA40EA050850
:104A00009DF80800832140F004022046FFF794FD42
:104A100040EA08050722FF212046FFF78DFD40EA06
:104A20000508012281212046FFF786FD40EA08059E
:104A30002046FFF759FA40EA050801228021204666
:104A4000FFF77AFD40EA0805F80755D0F00753D183
:104A50006B2294212046FFF76FFD40EA05082046AF
:104A6000FFF760FF40EA080501AA90212046FFF702
:104A700057FA40EA050801982422C0F30621C0F342
:104A8000C03B129194212046FFF756FD40EA0805ED
:104A90002046FFF747FF40EA050801AA902120467B
:104AA000FFF73EFA40EA08050198010E8DF82C1038
:104AB000010C8DF82D10010A00E0FCE18DF82E109C
:104AC0008DF82F00252294212046FFF735FD40EA7E
:104AD00005082046FFF726FF40EA080901AA9021B1
:104AE0002046FFF71DFA40EA09050198010E8DF8EE
:104AF0003010000C8DF83100B8077ED5B0077CD49B
:104B0000022294212046FFF717FD40EA05082046BF
:104B1000FFF708FF40EA080513AA90212046FFF797
:104B2000EAF940EA05087B2294212046FFF704FDBC
:104B300040EA08052046FFF7F5FE40EA050810AAFE
:104B400090212046FFF7D7F940EA08057722942103
:104B50002046FFF7F1FC40EA05082046FFF7E2FE99
:104B600040EA080501AA90212046FFF7D9F940EA5A
:104B7000050801987822410E8DF81810C0F386417F
:104B80008DF81910C0F3C6218DF81A10C0F3061164
:104B90000007400E8DF81B108DF808009421204668
:104BA000FFF7CAFC40EA08052046FFF7BBFE40EAD3
:104BB000050801AA90212046FFF7B2F940EA08054E
:104BC0009DF80810019801EB50718DF81C10C0F38E
:104BD00086518DF81D10C0F3C6318DF81E10C0F33C
:104BE00006218DF81F10C0F34601C007400E8DF856
:104BF00020108DF80800792200E055E0942120462D
:104C0000FFF79AFC40EA05082046FFF78BFE40EAD2
:104C1000080501AA90212046FFF782F940EA05081D
:104C20009DF8081001987A2201EB90618DF821100F
:104C3000C0F3C6418DF82210C0F306318DF8231061
:104C4000C0F34611C006400E8DF824108DF8080000
:104C500094212046FFF770FC40EA08052046FFF744
:104C600061FE40EA050801AA90212046FFF758F9A5
:104C700040EA08059DF80810019801EB90718DF845
:104C80002510C0F3C6518DF82610C0F306418DF8EB
:104C90002710C0F346218DF82810C0F386008DF848
:104CA000290000208DF82A0078077ED570077CD473
:104CB0007B2294212046FFF73FFC40EA050820466E
:104CC000FFF730FE40EA08050EAA90212046FFF7C4
:104CD00027F940EA05087C2294212046FFF72CFCA6
:104CE00040EA08092046FFF71DFE40EA09050FAA21
:104CF00090212046FFF714F940EA05087322942119
:104D00002046FFF719FC40EA08052046FFF70AFE97
:104D100040EA050801AA90212046FFF701F940EA80
:104D200008050198742200064FEA10499421204694
:104D3000FFF702FC40EA05082046FFF7F3FD40EAD2
:104D4000080501AA90212046FFF7EAF8019940EAF8
:104D5000050849EA11600490752294212046FFF766
:104D6000EBFB40EA08052046FFF7DCFD40EA0509B9
:104D700001AA90212046FFF7D3F840EA09080198DC
:104D8000762200064FEA104994212046FFF7D4FB13
:104D900040EA08052046FFF7C5FD40EA050801AADC
:104DA00090212046FFF7BCF800E004E0019940EABA
:104DB000080549EA116A002281212046FFF7BCFB61
:104DC00040EA05080622FF212046FFF7B5FB40EA2E
:104DD000080502AA83212046FFF78DF840EA05085E
:104DE0009DF80800832100F0FB022046FFF7A4FB9A
:104DF00040EA08050122FF212046FFF79DFB40EA1B
:104E00000508012200212046FFF796FB40EA08052D
:104E10000022FF212046FFF78FFB40EA0508002211
:104E200080212046FFF788FB50EA080543D1F807A8
:104E30000FD0F0070DD1129884F8130184F814B143
:104E400000200BA923180A5C401C83F82A2106289D
:104E5000F8DBB8070ED5B0070CD49DF84C0084F8E9
:104E6000F1009DF8400084F8F20004F1F30006A977
:104E7000FBF795FA780719D5700717D40E98C4F880
:104E800018010F98C4F81C0104984002C4F82001CE
:104E90000020BAF1000F08D00599AAEB01004FF4E9
:104EA0007A1148430014404200B2E0603E438DF85E
:104EB000086084F8F06015B02846BDE8F08F30B582
:104EC00085B005464FF4FA6002900020039040F64A
:104ED000363008600C4669462846FEF769FF002810
:104EE0004DD19DF8001029B99DF8011011B99DF818
:104EF000021011B302AA0221284600F0ACFE0028DD
:104F00003DD19DF8001029B10299226801F24E218D
:104F1000114421609DF8021031B10299226801F21A
:104F2000B22102EB410107E09DF8011029B102997D
:104F3000226801F52571114421609DF8031061B1CB
:104F400003AA0321284600F086FE0399226801F592
:104F5000257111442160002811D19DF8041061B120
:104F600004AA0421284600F076FE0499226801F282
:104F7000262111442160002801D12168696105B012
:104F800030BD38B50C4640F2FF756A462821FEF761
:104F9000EBFF00280ED1BDF80010C1F30B02ADF8F5
:104FA0000020AA424FF0FA0101DDA2F5805212FB67
:104FB00001F1216038BD00002DE9FF4F8BB04FF0AB
:104FC0000009199D8DF800909A460646C8464F463E
:104FD0008DF804908DF808908DF80C90ADF8109035
:104FE000C1F3C304CDF81490BCB1052C15D0072C27
:104FF00013D00C2C11D00D2C0FD00E2C0DD00F2C4B
:105000000BD0002083466A4600213046FEF7CFFDD4
:105010009DF80010C9B110B11DE00120F2E705AB09
:1050200006AA30461899FFF73DFBA0B918990598D4
:1050300007AA488100213046FEF7C6FD079921B135
:10504000069A8A4201D94FF0010920B902AA022129
:105050003046FEF7ACFD9DF8081011B338BB08AA26
:1050600002213046FEF7B0FD80B90122FF21304613
:10507000FFF762FA50B904AAB6213046FEF774FF72
:1050800020B90022FF213046FFF756FABDF8101074
:105090004902C6F84811089A1AB1914201D94FF055
:1050A000010820B903AA03213046FEF780FD9DF8D0
:1050B0000C1091B190B9BAF1000F12D00D98010205
:1050C000B1FBFAF0824609AA03213046FEF77CFDC7
:1050D000099911B18A4500D2012720B1287858B327
:1050E0002DE00020EEE7BBF1000F01D0FF2013E020
:1050F000012C10D0022C0ED0032C0CD0062C0DD07D
:10510000092C0BD0082C04D00A2C02D0B8F1000FC7
:1051100006D0032000E00520287010E00420FBE703
:10512000042C00D00FB10220F6E7B9F1000F01D036
:105130000120F1E70020287018990020488101AA79
:1051400001213046FEF733FD002825D19DF80010DF
:1051500011B15FEA090100D0012186F82E10042C5C
:1051600015D09DF8041091B15FF0000186F82F1062
:105170009DF8081011B15FEA080100D0012186F8FE
:1051800030109DF80C1001B11FB1012102E0012186
:10519000ECE7002186F831100FB0BDE8F08F38B58C
:1051A0001446CA6822606A4600F007F8002803D156
:1051B0002168009A1144216038BDF8B506460020E8
:1051C0000D461060144669463046FEF742FE002840
:1051D00009D19DF80010002905D0A98A326A5143EF
:1051E0008031090A2160F8BD38B5144621B1012982
:1051F00005D06FF003010DE06A46502101E06A46D8
:105200007021FEF778FE010004D19DF80000FFF741
:1052100085FB2070084638BD024600204FF08041D3
:1052200000E089089142FCD808E04318934203D873
:10523000D21A01EB500000E0400889080029F4D19F
:1052400070470000F8B5074600200D460446061FCB
:1052500013E0CBB2641CFF2B05D0042B0CD8295DC6
:1052600000206A4639E0295D641C61B1012912D031
:10527000022918D003291ED03046295D002901D00B
:105280000028E6D0F8BD2A5D641C295D01EB0221EF
:10529000A7F8341116E0295D641C2A5D02EB012198
:1052A000A7F836110EE02A5D641C295D01EB02218E
:1052B000A7F8381106E0295D641C2A5D02EB012184
:1052C000A7F83C11641C295D0029C2D1F8BD00BFBC
:1052D00015F804C002F800C0401C641C9842F7DBBB
:1052E0003846FFF74FF9C8E7F8B5064600208DF8B5
:1052F000000004464FF4FA6569463046FEF7A1FC0B
:10530000002807D19DF80010012903D0641CAC428D
:1053100001D3C01FF8BD3046FEF7E6FDECE72DE9EE
:10532000F04385B01D0091460E4607464FF000043D
:1053300001D097F8304102220121FFF7FDF84FF02C
:10534000000838B90021384600F052F910B9B9F117
:10535000010F11D086F8008000280AD1002D08D056
:10536000224601213846FFF7E7F8002801D187F8E7
:10537000304105B0BDE8F083012004A9CDE9001655
:10538000CDE90280424601461346384600F086F9D0
:10539000E2E72DE9F0411E461746054690F83041F8
:1053A0000023324600F040F9002810D10023324695
:1053B00039462846FFF7B3FF002808D122460121CD
:1053C0002846FFF7B9F8002801D185F83041BDE83B
:1053D000F0812DE9F74F96B006462C200B90002067
:1053E0000E9011908DF84C008DF850001290B6F888
:1053F0003CA14FF0B4094FF0030B01464FF00608F3
:10540000074672180020491C82F824014145F8D350
:105410000122FF213046FFF78FF8040079D10022E6
:105420004F213046FFF788F80400F7D12C224E2197
:105430003046FFF781F80400F0D10022FF2130460A
:10544000FFF77AF80400E9D14A46B6213046FFF763
:1054500073F80400E2D1002280213046FFF76CF897
:105460000400DBD1002314AA13A93046FFF791FFF3
:105470000400D3D106F592730EAACDF800800693EE
:105480000E90CDE903B29A1D0A92CDE90190014632
:10549000304600F04EFB04003BD109A930460E9D7A
:1054A00000F010FD040034D1BDF82410514531D96D
:1054B00000213218401C82F824114045F9D300E045
:1054C0006D1C09EB050000F05DFC10B90B988542DE
:1054D000F6D301200EA9CDF800801590CDE903B1D7
:1054E000CDE9019501463046069B0A9A00F021FB62
:1054F000040079D109A930460E9D00F0E3FC0400B8
:1055000072D1BDF82410514505D901205F46129093
:1055100001E051E0159089B2514555D2159812908D
:105520005F4642460FA80699FAF7A2FFBDF824107D
:10553000B1EB0A0000D54042834611AB2A464146F2
:105540000A9800F055FB1198411C0FD0484400F018
:1055500019FC159988422ED1119D41462A467F1C7F
:10556000069800F030FB040003D03DE06FF03104FA
:105570003AE030466D1C069900F0F2FC040033D18D
:1055800009A9304600F09EFC04002DD1BDF824107E
:10559000B1EB0A0000D5404251450ED958450AD911
:1055A0000FA9304600F0DCFC044642460FA90698DD
:1055B000FAF75EFF7F1E3CB116E0834642460FA815
:1055C0000699FAF755FFB8E71798076018991298E7
:1055D0000870012086F815011798007886F81301E5
:1055E0001898007886F8140119B02046BDE8F08FAD
:1055F00010B541F0010204460021FEF79DFF00288E
:1056000011D12046FFF770FE00280CD10021204662
:10561000FEF74EF9002806D120460022BDE81040D2
:105620001146FEF789BF10BD2DE9F04385B04FF05C
:1056300000051E0091460F4680462C468DF81050FE
:1056400001D098F8305101221146FEF775FF38B9A4
:1056500040214046FFF7CCFF10B9B9F1010F10D03F
:105660003C7000280AD1002E08D02A46012140466D
:10567000FEF762FF002801D188F8305105B0BDE87F
:10568000F083012004A900970394CDE9011022467C
:1056900001461346404600F001F8E2E72DE9FF4FCE
:1056A00081B00020DDE90EA9DDE910650F468DF817
:1056B00000009B460122FF210198FEF73DFF0446B2
:1056C000002211460198FEF737FF40EA0408002245
:1056D000FF210198FEF730FF40EA08046FB12EB1B8
:1056E0005246CB210198FEF706FC0443A5B16A4659
:1056F000EE210198FEF7FFFB0DE02EB1CB21039ABE
:105700000198FEF719FF044335B15B468022EE2174
:105710000198FEF7F9FE04430122FF210198FEF7EC
:105720000BFF0443012200210198FEF705FF04430B
:105730000022FF210198FEF7FFFE9DF80010204394
:1057400001F0EF0289F8002005B0BDE8F08F2DE9E7
:10575000FF4107464FF4FA6002900020039044F6A0
:1057600020600E466FF0030581424FD3A6F6363413
:1057700069463846FEF71CFB002844D19DF800100E
:1057800029B99DF8011011B99DF8021001B302AAC0
:105790000221384600F05FFA002834D19DF800104D
:1057A00029B1029901F24E21A1422FD2641A9DF82B
:1057B000021021B1029901F2B221490005E09DF8E1
:1057C000011029B1029901F52571A1421ED2641A76
:1057D0009DF8031061B103AA0321384600F03BFA9B
:1057E000039901F52571A14210D2641A00280AD14B
:1057F0009DF80410002906D0A4F226220421384680
:1058000000F0B3FB7E6104B0BDE8F0812846FAE702
:105810002DE9F0479046894686B004460025B42617
:1058200006274FF02C0A0122FF21FEF785FEB0B9B2
:1058300000224F212046FEF77FFE80B92C224E2108
:105840002046FEF779FE50B90022FF212046FEF7E0
:1058500073FE20B93246B6212046FEF76DFE0020C9
:1058600001462218401C82F82411B842F9D3B8F13D
:10587000000F01D106E06D1C701900F083FA08B921
:105880005545F8D305A90097CDE90391CDE9016508
:1058900004F592739A1D4146204600F04AF900280B
:1058A00006D1012184F8151184F8139184F814812C
:1058B00006B0BDE8F0872DE9FF41074600208DF8CE
:1058C0000C0014460E46D0076FF0030571D116B1D7
:1058D000012E0DD0B2E00C2C6BD3122C69D80C2CFD
:1058E00013D00E2C13D0102C13D0122C13D0A5E0F3
:1058F000082CF1D30E2CF1D8082C17D00A2C44D048
:105900000C2C57D00E2C69D098E0182204E03022DD
:1059100002E0402200E0502257213846FEF70CFEFC
:10592000082256213846FEF707FE85E0102248215E
:105930003846FEF701FE082247213846FEF7FCFDF7
:105940008046022232213846FEF7F6FD40EA08087A
:105950000C2230213846FEF7EFFD40EA080801220C
:10596000FF213846FEF7E8FD40EA080830221146DC
:105970003846FEF7E1FD40EA08080022FF213846DC
:10598000FEF7DAFD40EA080056E0282248213846B2
:10599000FEF7D2FD082247213846FEF7CDFD8046AE
:1059A000032232213846FEF7C7FD40EA08080922E3
:1059B00027E04AE0382248213846FEF7BDFD08229C
:1059C00047213846FEF7B8FD80460322322138468B
:1059D000FEF7B2FD40EA0808082212E0482211460C
:1059E0003846FEF7A9FD082247213846FEF7A4FDF8
:1059F0008046032232213846FEF79EFD40EA080821
:105A0000072230213846FEF797FD40EA08080122B8
:105A1000FF213846FEF790FD40EA08082022302199
:105A20003846FEF789FD40EA08080022FF21384683
:105A3000FEF782FD40EA0800002807D12046FEF765
:105A4000A5FF80462EB1012E23D0284604B0BDE824
:105A5000F08101AA0321384600F0FDF8B0B902AA8E
:105A60000221384600F0F7F880B942465021384606
:105A7000FEF762FD50B903213846019A00F075FA2D
:105A800020B902213846029A00F06FFA87F8E84000
:105A900012E06A460421384600F0DDF850B942466B
:105AA00070213846FEF748FD20B904213846009A97
:105AB00000F05BFA87F8E0400028C7D138467969E2
:105AC000FEF7A3FB0028C1D10123002203A9384619
:105AD000FFF725FCBAE738B502F10A03009393B249
